:100000001EC100000C941E0F0C94F30E0C94C80E2D
:100010000C949D0E0C94720E0C94470E0C941C0EB6
:100020000C94F10D3DC100003BC1000039C100003E
:1000300037C100000C94490F33C1000031C10000EA
:100040002FC100002DC100002BC1000029C10000FC
:1000500027C1000025C1000023C100000C94A70D9A
:100060001FC100000C94710D0C94470D19C10000C4
:1000700017C1000015C1000013C1000011C100002C
:100080000FC100000DC100000BC1000009C100003C
:1000900007C1000005C1000003C1000001C100004C
:1000A000FFC00000FDC00000FBC00000F9C0000060
:1000B000F7C00000F5C00000F3C00000F1C0000070
:1000C000EFC00000EDC00000EBC00000E9C0000080
:1000D000E7C00000E5C00000E3C00000E1C0000090
:1000E000DFC00000000020002300260029002C00B3
:1000F0002F00320000010000030106010901000089
:100100000A0B02090C0D0E08070304010000000091
:1001100000000000000000000000000000000000DF
:10012000000000000000000000001211100000009C
:1001300000000000000000000000000000000000BF
:100140000000000000002200250028002B002E00E7
:100150003100340002010000050108010B0100001C
:100160002100240027002A002D0030003300010167
:100170000000040107010A01050505050705080837
:100180000808020202020A0A080804040404010121
:100190000101010101010303030303030303040736
:1001A00007070C0C0C0C0C0C0C0C020202020606CD
:1001B0000606060606060B0B0B0B0B0B0B0B0102C0
:1001C0001020200808102040102040800201020169
:1001D0000804020101020408102040808040201021
:1001E000080402018004020180402010080402017A
:1001F00008040201010204081020408001020408E2
:10020000102040805E01011F01030301008A0201EA
:100210000A010202010064001E47040B0906007C6B
:100220000101060103030100F401060E01020201AF
:1002300000C201170101020201012A10A5111124B7
:100240001FBECFEFD1E2DEBFCDBF00E00CBF25E087
:10025000ACECB2E001C01D92AA30B207E1F712E0A7
:10026000A0E0B2E0ECE1F9E200E00BBF02C00790D1
:100270000D92AC3CB107D9F711E0CEE1D1E000E03E
:1002800006C021970109802FFE010E945B12CD312B
:10029000D10780E00807A9F70E9487100C947D140D
:1002A000AFCE90E0FC01E254FE4F249188589E4F5F
:1002B000FC018491882399F090E0880F991FFC013C
:1002C000E25AFE4FA591B491FC01EC5BFE4F859183
:1002D00094918FB7F894EC91E22BEC938FBF089533
:1002E000AF92BF92CF92DF92EF92FF920F931F9344
:1002F000CF93DF936C017B018B01040F151FEB0182
:100300005E01AE18BF08C017D10759F06991D60138
:10031000ED91FC910190F081E02DC6011995892B9A
:1003200079F7C501DF91CF911F910F91FF90EF9069
:10033000DF90CF90BF90AF900895FC01538D448D16
:10034000252F30E0842F90E0821B930B541710F080
:10035000CF96089501970895FC01918D828D98178D
:1003600061F0A28DAE0FBF2FB11D5D968C91928D65
:100370009F5F9F73928F90E008958FEF9FEF089596
:10038000FC01918D828D981731F0828DE80FF11D5F
:10039000858D90E008958FEF9FEF0895FC01918D7A
:1003A000228D892F90E0805C9F4F821B91098F7373
:1003B000992708958BE793E0F1DF21E0892B09F479
:1003C00020E0822F0895FC01A48DA80FB92FB11D44
:1003D000A35ABF4F2C91848D90E001968F7399277B
:1003E000848FA689B7892C93A089B1898C91837059
:1003F00080648C93938D848D981306C00288F38952
:10040000E02D80818F7D80830895EF92FF920F937E
:100410001F93CF93DF93EC0181E0888F9B8D8C8DB0
:1004200098131AC0E889F989808185FF15C09FB7A4
:10043000F894EE89FF896083E889F9898081837067
:10044000806480839FBF81E090E0DF91CF911F9116
:100450000F91FF90EF900895F62E0B8D10E00F5F37
:100460001F4F0F731127E02E8C8D8E110BC00FB60E
:1004700007FCFACFE889F989808185FFF5CFCE01A5
:10048000A2DFF2CFEB8DEC0FFD2FF11DE35AFF4FF2
:10049000F0829FB7F8940B8FEA89FB898081806294
:1004A000D0CFCF93DF93EC01888D8823B1F0AA8958
:1004B000BB89E889F9898C9185FD03C0808186FD1F
:1004C0000CC00FB607FCF7CF8C9185FFF2CF80816F
:1004D00085FFEDCFCE0177DFEACFDF91CF91089591
:1004E0008150823108F05AC0E82FF0E08827E458A4
:1004F000FD4F8F4F0C945B129C02A0028E0294025F
:100500009802CE02A302A902AD02B302B702BB0257
:10051000C102C502CE02C902CF02D302809180007F
:100520008F77809380000895809180008F7DF9CF30
:1005300080918000877FF5CF84B58F7784BD089543
:1005400084B58F7DFBCF8091B0008F778093B00012
:1005500008958091B0008F7DF9CF809190008F77C2
:10056000809390000895809190008F7DF9CF8091C5
:100570009000877FF5CF8091A0008F778093A000B7
:1005800008958091A0008F7DF9CF8091A000877F92
:10059000F5CF809120018F7780932001089580917D
:1005A00020018F7DF9CF80912001877FF5CF1F93A8
:1005B000CF93DF93282F30E0F901E250FF4F849171
:1005C000F901E254FE4FD491F901E858FE4FC4916D
:1005D000CC23A1F0162F811183DFEC2FF0E0EE0F7A
:1005E000FF1FEC5BFE4FA591B4918FB7F894EC918F
:1005F000111108C0D095DE23DC938FBFDF91CF911E
:100600001F910895DE2BF8CF8230910538F0880FC6
:10061000991F880F991F05970197F1F70895CF93B8
:10062000DF93EC018091030560E0C1DFCE01DF9133
:10063000CF91EACF1F93CF93DF93182FD92F8091BB
:10064000300460E0C1E0811102C061E0C0E080914F
:100650002404ADDF80912804909129049C01129F0D
:10066000C001139F900D1124CFDF6C2F80912404C3
:100670009EDF80912804909129049C01D29FC001A3
:10068000D39F900D1124DF91CF911F91BDCF3FB724
:10069000F8948091770390917803A0917903B091B9
:1006A0007A0326B5A89B05C02F3F19F00196A11D1E
:1006B000B11D3FBFBA2FA92F982F8827BC01CD01AC
:1006C000620F711D811D911D42E0660F771F881F0B
:1006D000991F4A95D1F708958F929F92AF92BF923A
:1006E000CF92DF92EF92FF926C01D1DF4B015C0160
:1006F0000D2C000CEE08FF08CADF681979098A0979
:100700009B096C157D058E059F0598F48091030566
:1007100061E04DDF809104059091050575DF8091C2
:10072000030560E044DF80910405909105056CDFCE
:10073000E3CFFF90EF90DF90CF90BF90AF909F906E
:100740008F9008950895FC01A081B1818C918D3026
:1007500021F03CF489508230A8F51196B183A08332
:10076000F3CF8032D1F38F3209F0089511968C9136
:1007700011978A3219F08F32C1F008951196B18322
:10078000A083A081B181CD010196918380831196D0
:100790008C9111978823B1F08A3299F712968C9137
:1007A00012978F3271F71396D9CFA081B181CD0105
:1007B00001969183808311968C91882319F08A3059
:1007C000A1F7C2CF08951F93CF93DF93EC01162FAB
:1007D000BADFE881F9818081181308C03196F98366
:1007E000E88381E0DF91CF911F91089580E0FACFF7
:1007F000EF92FF920F931F93CF93DF938C01DC0155
:100800001496CD91DC91EA80FB808E819F81E80E69
:10081000F91EC801029697DFD8011296ED91FC915E
:100820008081873219F0823209F042C03196D801B6
:100830001396FC93EE931297D8011296ED91FC91CA
:1008400013979081992309F462C09F012F5F3F4F56
:1008500013963C932E931297891709F458C09C3530
:1008600099F49181A4E3B2E02C91222321F0921318
:100870001DC011969C91992309F449C03296D80164
:100880001396FC93EE9312974E815F819A012F5F2E
:100890003F4F6C817D816217730770F2EA81FB81A3
:1008A000E40FF51F3F832E839083C6CF1296DCCFD3
:1008B00080330CF444C08A3324F08F3504F18B3735
:1008C00004F5F801228133812F5F3F4F3383228368
:1008D0004E815F819A012F5F3F4F6C817D8162174E
:1008E000730738F0EA81FB81E40FF51F3F832E8305
:1008F0008083D8011296ED91FC918081D9CF81340B
:10090000F4F08B35F4F293ED980F9230D0F22E8103
:100910003F81C90101964C815D814817590790F0CC
:10092000EA81FB81E20FF31F9F838E831082C70150
:10093000DF91CF911F910F91FF90EF9008958B322F
:1009400011F7BFCFF12CE12CF2CFFC01868197810A
:10095000680F791F248135812617370738F02281E7
:100960003381820F931F77836683089590E080E040
:1009700008958091DC0281110BC01092D90210926F
:10098000D8021092DB021092DA0281E08093DC023E
:1009900088ED92E008958091D00281110BC01092F1
:1009A000CD021092CC021092CF021092CE0281E0C2
:1009B0008093D0028CEC92E00895DB01109749F00F
:1009C000ED91FC9111970190F081E02DBC01CD01DA
:1009D000199490E080E008952F923F924F925F9299
:1009E0006F927F928F929F92AF92BF92CF92DF923F
:1009F000EF92FF920F931F93CF93DF93CDB7DEB7A4
:100A000061970FB6F894DEBF0FBECDBF40DE6B011D
:100A10007C0180916E0390916F033601681A790A08
:100A20002DEC621620E1720608F4D1C08091E80234
:100A30009091E902D301A81BB90BCD01B7FF03C008
:100A4000919581959109883C91050CF0BCC08091ED
:100A5000E6029091E70201969093E7028093E60206
:100A6000029709F0B0C004E012E04090E402509018
:100A7000E50249E050E0B801CE0101960E94A911BB
:100A80008B816C81681708F4682F70E08091E80210
:100A90009091E9020E9425129B0140911002509111
:100AA0001102649FC001659F900D749F900D1124E9
:100AB00064E670E00E942512898541E050E08823B9
:100AC00011F042E050E08D81829FF001839FF00D94
:100AD0001124FB87EA878E81829FD001839FB00D0E
:100AE0001124BD87AC878F81829FF001839FF00D19
:100AF0001124FF87EE878885829F1001839F300C29
:100B00001124FA01EE0FFF1FE851FD4F812C912CAB
:100B10005401920121503109398B288B8889998998
:100B20004817590708F03FC0880C991CAA1CBB1C29
:100B3000808191819C01AA85BB852A1B3B0B37FFD5
:100B400003C03195219531092617370770F42281AA
:100B50003381AC85BD852A1B3B0B37FF03C0319524
:100B60002195310926173707D0F02E853F85821B46
:100B7000930B97FF03C0919581959109861797076D
:100B8000B8F4828193818219930997FF03C09195EC
:100B9000819591098617970758F4689480F84E5FFD
:100BA0005F4F3496BBCF38E04316510408F051C074
:100BB000075F1F4F82E00A33180709F056CF1092E3
:100BC000E7021092E6021092E5021092E402809190
:100BD000E4029091E5028334910540F01092E50221
:100BE0001092E4021092E7021092E6028091E40271
:100BF0009091E5029C012F5F3F4F3093E5022093D7
:100C0000E402880F991FFC01E851FD4F7182608258
:100C1000C0926E03D0926F03E0927003F092710362
:100C200061960FB6F894DEBF0FBECDBFDF91CF91B6
:100C30001F910F91FF90EF90DF90CF90BF90AF90FA
:100C40009F908F907F906F905F904F903F902F90EC
:100C500008958092180490921904A0921A04B092F8
:100C60001B04ADCFFC0101900020E9F73197AF01E3
:100C7000481B590BBC018BE793E032CB0F931F93BA
:100C8000CF93DF938B01FC01C281D381209759F070
:100C90006A817B810115110519F06115710549F40F
:100CA0006017710759F4CE01DF91CF911F910F9119
:100CB0000895C8010E946D14892BA9F30990D88169
:100CC000C02DE4CFDBCF08956FE372E0FBDF009728
:100CD00049F0FC01248135812730310519F48681E2
:100CE0009781089546CEEF92FF920F931F93CF9373
:100CF000DF937B01FC016281738180819181E2DF5E
:100D0000EC01892B29F10C811D810130110559F469
:100D10006E817F816115710531F08AE492E00E9455
:100D20006D14892BA9F0015011090230110580F4CE
:100D30006E817F81F70180819181009719F06115A3
:100D4000710549F421E08617970751F020E008C0AB
:100D500070E060E0EFCF0E946D1421E0892BB1F7C5
:100D6000822FDF91CF911F910F91FF90EF90089507
:100D7000CF93DF936FE472E0A5DFFC01892B09F4C8
:100D800064C0848195818330910588F5019708F4CA
:100D90005CC00680F781E02D309709F456C0808151
:100DA000843709F456C08B3209F442C08D3209F001
:100DB00040C03196D1E060E070E0CB01C19120ED00
:100DC0002C0F2A30C0F5AAE0B0E09B01AC010E94D4
:100DD000DB112C2FCC0F330B20533109032E000CC9
:100DE000440B550B620F731F841F951FE7CF85308F
:100DF000910548F0059771F066817781808591852E
:100E00000E94F91104C06681778180859185DF9108
:100E1000CF91089586819781A085B1859C01AD0110
:100E200066277727CB01621B730B840B950BEFCFE3
:100E30003196D0E0C0CFDD2351F390958095709529
:100E400061957F4F8F4F9F4FE2CF60E070E0CB0105
:100E5000DECF61E070E080E090E0D9CF33DFFC01CD
:100E6000892B09F449C0848195818330910540F52F
:100E7000019708F441C00680F781E02D3097E1F139
:100E8000808161E070E0843749F18B3279F18D32F5
:100E900071F5319691E070E060E04AE0819120EDDB
:100EA000280F2A3030F5469F9001479F300D1124BE
:100EB000682F880F770B60537109620F731FEECF95
:100EC0008530910548F0059759F0668177818085D6
:100ED00091850E94F41102C066817781CB0108954B
:100EE00066817781719561957109F8CF319690E0AF
:100EF000D2CF9111F7CFF2CF70E060E0EFCFAF9299
:100F0000BF92CF92DF92EF92FF920F931F93CF93F6
:100F1000DF9300D000D0CDB7DEB77C01DC011696A0
:100F20008C91811103C025DD8C017EC08150F701B9
:100F30008683C080D180B60184E090E03EDD8C01E4
:100F4000009709F483C0DC011196DC92CE921396CF
:100F50001C921E9212976701B2E0CB0ED11C6BE778
:100F6000C60131DC8823F9F26DE7C6012CDC811162
:100F700057C0C7013DDC5C01892BA9F26AE3C601B9
:100F800022DC882381F21A821982BE016F5F7F4FB3
:100F9000C7015FD0882309F4C6CFB501C8016EDE52
:100FA000009751F5F801608171818AE090E005DDDC
:100FB000009741F0DC0111961C921E9215961C922E
:100FC0001E921497D8011296ED91FC91309729F456
:100FD000F8019383828308C0F901208131812115B2
:100FE0003105D1F791838083009709F49CCFDC0110
:100FF0001396BC92AE92129726E0FE013196DC0168
:10100000149601900D922A95E1F76DE7C601DBDB9E
:10101000811106C06CE2C601D6DB8111AACF83CF55
:10102000F70186818F5F8683C80126960FB6F894F4
:10103000DEBF0FBECDBFDF91CF911F910F91FF900B
:10104000EF90DF90CF90BF90AF90089592DC8C012D
:1010500082CF8F929F92AF92BF92CF92DF92EF9208
:10106000FF920F931F93CF93DF9300D000D0CDB7A3
:10107000DEB77C016B015C0182E0A80EB11CC501EA
:1010800062DBD7011296ED91FC91139780818B352D
:10109000D9F08B3709F4A9C011E0873219F08232F8
:1010A00009F010E0C701A4DB009709F47DC021E03E
:1010B00030E0112309F4A2C022E030E0F6013183D0
:1010C00020839383828371C0F7018681811103C0DD
:1010D00062DC8C0164C0815016968C9316978D90BB
:1010E0009C90B40184E090E068DC8C01009709F4E6
:1010F0008EC0FC0191828082138212826BE5C50151
:1011000062DB882329F36DE5C5015DDB811140C0F9
:101110001A821982BE016F5F7F4FC7019ADF882351
:10112000B9F2D8016D917C9188E090E046DCDC0159
:10113000892B39F011961C921E9213961C921E92C6
:101140001297F801228133812115310521F4B383EF
:10115000A28308C09C01F901808191810097D1F799
:10116000B183A083109709F4B3CF86E0FE013196D6
:10117000129601900D928A95E1F76DE5C50123DB8A
:10118000811106C06CE2C5011EDB8111C1CFA0CF69
:10119000D70116968C9116978F5F16968C93F8014F
:1011A00080819181892BA9F410E0812F26960FB6BA
:1011B000F894DEBF0FBECDBFDF91CF911F910F918D
:1011C000FF90EF90DF90CF90BF90AF909F908F9067
:1011D000089586E090E0D60111969C938E93139625
:1011E0001C930E93129711E0E0CFC70188DEFC013B
:1011F00020813181232BC1F227E030E0D601119606
:101200003C932E9313969C938E931297ECCFC3DB53
:101210008C0174CFFC0180819181009711F00C94B6
:10122000FF1208950F931F93CF93DF93EC018881F2
:101230009981009759F02A813B812617370730F0B2
:1012400081E0DF91CF911F910F9108958B016F5F26
:101250007F4F0E948813009759F0998388831B83DE
:101260000A832C813D81232B59F7FC011082E8CFA2
:1012700080E0E7CFEF92FF920F931F93CF93DF931E
:10128000EC017B018A01BA01CDDF2881398181110E
:1012900014C02115310519F0C9010E94FF121982ED
:1012A00018821D821C821B821A82CE01DF91CF918F
:1012B0001F910F91FF90EF9008951D830C83B7014C
:1012C000C9010E947614F1CFFC01118210821382B1
:1012D000128215821482FB0101900020E9F73197F8
:1012E000AF01461B570BC6CF2F923F924F925F9292
:1012F0006F927F928F929F92AF92BF92CF92DF9226
:10130000EF92FF920F931F93CF93DF93CDB7DEB78A
:10131000C65AD1400FB6F894DEBF0FBECDBF9E01B6
:10132000275F3F4F3C832B8320E931E03E832D83B1
:1013300018861F822CE132E03A832983FC018081E8
:101340009181009711F48EE392E09E012F5F3F4F51
:10135000C756DE4F39832883C959D140C556DE4F61
:1013600099838883CB59D140C356DE4F3983288374
:10137000CD59D1408AE0C156DE4F8883CF59D14044
:10138000CE0187569E4FBBDD8C0164E572E0CE0135
:1013900087569E4F99DFC056DE4F19830883C05A87
:1013A000D140BDE5CB2EB2E0DB2ECE55DE4FD9824B
:1013B000C882C25AD140BE0167567E4FCE018056C8
:1013C0009E4F91DCF82ECE0187569E4F23DFFF20E3
:1013D00009F48AC1C80178DC6BE672E03FDDE82ED3
:1013E000D92EC80171DC64E772E038DD1C01C80148
:1013F0006BDC6FE472E066DCFC01892B09F489C0C8
:10140000848195818330910598F5019708F481C016
:101410000680F781E02D309709F47BC08081412C54
:10142000512C320143948437A9F18B3209F46BC0FB
:101430008D3209F069C03196412C512C3201119145
:1014400080ED810F8A3008F061C0AAE0B0E0A3010E
:101450009201B1D7212F110F330B205331092901EC
:10146000330F66087708460E571E681E791EE7CFB1
:101470008530910558F0059709F438C06681778169
:1014800080859185B1D72B013C0104C046805780EF
:1014900060847184E0922404D09225048E2D0E94F1
:1014A00051018091240490912504019609F4C4C04F
:1014B00000912204109123040F3F100709F43DC04E
:1014C0000830A8F598013327EFEFE00FE73008F078
:1014D00069C0F0E08827E159F54F8F4FECC7D40A77
:1014E0008D0ACC0ACE0AD00AD60AD80A468057807E
:1014F000608471847094609450944094411C511C99
:10150000611C711CC7CF3196F12C96CFF110F2CF30
:10151000C1CF412C512C3201BDCFE898220F331F8F
:10152000F901E050FE4F82EA93E0918380838FEFD0
:101530009FEF9093230480932204D12CC12C812C03
:10154000912C540183948091260490912704C8160D
:10155000D9060CF03DC0710181E0E81AF108F7FCF2
:101560002EC0D501C4010E2C04C0880F991FAA1FDC
:10157000BB1F0A94D2F784219521A621B721892B7C
:101580008A2B8B2BB9F080912E0490912F0452D886
:10159000E1E0EE1AF108E3CFE998C0CFEA98BECFB8
:1015A000EB98BCCFEC98BACFED98B8CFEE98B6CF09
:1015B000EF98B4CF80912C0490912D04E8CF8091C6
:1015C0002A0490912B0436D8FFEFCF1ADF0ABBCF45
:1015D0000F3F100789F11093230400932204109207
:1015E00018041092190410921A0410921B04083067
:1015F00018F5F801FF27EE0FFF1FE050FE4F8CEEAD
:1016000094E0918380830150073008F04DC0E02FB3
:10161000F0E08827E25FF44F8F4F4DC75C0B150B4E
:101620003C0B440B4C0B640B6C0B809169008C7F62
:10163000816080936900E89A8FEF9FEF9093250473
:1016400080932404CA55DE4F0FB6F894DEBF0FBE58
:10165000CDBFDF91CF911F910F91FF90EF90DF9061
:10166000CF90BF90AF909F908F907F906F905F9042
:101670004F903F902F90089580916900837F846000
:1016800080936900E99AD8CF809169008F7C80614E
:1016900080936900EA9AD0CF809169008F7380644B
:1016A00080936900EB9AC8CF80916A008C7F81603B
:1016B00080936A00EC9AC0CF80916A00837F846037
:1016C00080936A00ED9AB8CF80916A008F7C806128
:1016D00080936A00EE9AB0CF80916A008F73806425
:1016E00080936A00EF9AA8CF6FE772E0CE01875629
:1016F0009E4FEADDC056DE4F19830883C05AD140A1
:10170000CE55DE4FD982C882C25AD140BE0167563B
:101710007E4FCE0180569E4FE6DAF82ECE018756D8
:101720009E4F78DDFF2009F4A7C0C801CDDA6BE633
:1017300072E094DB382EC801C7DA1ADBCC55DE4FD5
:101740006883C45AD140CB55DE4F7883C55AD14007
:10175000282ECA55DE4F9883C65AD14045E0E42E64
:10176000F12C0BE613E053E7852E55E0952E6BED3B
:10177000A62E65E1B62E61E0832D0E94D702C80136
:101780000197F1F760E0832D0E94D70287EC99E280
:101790000197F1F7CC55DE4F4880C45AD140CB5564
:1017A000DE4F5880C55AD140622CCA55DE4F788032
:1017B000C65AD14030E2C32ED12C61E0832D77FE92
:1017C00042C00E94D702C8010197F1F760E0832D63
:1017D0000E94D702C5010197F1F761E0832D0E94B5
:1017E000D702C8010197F1F760E0832D0E94D7026C
:1017F000C4010197F1F7440C551C661C771C81E06D
:10180000C81AD108D1F661E0832D0E94D702C80121
:101810000197F1F760E0832D0E94D7028BE995EAEA
:101820000197F1F761E0832D0E94D702C80101976B
:10183000F1F760E0832D0E94D702E1E0EE1AF10893
:1018400009F099CFFFCE0E94D702C8010197F1F7A6
:1018500060E0832D0E94D702C4010197F1F761E097
:10186000832D0E94D702C8010197F1F760E0832D14
:101870000E94D702C501BDCF6FE872E0CE01875646
:101880009E4F22DDC056DE4F19830883C05AD140D7
:10189000CE55DE4FD982C882C25AD140BE016756AA
:1018A0007E4FCE0180569E4F1EDAF82ECE0187560F
:1018B0009E4FB0DCFF2009F4C5CEC80105DA6BE607
:1018C00072E0CCDAD82EC801FFD964E772E0C6DA3C
:1018D0007C01C801F9D94CDA4B015C01D0920305B7
:1018E0008DE090E0909305058093040580910305B9
:1018F0000E9451018091030560E00E94D70288E2B6
:1019000093E20E946C0384E991E10E940F03C701F6
:101910000197C12CD12C7601C39404C0CC0CDD1CE2
:10192000EE1CFF1C8A95D2F7C114D104E104F10426
:10193000F1F0D501C4018C219D21AE21BF21892B5D
:101940008A2B8B2B69F080E392E00E946C038AE97A
:1019500096E00E940F03F694E794D794C794E4CFDF
:1019600080E392E00E946C0380E392E0F2CF80E398
:1019700092E00E946C0390E080E00E940F0362CE30
:101980000F931F93CF93DF9300D000D0CDB7DEB776
:101990008BE793E00E94AC01853261F51A821982CF
:1019A0001C821B821E821D8260911C0470911D048A
:1019B0006115710539F04091200450912104CE0148
:1019C000019658DCCE0101968FDCCE01019622DC17
:1019D00050E040E06EE372E08CE194E04BDC269650
:1019E0000FB6F894DEBF0FBECDBFDF91CF911F9130
:1019F0000F91089589831A82009120041091210487
:101A00000F5F1F4FB8018CE194E00CDC882339F3A1
:101A100020911C0430911D04809120049091210498
:101A2000BE016F5F7F4F820F931F60D71093210419
:101A300000932004D4CF0E94DA018111A1DF80E05D
:101A400090E0892B49F080E090E0892B29F00E94FA
:101A5000000081110E94000080E090E0892B49F095
:101A600080E090E0892B29F00E94000081110E9403
:101A7000000080E090E0892B49F080E090E0892B25
:101A800029F00E94000081110C94000008951F921B
:101A90000F920FB60F9211240BB60F922F933F9314
:101AA0004F935F936F937F938F939F93AF93BF9366
:101AB000EF93FF938BE793E00E94E301FF91EF9197
:101AC000BF91AF919F918F917F916F915F914F9156
:101AD0003F912F910F900BBE0F900FBE0F901F9054
:101AE00018951F920F920FB60F9211240BB60F92FA
:101AF0002F938F939F93EF93FF93E0918B03F0913C
:101B00008C038081E0919103F091920382FD1DC0CE
:101B10009081809194038F5F8F732091950382173A
:101B200041F0E0919403F0E0E558FC4F958F8093ED
:101B30009403FF91EF919F918F912F910F900BBE86
:101B40000F900FBE0F901F9018958081F2CF1F92BB
:101B50000F920FB60F9211242F933F938F939F9361
:101B6000AF93BF938091730390917403A091750319
:101B7000B09176033091720323E0230F2D3758F58F
:101B80000196A11DB11D209372038093730390935E
:101B90007403A0937503B0937603809177039091BB
:101BA0007803A0917903B0917A030196A11DB11D2C
:101BB0008093770390937803A0937903B0937A038B
:101BC000BF91AF919F918F913F912F910F900FBE39
:101BD0000F901F90189526E8230F0296A11DB11DA6
:101BE000D2CF1F920F920FB60F9211240BB60F9205
:101BF0002F933F934F935F936F937F938F939F9315
:101C0000AF93BF93EF93FF93E0910E02F0910F0219
:101C10001995FF91EF91BF91AF919F918F917F9116
:101C20006F915F914F913F912F910F900BBE0F904D
:101C30000FBE0F901F9018951F920F920FB60F9224
:101C400011240BB60F922F933F934F935F936F9393
:101C50007F938F939F93AF93BF93EF93FF93E09105
:101C60000C02F0910D021995FF91EF91BF91AF9188
:101C70009F918F917F916F915F914F913F912F91A4
:101C80000F900BBE0F900FBE0F901F9018951F92D4
:101C90000F920FB60F9211240BB60F922F933F9312
:101CA0004F935F936F937F938F939F93AF93BF9364
:101CB000EF93FF93E0910202F09103021995FF91D7
:101CC000EF91BF91AF919F918F917F916F915F91B4
:101CD0004F913F912F910F900BBE0F900FBE0F9021
:101CE0001F9018951F920F920FB60F9211240BB6EA
:101CF0000F922F933F934F935F936F937F938F93A5
:101D00009F93AF93BF93EF93FF93E0910002F09105
:101D100001021995FF91EF91BF91AF919F918F9122
:101D20007F916F915F914F913F912F910F900BBEDB
:101D30000F900FBE0F901F9018951F920F920FB625
:101D40000F9211240BB60F922F933F934F935F93F3
:101D50006F937F938F939F93AF93BF93EF93FF9373
:101D6000E0910A02F0910B021995FF91EF91BF915A
:101D7000AF919F918F917F916F915F914F913F9123
:101D80002F910F900BBE0F900FBE0F901F901895C4
:101D90001F920F920FB60F9211240BB60F922F9332
:101DA0003F934F935F936F937F938F939F93AF93E3
:101DB000BF93EF93FF93E0910802F0910902199508
:101DC000FF91EF91BF91AF919F918F917F916F9113
:101DD0005F914F913F912F910F900BBE0F900FBECF
:101DE0000F901F9018951F920F920FB60F9211240B
:101DF0000BB60F922F933F934F935F936F937F9305
:101E00008F939F93AF93BF93EF93FF93E09106025D
:101E1000F09107021995FF91EF91BF91AF919F91BA
:101E20008F917F916F915F914F913F912F910F9083
:101E30000BBE0F900FBE0F901F9018951F920F9220
:101E40000FB60F9211240BB60F922F933F934F931F
:101E50005F936F937F938F939F93AF93BF93EF9312
:101E6000FF93E0910402F09105021995FF91EF9123
:101E7000BF91AF919F918F917F916F915F914F91A2
:101E80003F912F910F900BBE0F900FBE0F901F90A0
:101E900018951F920F920FB60F9211240BB60F9246
:101EA0002F933F934F935F936F937F938F939F9362
:101EB000AF93BF93CF93DF93EF93FF9320913204BF
:101EC00030E0F901E250FF4F8491F901E254FE4FF6
:101ED000D491F901E858FE4FC491CC2379F08111D7
:101EE0000E947002EC2FF0E0EE0FFF1FEC51FF4F4D
:101EF000A591B491EC91ED2381E009F480E020916B
:101F00003604309137042F5F3F4F309337042093CE
:101F1000360490913504953618F096E0909331048C
:101F200090913104943009F466C0B8F49230F1F025
:101F3000933009F444C090913404992309F46BC0A0
:101F400081117EC080913304882309F463C080919D
:101F5000330461E00E94D7025EC0953009F457C097
:101F6000963049F791E0909302054FC08111E3CF7D
:101F700020913604309137042436310528F410922C
:101F8000370410923604D7CF109202051092350410
:101F9000E091350491E09E0F90933504F0E020919C
:101FA000360430913704EE0FFF1FEF5CFB4F308794
:101FB0002783109237041092360493E019C08130C1
:101FC00009F0B9CFE091350491E09E0F909335046C
:101FD000F0E02091360430913704EE0FFF1FEF5CE4
:101FE000FB4F30872783109237041092360494E019
:101FF00090933104A0CF882359F220913604309178
:1020000037042536310508F496CF95E0F1CF8111DC
:1020100092CFB5CF2F9AFF91EF91DF91CF91BF91E2
:10202000AF919F918F917F916F915F914F913F9170
:102030002F910F900BBE0F900FBE0F901F90189511
:1020400080913304882321F08091330460E082CFB3
:102050002F98E1CF0F931F93CF93DF93EBE7F3E03C
:102060001382128288EE93E0A0E0B0E0848395832F
:10207000A683B78382E292E09183808385EC90E02F
:102080009587848784EC90E09787868780EC90E042
:10209000918B808B81EC90E0938B828B82EC90E033
:1020A000958B848B86EC90E0978B868B118E128EAD
:1020B000138E148E83E080930305C2E2D4E00FEF09
:1020C0001FEF1B830A838AE090E09D838C8349E0A5
:1020D00050E064E072E088E294E03BD11983088329
:1020E0008CE390E0909311028093100210921804F8
:1020F0001092190410921A0410921B046EE372E0FD
:102100008CE194E0DF91CF911F910F91DDC8CF93C7
:10211000DF93CDB7DEB7A1970FB6F894DEBF0FBE41
:10212000CDBF789484B5826084BD84B5816084BD60
:1021300085B5826085BD85B5816085BD80916E0065
:10214000816080936E001092810080918100826096
:1021500080938100809181008160809381008091D3
:1021600080008160809380008091B10084608093C2
:10217000B1008091B00081608093B00080919100A7
:1021800082608093910080919100816080939100A2
:10219000809190008160809390008091A100826086
:1021A0008093A1008091A10081608093A100809123
:1021B000A00081608093A0008091210182608093C3
:1021C0002101809121018160809321018091200172
:1021D00081608093200180917A00846080937A00EE
:1021E00080917A00826080937A0080917A00816089
:1021F00080937A0080917A00806880937A001092B0
:10220000C100E0918B03F0918C0382E08083E09128
:102210008703F09188031082E0918903F0918A038B
:102220008FEC808310929303E0918F03F0919003E1
:1022300086E08083E0918D03F0918E038081806140
:102240008083E0918D03F0918E038081886080838C
:10225000E0918D03F0918E03808180688083E0910E
:102260008D03F0918E0380818F7D80839AE0492ECB
:10227000512C612C712C8091180490911904A0911B
:102280001A04B0911B040097A105B10591F1892BA7
:1022900091F587E992E00E9432060E9447034B01C4
:1022A0005C0188ECC82ED12CE12CF12C0E94470354
:1022B000681979098A099B09683E7340810591056F
:1022C000A8F3F1E0CF1AD108E108F10828EE820E58
:1022D00023E0921EA11CB11CC114D104E104F1043D
:1022E00029F7109218041092190410921A041092EF
:1022F0001B04A1DBC0CF88EA92E00E943206209145
:1023000018043091190440911A0450911B0419A229
:102310008E010F5D1F4FCA01B901A3019201A9D01F
:10232000605DF80162938F0121153105410551056A
:1023300091F7309719F0CF010E94320686EC92E0B7
:102340000E94320688EC92E0A6CF8CE194E00C94D7
:102350000A09FB01DC0102C005900D92415050407A
:10236000D8F7089557FD9058440F551F59F05F3F17
:1023700071F04795880F97FB991F61F09F3F79F0A7
:1023800087950895121613061406551FF2CF469529
:10239000F1DF08C0161617061806991FF1CF8695AB
:1023A0007105610508940895E894BB27662777278F
:1023B000CB0197F9089509D0A59F900DB49F900D7A
:1023C000A49F800D911D11240895A29FB001B39F79
:1023D000C001A39F700D811D1124911DB29F700D2E
:1023E000811D1124911D089504D06894B111DDCF91
:1023F0000895C0DF88F09F5790F0B92F9927B75103
:10240000A0F0D1F0660F771F881F991F1AF0BA95B8
:10241000C9F712C0B13081F0C7DFB1E00895C4CF71
:10242000672F782F8827B85F39F0B93FCCF38695AE
:1024300077956795B395D9F73EF49095809570950B
:1024400061957F4F8F4F9F4F0895AA1BBB1B51E192
:1024500007C0AA1FBB1FA617B70710F0A61BB70B14
:10246000881F991F5A95A9F780959095BC01CD01B9
:102470000895A1E21A2EAA1BBB1BFD010DC0AA1FC5
:10248000BB1FEE1FFF1FA217B307E407F50720F0DD
:10249000A21BB30BE40BF50B661F771F881F991F58
:1024A0001A9469F760957095809590959B01AC01A1
:1024B000BD01CF010895EE0FFF1F881F8BBF07904E
:1024C000F691E02D19940F931F93CF93DF938230F1
:1024D000910510F482E090E0E0910805F091090583
:1024E00030E020E0B0E0A0E0309799F4211531050C
:1024F00009F44AC0281B390B24303105D8F58A81EC
:102500009B816115710589F1FB0193838283FE0133
:1025100011C0408151810281138148175907E0F0B1
:102520004817590799F4109761F012960C93129777
:1025300013961C933296CF01DF91CF911F910F918B
:1025400008950093080510930905F4CF211531056E
:1025500051F04217530738F0A901DB019A01BD0180
:10256000DF01F801C1CFEF01F9CF90930905809306
:102570000805CDCFFE01E20FF31F81939193225006
:10258000310939832883D7CF20910605309107057B
:10259000232B41F42091140230911502309307054A
:1025A0002093060520911202309113022115310566
:1025B00041F42DB73EB74091160250911702241BEB
:1025C000350BE0910605F0910705E217F307A0F43B
:1025D0002E1B3F0B2817390778F0AC014E5F5F4F79
:1025E0002417350748F04E0F5F1F5093070540939F
:1025F0000605819391939FCFF0E0E0E09CCFCF93CD
:10260000DF930097E9F0FC01329713821282A091C8
:102610000805B0910905ED0130E020E01097A1F424
:1026200020813181820F931F20910605309107058B
:102630002817390709F061C0F0930705E0930605F4
:10264000DF91CF910895EA01CE17DF07E8F54A81BF
:102650005B819E0141155105B1F7E901FB83EA83D6
:1026600049915991C40FD51FEC17FD0761F4808182
:1026700091810296840F951FE90199838883828155
:1026800093819B838A83F0E0E0E012968D919C9188
:1026900013970097B9F52D913C911197CD010296B2
:1026A000820F931F209106053091070528173907DF
:1026B00039F6309751F51092090510920805B0933C
:1026C0000705A0930605BCCFD383C2834081518107
:1026D000840F951FC817D90761F44E5F5F4F88813B
:1026E0009981480F591F518340838A819B8193832D
:1026F00082832115310509F0B0CFF0930905E093ED
:1027000008059ECFFD01DC01C0CF13821282D7CF16
:102710004F925F926F927F928F929F92AF92BF92F1
:10272000CF92DF92EF92FF920F931F93CF93DF939D
:102730008C01009791F4CB01DF91CF911F910F9104
:10274000FF90EF90DF90CF90BF90AF909F908F90D1
:102750007F906F905F904F90B6CEFC01E60FF71F11
:102760009C0122503109E217F30708F4AAC0D901ED
:10277000CD91DC911197C617D70718F1C530D10557
:1027800070F0CE0104978617970748F0C61BD70B49
:102790002297C193D1936D937C93CF0130DFC80111
:1027A000DF91CF911F910F91FF90EF90DF90CF902D
:1027B000BF90AF909F908F907F906F905F904F9061
:1027C00008955B01AC1ABD0A4C018C0E9D1EA091B0
:1027D0000805B0910905512C412CF12CE12C1097E2
:1027E00031F580910605909107058815990509F046
:1027F0005CC04616570608F058C0809112029091AE
:102800001302009741F48DB79EB740911602509184
:102810001702841B950BE817F90708F052C0F093D4
:102820000705E0930605F90171836083B8CF8D91A8
:102830009C91119712966C90129713967C90139717
:10284000A815B90559F56C0142E0C40ED11CCA1493
:10285000DB0420F1AC014A195B09DA0112961597E5
:1028600080F06282738251834083D9016D937C939F
:10287000E114F10471F0D7011396FC93EE931297D3
:102880008ECF22968C0F9D1FF90191838083F301D7
:10289000EFCFF0930905E093080581CF481659065C
:1028A00008F42C017D01D3019ACFCB010CDE7C0111
:1028B000009739F0AE01B80107D0C801A0DE87014A
:1028C0006ECF10E000E06BCFFB01DC0102C0019095
:1028D0000D9241505040D8F70895FB01DC018D91D5
:1028E000019080190110D9F3990B0895FB01DC01C7
:1028F00001900D920020E1F7089511E0CEE1D1E0C2
:1029000000E005C0802FFE01D6DD2196011DCF31EC
:0C291000D10780E00807B1F7F894FFCF72
:10291C00A203A203A203A203A203A203A203A20383
:10292C003C0000000A05800000000000A504000027
:10293C000000050270019D015102CE01AC01C001E5
:10294C0022225C5C6208660C6E0A720D74090070BF
:10295C006172616D6574657273006E756C6C006389
:10296C006F646500656D69745F3433330066756E32
:10297C006374696F6E5F6E616D6500646174615F35
:10298C0070696E006269745F6C656E67746800656F
:10299C006D69745F3433335F636861636F6E0065B8
:1029AC006D69745F697200556E6B6E6F776E206522
:1029BC006E636F64696E67007B22616374696F6E0E
:1029CC00223A227265636569766564222C227661EF
:0C29DC006C7565223A007D000D0A0000B9
:00000001FF
