:100000001EC100000C94AA160C947F160C94541672
:100010000C9429160C94FE150C94D3150C94A81569
:100020000C947D153DC100003BC1000039C10000AA
:1000300037C100000C948D1733C1000031C100009E
:100040002FC100000C945F172BC1000029C10000D4
:1000500027C1000025C1000023C100000C94331506
:100060001FC100000C94FD140C94D31419C100009E
:1000700017C1000015C1000013C1000011C100002C
:100080000C9431170DC100000BC1000009C1000024
:1000900007C1000005C1000003C1000001C100004C
:1000A000FFC00000FDC000000C940317F9C0000061
:1000B000F7C00000F5C00000F3C000000C94D51696
:1000C000EFC00000EDC00000EBC00000E9C0000080
:1000D000E7C00000E5C00000E3C00000E1C0000090
:1000E000DFC0000000002100240027002A002D00AE
:1000F0003000330001010000040107010A01000083
:100100002200250028002B002E00310034000201BF
:100110000000050108010B0100000A0B02090C0D8B
:100120000E080703040100000000000000000000AA
:1001300000000000000000000000000000000000BF
:10014000000000001211100000000000000000007C
:10015000000000000000000000000000000000009F
:1001600020002300260029002C002F00320000016F
:10017000000003010601090105050505070508083A
:100180000808020202020A0A080804040404010121
:100190000101010101010303030303030303040736
:1001A00007070C0C0C0C0C0C0C0C020202020606CD
:1001B0000606060606060B0B0B0B0B0B0B0B0102C0
:1001C0001020200808102040102040800201020169
:1001D0000804020101020408102040808040201021
:1001E000080402018004020180402010080402017A
:1001F00008040201010204081020408001020408E2
:10020000102040805E01011F01030301008A0201EA
:100210000A010202010064001E47040B0906007C6B
:100220000101060103030100F401060E01020201AF
:1002300000C201170101020201016E18071B1124FF
:100240001FBECFEFD1E2DEBFCDBF00E00CBF13E099
:10025000A0E0B2E0E6ECFFE300E00BBF02C00790D5
:100260000D92AE3FB107D9F726E0AEEFB3E001C083
:100270001D92A03DB207E1F711E0CEE1D1E000E030
:1002800006C021970109802FFE010E94B01DCD31CB
:10029000D10780E00807A9F70E94FC180C94D21F30
:1002A000AFCEE091E805F091E905EF3FFE0709F4D4
:1002B00066C01092DB051092DC051092DD051092ED
:1002C000DE05E83008F05BC0DF01BB27AA0FBB1FCB
:1002D000AF5FBD4F85EA98E011969C938E93E150F5
:1002E000E73070F5F0E08827E758FE4F8F4F0C9409
:1002F000B01DA8018001880190019801B001B801EA
:10030000809169008C7F816080936900E89A0895EC
:1003100080916900837F846080936900E99A0895E1
:10032000809169008F7C806180936900EA9A0895CA
:10033000809169008F73806480936900EB9A0895BF
:1003400080916A008C7F816080936A00EC9A0895A6
:1003500080916A00837F846080936A00ED9A08959B
:1003600080916A008F7C806180936A00EE9A089584
:1003700080916A008F73806480936A00EF9A089579
:100380008230910538F0880F991F880F991F0597C3
:100390000197F1F70895AF92BF92CF92DF92EF925B
:1003A000FF920F931F93CF93DF936C017B018B011F
:1003B000040F151FEB015E01AE18BF08C017D1076F
:1003C00059F06991D601ED91FC910190F081E02DF9
:1003D000C6011995892B79F7C501DF91CF911F913E
:1003E0000F91FF90EF90DF90CF90BF90AF90089566
:1003F000FC01538D448D252F30E0842F90E0821B2B
:10040000930B541710F0CF96089501970895FC01AF
:10041000918D828D981761F0A28DAE0FBF2FB11D07
:100420005D968C91928D9F5F9F73928F90E008955F
:100430008FEF9FEF0895FC01918D828D981731F019
:10044000828DE80FF11D858D90E008958FEF9FEF6D
:100450000895FC01918D228D892F90E0805C9F4F43
:10046000821B91098F73992708958DEA94E0F1DF3B
:1004700021E0892B09F420E0822F0895FC01A48D4E
:10048000A80FB92FB11DA35ABF4F2C91848D90E0B6
:1004900001968F739927848FA689B7892C93A08999
:1004A000B1898C91837080648C93938D848D981323
:1004B00006C00288F389E02D80818F7D80830895B6
:1004C000EF92FF920F931F93CF93DF93EC0181E0A4
:1004D000888F9B8D8C8D98131AC0E889F98980814B
:1004E00085FF15C09FB7F894EE89FF896083E8897E
:1004F000F98980818370806480839FBF81E090E070
:10050000DF91CF911F910F91FF90EF900895F62EFC
:100510000B8D10E00F5F1F4F0F731127E02E8C8D96
:100520008E110BC00FB607FCFACFE889F9898081DC
:1005300085FFF5CFCE01A2DFF2CFEB8DEC0FFD2FC3
:10054000F11DE35AFF4FF0829FB7F8940B8FEA89B1
:10055000FB8980818062D0CFCF93DF93EC01888DBF
:100560008823B1F0AA89BB89E889F9898C9185FD36
:1005700003C0808186FD0CC00FB607FCF7CF8C91BD
:1005800085FFF2CF808185FFEDCFCE0177DFEACF07
:10059000DF91CF9108958150823108F05AC0E82F41
:1005A000F0E08827E952FD4F8F4F0C94B01DF70201
:1005B000FB02E902EF02F3022903FE02040308032F
:1005C0000E03120316031C032003290324032A032A
:1005D0002E03809180008F77809380000895809112
:1005E00080008F7DF9CF80918000877FF5CF84B523
:1005F0008F7784BD089584B58F7DFBCF8091B00047
:100600008F778093B00008958091B0008F7DF9CFEF
:10061000809190008F778093900008958091900052
:100620008F7DF9CF80919000877FF5CF8091A000DA
:100630008F778093A00008958091A0008F7DF9CFDF
:100640008091A000877FF5CF809120018F778093E4
:1006500020010895809120018F7DF9CF80912001A4
:10066000877FF5CF1F93CF93DF93282F30E0F901D9
:10067000E85EFE4F8491F901E254FE4FD491F901F6
:10068000E858FE4FC491CC23A1F0162F811183DFCF
:10069000EC2FF0E0EE0FFF1FE250FF4FA591B49159
:1006A0008FB7F894EC91111108C0D095DE23DC933C
:1006B0008FBFDF91CF911F910895DE2BF8CFCF939D
:1006C000DF93EC018091C90660E0CCDFCE01DF91C1
:1006D000CF9156CE1F93CF93DF93182FD92F8091B0
:1006E000F60560E0C1E0811102C061E0C0E08091E8
:1006F000EA05B8DF8091EE059091EF059C01129F0D
:10070000C001139F900D11243BDE6C2F8091EA05F0
:10071000A9DF8091EE059091EF059C01D29FC00169
:10072000D39F900D1124DF91CF911F9129CECF93AC
:10073000DF9390E0FC01E254FE4F249188589E4FD5
:10074000FC0184918823D1F090E0880F991FFC016F
:10075000EC51FF4FA591B491FC01E250FF4FC591C0
:10076000D49161110EC09FB7F8948C91E22FE0955F
:100770008E238C932881E223E8839FBFDF91CF9162
:1007800008958FB7F894EC91E22BEC938FBFF6CFDE
:100790003FB7F8948091910490919204A0919304B2
:1007A000B091940426B5A89B05C02F3F19F001967F
:1007B000A11DB11D3FBFBA2FA92F982F8827BC01BB
:1007C000CD01620F711D811D911D42E0660F771FE3
:1007D000881F991F4A95D1F708958F929F92AF92E3
:1007E000BF92CF92DF92EF92FF926C01D1DF4B016B
:1007F0005C010D2C000CEE08FF08CADF68197909AE
:100800008A099B096C157D058E059F0598F48091DA
:10081000C90661E027DF8091CA069091CB06B0DD62
:100820008091C90660E01EDF8091CA069091CB06D8
:10083000A7DDE3CFFF90EF90DF90CF90BF90AF9018
:100840009F908F9008958F929F92AF92BF92CF9278
:10085000DF92EF92FF926B017C019ADF4B015C010A
:10086000C114D104E104F104B1F092DF68197909EF
:100870008A099B09683E73408105910588F321E050
:10088000C21AD108E108F10888EE880E83E0981EAC
:10089000A11CB11CE5CFFF90EF90DF90CF90BF90EF
:1008A000AF909F908F9008950895AF92BF92CF928E
:1008B000DF92EF92FF920F931F93CF93DF936B0121
:1008C0007A01EC01C457DB4F28813CE0389F80015E
:1008D000399F100D1124A090DA05B12C27FF1FC0FD
:1008E000FB011182108288818F5F88838881980143
:1008F000280F311D87FD3A95F6012A153B051CF49A
:1009000088818C30BCF180819181049680349C492F
:1009100008F471C0F6018081918104966EC08881CF
:100920009801280F311D87FD3A952A153B05DCF605
:100930008881A801480F511D87FD5A95FA01EE0FD5
:10094000FF1FE40FF51FE65BFA4F808186FFCBCFD8
:100950008881F801E80FF11D87FDFA95CF01EE0FB0
:10096000FF1FE80FF91FE65BFA4F808160E08F738D
:1009700079DEB9CF808191812881A801420F511D74
:1009800027FD5A959A01FA01EE0FFF1FE20FF31FA0
:10099000E65BFA4F21813281820F931FF701918329
:1009A000808388819801280F311D87FD3A95F901D0
:1009B000EE0FFF1FE20FF31FE65BFA4F808186FF09
:1009C00021C08881080F111D87FD1A95F801EE0FCF
:1009D000FF1FE00FF11FE65BFA4F808161E08F732C
:1009E000DF91CF911F910F91FF90EF90DF90CF900B
:1009F000BF90AF9037CE80E49CE9F701918380836C
:100A00008FEF8883DF91CF911F910F91FF90EF902F
:100A1000DF90CF90BF90AF9008954F925F926F920A
:100A20007F928F929F92AF92BF92DF92EF92FF924E
:100A30000F931F93CF93DF938C01EB0188818B324F
:100A4000D1F18D32C9F52196EE24E394888190EDA1
:100A5000980F9A3010F08E3289F560E070E0CB018B
:100A6000FE012191A0ED8A2E820E39E0381508F49E
:100A700040C06A3929E97207820729E1920708F024
:100A80004DC0AAE0B0E09B01AC010E94491C912C32
:100A9000B12CA12C240135014094509460947094A1
:100AA0004616570668067906C8F1680D791D8A1D35
:100AB0009B1DEF01D5CF2196E12CC8CFF801108204
:100AC0001182128213821482158216821782108676
:100AD000C801DF91CF911F910F91FF90EF90DF90B0
:100AE000BF90AF909F908F907F906F905F904F904E
:100AF0000895211113C0F801608371838283938369
:100B00000E94181BF80164837583868397838AE0AB
:100B1000E11001C088E0F8018087DACFF12CEAE02B
:100B20008E2E912CA12CB12C61157105F0E88F0748
:100B3000910540F0A50194010E94591CCA01B90118
:100B4000F394F2CFFE01299130ED320F3A3010F4D8
:100B5000F394F8CF2E32F1F4EF012196FE012196A5
:100B6000208150EDD52ED20E29E02D1598F06C3C49
:100B70003CEC73073CE08307910580F7AAE0B0E006
:100B80009B01AC010E94491C6D0D711D811D911DC1
:100B9000FA94E4CF20812F7DD0E0C0E0253409F025
:100BA0004FC021812D32A9F53296BB24B394DF01C9
:100BB000D0E0C0E02F2D0F2C000C330B4AE0A42E08
:100BC000FD01DD9040ED4D0D4A30A8F5AC9EA00131
:100BD000AD9E500D1124CD2DDD0CDD0BE097C40F23
:100BE000D51FAE01420F531F473251054CF3BB20B6
:100BF000B9F080E090E0A0E0B0E8E11003C080E050
:100C000090E0DC01F80184839583A683B7838CE0B0
:100C100083CF2B3219F03196B12CC9CF3296FCCF4D
:100C200080E090E0A0E8BFEFE110ECCF80E090E042
:100C3000A0E8BFE7E7CFBB2019F0D195C195D10956
:100C4000208121113BCFCF0DD11DF7FCDA950E94F9
:100C5000181B1C161D06E4F4F12CC0FF0CC024E088
:100C6000F29EF0011124E35CFD4F2081318142812D
:100C700053810E94791BD595C795F394209769F706
:100C8000E1109058F8016483758386839783BFCF02
:100C9000D195C195D109F12C209791F3C0FF0CC0DB
:100CA00024E0F29EF0011124EB5DFD4F20813181A3
:100CB000428153810E94791BD595C795F394ECCF5F
:100CC00080339CF08A3324F08F3524F08B3724F462
:100CD00081E0089581344CF08B35D4F393ED980F77
:100CE00081E09230B0F380E008958B32B9F7F0CF15
:100CF000FC018185811114C0A481B5818681978111
:100D00002FEF3FEFA817B90730F4CD010196958377
:100D100084832C9130E037FD20E0208781E08187BB
:100D2000808508951F93CF93DF93EC01162FE0DFAA
:100D3000811306C0198681E0DF91CF911F9108953C
:100D400080E0FACFCF93DF93EC01CE01D1DF8B307F
:100D50003CF489304CF4882349F090E080E008C0EE
:100D60008D3011F08032C9F71986EFCF81E090E025
:100D7000DF91CF910895CF92DF92EF92FF92CF93C0
:100D8000DF9300D000D000D0CDB7DEB7FC01892BB7
:100D900039F094819F77963081F030F49430F0F4FC
:100DA00060E070E0CB010DC0983039F09C30C1F7A5
:100DB000C080D180E280F3801FC060817181828118
:100DC000938129960FB6F894DEBF0FBECDBFDF9199
:100DD000CF91FF90EF90DF90CF9008956081718167
:100DE000CE0101961ADE89858830F9F08C30C1F683
:100DF000CD80DE80EF80F88420E030E0A901C701DB
:100E0000B6010E94881D87FDCBCF20E030E040E88E
:100E10005FE4C701B6010E94141B18160CF4C0CF82
:100E2000C701B6010E945C1DCCCF69817A818B819C
:100E30009C81C7CFCF92DF92EF92FF92CF93DF9347
:100E400000D000D000D0CDB7DEB7FC01892B39F03F
:100E500094819F77963069F028F4943080F570E0A3
:100E600060E01FC09A3081F09C3009F458C098307F
:100E7000B1F780819181A281B381BC018115904835
:100E8000A105B10570F0EBCF80819181A281B38182
:100E900066277727681B790B81309048A105B1053B
:100EA000F0F6CB0129960FB6F894DEBF0FBECDBF8A
:100EB000DF91CF91FF90EF90DF90CF900895608108
:100EC0007181CE010196A9DD89819A81AB81BC81B6
:100ED00029852A30E9F22C3021F0283009F0BFCFE3
:100EE000CCCFCD80DE80EF80F88420E030E040E0A1
:100EF00057ECC701B6010E94881D87FDB0CF20E0E6
:100F00003EEF4FEF56E4C701B6010E94141B1816BE
:100F10000CF4A5CFC701B6010E94571DC2CFC080F7
:100F2000D180E280F380E1CFCF93FC01892B91F057
:100F300094819F77983029F078F4992359F096306E
:100F400079F4C1E080819181A281B381892B8A2BC0
:100F50008B2B39F4C0E005C09A3099F39C3021F016
:100F6000C1E08C2FCF910895C1E020E030E0A901CD
:100F700060817181828193810E94141B8111F1CF64
:100F8000E9CFFC0184819581009799F0228133811A
:100F9000468157812417350718F015821482089569
:100FA000A9014F5F5F4F53834283820F931FFC0160
:100FB00060830895FF920F931F93CF93DF9300D028
:100FC00000D01F921F92CDB7DEB78C01DC011296C4
:100FD000ED91FC9122813381848195819383828379
:100FE000FA83E9831C821B823E832D83821B930B31
:100FF00098878F83C8017CDEF82EF8011186C8011E
:1010000077DED80119961C92F816B9F1811110C03B
:1010100061E070E080E090E028960FB6F894DEBFC3
:101020000FBECDBFDF91CF911F910F91FF9008951B
:101030008C35F1F4C8015CDE882351F3853729F43F
:1010400064E070E080E090E0E7CFE7E6F2E09081D6
:10105000992329F0891308C08181811107C062E0BA
:1010600070E080E090E0D8CF3296F1CFF8011186A1
:10107000682FCE01019685DFC2CF60E0CE010196D8
:1010800080DF8D819E81892B79F0E981FA818B81C6
:101090009C812F813885AC01421B530B8281938147
:1010A000840F951F938382832D813E8163E070E0DE
:1010B00080E090E02115310509F4AECF60E070E0EA
:1010C000CB01C901A9CFFC0180819181892B21F439
:1010D00060E070E0CB01089561E778E090E080E0A7
:1010E00008950895CF93DF93DC01EB01EC81FD813E
:1010F0008A819B810896E817F90730F4F0E0E0E078
:10110000CF01DF91CF9108953897FD83EC8330971D
:10111000A9F31296CD91DC911397209791F0CF010E
:101120008C1B9D0B23E0959587952A95E1F78D8380
:101130001396FC93EE9312971582148217821682EF
:10114000DFCF1196FC93EE93F3CF2F923F924F9205
:101150005F926F927F928F929F92AF92BF92CF9247
:10116000DF92EF92FF920F931F93CF93DF93CDB750
:10117000DEB761970FB6F894DEBF0FBECDBF08DBB8
:101180006B017C0180918804909189043601681A72
:10119000790A2DEC621620E1720608F4D1C0809124
:1011A000020490910304D301A81BB90BCD01B7FF32
:1011B00003C0919581959109883C91050CF0BCC0C4
:1011C0008091000490910104019690930104809312
:1011D0000004029709F0B0C004E012E04090FE0362
:1011E0005090FF0349E050E0B801CE0101960E9403
:1011F0000B1B8B816C81681708F4682F70E080915D
:101200000204909103040E949C1D9B0140911102D5
:1012100050911202649FC001659F900D749F900DC4
:10122000112464E670E00E949C1D898541E050E035
:10123000882311F042E050E08D81829FF001839F6E
:10124000F00D1124FB87EA878E81829FD001839F56
:10125000B00D1124BD87AC878F81829FF001839FE1
:10126000F00D1124FF87EE878885829F1001839FF0
:10127000300C1124FA01EE0FFF1FEE5FFB4F812CA3
:10128000912C5401920121503109398B288B888986
:1012900099894817590708F03FC0880C991CAA1C67
:1012A000BB1C808191819C01AA85BB852A1B3B0BBD
:1012B00037FF03C03195219531092617370770F4A0
:1012C00022813381AC85BD852A1B3B0B37FF03C0D0
:1012D00031952195310926173707D0F02E853F85A6
:1012E000821B930B97FF03C09195819591098617F7
:1012F0009707B8F4828193818219930997FF03C0FD
:101300009195819591098617970758F4689480F80C
:101310004E5F5F4F3496BBCF38E04316510408F060
:1013200051C0075F1F4F82E00A33180709F056CFFC
:1013300010920104109200041092FF031092FE0319
:101340008091FE039091FF038334910540F0109249
:10135000FF031092FE03109201041092000480918A
:10136000FE039091FF039C012F5F3F4F3093FF03DB
:101370002093FE03880F991FFC01EE5FFB4F7182E3
:101380006082C0928804D0928904E0928A04F0922C
:101390008B0461960FB6F894DEBF0FBECDBFDF9110
:1013A000CF911F910F91FF90EF90DF90CF90BF9062
:1013B000AF909F908F907F906F905F904F903F90F5
:1013C0002F9008958092DB059092DC05A092DD05B8
:1013D000B092DE05ADCFFC0101900020E9F7319716
:1013E000AF01481B590BBC018DEA94E00C94CB0172
:1013F0008F929F92AF92BF920F931F93CF93DF93E1
:10140000CDB7DEB7A1970FB6F894DEBF0FBECDBF44
:1014100019A2423008F44AE08E010F5D1F4F842E5E
:10142000912CB12CA12CA50194010E94591CE62FEE
:10143000B901CA01EA30ECF4E05DD801EE938D0108
:10144000232B242B252B79F790E080E0109711F0C7
:10145000CD01C1DFA1960FB6F894DEBF0FBECDBFA0
:10146000DF91CF911F910F91BF90AF909F908F9080
:101470000895E95CE2CFCF93DF93D0E0C0E000971E
:1014800011F0A9DFEC0188E792E0A5DF8C0F9D1F2A
:10149000DF91CF9108954F925F926F927F928F92DA
:1014A0009F92AF92BF92CF92DF92EF92FF920F93F3
:1014B0001F93CF936B017C01742EAC019B010E94A2
:1014C0008C1D882391F08BE792E0CF911F910F91B3
:1014D000FF90EF90DF90CF90BF90AF909F908F9054
:1014E0007F906F905F904F9076CF46015701E894C0
:1014F000B7F82FEF3FEF4FE75FE7C501B4010E9458
:101500008C1D81110DC02FEF3FEF4FE75FE7C50145
:10151000B4010E94141B18161CF48FE792E0D5CF7B
:101520002FEF3FEF4FE75FE4C701B6010E94881D30
:1015300018161CF483E892E0C8CF2FEF3FEF4FE777
:101540005FECC701B6010E94141B87FDF3CF20E0BA
:1015500030E0A901C701B6010E94141B10E000E0B1
:1015600087FF0AC06DE28DEA94E00E9460028C0160
:10157000F7FAF094F7F8F094C0E060E070E080E0F3
:101580009FE37C1641F020E030E040E251E40E940D
:10159000EF1CCF5FF6CFA70196010E948B1C2B0199
:1015A0003C010E945C1D4B015C014AE021DF7C0193
:1015B000E00EF11ECC23B9F1C501B4010E94181B45
:1015C0009B01AC01C301B2010E948A1C4B015C016A
:1015D0006EE28DEA94E00E946002E80EF91EC150AE
:1015E00010F120E030E040E251E4C501B4010E9476
:1015F000791B2B013C010E945C1D4B01B12CA12CDD
:101600004AE0C501B401F4DEE80EF91EC501B401DB
:101610000E94181B9B01AC01C301B2010E948A1CED
:101620004B015C01DCCFC701CF911F910F91FF905F
:10163000EF90DF90CF90BF90AF909F908F907F9072
:101640006F905F904F900895FC0180819181009789
:1016500011F00C94541E08950F931F93CF93DF93B2
:10166000EC0188819981009759F02A813B812617E6
:10167000370730F081E0DF91CF911F910F910895EE
:101680008B016F5F7F4F0E94DD1E009759F0998399
:1016900088831B830A832C813D81232B59F7FC010E
:1016A0001082E8CF80E0E7CFEF92FF920F931F9375
:1016B000CF93DF93EC017B018A01BA01CDDF288152
:1016C0003981811114C02115310519F0C9010E9419
:1016D000541E198218821D821C821B821A82CE011E
:1016E000DF91CF911F910F91FF90EF9008951D838F
:1016F0000C83B701C9010E94CB1FF1CFCF93DF93B9
:10170000EC01FB018617970741F06081718161153B
:10171000710539F044815581C7DFCE01DF91CF914A
:10172000089588819981009711F00E94541E1982B2
:1017300018821D821C821B821A82EFCFFC0111824B
:1017400010821382128215821482FB010190002004
:10175000E9F73197AF01461B570BA6CF0F931F93A5
:10176000CF93DF938B01EC012097E1F06E817F81B5
:1017700060177107B9F00115110541F06115710588
:1017800029F0C8010E94C21F892B61F08D81882336
:1017900039F028E08202C0011124C80FD91FE4CF1C
:1017A000D0E0C0E0CE01DF91CF911F910F9108955D
:1017B0008F929F92AF92BF92CF92DF92EF92FF9261
:1017C0000F931F93CF93DF93CDB7DEB7CB54D109DF
:1017D0000FB6F894DEBF0FBECDBF8C017B01D42EB7
:1017E000B1DA2C969FAF8EAF2C97CE01865B9F4FC0
:1017F0006ADC672B09F0A4C080FDA2C0C80178DABA
:10180000873209F493C1FCF4823209F48FC1C80114
:101810006FDAC82EFE0131964F01D12C5F018C2D5D
:101820004FDA882309F49EC1FFE3DF1609F49AC159
:10183000D80119961C92D394F401C1924F01C801AA
:1018400057DAC82EECCF8B3509F494C08B37F9F6F4
:10185000F7018481807880628483118210821382F0
:101860001282DD2009F460C1D80119961C92C801CA
:1018700069DA23969FAF8EAF2397CE018F5B9F4F80
:1018800022DC672B09F0ECC080FDEAC06DE7C801DF
:1018900049DA8111BDC0DA94C8012ADA873209F425
:1018A000C0C0823209F4BDC0D8011296ED91FC91FE
:1018B000228133818481958193838283FA83E983B2
:1018C0001C821B823E832D83821B930B98878F8300
:1018D000C8010EDAA82EF4D922E030E0882369F19D
:1018E000F80111866A2DCE0101964BDBC80100DAA2
:1018F000A82EE6D98111F4CF60E0CE01019641DB3C
:101900008D819E81892B79F0E981FA818B819C817F
:101910002F813885AC01421B530B82819381840F48
:10192000951F938382838D819E8123E030E0009711
:1019300021F0B82EC92E30E020E09B2CAC2C78C0D2
:101940002B968FAD2B972C969FAD2C97C55BDF4FB9
:101950000FB6F894DEBF0FBECDBFDF91CF911F91C0
:101960000F91FF90EF90DF90CF90BF90AF909F903E
:101970008F900895D70114968C9114978078806485
:1019800014968C93149711961C921E9213961C9287
:101990001E921297DD2009F4C7C0F8011186C80114
:1019A000D1D99A838983CE0101968DDB672B31F5DE
:1019B00080FD24C06DE5C801B5D9811129C0DA9434
:1019C000D8016D917C91C7018DDB009709F4A9C006
:1019D0004D2DBC01C801ECDE9A838983CE010196AE
:1019E00072DB672B59F480FD09C0C801ABD99A831B
:1019F0008983CE01019667DB672B19F089819A8173
:101A0000A5CF80FDFBCF6DE5C8018CD9882311F0EF
:101A100080E088C06CE2C80185D98111D1CF82E015
:101A200081C0C801C7DA9B019B2CAC2CB82EC92EF3
:101A300023963FAF2EAF2397CE018F5B9F4F43DBA3
:101A4000672B71F480FD0CC0C8017CD923969FAF31
:101A50008EAF2397CE018F5B9F4F35DB672B39F01D
:101A600022968FAD229723969FAD23976FCF80FD4F
:101A7000F7CF6AE3C80156D9882389F26B2D7C2DF4
:101A8000D7018D919C916ADEBC01892B79F4F80114
:101A900060817181C70126DBFC01892B09F441C0FB
:101AA000848180688483B682C782BF014D2DC801BE
:101AB0007FDE23969FAF8EAF2397CE018F5B9F4F24
:101AC00002DB672B69F680FDCBCFC8013BD923969B
:101AD0009FAF8EAF2397CE018F5B9F4FF4DA672BBA
:101AE00009F0BECF80FDBCCF6DE7C8011BD98111C5
:101AF0008FCF6CE2C80116D9882309F490CFC801B2
:101B000021D923969FAF8EAF2397CE018F5B9F4F36
:101B1000DADA672B09F0A4CF80FDA2CFB92CCA2C4A
:101B2000BBCE83E090E012CF85E0FCCFC80142DA63
:101B300069837A838B839C83CE010196C4DA672BF9
:101B400009F05CCF80FD5ACF2B813C81D7011496E0
:101B50008C9114978078856014968C9314972D93AC
:101B60003C9356CFF501ED0DF11D1082898184372C
:101B7000B9F4D70114968C911497807886601496E6
:101B80008C9381E090E0A0E0B0E0F7018083918346
:101B9000A283B38390E0F4E0DF12D8CE80E0D6CE0B
:101BA000863689F4D70114968C91149780788660D4
:101BB00014968C93F701108211821282138281E0B5
:101BC00090E0F5E0E9CF8E3631F481E090E024E05A
:101BD000D212BCCEE3CFB501CE018F5B9F4F0E94E6
:101BE0000D0525964CAD5DAD6EAD7FAD25972A9662
:101BF0008FAD2A978A3061F08C30C1F0883009F0BF
:101C00000ECFD70114968C9114978078886006C007
:101C1000D70114968C91149780788A6014968C93CF
:101C2000F7014083518362837383F2CE29964CADD2
:101C30005DAD6EAD7FAD2997D70114968C91149749
:101C400080788C6014968C93F70140835183628373
:101C50007383DECE009721F0FC01808191817ECDDF
:101C600090E080E00895EF92FF920F931F93CF933F
:101C7000DF93CDB7DEB72E970FB6F894DEBF0FBE59
:101C8000CDBFFC0101811281E580F6801A8619869C
:101C90001C861B861E861D86CE0109962FDD1A82A4
:101CA00019821C821B821E821D82BE01675F7F4FCC
:101CB000CE01019623DD81E090E098878F83CE01ED
:101CC0000996C2DCB701C801C5DFFC01892B31F1DF
:101CD00094819F77963029F0D0F49230F8F09430C8
:101CE00058F50F811885CE010196AEDC81E0012BFD
:101CF00009F080E02E960FB6F894DEBF0FBECDBF80
:101D0000DF91CF911F910F91FF90EF9008959C303C
:101D100041F368F4983029F39A3019F381E090E0A8
:101D200029813A81232BC9F490E080E016C09032DB
:101D3000C1F2903499F7D5CF6081718189819A8100
:101D40006817790769F0009771F06115710571F0F6
:101D50000E94C21F91958195910998878F83C1CF69
:101D600090E080E0F7CF8FEF9FEFF4CF81E090E03D
:101D7000F1CFFC01248125FF03C080819181EECC4D
:101D800090E080E008952F923F924F925F926F9281
:101D90007F928F929F92AF92BF92CF92DF92EF92FB
:101DA000FF920F931F93CF93DF93CDB7DEB7C25B44
:101DB000D1400FB6F894DEBF0FBECDBFFC01CE01FF
:101DC0000E969A8389839C838B834EE951E04C0F56
:101DD0005D1F5E834D8358874F839D8590789D87D7
:101DE0002081318184819581820F931F4D5951400B
:101DF0007A01C256DE4F59834883CE59D140C0562E
:101E0000DE4F59834883C05AD140CE55DE4F3983C7
:101E10002883C25AD140CC55DE4F99838883C45A57
:101E2000D140C955DE4F1882C75AD1405E0159E0F2
:101E3000A50EB11C4AE0B501CE0182569E4FB8DC1A
:101E4000C855DE4F99838883C85AD140CE01885542
:101E50009E4F39D9672BC9F480FD17C0CA55DE4F94
:101E60008881C65AD140882381F08D85982F9F772D
:101E70009C3019F08D77883041F482E090E0C855AD
:101E8000DE4F99838883C85AD140C855DE4F0881F8
:101E90001981C85AD140C255DE4F19830883CE5AE2
:101EA000D140CE0182559E4F0ED9672B09F001C15A
:101EB0006C0121E0C222DD2480FDFBC08D858501FF
:101EC00085FD02C000E010E06BE872E0CE018855AD
:101ED0009E4F34DCC156DE4F0883CF59D140C056E7
:101EE000DE4F1883C05AD140CF55DE4FF982E882C9
:101EF000C15AD14034E9A32E32E0B32ECD55DE4F86
:101F0000B982A882C35AD140BE0168557E4FCE0126
:101F100082569E4FA8DE982ECE0188559E4F94DBA8
:101F20009110EEC066EC72E0CE0188559E4F06DC43
:101F3000C156DE4F0883CF59D140C056DE4F1883BB
:101F4000C05AD140CF55DE4FF982E882C15AD14004
:101F5000CD55DE4FB982A882C35AD140BE01685523
:101F60007E4FCE0182569E4F7EDED82ECE01885502
:101F70009E4F6ADBDD2009F417C262EA72E0C801F5
:101F800069DE009719F06DEA72E0F3DE0E941A072D
:101F9000382E62EA72E0C8015DDE009719F061EC4C
:101FA00072E0E7DE0E94BB06C055DE4F6883C05B6F
:101FB000D140CF54DE4F7883C15BD140282ECE5420
:101FC000DE4F9883C25BD140F5E0EF2EF12C0BE69B
:101FD00013E0A3E78A2EA5E09A2EBBEDAB2EB5E168
:101FE000BB2E61E0832D0E943203C8010197F1F7F7
:101FF00060E0832D0E94320387EC99E20197F1F7AC
:10200000C055DE4F4880C05BD140CF54DE4F588072
:10201000C15BD140622CCE54DE4F7880C25BD14090
:10202000E0E2CE2ED12C61E0832D77FEA4C10E9488
:102030003203C8010197F1F760E0832D0E9432035B
:10204000C5010197F1F761E0832D0E943203C801B9
:102050000197F1F760E0832D0E943203C4010197DC
:10206000F1F7440C551C661C771C41E0C41AD108DA
:10207000D1F661E0832D0E943203C8010197F1F788
:1020800060E0832D0E9432038BE995EA0197F1F716
:1020900061E0832D0E943203C8010197F1F760E0EF
:1020A000832D0E94320351E0E51AF10809F099CF1F
:1020B0000DC087E892E00630110538F4000F111FBB
:1020C000F801E75EFD4F80819181D5D9CE54DE4F76
:1020D0000FB6F894DEBF0FBECDBFDF91CF911F9139
:1020E0000F91FF90EF90DF90CF90BF90AF909F90B7
:1020F0008F907F906F905F904F903F902F900895BA
:1021000062EA72E0C801A6DD009719F06DEA72E09C
:1021100030DE0E941A07F82EE92E62EA72E0C8014A
:1021200099DD009719F066EB72E023DE0E941A0732
:102130001C0162EA72E0C8018DDD009721F4412C98
:10214000512C32014CC061EC72E013DEFC01892B92
:10215000B1F394819F77963039F1F8F4943078F3A5
:1021600060817181CE0182569E4F0E940D05C2563C
:10217000DE4F488059806A807B80CE59D140CA5555
:10218000DE4F8881C65AD1408A3009F457C08C305E
:1021900009F45DC0883099F60BC09A3061F09C302C
:1021A00009F479C0983059F640805180628073807C
:1021B00077FE15C0C4CF408051806280738041E0BB
:1021C00044165104610440E8740608F0B8CF7094D6
:1021D000609450944094411C511C611C711CF092FD
:1021E000EA05E092EB0561E08F2D0E949703809154
:1021F000EA059091EB05019609F4B6C00091E80557
:102200001091E9050F3F100709F45AC0083008F093
:1022100051C098013327EFEFE00FE73008F084C09A
:10222000F0E08827E95EFE4E8F4F0C94B01D9611AA
:1022300050118E119011921198119A1151E045167A
:102240005104610450E8750608F079CFC0CFCE552F
:10225000DE4F88809980AA80BB80C25AD14020E09E
:1022600030E040E05FECC501B4010E94881D87FDAD
:1022700066CF20E030E040E05FE4C501B4010E9499
:10228000141B18160CF45BCFC501B4010E94571D36
:102290002B013C01A4CF80809180A280B380DFCF4E
:1022A000E898220F331FF901EF5FFD4F84E594E0BA
:1022B000918380838FEF9FEF9093E9058093E805EA
:1022C000812C912C540183948091EC059091ED0523
:1022D000C816D9060CF03FC0710151E0E51AF108AB
:1022E000F7FC2FC0D501C4010E2C04C0880F991F24
:1022F000AA1FBB1F0A94D2F784219521A621B721DA
:10230000892B8A2B8B2BC1F08091F4059091F505D8
:102310000E946A0381E0E81AF108E2CFE998C1CF90
:10232000EA98BFCFEB98BDCFEC98BBCFED98B9CF73
:10233000EE98B7CFEF98B5CF8091F2059091F30565
:10234000E7CF8091F0059091F1050E946A039FEF1D
:10235000C91AD90AB9CF0F3F100731F01093E90518
:102360000093E8050E9451018FEF9FEF9093EB05DA
:102370008093EA05ABCE0E943203C8010197F1F7C2
:1023800060E0832D0E943203C4010197F1F761E000
:10239000832D0E943203C8010197F1F760E0832D7D
:1023A0000E943203C5015BCE66ED72E0CE01885516
:1023B0009E4FC4D9C156DE4F0883CF59D140C05675
:1023C000DE4F1883C05AD140CF55DE4FF982E882E4
:1023D000C15AD140CD55DE4FB982A882C35AD140EF
:1023E000BE0168557E4FCE0182569E4F3CDCD82EF2
:1023F000CE0188559E4F28D9DD2009F478C062EAC5
:1024000072E0C80127DC009719F06DEA72E0B1DCD8
:102410000E941A07D82E62EA72E0C8011BDC0097FE
:1024200019F066EB72E0A5DC0E941A077C0162EAF3
:1024300072E0C8010FDC009719F061EC72E099DCE2
:102440000E94BB064B015C01D092C9068DE090E072
:102450009093CB068093CA068091C90661E00E94E2
:1024600097038091C90660E00E94320388E293E2FC
:102470000E94ED0384E991E10E945F03C701019787
:10248000C12CD12C7601C39404C0CC0CDD1CEE1CF5
:10249000FF1C8A95D2F7C114D104E104F104F1F0D4
:1024A000D501C4018C219D21AE21BF21892B8A2B0E
:1024B0008B2B69F080E392E00E94ED038AE996E0BD
:1024C0000E945F03F694E794D794C794E4CF80E327
:1024D00092E00E94ED0380E392E0F2CF80E392E08D
:1024E0000E94ED0390E080E00E945F03EFCD6EED6F
:1024F00072E0CE0188559E4F21D9C156DE4F088328
:10250000CF59D140C056DE4F1883C05AD140CF5565
:10251000DE4FF982E882C15AD140CD55DE4FB982F3
:10252000A882C35AD140BE0168557E4FCE01825663
:102530009E4F99DBD82ECE0188559E4F85D8DD2041
:1025400009F416C162EA72E0C80184DB009719F051
:102550006DEA72E00EDC0E941A07F82E62EA72E061
:10256000C80178DB009719F068EE72E002DC0E9487
:102570001A078C018091E505803308F054C061E0B2
:102580008F2D0E9497038091E505282F30E0F901F7
:10259000EE0FFF1FE20FF31FE65BFA4F2F2D2F7395
:1025A0009081907C922B90831092E6051092E70523
:1025B0002CE0622F0E94901D829FB001112430E018
:1025C00020E0AB01420F531FFA01EE0FFF1FE40F93
:1025D000F51FE65BFA4F908196FD17C02F5F3F4FC6
:1025E0002C30310571F7813009F096C010928000CF
:1025F00082E0809381001092850010928400B19A4D
:1026000080916F00826080936F00E091E5058E2FCE
:1026100090E0FC01EE0FFF1FE80FF91FE65BFA4F99
:10262000808180648083F090E505003282E01807A5
:102630000CF03DC08091E605E8E88E2E912C881ABA
:10264000910887FD9394880C991C880C991C092C7F
:10265000000CAA08BB088091E70528E532E0281B9A
:10266000310987FD3395220F331F220F331F032EAD
:10267000000C440B550B281939094A095B09D8018C
:10268000053B110514F0A4EBB0E0B7FF02C0B0E0C9
:10269000A0E00E94531C24EB30E040E050E00E9498
:1026A0002D1C89019A01080D191D2A1D3B1D9FE251
:1026B0009F1508F40BCD2091E60588E890E0821B79
:1026C000910927FD9395880F991F880F991F081767
:1026D000190784F02091E70588E592E0821B9109B3
:1026E00027FD9395880F991F880F991F08171907C1
:1026F0000CF4C8010297880F991F4FB7F8942F2D3B
:1027000030E0F901EE0FFF1FE20FF31FE65BFA4F17
:10271000928381834FBFDACC823061F410929000B3
:1027200080939100109295001092940088BB809342
:1027300071006BCF833069F41092A00082E0809327
:10274000A1001092A5001092A40089BB8093720092
:102750005CCF81115ACF1092200182E08093210139
:1027600010922501109224018ABB809373004DCFF3
:102770006EEE72E0CE0188559E4F0E949E0BC156B0
:10278000DE4F0883CF59D140C056DE4F1883C05A60
:10279000D140CF55DE4FF982E882C15AD140CD55A4
:1027A000DE4FB982A882C35AD140BE0168557E4F20
:1027B000CE0182569E4F57DAD82ECE0188559E4FB5
:1027C0000E94240BDD2009F162EA72E0C80142DABE
:1027D000009719F06DEA72E0CCDA0E941A077C01CA
:1027E00062EA72E0C80136DA009719F067EF72E02A
:1027F000C0DA0E949407182FF092E905E092E805EC
:102800000E9451011093000261CC6EEF72E0CE0184
:1028100088559E4F0E949E0BC156DE4F0883CF59AC
:10282000D140C056DE4F1883C05AD140CF55DE4F3D
:10283000F982E882C15AD140CD55DE4FB982A882D3
:10284000C35AD140BE0168557E4FCE0182569E4F7D
:102850000ADAF82ECE0188559E4F0E94240BFF20E5
:1028600009F434CC62EA72E0C801F4D9009719F097
:102870006DEA72E07EDA0E941A077C0162EA72E079
:10288000C801E8D9009719F067EF72E072DA0E9488
:1028900094078093AC04F092A704E092A60416CCAF
:1028A0000F931F93CF93DF9300D000D0CDB7DEB747
:1028B0008DEA94E00E940702853231F51A8219826E
:1028C0001C821B821E821D826FED75E0CE01019677
:1028D0000E947E0BCE01019656DACE0101960E942F
:1028E000240B50E040E067E772E08FED95E00E9436
:1028F000540B26960FB6F894DEBF0FBECDBFDF9106
:10290000CF911F910F91089589831A820091E30559
:102910001091E4050F5F1F4FB8018FED95E00E9405
:102920002C0B882331F32091DF053091E005809155
:10293000E3059091E405BE016F5F7F4F820F931F07
:102940000E94CB1F1093E4050093E305D2CF0E94B1
:1029500035028111A5DF80E090E0892B49F080E00D
:1029600090E0892B29F00E94000081110E94000054
:1029700080E090E0892B49F080E090E0892B29F0FD
:102980000E94000081110E94000080E090E0892BED
:1029900049F080E090E0892B29F00E94000081112D
:1029A0000C94000008951F920F920FB60F921124FD
:1029B0000BB60F922F933F934F935F936F937F9339
:1029C0008F939F93AF93BF93EF93FF938DEA94E020
:1029D0000E943E02FF91EF91BF91AF919F918F9125
:1029E0007F916F915F914F913F912F910F900BBE0F
:1029F0000F900FBE0F901F9018951F920F920FB659
:102A00000F9211240BB60F922F938F939F93EF93F6
:102A1000FF93E091BD04F091BE048081E091C30476
:102A2000F091C40482FD1DC090818091C6048F5F27
:102A30008F732091C704821741F0E091C604F0E043
:102A4000E355FB4F958F8093C604FF91EF919F91C3
:102A50008F912F910F900BBE0F900FBE0F901F9074
:102A600018958081F2CF1F920F920FB60F9211240A
:102A70002F933F938F939F93AF93BF938091950430
:102A800090919604A0919704B0919804309190048D
:102A900023E0230F2D3758F50196A11DB11D20937A
:102AA00090048093950490939604A0939704B09318
:102AB00098048091910490919204A0919304B09114
:102AC00094040196A11DB11D8093910490939204EA
:102AD000A0939304B0939404BF91AF919F918F9171
:102AE0003F912F910F900FBE0F901F90189526E8E1
:102AF000230F0296A11DB11DD2CF1F920F920FB6C8
:102B00000F9211240BB60F922F933F934F935F9325
:102B10006F937F938F939F93AF93BF93EF93FF93A5
:102B2000E0910F02F09110021995FF91EF91BF9182
:102B3000AF919F918F917F916F915F914F913F9155
:102B40002F910F900BBE0F900FBE0F901F901895F6
:102B50001F920F920FB60F9211240BB60F922F9364
:102B60003F934F935F936F937F938F939F93AF9315
:102B7000BF93EF93FF93E0910D02F0910E02199530
:102B8000FF91EF91BF91AF919F918F917F916F9145
:102B90005F914F913F912F910F900BBE0F900FBE01
:102BA0000F901F9018951F920F920FB60F9211243D
:102BB0000BB60F922F933F934F935F936F937F9337
:102BC0008F939F93AF93BF93EF93FF93E091030293
:102BD000F09104021995FF91EF91BF91AF919F91F0
:102BE0008F917F916F915F914F913F912F910F90B6
:102BF0000BBE0F900FBE0F901F9018951F920F9253
:102C00000FB60F9211240BB60F922F933F934F9351
:102C10005F936F937F938F939F93AF93BF93EF9344
:102C2000FF93E0910102F09102021995FF91EF915B
:102C3000BF91AF919F918F917F916F915F914F91D4
:102C40003F912F910F900BBE0F900FBE0F901F90D2
:102C500018951F920F920FB60F9211240BB60F9278
:102C60002F933F934F935F936F937F938F939F9394
:102C7000AF93BF93EF93FF93E0910B02F0910C029F
:102C80001995FF91EF91BF91AF919F918F917F9196
:102C90006F915F914F913F912F910F900BBE0F90CD
:102CA0000FBE0F901F9018951F920F920FB60F92A4
:102CB00011240BB60F922F933F934F935F936F9313
:102CC0007F938F939F93AF93BF93EF93FF93E09185
:102CD0000902F0910A021995FF91EF91BF91AF910E
:102CE0009F918F917F916F915F914F913F912F9124
:102CF0000F900BBE0F900FBE0F901F9018951F9254
:102D00000F920FB60F9211240BB60F922F933F9391
:102D10004F935F936F937F938F939F93AF93BF93E3
:102D2000EF93FF93E0910702F09108021995FF914C
:102D3000EF91BF91AF919F918F917F916F915F9133
:102D40004F913F912F910F900BBE0F900FBE0F90A0
:102D50001F9018951F920F920FB60F9211240BB669
:102D60000F922F933F934F935F936F937F938F9324
:102D70009F93AF93BF93EF93FF93E0910502F09180
:102D800006021995FF91EF91BF91AF919F918F919D
:102D90007F916F915F914F913F912F910F900BBE5B
:102DA0000F900FBE0F901F9018951F920F920FB6A5
:102DB0000F9211240BB60F922F933F934F935F9373
:102DC0006F937F938F939F93AF93BF93EF93FF93F3
:102DD00048E251E064E271E090E080E00E94550436
:102DE000FF91EF91BF91AF919F918F917F916F91E3
:102DF0005F914F913F912F910F900BBE0F900FBE9F
:102E00000F901F9018951F920F920FB60F921124DA
:102E10000BB60F922F933F934F935F936F937F93D4
:102E20008F939F93AF93BF93EF93FF9348EA50E044
:102E300064EA70E083E090E00E945504FF91EF9116
:102E4000BF91AF919F918F917F916F915F914F91C2
:102E50003F912F910F900BBE0F900FBE0F901F90C0
:102E600018951F920F920FB60F9211240BB60F9266
:102E70002F933F934F935F936F937F938F939F9382
:102E8000AF93BF93EF93FF9348E950E064E970E09C
:102E900082E090E00E945504FF91EF91BF91AF91C5
:102EA0009F918F917F916F915F914F913F912F9162
:102EB0000F900BBE0F900FBE0F901F9018951F9292
:102EC0000F920FB60F9211240BB60F922F933F93D0
:102ED0004F935F936F937F938F939F93AF93BF9322
:102EE000EF93FF9348E850E064E870E081E090E001
:102EF0000E945504FF91EF91BF91AF919F918F91E7
:102F00007F916F915F914F913F912F910F900BBEE9
:102F10000F900FBE0F901F9018951F920F920FB633
:102F20000F9211240BB60F922F933F934F935F9301
:102F30006F937F938F939F93AF93BF93CF93DF93C1
:102F4000EF93FF932091F80530E0F901E85EFE4F22
:102F50008491F901E254FE4FD491F901E858FE4FF3
:102F6000C491CC2379F081110E94CB02EC2FF0E0C8
:102F7000EE0FFF1FE25AFE4FA591B491EC91ED23A5
:102F800081E009F480E02091FC053091FD052F5F80
:102F90003F4F3093FD052093FC059091FB0595363E
:102FA00018F096E09093F7059091F705943009F4A6
:102FB00066C0B8F49230F1F0933009F444C09091B7
:102FC000FA05992309F46BC081117EC08091F9053F
:102FD000882309F463C08091F90561E00E943203FF
:102FE0005EC0953009F457C0963049F791E0909350
:102FF000C8064FC08111E3CF2091FC053091FD053B
:103000002436310528F41092FD051092FC05D7CF27
:103010001092C8061092FB05E091FB0591E09E0F0F
:103020009093FB05F0E02091FC053091FD05EE0F3B
:10303000FF1FE950FA4F308727831092FD05109249
:10304000FC0593E019C0813009F0B9CFE091FB0590
:1030500091E09E0F9093FB05F0E02091FC053091EC
:10306000FD05EE0FFF1FE950FA4F308727831092BE
:10307000FD051092FC0594E09093F705A0CF8823FE
:1030800059F22091FC053091FD052536310508F4F3
:1030900096CF95E0F1CF811192CFB5CF2F9AFF91C6
:1030A000EF91DF91CF91BF91AF919F918F917F91E0
:1030B0006F915F914F913F912F910F900BBE0F90A9
:1030C0000FBE0F901F9018958091F905882321F06D
:1030D0008091F90560E082CF2F98E1CFCF93DF9305
:1030E0001092B0041092AF0488EE93E0A0E0B0E03C
:1030F0008093B1049093B204A093B304B093B4044A
:1031000089E592E09093AE048093AD0485EC90E065
:103110009093BA048093B90484EC90E09093BC043B
:103120008093BB0480EC90E09093BE048093BD0438
:1031300081EC90E09093C0048093BF0482EC90E017
:103140009093C2048093C10486EC90E09093C404F1
:103150008093C3041092C6041092C7041092C8044E
:103160001092C90483E08093C906CFEFDFEFD093BC
:10317000EB05C093EA058AE090E09093ED0580931B
:10318000EC0549E050E064E072E08EEE95E043D259
:10319000D093E905C093E8058CE390E09093120288
:1031A000809311021092DB051092DC051092DD0570
:1031B0001092DE058091DA058033D0F491E0980F0B
:1031C0009093DA058093E50590E0FC01EE0FFF1F78
:1031D000E80FF91FE65BFA4F88EB9BE0928381834F
:1031E00067E772E08FED95E0DF91CF910C949E0B35
:1031F0008FEF8093E505F4CF789484B5826084BD29
:1032000084B5816084BD85B5826085BD85B58160EA
:1032100085BD80916E00816080936E001092810068
:103220008091810082608093810080918100816023
:1032300080938100809180008160809380008091E4
:10324000B10084608093B1008091B0008160809370
:10325000B0008091910082608093910080919100F4
:1032600081608093910080919000816080939000B4
:103270008091A10082608093A1008091A100816073
:103280008093A1008091A00081608093A000809134
:1032900021018260809321018091210181608093CE
:1032A00021018091200181608093200180917A002A
:1032B000846080937A0080917A00826080937A00A3
:1032C00080917A00816080937A0080917A00806892
:1032D00080937A001092C100E091BD04F091BE0489
:1032E00082E08083E091B904F091BA041082E09109
:1032F000BB04F091BC048FEC80831092C504E09174
:10330000C104F091C20486E08083E091BF04F09193
:10331000C004808180618083E091BF04F091C0048B
:10332000808188608083E091BF04F091C004808137
:1033300080688083E091BF04F091C00480818F7D1C
:1033400080831092E9051092E8050E94510181E006
:10335000809300028093AC0488E090E09093A704EF
:103360008093A6044BE9E42EF12C412C50EC552E11
:1033700059E7652E54EC752E2FB7F894809195047B
:1033800090919604A0919704B09198042FBF20913A
:10339000AC04222309F401C14091A8045091A9046E
:1033A0006091AA047091AB048C019D01041B150B64
:1033B000260B370BB901A80140325E446105710547
:1033C00008F4EBC08093A8049093A904A093AA04E6
:1033D000B093AB04C091A604D091A704CE01992765
:1033E000FC01E254FE4FD490FC01E858FE4FE491FA
:1033F000F0E0EE0FFF1FE25AFE4F0591149110927C
:10340000A1041092A2041092A3041092A40410929A
:10341000A50461E08C2F0E94970360E08C2F0E942E
:10342000320362E170E080E090E00E94230461E0FA
:103430008C2F0E943203C7010197F1F760E08C2FB7
:103440000E94970380E991E0F80120812D2199F4F1
:103450000197D1F74092990450929A0460929B048C
:1034600070929C0440929D0450929E0460929F042E
:103470007092A00462C080E991E0F80120812D21C2
:1034800019F00197D1F7E6CF98E2392E20E8C22E45
:10349000212C80E991E0F80120812D2119F4019778
:1034A000D1F7D8CF0E94C8034B015C0180E991E0BD
:1034B000F80120812D2119F00197D1F7CBCF0E947F
:1034C000C803681979098A099B0969327105810560
:1034D000910538F0E22DF0E0E756FB4F80858C290E
:1034E0008087C69419F4239480E8C82E3A9431104A
:1034F000D0CF61E08C2F0E94970361E08C2F0E9457
:1035000032036091A10470E090E080E091D060937C
:10351000990470939A0480939B0490939C04609107
:10352000A30470E090E080E083D060939D047093EA
:103530009E0480939F049093A004C3E0D0E087E0B2
:1035400093E00E94EB0960919D0470919E0480912C
:103550009F049091A00442E00E944B0A81E493E012
:103560000E943B0A84E493E00E94EB096091990475
:1035700070919A0480919B0490919C0442E00E9477
:103580004B0A81E493E00E943B0A64E670E080E02D
:1035900090E00E942304219791F6809100028823F5
:1035A00001F18091DB059091DC05A091DD05B091E2
:1035B000DE050097A105B105A1F0892BA1F48BE7E9
:1035C00093E00E94EB0968EC70E080E090E00E94DC
:1035D00023041092DB051092DC051092DD05109299
:1035E000DE05B5D9C9CE8CE893E00E94EB09609165
:1035F000DB057091DC058091DD059091DE054AE0E8
:103600000E94F80981E493E00E943B0ADCCF8FED31
:1036100095E00C94240BFB01DC0102C005900D9297
:1036200041505040D8F7089540D008F481E0089503
:10363000E89409C097FB3EF490958095709561954C
:103640007F4F8F4F9F4F9923A9F0F92F96E9BB2702
:103650009395F695879577956795B795F111F8CF7E
:10366000FAF4BB0F11F460FF1BC06F5F7F4F8F4FE9
:103670009F4F16C0882311F096E911C0772321F0DF
:103680009EE8872F762F05C0662371F096E8862F77
:1036900070E060E02AF09A95660F771F881FDAF7CE
:1036A000880F9695879597F90895990F0008550FFB
:1036B000AA0BE0E8FEEF16161706E807F907C0F0B8
:1036C00012161306E407F50798F0621B730B840BC0
:1036D000950B39F40A2661F0232B242B252B21F49A
:1036E00008950A2609F4A140A6958FEF811D811D3A
:1036F00008950BD078C069D028F06ED018F09523CB
:1037000009F05AC05FC01124A2C07ED0A0F3959FDB
:10371000D1F3950F50E0551F629FF001729FBB27B8
:10372000F00DB11D639FAA27F00DB11DAA1F649F64
:103730006627B00DA11D661F829F2227B00DA11D17
:10374000621F739FB00DA11D621F839FA00D611D9D
:10375000221F749F3327A00D611D231F849F600DBE
:10376000211D822F762F6A2F11249F5750408AF0F7
:10377000E1F088234AF0EE0FFF1FBB1F661F771F83
:10378000881F91505040A9F79E3F510570F014C01A
:103790005EC05F3FECF3983EDCF3869577956795C6
:1037A000B795F795E7959F5FC1F7FE2B880F911DA1
:1037B0009695879597F9089597F99F6780E870E047
:1037C00060E008959FEF80EC089500240A94161697
:1037D000170618060906089500240A9412161306FF
:1037E000140605060895092E0394000C11F488238D
:1037F00052F0BB0F40F4BF2B11F460FF04C06F5FA9
:103800007F4F8F4F9F4F089557FD9058440F551F7E
:1038100059F05F3F71F04795880F97FB991F61F052
:103820009F3F79F087950895121613061406551FC9
:10383000F2CF4695F1DF08C0161617061806991F35
:10384000F1CF86957105610508940895E894BB272A
:1038500066277727CB0197F90895052E97FB16F475
:1038600000940FD057FD05D024D007FC02D046F4B9
:1038700008C050954095309521953F4F4F4F5F4F71
:10388000089590958095709561957F4F8F4F9F4FCC
:10389000089531D0A59F900DB49F900DA49F800DE9
:1038A000911D11240895B7FFF4CFF3DF821B930B12
:1038B0000895A1E21A2EAA1BBB1BFD010DC0AA1F71
:1038C000BB1FEE1FFF1FA217B307E407F50720F089
:1038D000A21BB30BE40BF50B661F771F881F991F04
:1038E0001A9469F760957095809590959B01AC014D
:1038F000BD01CF010895A29FB001B39FC001A39F56
:10390000700D811D1124911DB29F700D811D112418
:10391000911D08955058BB27AA270ED064CF55DFBC
:1039200030F05ADF20F031F49F3F11F41EF44ACFFB
:103930000EF4E095E7FB40CFE92F66DF80F3BA177E
:10394000620773078407950718F071F49EF57ECF20
:103950000EF4E0950B2EBA2FA02D0B01B9019001AA
:103960000C01CA01A0011124FF27591B99F0593FEE
:1039700050F4503E68F11A16F040A22F232F342F36
:103980004427585FF3CF469537952795A795F04084
:103990005395C9F77EF41F16BA0B620B730B840B99
:1039A000BAF09150A1F0FF0FBB1F661F771F881F51
:1039B000C2F70EC0BA0F621F731F841F48F48795A9
:1039C00077956795B795F7959E3F08F0B3CF939598
:1039D000880F08F09927EE0F9795879508950CD0DA
:1039E00002CFFADE40F0F1DE30F021F45F3F19F053
:1039F000E3CE51112CCFE6CE07DF98F39923C9F31C
:103A00005523B1F3951B550BBB27AA2762177307E4
:103A1000840738F09F5F5F4F220F331F441FAA1F98
:103A2000A9F333D00E2E3AF0E0E830D09150504058
:103A3000E695001CCAF729D0FE2F27D0660F771F06
:103A4000881FBB1F261737074807AB07B0E809F0E8
:103A5000BB0B802DBF01FF2793585F4F2AF09E3F7D
:103A6000510568F0A9CEF3CE5F3FECF3983EDCF34E
:103A7000869577956795B795F7959F5FC9F7880FF6
:103A8000911D9695879597F90895E1E0660F771F48
:103A9000881FBB1F621773078407BA0720F0621BD9
:103AA000730B840BBA0BEE1F88F7E095089504D0D2
:103AB0006894B111CCCE0895AFDE88F09F5790F096
:103AC000B92F9927B751A0F0D1F0660F771F881F43
:103AD000991F1AF0BA95C9F712C0B13081F0B6DE5D
:103AE000B1E00895B3CE672F782F8827B85F39F0FB
:103AF000B93FCCF3869577956795B395D9F73EF4A2
:103B000090958095709561957F4F8F4F9F4F089549
:103B1000CCDD08F48FEF0895C8DD880B990B08956C
:103B2000991B79E004C0991F961708F0961B881F0F
:103B30007A95C9F780950895AA1BBB1B51E107C070
:103B4000AA1FBB1FA617B70710F0A61BB70B881F2D
:103B5000991F5A95A9F780959095BC01CD010895BC
:103B6000EE0FFF1F881F8BBF0790F691E02D199471
:103B70000F931F93CF93DF938230910510F482E06F
:103B800090E0E091CE06F091CF0630E020E0B0E08A
:103B9000A0E0309799F42115310509F44AC0281B9B
:103BA000390B24303105D8F58A819B816115710567
:103BB00089F1FB0193838283FE0111C04081518111
:103BC0000281138148175907E0F04817590799F403
:103BD000109761F012960C93129713961C933296DD
:103BE000CF01DF91CF911F910F9108950093CE06E1
:103BF0001093CF06F4CF2115310551F0421753072A
:103C000038F0A901DB019A01BD01DF01F801C1CF44
:103C1000EF01F9CF9093CF068093CE06CDCFFE0172
:103C2000E20FF31F81939193225031093983288346
:103C3000D7CF2091CC063091CD06232B41F4209193
:103C40001502309116023093CD062093CC062091B8
:103C50001302309114022115310541F42DB73EB7FE
:103C60004091170250911802241B350BE091CC06AD
:103C7000F091CD06E217F307A0F42E1B3F0B281797
:103C8000390778F0AC014E5F5F4F2417350748F0D5
:103C90004E0F5F1F5093CD064093CC0681939193B6
:103CA0009FCFF0E0E0E09CCFCF93DF930097E9F067
:103CB000FC01329713821282A091CE06B091CF06FA
:103CC000ED0130E020E01097A1F420813181820FD6
:103CD000931F2091CC063091CD062817390709F0A3
:103CE00061C0F093CD06E093CC06DF91CF910895AB
:103CF000EA01CE17DF07E8F54A815B819E01411595
:103D00005105B1F7E901FB83EA8349915991C40F49
:103D1000D51FEC17FD0761F4808191810296840F15
:103D2000951FE90199838883828193819B838A838C
:103D3000F0E0E0E012968D919C9113970097B9F511
:103D40002D913C911197CD010296820F931F2091E6
:103D5000CC063091CD062817390739F6309751F542
:103D60001092CF061092CE06B093CD06A093CC064B
:103D7000BCCFD383C28340815181840F951FC81764
:103D8000D90761F44E5F5F4F88819981480F591FB1
:103D9000518340838A819B819383828321153105DE
:103DA00009F0B0CFF093CF06E093CE069ECFFD0191
:103DB000DC01C0CF13821282D7CF4F925F926F92F5
:103DC0007F928F929F92AF92BF92CF92DF92EF92AB
:103DD000FF920F931F93CF93DF938C01009791F481
:103DE000CB01DF91CF911F910F91FF90EF90DF906A
:103DF000CF90BF90AF909F908F907F906F905F908B
:103E00004F90B6CEFC01E60FF71F9C0122503109FE
:103E1000E217F30708F4AAC0D901CD91DC911197FC
:103E2000C617D70718F1C530D10570F0CE01049739
:103E30008617970748F0C61BD70B2297C193D193DB
:103E40006D937C93CF0130DFC801DF91CF911F913B
:103E50000F91FF90EF90DF90CF90BF90AF909F9029
:103E60008F907F906F905F904F9008955B01AC1A98
:103E7000BD0A4C018C0E9D1EA091CE06B091CF06BE
:103E8000512C412CF12CE12C109731F58091CC066E
:103E90009091CD068815990509F05CC04616570625
:103EA00008F058C08091130290911402009741F4D9
:103EB0008DB79EB74091170250911802841B950B45
:103EC000E817F90708F052C0F093CD06E093CC064E
:103ED000F90171836083B8CF8D919C9111971296EF
:103EE0006C90129713967C901397A815B90559F505
:103EF0006C0142E0C40ED11CCA14DB0420F1AC01F9
:103F00004A195B09DA011296159780F06282738272
:103F100051834083D9016D937C93E114F10471F0D6
:103F2000D7011396FC93EE9312978ECF22968C0FA7
:103F30009D1FF90191838083F301EFCFF093CF06AA
:103F4000E093CE0681CF4816590608F42C017D0176
:103F5000D3019ACFCB010CDE7C01009739F0AE0182
:103F6000B80107D0C801A0DE87016ECF10E000E0E5
:103F70006BCFFB01DC0102C001900D92415050401B
:103F8000D8F70895FB01DC018D9101908019011093
:103F9000D9F3990B0895FB01DC0101900D920020EB
:103FA000E1F7089511E0CEE1D1E000E005C0802FF7
:103FB000FE01D6DD2196011DCF31D10780E0080733
:063FC000B1F7F894FFCFF9
:103FC600015404540454045404540454045404542E
:103FD600043C000000D0068000BF03C203D203DF0A
:103FE60003E803F503CDCCCC3D0AD7233C17B7D164
:103FF6003877CC2B329595E6241FB14F0A00002066
:10400600410000C84200401C4620BCBE4CCA1B0EE4
:104016005AAEC59D74000000006002CB01F801ACE9
:1040260002290207021B022F2F22225C5C6208660D
:104036000C6E0A720D7409000D0A006E616E00693D
:104046006E66006F7666003F3F3F00656D69745F80
:104056003433330066756E6374696F6E5F6E616DBF
:104066006500706172616D65746572730064617478
:10407600615F70696E006269745F6C656E67746813
:1040860000636F646500656D69745F3433335F6325
:104096006861636F6E00656D69745F697200736550
:1040A600745F736572766F00616E676C650072652A
:1040B60063765F34333300656E61626C65007265EA
:1040C60063765F646874007B2266756E6374696FDD
:1040D6006E5F6E616D65223A226468745F74656D09
:1040E6007065726174757265222C22706172616DE1
:1040F6006574657273223A7B2276616C7565223A25
:10410600007D7D007B2266756E6374696F6E5F6EDF
:10411600616D65223A226468745F68756D696469C9
:104126007479222C22706172616D657465727322D6
:104136003A7B2276616C7565223A00556E6B6E6F1E
:10414600776E20656E636F64696E67007B226675A5
:104156006E6374696F6E5F6E616D65223A22726579
:1041660063765F343333222C22706172616D65741D
:10417600657273223A7B2276616C7565223A004F2E
:104186006B00496E636F6D706C657465496E707512
:104196007400496E76616C6964496E707574004E80
:1041A6006F4D656D6F7279004E6F74537570706FD9
:0E41B6007274656400546F6F4465657000009C
:00000001FF
