:100000001EC100000C94700F0C94450F0C941A0F35
:100010000C94EF0E0C94C40E0C94990E0C946E0E6E
:100020000C94430E3DC100003BC1000039C10000EB
:1000300037C100000C949B0F33C1000031C1000098
:100040002FC100002DC100002BC1000029C10000FC
:1000500027C1000025C1000023C100000C94F90D48
:100060001FC100000C94C30D0C94990D19C1000020
:1000700017C1000015C1000013C1000011C100002C
:100080000FC100000DC100000BC1000009C100003C
:1000900007C1000005C1000003C1000001C100004C
:1000A000FFC00000FDC00000FBC00000F9C0000060
:1000B000F7C00000F5C00000F3C00000F1C0000070
:1000C000EFC00000EDC00000EBC00000E9C0000080
:1000D000E7C00000E5C00000E3C00000E1C0000090
:1000E000DFC00000000020002300260029002C00B3
:1000F0002F00320000010000030106010901000089
:100100000A0B02090C0D0E08070304010000000091
:1001100000000000000000000000000000000000DF
:10012000000000000000000000001211100000009C
:1001300000000000000000000000000000000000BF
:100140000000000000002200250028002B002E00E7
:100150003100340002010000050108010B0100001C
:100160002100240027002A002D0030003300010167
:100170000000040107010A01050505050705080837
:100180000808020202020A0A080804040404010121
:100190000101010101010303030303030303040736
:1001A00007070C0C0C0C0C0C0C0C020202020606CD
:1001B0000606060606060B0B0B0B0B0B0B0B0102C0
:1001C0001020200808102040102040800201020169
:1001D0000804020101020408102040808040201021
:1001E000080402018004020180402010080402017A
:1001F00008040201010204081020408001020408E2
:10020000102040805E01011F01030301008A0201EA
:100210000A010202010064001E47040B0906007C6B
:100220000101060103030100F401060E01020201AF
:1002300000C201170101020201017C100512112404
:100240001FBECFEFD1E2DEBFCDBF00E00CBF25E087
:10025000A2EFB2E001C01D92A033B207E1F712E0B5
:10026000A0E0B2E0ECEDF9E200E00BBF02C00790C5
:100270000D92A23FB107D9F711E0CEE1D1E000E045
:1002800006C021970109802FFE010E94BB12CD31CB
:10029000D10780E00807A9F70E94DA100C94DD145A
:1002A000AFCE90E0FC01E254FE4F249188589E4F5F
:1002B000FC018491882399F090E0880F991FFC013C
:1002C000E25AFE4FA591B491FC01EC5BFE4F859183
:1002D00094918FB7F894EC91E22BEC938FBF089533
:1002E000E0914204F0914304EF3FFE0709F466C039
:1002F00010923E0410923F04109240041092410468
:10030000E83008F05BC0DF01BB27AA0FBB1FAF5F5F
:10031000BD4F88EA95E011969C938E93E150E730AB
:1003200070F5F0E08827E856FE4F8F4F0C94BB1213
:10033000C7019F01A701AF01B701CF01D70180918C
:1003400069008C7F816080936900E89A08958091AC
:100350006900837F846080936900E99A08958091A1
:1003600069008F7C806180936900EA9A089580918A
:1003700069008F73806480936900EB9A089580917F
:100380006A008C7F816080936A00EC9A0895809166
:100390006A00837F846080936A00ED9A089580915B
:1003A0006A008F7C806180936A00EE9A0895809144
:1003B0006A008F73806480936A00EF9A0895AF9209
:1003C000BF92CF92DF92EF92FF920F931F93CF9342
:1003D000DF936C017B018B01040F151FEB015E01A4
:1003E000AE18BF08C017D10759F06991D601ED9139
:1003F000FC910190F081E02DC6011995892B79F7C8
:10040000C501DF91CF911F910F91FF90EF90DF9089
:10041000CF90BF90AF900895FC01538D448D252F50
:1004200030E0842F90E0821B930B541710F0CF968E
:10043000089501970895FC01918D828D981761F0C0
:10044000A28DAE0FBF2FB11D5D968C91928D9F5FD7
:100450009F73928F90E008958FEF9FEF0895FC01B6
:10046000918D828D981731F0828DE80FF11D858D69
:1004700090E008958FEF9FEF0895FC01918D228DFC
:10048000892F90E0805C9F4F821B91098F73992781
:10049000089581EA93E0F1DF21E0892B09F420E05F
:1004A000822F0895FC01A48DA80FB92FB11DA35A66
:1004B000BF4F2C91848D90E001968F739927848F84
:1004C000A689B7892C93A089B1898C9183708064A7
:1004D0008C93938D848D981306C00288F389E02D48
:1004E00080818F7D80830895EF92FF920F931F93F9
:1004F000CF93DF93EC0181E0888F9B8D8C8D9813D7
:100500001AC0E889F989808185FF15C09FB7F894E2
:10051000EE89FF896083E889F9898081837080642E
:1005200080839FBF81E090E0DF91CF911F910F9179
:10053000FF90EF900895F62E0B8D10E00F5F1F4F88
:100540000F731127E02E8C8D8E110BC00FB607FC98
:10055000FACFE889F989808185FFF5CFCE01A2DF46
:10056000F2CFEB8DEC0FFD2FF11DE35AFF4FF08220
:100570009FB7F8940B8FEA89FB8980818062D0CF86
:10058000CF93DF93EC01888D8823B1F0AA89BB89D2
:10059000E889F9898C9185FD03C0808186FD0CC0B6
:1005A0000FB607FCF7CF8C9185FFF2CF808185FFD6
:1005B000EDCFCE0177DFEACFDF91CF910895815063
:1005C000823108F05AC0E82FF0E08827E551FD4F4E
:1005D0008F4F0C94BB120B030F03FD0203030703A1
:1005E0003D03120318031C03220326032A033003CE
:1005F00034033D0338033E034203809180008F772C
:10060000809380000895809180008F7DF9CF809144
:100610008000877FF5CF84B58F7784BD089584B53A
:100620008F7DFBCF8091B0008F778093B0000895CD
:100630008091B0008F7DF9CF809190008F7780936B
:1006400090000895809190008F7DF9CF8091900067
:10065000877FF5CF8091A0008F778093A0000895C9
:100660008091A0008F7DF9CF8091A000877FF5CF8A
:10067000809120018F77809320010895809120013F
:100680008F7DF9CF80912001877FF5CF1F93CF9386
:10069000DF93282F30E0F901E250FF4F8491F901F8
:1006A000E254FE4FD491F901E858FE4FC491CC2397
:1006B000A1F0162F811183DFEC2FF0E0EE0FFF1F6A
:1006C000EC5BFE4FA591B4918FB7F894EC911111AA
:1006D00008C0D095DE23DC938FBFDF91CF911F91AF
:1006E0000895DE2BF8CF8230910538F0880F991FDE
:1006F000880F991F05970197F1F70895CF93DF931E
:10070000EC018091230560E0C1DFCE01DF91CF9144
:10071000EACF1F93CF93DF93182FD92F80915004E6
:1007200060E0C1E0811102C061E0C0E0809144045A
:10073000ADDF80914804909149049C01129FC00153
:10074000139F900D1124CFDF6C2F809144049EDF06
:1007500080914804909149049C01D29FC001D39F8D
:10076000900D1124DF91CF911F91BDCF3FB7F89429
:1007700080919D0390919E03A0919F03B091A0034F
:1007800026B5A89B05C02F3F19F00196A11DB11DEC
:100790003FBFBA2FA92F982F8827BC01CD01620F28
:1007A000711D811D911D42E0660F771F881F991FE3
:1007B0004A95D1F708958F929F92AF92BF92CF92B0
:1007C000DF92EF92FF926C01D1DF4B015C010D2CA7
:1007D000000CEE08FF08CADF681979098A099B092D
:1007E0006C157D058E059F0598F48091230561E0C9
:1007F0004DDF809124059091250575DF80912305BB
:1008000060E044DF80912405909125056CDFE3CF03
:10081000FF90EF90DF90CF90BF90AF909F908F9020
:1008200008950895FC01808191818330910540F500
:10083000019708F441C00280F381E02D3097E1F187
:10084000808161E070E0843749F18B3279F18D323B
:1008500071F5319691E070E060E04AE0819120ED21
:10086000280F2A3030F5469F9001479F300D112404
:10087000682F880F770B60537109620F731FEECFDB
:100880008530910548F0059759F062817381848124
:1008900095810E94541202C062817381CB01089538
:1008A00062817381719561957109F8CF319690E0FD
:1008B000D2CF9111F7CFF2CF70E060E0EFCFFC0123
:1008C000A081B1818C918D3021F03CF4895082302F
:1008D000A8F51196B183A083F3CF8032D1F38F3284
:1008E00009F0089511968C9111978A3219F08F3280
:1008F000C1F008951196B183A083A081B181CD018B
:1009000001969183808311968C9111978823B1F081
:100910008A3299F712968C9112978F3271F713964B
:10092000D9CFA081B181CD010196918380831196A9
:100930008C91882319F08A30A1F7C2CF08951F93B4
:10094000CF93DF93EC01162FBADFE881F981808124
:10095000181308C03196F983E88381E0DF91CF91C5
:100960001F91089580E0FACFEF92FF920F931F93AB
:10097000CF93DF938C01DC011496CD91DC91EA805A
:10098000FB808E819F81E80EF91EC801029697DFD9
:10099000D8011296ED91FC918081873219F0823254
:1009A00009F042C03196D8011396FC93EE9312974A
:1009B000D8011296ED91FC9113979081992309F437
:1009C00062C09F012F5F3F4F13963C932E93129767
:1009D000891709F458C09C3599F49181A5E3B2E0D8
:1009E0002C91222321F092131DC011969C919923E2
:1009F00009F449C03296D8011396FC93EE931297EE
:100A00004E815F819A012F5F3F4F6C817D8162171C
:100A1000730770F2EA81FB81E40FF51F3F832E8399
:100A20009083C6CF1296DCCF80330CF444C08A3357
:100A300024F08F3504F18B3704F5F80122813381DE
:100A40002F5F3F4F338322834E815F819A012F5F57
:100A50003F4F6C817D816217730738F0EA81FB811B
:100A6000E40FF51F3F832E838083D8011296ED910A
:100A7000FC918081D9CF8134F4F08B35F4F293ED81
:100A8000980F9230D0F22E813F81C90101964C819E
:100A90005D814817590790F0EA81FB81E20FF31F4F
:100AA0009F838E831082C701DF91CF911F910F9199
:100AB000FF90EF9008958B3211F7BFCFF12CE12C0E
:100AC000F2CFFC0186819781680F791F24813581DF
:100AD0002617370738F022813381820F931F7783DF
:100AE0006683089590E080E008958091020381116B
:100AF0000BC01092FF021092FE021092010310929E
:100B0000000381E0809302038EEF92E008958091CC
:100B1000F60281110BC01092F3021092F2021092B1
:100B2000F5021092F40281E08093F60282EF92E0E7
:100B30000895DB01109749F0ED91FC911197019018
:100B4000F081E02DBC01CD01199490E080E0089582
:100B50002F923F924F925F926F927F928F929F92CD
:100B6000AF92BF92CF92DF92EF92FF920F931F93BB
:100B7000CF93DF93CDB7DEB761970FB6F894DEBFA2
:100B80000FBECDBFF3DD6B017C018091940390918A
:100B900095033601681A790A2DEC621620E1720677
:100BA00008F4D1C080910E0390910F03D301A81BCC
:100BB000B90BCD01B7FF03C0919581959109883C90
:100BC00091050CF0BCC080910C0390910D0301962F
:100BD00090930D0380930C03029709F0B0C004E0DA
:100BE00012E040900A0350900B0349E050E0B80136
:100BF000CE0101960E9409128B816C81681708F45E
:100C0000682F70E080910E0390910F030E9485126F
:100C10009B014091110250911202649FC001659F97
:100C2000900D749F900D112464E670E00E9485126F
:100C3000898541E050E0882311F042E050E08D8149
:100C4000829FF001839FF00D1124FB87EA878E813C
:100C5000829FD001839FB00D1124BD87AC878F8107
:100C6000829FF001839FF00D1124FF87EE87888516
:100C7000829F1001839F300C1124FA01EE0FFF1F99
:100C8000E25FFC4F812C912C5401920121503109DB
:100C9000398B288B888999894817590708F03FC0F4
:100CA000880C991CAA1CBB1C808191819C01AA857F
:100CB000BB852A1B3B0B37FF03C0319521953109BA
:100CC0002617370770F422813381AC85BD852A1B36
:100CD0003B0B37FF03C031952195310926173707A4
:100CE000D0F02E853F85821B930B97FF03C0919513
:100CF0008195910986179707B8F4828193818219AB
:100D0000930997FF03C091958195910986179707DD
:100D100058F4689480F84E5F5F4F3496BBCF38E04C
:100D20004316510408F051C0075F1F4F82E00A3399
:100D3000180709F056CF10920D0310920C03109271
:100D40000B0310920A0380910A0390910B038334E2
:100D5000910540F010920B0310920A0310920D03BC
:100D600010920C0380910A0390910B039C012F5F5A
:100D70003F4F30930B0320930A03880F991FFC0108
:100D8000E25FFC4F71826082C0929403D09295031F
:100D9000E0929603F092970361960FB6F894DEBF47
:100DA0000FBECDBFDF91CF911F910F91FF90EF90BC
:100DB000DF90CF90BF90AF909F908F907F906F907B
:100DC0005F904F903F902F90089580923E049092B4
:100DD0003F04A0924004B0924104ADCFFC010190C9
:100DE0000020E9F73197AF01481B590BBC0181EA9C
:100DF00093E0E5CA0F931F93CF93DF938B01FC0120
:100E0000C281D381209759F06A817B810115110538
:100E100019F06115710549F46017710759F4CE0195
:100E2000DF91CF911F910F910895C8010E94CD14B9
:100E3000892BA9F30990D881C02DE4CFDBCF089589
:100E400060E472E0FBDF009749F0FC01248135810A
:100E50002730310519F486819781089546CEEF92A7
:100E6000FF920F931F93CF93DF937B01FC0162816D
:100E7000738180819181E2DFEC01892B29F10C8162
:100E80001D810130110559F46E817F816115710555
:100E900031F08BE492E00E94CD14892BA9F001502F
:100EA00011090230110580F46E817F81F701808184
:100EB0009181009719F06115710549F421E08617B9
:100EC000970751F020E008C070E060E0EFCF0E948B
:100ED000CD1421E0892BB1F7822FDF91CF911F91A3
:100EE0000F91FF90EF900895CF93DF9360E572E04C
:100EF000A5DFFC01892B09F464C0848195818330CE
:100F0000910588F5019708F45CC00680F781E02D13
:100F1000309709F456C08081843709F456C08B326B
:100F200009F442C08D3209F040C03196D1E060E052
:100F300070E0CB01C19120ED2C0F2A30C0F5AAE062
:100F4000B0E09B01AC010E943B122C2FCC0F330B65
:100F500020533109032E000C440B550B620F731FF5
:100F6000841F951FE7CF8530910548F0059771F0F4
:100F700066817781808591850E94591204C06681BF
:100F8000778180859185DF91CF91089586819781C2
:100F9000A085B1859C01AD0166277727CB01621B37
:100FA000730B840B950BEFCF3196D0E0C0CFDD23D0
:100FB00051F390958095709561957F4F8F4F9F4F1E
:100FC000E2CF60E070E0CB01DECF61E070E080E076
:100FD00090E0D9CF33DF009711F0049623CC90E056
:100FE00080E00895AF92BF92CF92DF92EF92FF928E
:100FF0000F931F93CF93DF9300D000D0CDB7DEB710
:101000007C01DC0116968C91811103C06EDD8C0190
:101010007EC08150F7018683C080D180B60184E014
:1010200090E087DD8C01009709F483C0DC01119604
:10103000DC92CE9213961C921E9212976701B2E038
:10104000CB0ED11C6BE7C6017ADC8823F9F26DE781
:10105000C60175DC811157C0C70186DC5C01892B94
:10106000A9F26AE3C6016BDC882381F21A82198235
:10107000BE016F5F7F4FC7015FD0882309F4C6CFE1
:10108000B501C801B7DE009751F5F80160817181A3
:101090008AE090E04EDD009741F0DC0111961C9251
:1010A0001E9215961C921E921497D8011296ED91DD
:1010B000FC91309729F4F8019383828308C0F901E9
:1010C0002081318121153105D1F7918380830097EB
:1010D00009F49CCFDC011396BC92AE92129726E0E5
:1010E000FE013196DC01149601900D922A95E1F7EC
:1010F0006DE7C60124DC811106C06CE2C6011FDC6D
:101100008111AACF83CFF70186818F5F8683C801C3
:1011100026960FB6F894DEBF0FBECDBFDF91CF91FC
:101120001F910F91FF90EF90DF90CF90BF90AF9005
:101130000895DBDC8C0182CF8F929F92AF92BF9299
:10114000CF92DF92EF92FF920F931F93CF93DF9393
:1011500000D000D0CDB7DEB77C016B015C0182E02E
:10116000A80EB11CC501ABDBD7011296ED91FC9125
:10117000139780818B35D9F08B3709F4A9C011E022
:10118000873219F0823209F010E0C701EDDB0097D9
:1011900009F47DC021E030E0112309F4A2C022E06F
:1011A00030E0F601318320839383828371C0F7019D
:1011B0008681811103C0ABDC8C0164C0815016961E
:1011C0008C9316978D909C90B40184E090E0B1DCF4
:1011D0008C01009709F48EC0FC01918280821382F9
:1011E00012826BE5C501ABDB882329F36DE5C501F0
:1011F000A6DB811140C01A821982BE016F5F7F4F4A
:10120000C7019ADF8823B9F2D8016D917C9188E0FB
:1012100090E08FDCDC01892B39F011961C921E9234
:1012200013961C921E921297F80122813381211588
:10123000310521F4B383A28308C09C01F9018081A8
:1012400091810097D1F7B183A083109709F4B3CFB0
:1012500086E0FE013196129601900D928A95E1F793
:101260006DE5C5016CDB811106C06CE2C50167DB71
:101270008111C1CFA0CFD70116968C9116978F5FA1
:1012800016968C93F80180819181892BA9F410E046
:10129000812F26960FB6F894DEBF0FBECDBFDF912B
:1012A000CF911F910F91FF90EF90DF90CF90BF9063
:1012B000AF909F908F90089586E090E0D6011196B0
:1012C0009C938E9313961C930E93129711E0E0CF8C
:1012D000C70188DEFC0120813181232BC1F227E088
:1012E00030E0D60111963C932E9313969C938E93E7
:1012F0001297ECCF0CDC8C0174CFFC0180819181C2
:10130000009711F00C945F1308950F931F93CF93E0
:10131000DF93EC0188819981009759F02A813B8104
:101320002617370730F081E0DF91CF911F910F91A1
:1013300008958B016F5F7F4F0E94E813009759F06B
:10134000998388831B830A832C813D81232B59F742
:10135000FC011082E8CF80E0E7CFEF92FF920F937D
:101360001F93CF93DF93EC017B018A01BA01CDDF9C
:1013700028813981811114C02115310519F0C90165
:101380000E945F13198218821D821C821B821A829E
:10139000CE01DF91CF911F910F91FF90EF900895B3
:1013A0001D830C83B701C9010E94D614F1CFFC0143
:1013B000118210821382128215821482FB01019025
:1013C0000020E9F73197AF01461B570BC6CF2F928C
:1013D0003F924F925F926F927F928F929F92AF92C5
:1013E000BF92CF92DF92EF92FF920F931F93CF9312
:1013F000DF93CDB7DEB7C65AD1400FB6F894DEBF43
:101400000FBECDBF9E01275F3F4F3C832B8320E95A
:1014100031E03E832D8318861F822DE132E03A832E
:101420002983FC0180819181009711F48FE392E080
:101430009E012F5F3F4FC756DE4F39832883C9591E
:10144000D140C556DE4F99838883CB59D140C356CE
:10145000DE4F39832883CD59D1408AE0C156DE4F13
:101460008883CF59D140CE0187569E4FBBDD8C017A
:1014700065E572E0CE0187569E4F99DFC056DE4F7C
:1014800019830883C05AD140AEE5CA2EA2E0DA2EF5
:10149000CE55DE4FD982C882C25AD140BE016756AE
:1014A0007E4FCE0180569E4FDADCF82ECE01875655
:1014B0009E4F23DFFF2009F42AC1C801C1DC6CE67E
:1014C00072E088DDE82ED92EC801BADC65E772E04B
:1014D00081DD1C01C801B4DC60E572E0AFDCFC0119
:1014E000892B09F487C0848195818330910580F52B
:1014F000019708F47FC00680F781E02D309709F44A
:1015000079C08081843709F479C08B3209F46CC0CA
:101510008D3209F06AC03196412C512C3201119163
:1015200080ED810F8A3008F062C0AAE0B0E0A3012C
:101530009201A1D7212F110F330B2053310929011B
:10154000330F66087708460E571E681E791EE7CFD0
:101550008530910558F0059709F439C06681778187
:1015600080859185A1D72B013C0104C0468057801E
:1015700060847184E0924404D09245048E2D0E94D0
:1015800051018091440490914504019609F49FC053
:1015900000914204109143040F3F100709F443C027
:1015A000083008F03AC098013327EFEFE00FE7303A
:1015B00008F06EC0F0E08827E052F54F8F4FDBC790
:1015C0004A0B030B420B440B460B4C0B4E0B468055
:1015D0005780608471847094609450944094411C4E
:1015E000511C611C711CC6CF3196F12C95CFF110A6
:1015F000F2CFC0CF412C512C3201BCCF412C512C09
:1016000032014394B7CFE898220F331FF901EF5FFF
:10161000FD4F81E194E0918380838FEF9FEF909362
:10162000430480934204D12CC12C812C912C540171
:1016300083948091460490914704C816D9060CF013
:101640003DC0710181E0E81AF108F7FC2EC0D50118
:10165000C4010E2C04C0880F991FAA1FBB1F0A9437
:10166000D2F784219521A621B721892B8A2B8B2B98
:10167000B9F080914E0490914F044BD8E1E0EE1AFE
:10168000F108E3CFE998C0CFEA98BECFEB98BCCF82
:10169000EC98BACFED98B8CFEE98B6CFEF98B4CF1C
:1016A00080914C0490914D04E8CF80914A04909130
:1016B0004B042FD8FFEFCF1ADF0ABBCF0F3F100725
:1016C00031F010934304009342040E9470018FEFA5
:1016D0009FEF9093450480934404CA55DE4F0FB6A4
:1016E000F894DEBF0FBECDBFDF91CF911F910F9158
:1016F000FF90EF90DF90CF90BF90AF909F908F9032
:101700007F906F905F904F903F902F90089560E88A
:1017100072E0CE0187569E4F4ADEC056DE4F1983D7
:101720000883C05AD140CE55DE4FD982C882C25AF2
:10173000D140BE0167567E4FCE0180569E4F8FDB53
:10174000F82ECE0187569E4FD8DDFF2009F4A7C0A2
:10175000C80176DB6CE672E03DDC382EC80170DB38
:10176000C3DBCC55DE4F6883C45AD140CB55DE4F26
:101770007883C55AD140282ECA55DE4F9883C65A61
:10178000D14045E0E42EF12C0BE613E053E7852E23
:1017900055E0952E6BEDA62E65E1B62E61E0832D0A
:1017A0000E944603C8010197F1F760E0832D0E9473
:1017B000460387EC99E20197F1F7CC55DE4F48805C
:1017C000C45AD140CB55DE4F5880C55AD140622C07
:1017D000CA55DE4F7880C65AD14030E2C32ED12C94
:1017E00061E0832D77FE42C00E944603C801019745
:1017F000F1F760E0832D0E944603C5010197F1F7E0
:1018000061E0832D0E944603C8010197F1F760E073
:10181000832D0E944603C4010197F1F7440C551C27
:10182000661C771C81E0C81AD108D1F661E0832DCF
:101830000E944603C8010197F1F760E0832D0E94E2
:1018400046038BE995EA0197F1F761E0832D0E9449
:101850004603C8010197F1F760E0832D0E9446031B
:10186000E1E0EE1AF10809F099CF37CF0E94460364
:10187000C8010197F1F760E0832D0E944603C4017F
:101880000197F1F761E0832D0E944603C80101979B
:10189000F1F760E0832D0E944603C501BDCF60E9EA
:1018A00072E0CE0187569E4F82DDC056DE4F19830F
:1018B0000883C05AD140CE55DE4FD982C882C25A61
:1018C000D140BE0167567E4FCE0180569E4FC7DA8B
:1018D000F82ECE0187569E4F10DDFF2009F463C01D
:1018E000C801AEDA6CE672E075DBD82EC801A8DA62
:1018F00065E772E06FDB7C01C801A2DAF5DA4B0123
:101900005C01D09223058DE090E0909325058093B3
:101910002405809123050E9451018091230560E0F8
:101920000E94460388E293E20E94DB0384E991E18E
:101930000E947E03C7010197C12CD12C7601C3946C
:1019400004C0CC0CDD1CEE1CFF1C8A95D2F7C11420
:10195000D104E104F104F1F0D501C4018C219D21F1
:10196000AE21BF21892B8A2B8B2B69F080E392E07B
:101970000E94DB038AE996E00E947E03F694E794D6
:10198000D794C794E4CF80E392E00E94DB0380E326
:1019900092E0F2CF80E392E00E94DB0390E080E0EF
:1019A0000E947E039ACE68E972E0CE0187569E4F70
:1019B000FEDCC056DE4F19830883C05AD140CE5595
:1019C000DE4FD982C882C25AD140BE0167567E4FCF
:1019D000CE0180569E4F43DAE82ECE0187569E4FA9
:1019E0008CDCEE2009F479CEC8012ADA6CE672E0CC
:1019F000F1DA6C01C80124DA61EA72E01FDA0097BB
:101A000041F004960E941204FF24F394892B09F4F8
:101A1000F12CD0924304C09242040E947001F092D3
:101A200000025BCE0F931F93CF93DF9300D000D0C3
:101A3000CDB7DEB781EA93E00E941B02853261F5E3
:101A40001A8219821C821B821E821D8260912605C9
:101A5000709127056115710539F040912A05509163
:101A60002B05CE01019679DCCE010196B0DCCE01CA
:101A7000019643DC50E040E06FE372E086E295E0DF
:101A80006CDC26960FB6F894DEBF0FBECDBFDF919B
:101A9000CF911F910F91089589831A8200912A0591
:101AA00010912B050F5F1F4FB80186E295E02DDCEA
:101AB000882339F3209126053091270580912A0546
:101AC00090912B05BE016F5F7F4F820F931F6ED7E2
:101AD00010932B0500932A05D4CF0E94490281114F
:101AE000A1DF80E090E0892B49F080E090E0892B35
:101AF00029F00E94000081110E94000080E090E027
:101B0000892B49F080E090E0892B29F00E940000A9
:101B100081110E94000080E090E0892B49F080E074
:101B200090E0892B29F00E94000081110C940000A4
:101B300008951F920F920FB60F9211240BB60F92B9
:101B40002F933F934F935F936F937F938F939F93C5
:101B5000AF93BF93EF93FF9381EA93E00E94520209
:101B6000FF91EF91BF91AF919F918F917F916F9175
:101B70005F914F913F912F910F900BBE0F900FBE31
:101B80000F901F9018951F920F920FB60F9211246D
:101B90000BB60F922F938F939F93EF93FF93E09148
:101BA000B103F091B2038081E091B703F091B803E3
:101BB00082FD1DC090818091BA038F5F8F73209149
:101BC000BB03821741F0E091BA03F0E0EF55FC4F00
:101BD000958F8093BA03FF91EF919F918F912F91F1
:101BE0000F900BBE0F900FBE0F901F901895808125
:101BF000F2CF1F920F920FB60F9211242F933F93A3
:101C00008F939F93AF93BF938091990390919A0381
:101C1000A0919B03B0919C033091980323E0230F84
:101C20002D3758F50196A11DB11D2093980380937F
:101C3000990390939A03A0939B03B0939C03809184
:101C40009D0390919E03A0919F03B091A0030196E4
:101C5000A11DB11D80939D0390939E03A0939F03AC
:101C6000B093A003BF91AF919F918F913F912F911E
:101C70000F900FBE0F901F90189526E8230F029625
:101C8000A11DB11DD2CF1F920F920FB60F9211243A
:101C90000BB60F922F933F934F935F936F937F9366
:101CA0008F939F93AF93BF93EF93FF93E0910F02B6
:101CB000F09110021995FF91EF91BF91AF919F9113
:101CC0008F917F916F915F914F913F912F910F90E5
:101CD0000BBE0F900FBE0F901F9018951F920F9282
:101CE0000FB60F9211240BB60F922F933F934F9381
:101CF0005F936F937F938F939F93AF93BF93EF9374
:101D0000FF93E0910D02F0910E021995FF91EF9172
:101D1000BF91AF919F918F917F916F915F914F9103
:101D20003F912F910F900BBE0F900FBE0F901F9001
:101D300018951F920F920FB60F9211240BB60F92A7
:101D40002F933F934F935F936F937F938F939F93C3
:101D5000AF93BF93EF93FF93E0910302F0910402DE
:101D60001995FF91EF91BF91AF919F918F917F91C5
:101D70006F915F914F913F912F910F900BBE0F90FC
:101D80000FBE0F901F9018951F920F920FB60F92D3
:101D900011240BB60F922F933F934F935F936F9342
:101DA0007F938F939F93AF93BF93EF93FF93E091B4
:101DB0000102F09102021995FF91EF91BF91AF914D
:101DC0009F918F917F916F915F914F913F912F9153
:101DD0000F900BBE0F900FBE0F901F9018951F9283
:101DE0000F920FB60F9211240BB60F922F933F93C1
:101DF0004F935F936F937F938F939F93AF93BF9313
:101E0000EF93FF93E0910B02F0910C021995FF9173
:101E1000EF91BF91AF919F918F917F916F915F9162
:101E20004F913F912F910F900BBE0F900FBE0F90CF
:101E30001F9018951F920F920FB60F9211240BB698
:101E40000F922F933F934F935F936F937F938F9353
:101E50009F93AF93BF93EF93FF93E0910902F091AB
:101E60000A021995FF91EF91BF91AF919F918F91C8
:101E70007F916F915F914F913F912F910F900BBE8A
:101E80000F900FBE0F901F9018951F920F920FB6D4
:101E90000F9211240BB60F922F933F934F935F93A2
:101EA0006F937F938F939F93AF93BF93EF93FF9322
:101EB000E0910702F09108021995FF91EF91BF910F
:101EC000AF919F918F917F916F915F914F913F91D2
:101ED0002F910F900BBE0F900FBE0F901F90189573
:101EE0001F920F920FB60F9211240BB60F922F93E1
:101EF0003F934F935F936F937F938F939F93AF9392
:101F0000BF93EF93FF93E0910502F09106021995BC
:101F1000FF91EF91BF91AF919F918F917F916F91C1
:101F20005F914F913F912F910F900BBE0F900FBE7D
:101F30000F901F9018951F920F920FB60F921124B9
:101F40000BB60F922F933F934F935F936F937F93B3
:101F50008F939F93AF93BF93CF93DF93EF93FF93B1
:101F60002091520430E0F901E250FF4F8491F901D1
:101F7000E254FE4FD491F901E858FE4FC491CC23AE
:101F800079F081110E94DF02EC2FF0E0EE0FFF1FCD
:101F9000EC51FF4FA591B491EC91ED2381E009F450
:101FA00080E020915604309157042F5F3F4F3093CB
:101FB00057042093560490915504953618F096E0F6
:101FC0009093510490915104943009F466C0B8F490
:101FD0009230F1F0933009F444C090915404992365
:101FE00009F46BC081117EC080915304882309F4E9
:101FF00063C08091530461E00E9446035EC0953047
:1020000009F457C0963049F791E0909322054FC0EC
:102010008111E3CF209156043091570424363105C5
:1020200028F41092570410925604D7CF109222052C
:1020300010925504E091550491E09E0F9093550441
:10204000F0E02091560430915704EE0FFF1FEF5A35
:10205000FB4F30872783109257041092560493E069
:1020600019C0813009F0B9CFE091550491E09E0F7D
:1020700090935504F0E02091560430915704EE0FF0
:10208000FF1FEF5AFB4F308727831092570410929F
:10209000560494E090935104A0CF882359F22091E4
:1020A0005604309157042536310508F496CF95E053
:1020B000F1CF811192CFB5CF2F9AFF91EF91DF91A0
:1020C000CF91BF91AF919F918F917F916F915F91D0
:1020D0004F913F912F910F900BBE0F900FBE0F901D
:1020E0001F90189580915304882321F08091530408
:1020F00060E082CF2F98E1CF0F931F93CF93DF93B0
:10210000E1EAF3E01382128288EE93E0A0E0B0E00F
:1021100084839583A683B78383E292E0918380834F
:1021200085EC90E09587848784EC90E0978786879C
:1021300080EC90E0918B808B81EC90E0938B828B94
:1021400082EC90E0958B848B86EC90E0978B868B6D
:10215000118E128E138E148E6FE372E086E295E07C
:1021600026D983E080932305C2E4D4E00FEF1FEF6C
:102170001B830A838AE090E09D838C8349E050E0D2
:1021800064E072E088E494E044D1198308838CE32E
:1021900090E0909312028093110210923E041092EC
:1021A0003F041092400410924104DF91CF911F919F
:1021B0000F910895CF93DF93CDB7DEB7A1970FB6F8
:1021C000F894DEBF0FBECDBF789484B5826084BD25
:1021D00084B5816084BD85B5826085BD85B581602B
:1021E00085BD80916E00816080936E0010928100A9
:1021F0008091810082608093810080918100816064
:102200008093810080918000816080938000809124
:10221000B10084608093B1008091B00081608093B0
:10222000B000809191008260809391008091910034
:1022300081608093910080919000816080939000F4
:102240008091A10082608093A1008091A1008160B3
:102250008093A1008091A00081608093A000809174
:10226000210182608093210180912101816080930E
:1022700021018091200181608093200180917A006A
:10228000846080937A0080917A00826080937A00E3
:1022900080917A00816080937A0080917A008068D2
:1022A00080937A001092C100E091B103F091B203E3
:1022B00082E08083E091AD03F091AE031082E09163
:1022C000AF03F091B0038FEC80831092B903E091DB
:1022D000B503F091B60386E08083E091B303F091FB
:1022E000B403808180618083E091B303F091B403F3
:1022F000808188608083E091B303F091B403808192
:1023000080688083E091B303F091B40380818F7D76
:10231000808310924304109242040E94700181E075
:10232000809300029AE0492E512C612C712C8091EF
:1023300000028823F1F180913E0490913F04A09126
:102340004004B09141040097A105B10591F1892B9A
:1023500091F588EA92E00E94EE060E94B6034B01D6
:102360005C0188ECC82ED12CE12CF12C0E94B60324
:10237000681979098A099B09683E734081059105AE
:10238000A8F3F1E0CF1AD108E108F10828EE820E97
:1023900023E0921EA11CB11CC114D104E104F1047C
:1023A00029F710923E0410923F04109240041092BC
:1023B000410493DBBCCF89EB92E00E94EE062091B2
:1023C0003E0430913F04409140045091410419A2D1
:1023D0008E010F5D1F4FCA01B901A3019201A9D05F
:1023E000605DF80162938F012115310541055105AA
:1023F00091F7309719F0CF010E94EE068CEE92E033
:102400000E94EE068FEE92E0A6CF86E295E00C9455
:102410007D09FB01DC0102C005900D924150504046
:10242000D8F7089557FD9058440F551F59F05F3F56
:1024300071F04795880F97FB991F61F09F3F79F0E6
:1024400087950895121613061406551FF2CF469568
:10245000F1DF08C0161617061806991FF1CF8695EA
:102460007105610508940895E894BB2766277727CE
:10247000CB0197F9089509D0A59F900DB49F900DB9
:10248000A49F800D911D11240895A29FB001B39FB8
:10249000C001A39F700D811D1124911DB29F700D6D
:1024A000811D1124911D089504D06894B111DDCFD0
:1024B0000895C0DF88F09F5790F0B92F9927B75142
:1024C000A0F0D1F0660F771F881F991F1AF0BA95F8
:1024D000C9F712C0B13081F0C7DFB1E00895C4CFB1
:1024E000672F782F8827B85F39F0B93FCCF38695EE
:1024F00077956795B395D9F73EF49095809570954B
:1025000061957F4F8F4F9F4F0895AA1BBB1B51E1D1
:1025100007C0AA1FBB1FA617B70710F0A61BB70B53
:10252000881F991F5A95A9F780959095BC01CD01F8
:102530000895A1E21A2EAA1BBB1BFD010DC0AA1F04
:10254000BB1FEE1FFF1FA217B307E407F50720F01C
:10255000A21BB30BE40BF50B661F771F881F991F97
:102560001A9469F760957095809590959B01AC01E0
:10257000BD01CF010895EE0FFF1F881F8BBF07908D
:10258000F691E02D19940F931F93CF93DF93823030
:10259000910510F482E090E0E0912E05F0912F0576
:1025A00030E020E0B0E0A0E0309799F4211531054B
:1025B00009F44AC0281B390B24303105D8F58A812B
:1025C0009B816115710589F1FB0193838283FE0173
:1025D00011C0408151810281138148175907E0F0F1
:1025E0004817590799F4109761F012960C931297B7
:1025F00013961C933296CF01DF91CF911F910F91CB
:10260000089500932E0510932F05F4CF2115310561
:1026100051F04217530738F0A901DB019A01BD01BF
:10262000DF01F801C1CFEF01F9CF90932F0580931F
:102630002E05CDCFFE01E20FF31F8193919322501F
:10264000310939832883D7CF20912C0530912D056E
:10265000232B41F4209115023091160230932D0561
:1026600020932C052091130230911402211531057D
:1026700041F42DB73EB74091170250911802241B28
:10268000350BE0912C05F0912D05E217F307A0F42E
:102690002E1B3F0B2817390778F0AC014E5F5F4FB8
:1026A0002417350748F04E0F5F1F50932D054093B8
:1026B0002C05819391939FCFF0E0E0E09CCFCF93E6
:1026C000DF930097E9F0FC01329713821282A09108
:1026D0002E05B0912F05ED0130E020E01097A1F418
:1026E00020813181820F931F20912C0530912D057F
:1026F0002817390709F061C0F0932D05E0932C05E8
:10270000DF91CF910895EA01CE17DF07E8F54A81FE
:102710005B819E0141155105B1F7E901FB83EA8315
:1027200049915991C40FD51FEC17FD0761F48081C1
:1027300091810296840F951FE90199838883828194
:1027400093819B838A83F0E0E0E012968D919C91C7
:1027500013970097B9F52D913C911197CD010296F1
:10276000820F931F20912C0530912D0528173907D2
:1027700039F6309751F510922F0510922E05B0932F
:102780002D05A0932C05BCCFD383C28340815181FA
:10279000840F951FC817D90761F44E5F5F4F88817A
:1027A0009981480F591F518340838A819B8193836C
:1027B00082832115310509F0B0CFF0932F05E09306
:1027C0002E059ECFFD01DC01C0CF13821282D7CF30
:1027D0004F925F926F927F928F929F92AF92BF9231
:1027E000CF92DF92EF92FF920F931F93CF93DF93DD
:1027F0008C01009791F4CB01DF91CF911F910F9144
:10280000FF90EF90DF90CF90BF90AF909F908F9010
:102810007F906F905F904F90B6CEFC01E60FF71F50
:102820009C0122503109E217F30708F4AAC0D9012C
:10283000CD91DC911197C617D70718F1C530D10596
:1028400070F0CE0104978617970748F0C61BD70B88
:102850002297C193D1936D937C93CF0130DFC80150
:10286000DF91CF911F910F91FF90EF90DF90CF906C
:10287000BF90AF909F908F907F906F905F904F90A0
:1028800008955B01AC1ABD0A4C018C0E9D1EA091EF
:102890002E05B0912F05512C412CF12CE12C1097D5
:1028A00031F580912C0590912D058815990509F039
:1028B0005CC04616570608F058C0809113029091EC
:1028C0001402009741F48DB79EB7409117025091C2
:1028D0001802841B950BE817F90708F052C0F09313
:1028E0002D05E0932C05F90171836083B8CF8D919C
:1028F0009C91119712966C90129713967C90139757
:10290000A815B90559F56C0142E0C40ED11CCA14D2
:10291000DB0420F1AC014A195B09DA011296159724
:1029200080F06282738251834083D9016D937C93DE
:10293000E114F10471F0D7011396FC93EE93129712
:102940008ECF22968C0F9D1FF90191838083F30116
:10295000EFCFF0932F05E0932E0581CF481659064F
:1029600008F42C017D01D3019ACFCB010CDE7C0150
:10297000009739F0AE01B80107D0C801A0DE870189
:102980006ECF10E000E06BCFFB01DC0102C00190D4
:102990000D9241505040D8F70895FB01DC018D9114
:1029A000019080190110D9F3990B0895FB01DC0106
:1029B00001900D920020E1F7089511E0CEE1D1E001
:1029C00000E005C0802FFE01D6DD2196011DCF312C
:0C29D000D10780E00807B1F7F894FFCFB2
:1029DC000111041104110411041104110411041146
:1029EC00043C000000300580000000000061050080
:1029FC000000007402DF010C02C0023D021B022F1A
:102A0C000222225C5C6208660C6E0A720D7409006C
:102A1C00706172616D6574657273006E756C6C00BB
:102A2C00636F646500656D69745F3433330066757C
:102A3C006E6374696F6E5F6E616D65006461746165
:102A4C005F70696E006269745F6C656E67746800B4
:102A5C00656D69745F3433335F636861636F6E00F7
:102A6C00656D69745F697200726563765F343333C8
:102A7C0000656E61626C6500556E6B6E6F776E20D3
:102A8C00656E636F64696E67007B2266756E637436
:102A9C00696F6E5F6E616D65223A22726563765F57
:102AAC00343333222C22706172616D6574657273DC
:102ABC00223A7B2276616C7565223A007D7D000D91
:022ACC000A00FE
:00000001FF
