:100000000C947E000C94010D0C94DA0C0C94A60058
:100010000C94A6000C94A6000C94A6000C94280D39
:100020000C94A6000C94A6000C94A6000C94A600B8
:100030000C94A6000C94A6000C94A6000C94A600A8
:100040000C94900C0C94A6000C945E0C0C94380C40
:100050000C94A6000C94A6000C94A6000C94A60088
:100060000C94A6000C94A6000000000023002600BB
:10007000290000000008000201000003040700003E
:1000800000000000000000000000250028002B00F8
:1000900000000000240027002A00040404040404D3
:1000A0000404020202020202030303030303010227
:1000B00004081020408001020408102001020408F6
:1000C00010205E01011F01030301008A02010A01E1
:1000D0000202010064001E47040B0906007C0101B6
:1000E000060103030100F401060E0102020100C231
:1000F0000117010102020101050E5C0F11241FBE50
:10010000CFEFD8E0DEBFCDBF23E0A0ECB1E001C06F
:100110001D92AE3FB207E1F711E0A0E0B1E0EAEBDB
:10012000F4E202C005900D92A03CB107D9F710E0AF
:10013000CDE7D0E004C02197FE010E944F10CC37DC
:10014000D107C9F70E94640E0C9450120C94000061
:1001500090E0FC01E255FF4F249186569F4FFC0131
:100160008491882399F090E0880F991FFC01E05753
:10017000FF4FA591B491FC01EA57FF4F85919491EF
:100180008FB7F894EC91E22BEC938FBF0895AF9268
:10019000BF92CF92DF92EF92FF920F931F93CF9374
:1001A000DF936C017B018B01040F151FEB015E01D6
:1001B000AE18BF08C017D10759F06991D601ED916B
:1001C000FC910190F081E02DC6010995892B79F70A
:1001D000C501DF91CF911F910F91FF90EF90DF90BC
:1001E000CF90BF90AF900895FC01538D448D252F83
:1001F00030E0842F90E0821B930B541710F0CF96C1
:10020000089501970895FC01918D828D981761F0F2
:10021000A28DAE0FBF2FB11D5D968C91928D9F5F09
:100220009F73928F90E008958FEF9FEF0895FC01E8
:10023000918D828D981731F0828DE80FF11D858D9B
:1002400090E008958FEF9FEF0895FC01918D228D2E
:10025000892F90E0805C9F4F821B91098F739927B3
:1002600008958FE692E00E94250121E0892B09F490
:1002700020E0822F0895FC01A48DA80FB92FB11D95
:10028000A35ABF4F2C91848D90E001968F739927CC
:10029000848FA689B7892C93A089B1898C918370AA
:1002A00080648C93938D848D981306C00288F389A3
:1002B000E02D80818F7D80830895EF92FF920F93D0
:1002C0001F93CF93DF93EC0181E0888F9B8D8C8D02
:1002D00098131AC0E889F989808185FF15C09FB7F6
:1002E000F894EE89FF896083E889F98980818370B9
:1002F000806480839FBF81E090E0DF91CF911F9168
:100300000F91FF90EF900895F62E0B8D10E00F5F88
:100310001F4F0F731127E02E8C8D8E110CC00FB65E
:1003200007FCFACFE889F989808185FFF5CFCE01F6
:100330000E943B01F1CFEB8DEC0FFD2FF11DE35A35
:10034000FF4FF0829FB7F8940B8FEA89FB89808179
:100350008062CFCFCF93DF93EC01888D8823B9F0F3
:10036000AA89BB89E889F9898C9185FD03C08081C0
:1003700086FD0DC00FB607FCF7CF8C9185FFF2CF3D
:10038000808185FFEDCFCE010E943B01E9CFDF9157
:10039000CF910895833081F028F4813099F0823034
:1003A000A9F008958730A9F08830C9F08430B1F4FD
:1003B000809180008F7D03C0809180008F77809333
:1003C0008000089584B58F7784BD089584B58F7DAE
:1003D000FBCF8091B0008F778093B000089580911B
:1003E000B0008F7DF9CF1F93CF93DF93282F30E09C
:1003F000F901EE58FF4F8491F901E255FF4FD49176
:10040000F901E656FF4FC491CC23A9F0162F8111B4
:100410000E94CA01EC2FF0E0EE0FFF1FEA57FF4FDA
:10042000A591B4918FB7F894EC91111108C0D095B3
:10043000DE23DC938FBFDF91CF911F910895DE2BD8
:10044000F8CF8230910538F0880F991F880F991FD7
:1004500005970197F1F70895CF93DF93EC01809111
:10046000F70360E00E94F301CE01DF91CF910C947D
:1004700021021F93CF93DF93182FD92F809124034C
:1004800060E0C1E0811102C061E0C0E0809118032A
:100490000E94F30180911C0390911D039C01129F07
:1004A000C001139F900D11240E9421026C2F809196
:1004B00018030E94F30180911C0390911D039C017D
:1004C000D29FC001D39F900D1124DF91CF911F9136
:1004D0000C9421023FB7F89480916B0290916C02CA
:1004E000A0916D02B0916E0226B5A89B05C02F3F6A
:1004F00019F00196A11DB11D3FBFBA2FA92F982F4A
:100500008827BC01CD01620F711D811D911D42E044
:10051000660F771F881F991F4A95D1F708958F920C
:100520009F92AF92BF92CF92DF92EF92FF926C01B7
:100530000E946A024B015C010D2C000CEE08FF08C2
:100540000E946A02681979098A099B096C157D0560
:100550008E059F05B8F48091F70361E00E94F301D6
:100560008091F8039091F9030E9421028091F70392
:1005700060E00E94F3018091F8039091F9030E94DA
:100580002102DECFFF90EF90DF90CF90BF90AF9031
:100590009F908F9008950895FC01A081B1818C9166
:1005A0008D3021F03CF489508230A8F51196B1834A
:1005B000A083F3CF8032D1F38F3209F008951196E2
:1005C0008C9111978A3219F08F32C1F008951196EB
:1005D000B183A083A081B181CD01019691838083F5
:1005E00011968C9111978823B1F08A3299F712965F
:1005F0008C9112978F3271F71396D9CFA081B18168
:10060000CD0101969183808311968C91882319F0F6
:100610008A30A1F7C2CF08951F93CF93DF93EC01E7
:10062000162F0E94CC02E881F9818081181308C03E
:100630003196F983E88381E0DF91CF911F9108958E
:1006400080E0FACFEF92FF920F931F93CF93DF9347
:100650008C01DC011496CD91DC91EA80FB808E81C7
:100660009F81E80EF91EC80102960E94CC02D801B3
:100670001296ED91FC918081873219F0823209F057
:1006800042C03196D8011396FC93EE931297D8018D
:100690001296ED91FC9113979081992309F462C011
:1006A0009F012F5F3F4F13963C932E93129789170C
:1006B00009F458C09C3599F49181A8E2B1E02C91DD
:1006C000222321F092131DC011969C91992309F4C5
:1006D00049C03296D8011396FC93EE9312974E813F
:1006E0005F819A012F5F3F4F6C817D816217730795
:1006F00070F2EA81FB81E40FF51F3F832E83908324
:10070000C6CF1296DCCF80330CF444C08A3324F079
:100710008F3504F18B3704F5F801228133812F5F87
:100720003F4F338322834E815F819A012F5F3F4F7A
:100730006C817D816217730738F0EA81FB81E40FD9
:10074000F51F3F832E838083D8011296ED91FC9193
:100750008081D9CF8134F4F08B35F4F293ED980F8A
:100760009230D0F22E813F81C90101964C815D818A
:100770004817590790F0EA81FB81E20FF31F9F832E
:100780008E831082C701DF91CF911F910F91FF904F
:10079000EF9008958B3211F7BFCFF12CE12CF2CFFF
:1007A000FC0186819781680F791F24813581261786
:1007B000370738F022813381820F931F7783668356
:1007C000089590E080E008958091D00181110BC0E0
:1007D0001092CD011092CC011092CF011092CE0157
:1007E00081E08093D0018CEC91E008958091C40168
:1007F00081110BC01092C1011092C0011092C3016F
:100800001092C20181E08093C40180EC91E00895D0
:10081000DB01109749F0ED91FC9111970190F08167
:10082000E02DBC01CD01099490E080E008952F9265
:100830003F924F925F926F927F928F929F92AF9270
:10084000BF92CF92DF92EF92FF920F931F93CF93BD
:10085000DF93CDB7DEB761970FB6F894DEBF0FBE5A
:10086000CDBF0E946A026B017C018091620290916F
:1008700063023601681A790A2DEC621620E17206CD
:1008800008F4D1C08091DC019091DD01D301A81B57
:10089000B90BCD01B7FF03C0919581959109883CB3
:1008A00091050CF0BCC08091DA019091DB010196BA
:1008B0009093DB018093DA01029709F0B0C002EC5B
:1008C00010E04090D8015090D90149E050E0B801C3
:1008D000CE0101960E94600F8B816C81681708F42D
:1008E000682F70E08091DC019091DD010E94191069
:1008F0009B014091040150910501649FC001659FD7
:10090000900D749F900D112464E670E00E94191000
:10091000898541E050E0882311F042E050E08D816C
:10092000829FF001839FF00D1124FB87EA878E815F
:10093000829FD001839FB00D1124BD87AC878F812A
:10094000829FF001839FF00D1124FF87EE87888539
:10095000829F1001839F300C1124FA01EE0FFF1FBC
:10096000E452FE4F812C912C540192012150310907
:10097000398B288B888999894817590708F03FC017
:10098000880C991CAA1CBB1C808191819C01AA85A2
:10099000BB852A1B3B0B37FF03C0319521953109DD
:1009A0002617370770F422813381AC85BD852A1B59
:1009B0003B0B37FF03C031952195310926173707C7
:1009C000D0F02E853F85821B930B97FF03C0919536
:1009D0008195910986179707B8F4828193818219CE
:1009E000930997FF03C09195819591098617970701
:1009F00058F4689480F84E5F5F4F3496BBCF38E070
:100A00004316510408F051C0075F1F4F80E0083FB4
:100A1000180709F056CF1092DB011092DA011092FC
:100A2000D9011092D8018091D8019091D9018334D5
:100A3000910540F01092D9011092D8011092DB017B
:100A40001092DA018091D8019091D9019C012F5F19
:100A50003F4F3093D9012093D801880F991FFC0193
:100A6000E452FE4F71826082C0926202D0926302B1
:100A7000E0926402F092650261960FB6F894DEBFD0
:100A80000FBECDBFDF91CF911F910F91FF90EF90DF
:100A9000DF90CF90BF90AF909F908F907F906F909E
:100AA0005F904F903F902F90089580920C0390920A
:100AB0000D03A0920E03B0920F03ADCFFC01019085
:100AC0000020E9F73197AF01481B590BBC018FE6B5
:100AD00092E00C94C7000F931F93CF93DF938B0189
:100AE000FC01C281D381209759F06A817B81011575
:100AF000110519F06115710549F46017710759F472
:100B0000CE01DF91CF911F910F910895C8010E94EE
:100B10004012892BA9F30990D881C02DE4CF0E94FF
:100B20006B05089563E371E00E948F05009749F01B
:100B3000FC01248135812730310519F486819781A4
:100B400008950C94E403EF92FF920F931F93CF93B9
:100B5000DF937B01FC0162817381808191810E941E
:100B60008F05EC01892B29F10C811D8101301105C4
:100B700059F46E817F816115710531F08EE391E04A
:100B80000E944012892BA9F0015011090230110571
:100B900080F46E817F81F70180819181009719F047
:100BA0006115710549F421E08617970751F020E09F
:100BB00008C070E060E0EFCF0E94401221E0892B76
:100BC000B1F7822FDF91CF911F910F91FF90EF909E
:100BD0000895CF93DF9363E471E00E948F05FC01D9
:100BE000892B09F464C0848195818330910588F54F
:100BF000019708F45CC00680F781E02D309709F476
:100C000056C08081843709F456C08B3209F442C043
:100C10008D3209F040C03196D1E060E070E0CB0148
:100C2000C19120ED2C0F2A30C0F5AAE0B0E09B0165
:100C3000AC010E94920F2C2FCC0F330B20533109A3
:100C4000032E000C440B550B620F731F841F951F5E
:100C5000E7CF8530910548F0059771F0668177817F
:100C6000808591850E94EA0F04C066817781808526
:100C70009185DF91CF91089586819781A085B18577
:100C80009C01AD0166277727CB01621B730B840B98
:100C9000950BEFCF3196D0E0C0CFDD2351F3909587
:100CA0008095709561957F4F8F4F9F4FE2CF60E0A9
:100CB00070E0CB01DECF61E070E080E090E0D9CF62
:100CC0000E948F05FC01892B09F449C0848195811C
:100CD0008330910540F5019708F441C00680F78103
:100CE000E02D3097E1F1808161E070E0843749F1D7
:100CF0008B3279F18D3271F5319691E070E060E0E0
:100D00004AE0819120ED280F2A3030F5469F90016E
:100D1000479F300D1124682F880F770B605371099E
:100D2000620F731FEECF8530910548F0059759F09B
:100D300066817781808591850E94E30F02C066817C
:100D40007781CB01089566817781719561957109ED
:100D5000F8CF319690E0D2CF9111F7CFF2CF70E07B
:100D600060E0EFCFAF92BF92CF92DF92EF92FF920F
:100D70000F931F93CF93DF9300D000D000D0CDB757
:100D8000DEB77C01DC0116968C91811104C00E94B3
:100D9000E4038C0188C08150F7018683C080D18034
:100DA000B60184E090E00E9408048C01009709F4E9
:100DB0008CC0DC011196DC92CE9213961C921E928E
:100DC00012976701B2E0CB0ED11C6BE7C6010E94FF
:100DD0000C038823E1F26DE7C6010E940C03811128
:100DE0005EC0C7010E9422035C01892B81F26AE385
:100DF000C6010E940C03882351F21A821982BE0197
:100E00006F5F7F4FC7010E946907882309F4BFCF36
:100E1000B501C8010E946B05009759F5F801608182
:100E200071818AE090E00E940804009741F0DC01A3
:100E300011961C921E9215961C921E921497D80120
:100E40001296ED91FC91309729F4F80193838283F7
:100E500008C0F9012081318121153105D1F7918335
:100E60008083009709F493CFDC011396BC92AE9275
:100E7000129726E0FE013196DC01149601900D9246
:100E80002A95E1F76DE7C6010E940C03811107C0A6
:100E90006CE2C6010E940C038111A3CF78CFF70149
:100EA00086818F5F8683C80126960FB6F894DEBFD1
:100EB0000FBECDBFDF91CF911F910F91FF90EF90AB
:100EC000DF90CF90BF90AF9008950E94E4038C0113
:100ED00078CF8F929F92AF92BF92CF92DF92EF9294
:100EE000FF920F931F93CF93DF9300D000D000D0D9
:100EF000CDB7DEB77C016B015C0182E0A80EB11CAE
:100F0000C5010E94CC02D7011296ED91FC91139776
:100F100080818B35E1F08B3709F4B2C011E0873264
:100F200019F0823209F010E0C7010E9422030097F5
:100F300009F485C021E030E0112309F4ABC022E0C0
:100F400030E0F601318320839383828379C0F701F7
:100F50008681811104C00E94F6038C016BC0815010
:100F600016968C9316978D909C90B40184E090E037
:100F70000E9408048C01009709F495C0FC0191823D
:100F80008082138212826BE5C5010E940C038823C4
:100F900011F36DE5C5010E940C03811144C01A8252
:100FA0001982BE016F5F7F4FC7010E9469078823C6
:100FB00091F2D8016D917C9188E090E00E94080444
:100FC000DC01892B39F011961C921E9213961C920B
:100FD0001E921297F801228133812115310521F4E7
:100FE000B383A28308C09C01F9018081918100979D
:100FF000D1F7B183A083109709F4ADCF86E0FE014D
:101000003196129601900D928A95E1F76DE5C50132
:101010000E940C03811107C06CE2C5010E940C0301
:101020008111BDCF98CFD70116968C9116978F5FFF
:1010300016968C93F80180819181892BA9F410E098
:10104000812F26960FB6F894DEBF0FBECDBFDF917D
:10105000CF911F910F91FF90EF90DF90CF90BF90B5
:10106000AF909F908F90089586E090E0D601119602
:101070009C938E9313961C930E93129711E0E0CFDE
:10108000C7010E94B206FC0120813181232BB9F2F5
:1010900027E030E0D60111963C932E9313969C9353
:1010A0008E931297EBCF0E94F6038C016CCFFC015C
:1010B00080819181009711F00C94F11008950F93A5
:1010C0001F93CF93DF93EC0188819981009759F0AA
:1010D0002A813B812617370730F081E0DF91CF91DD
:1010E0001F910F9108958B016F5F7F4F0E947A11BE
:1010F000009759F0998388831B830A832C813D8153
:10110000232B59F7FC011082E8CF80E0E7CFEF9264
:10111000FF920F931F93CF93DF93EC017B018A0122
:10112000BA010E945F0828813981811114C02115FC
:10113000310519F0C9010E94F110198218821D822F
:101140001C821B821A82CE01DF91CF911F910F91D9
:10115000FF90EF9008951D830C83B701C9010E9491
:101160004912F1CFFC011182108213821282158282
:101170001482FB0101900020E9F73197AF01461B73
:10118000570B0C9487082F923F924F925F926F9269
:101190007F928F929F92AF92BF92CF92DF92EF9207
:1011A000FF920F931F93CF93DF93CDB7DEB7C65A4D
:1011B000D1400FB6F894DEBF0FBECDBF9E01275FB2
:1011C0003F4F3C832B8320E931E03E832D831886FB
:1011D0001F8220E131E03A832983FC0180819181E3
:1011E000009711F482E391E09E012F5F3F4FC756B5
:1011F000DE4F39832883C959D140C556DE4F9983C4
:101200008883CB59D140C356DE4F39832883CD59CB
:10121000D1408AE0C156DE4F8883CF59D140CE01FC
:1012200087569E4F0E94B2068C0168E471E0CE01A1
:1012300087569E4F0E94B208C056DE4F198308831E
:10124000C05AD14081E5C82E81E0D82ECE55DE4F60
:10125000D982C882C25AD140BE0167567E4FCE01A4
:1012600080569E4F0E94A305F82ECE0187569E4FB2
:101270000E945708FF2009F437C1C8010E94920557
:101280006FE571E00E946006E82ED92EC8010E9429
:10129000920568E671E00E9460061C01C8010E9488
:1012A000920563E471E00E948F05FC01892B09F42B
:1012B000BAC08481958183309105A0F5019708F427
:1012C000B2C00680F781E02D309709F4ACC0808170
:1012D000412C512C320143948437B9F18B3209F4FB
:1012E0009CC08D3209F09AC03196412C512C3201AC
:1012F000119180ED810F8A3008F092C0AAE0B0E031
:10130000A30192010E94920F212F110F330B205342
:1013100031092901330F66087708460E571E681EEB
:10132000791EE6CF8530910560F0059709F468C015
:1013300066817781808591850E94E30F2B013C01B6
:1013400004C04680578060847184E0921803D09274
:1013500019038E2D0E94A800809118039091190303
:10136000019609F499C000911603109117030F3FDD
:101370001007B1F0023070F4F801FF27013009F4D2
:1013800056C0E898EE0FFF1FE050FF4F8BEC92E045
:10139000918380838FEF9FEF9093170380931603C1
:1013A000D12CC12C812C912C5401839480911A034F
:1013B00090911B03C816D9060CF04AC0710181E058
:1013C000E81AF108F7FC3AC0D501C4010E2C04C09C
:1013D000880F991FAA1FBB1F0A94D2F78421952159
:1013E000A621B721892B8A2B8B2B19F180912203FF
:1013F000909123030E943902E1E0EE1AF108E2CF56
:1014000046805780608471847094609450944094B6
:10141000411C511C611C711C98CF3196F12C65CF79
:10142000F110F2CF92CF412C512C32018ECFE9989E
:10143000A9CF8091200390912103DCCF80911E03DE
:1014400090911F030E943902FFEFCF1ADF0AAECF3F
:101450000F3F100709F11093170300931603109222
:101460000C0310920D0310920E0310920F03023022
:1014700098F4F801FF27EE0FFF1FE050FF4F27E120
:1014800034E031832083013039F1809169008C7F11
:10149000816080936900E89A8FEF9FEF9093190322
:1014A00080931803CA55DE4F0FB6F894DEBF0FBE07
:1014B000CDBFDF91CF911F910F91FF90EF90DF9003
:1014C000CF90BF90AF909F908F907F906F905F90E4
:1014D0004F903F902F90089580916900837F8460A2
:1014E00080936900E99AD8CF63E771E0CE0187560F
:1014F0009E4F0E94B208C056DE4F19830883C05A1F
:10150000D140CE55DE4FD982C882C25AD140BE01E9
:1015100067567E4FCE0180569E4F0E94A305F82E3F
:10152000CE0187569E4F0E945708FF2009F4ABC09A
:10153000C8010E9492056FE571E00E946006382E96
:10154000C8010E9492050E94E905CC55DE4F6883D0
:10155000C45AD140CB55DE4F7883C55AD140282E8E
:10156000CA55DE4F9883C65AD14045E0E42EF12C8F
:101570000BE613E053E7852E55E0952E6BEDA62E76
:1015800065E1B62E61E0832D0E94F301C801019749
:10159000F1F760E0832D0E94F30187EC99E2019757
:1015A000F1F7CC55DE4F4880C45AD140CB55DE4FC1
:1015B0005880C55AD140622CCA55DE4F7880C65A31
:1015C000D14030E2C32ED12C61E0832D77FE42C0A2
:1015D0000E94F301C8010197F1F760E0832D0E949A
:1015E000F301C5010197F1F761E0832D0E94F3013A
:1015F000C8010197F1F760E0832D0E94F301C40157
:101600000197F1F7440C551C661C771C81E0C81A41
:10161000D108D1F661E0832D0E94F301C801019742
:10162000F1F760E0832D0E94F3018BE995EA0197C1
:10163000F1F761E0832D0E94F301C8010197F1F7F2
:1016400060E0832D0E94F301E1E0EE1AF10809F059
:1016500099CF28CF0E94F301C8010197F1F760E00C
:10166000832D0E94F301C4010197F1F761E0832DFE
:101670000E94F301C8010197F1F760E0832D0E94F9
:10168000F301C501BDCF63E871E0CE0187569E4FDF
:101690000E94B208C056DE4F19830883C05AD14059
:1016A000CE55DE4FD982C882C25AD140BE0167569C
:1016B0007E4FCE0180569E4F0E94A305F82ECE018C
:1016C00087569E4F0E945708FF2009F4EBCEC801B1
:1016D0000E9492056FE571E00E946006D82EC80155
:1016E0000E94920568E671E00E9460067C01C801D4
:1016F0000E9492050E94E9054B015C01D092F7031C
:101700008DE090E09093F9038093F8038091F703C4
:101710000E94A8008091F70360E00E94F30188E234
:1017200093E20E948F0284E991E10E942C02C7019A
:101730000197C12CD12C7601C39404C0CC0CDD1CC4
:10174000EE1CFF1C8A95D2F7C114D104E104F10408
:10175000F1F0D501C4018C219D21AE21BF21892B3F
:101760008A2B8B2B69F080E392E00E948F028AE93A
:1017700096E00E942C02F694E794D794C794E4CFA5
:1017800080E392E00E948F0280E392E0F2CF80E358
:1017900092E00E948F0290E080E00E942C0282CEB4
:1017A0000F931F93CF93DF9300D000D000D0CDB71D
:1017B000DEB78FE692E00E940301853281F51A823E
:1017C00019821C821B821E821D82609110037091FF
:1017D00011036115710541F04091140350911503F7
:1017E000CE0101960E948708CE0101960E94C3088F
:1017F000CE0101960E94570850E040E062E371E09C
:1018000080E193E00E94870826960FB6F894DEBF29
:101810000FBECDBFDF91CF911F910F9108958983A6
:101820001A8200911403109115030F5F1F4FB80126
:1018300080E193E00E945F08882331F32091100338
:10184000309111038091140390911503BE016F5FD5
:101850007F4F820F931F0E9449121093150300932C
:101860001403D2CF0E94310181110C94D00B089542
:101870001F920F920FB60F9211242F933F934F9305
:101880005F936F937F938F939F93AF93BF93EF93E8
:10189000FF938FE692E00E943B01FF91EF91BF9191
:1018A000AF919F918F917F916F915F914F913F91F8
:1018B0002F910F900FBE0F901F9018951F920F92AF
:1018C0000FB60F9211242F938F939F93EF93FF9353
:1018D000E0917F02F09180028081E0918502F09199
:1018E000860282FD1BC09081809188028F5F8F737A
:1018F00020918902821741F0E0918802F0E0E159DD
:10190000FD4F958F80938802FF91EF919F918F916A
:101910002F910F900FBE0F901F9018958081F4CFDC
:101920001F920F920FB60F9211242F933F938F9314
:101930009F93AF93BF938091670290916802A091AB
:101940006902B0916A023091660223E0230F2D37BD
:1019500058F50196A11DB11D209366028093670280
:1019600090936802A0936902B0936A0280916B021F
:1019700090916C02A0916D02B0916E020196A11D32
:10198000B11D80936B0290936C02A0936D02B09393
:101990006E02BF91AF919F918F913F912F910F90C8
:1019A0000FBE0F901F90189526E8230F0296A11DD9
:1019B000B11DD2CF1F920F920FB60F9211242F9309
:1019C0003F934F935F936F937F938F939F93AF93C7
:1019D000BF93EF93FF93E0910201F091030109950A
:1019E000FF91EF91BF91AF919F918F917F916F91F7
:1019F0005F914F913F912F910F900FBE0F901F90CD
:101A000018951F920F920FB60F9211242F933F93A8
:101A10004F935F936F937F938F939F93AF93BF93F6
:101A2000EF93FF93E0910001F09101010995FF917F
:101A3000EF91BF91AF919F918F917F916F915F9146
:101A40004F913F912F910F900FBE0F901F901895BF
:101A50001F920F920FB60F9211242F933F934F9323
:101A60005F936F937F938F939F93AF93BF93CF9326
:101A7000DF93EF93FF932091260330E0F901EE58B6
:101A8000FF4F8491F901E255FF4FD491F901E656D9
:101A9000FF4FC491CC2379F081110E94CA01EC2F31
:101AA000F0E0EE0FFF1FE859FF4FA591B491EC91C4
:101AB000ED2381E009F480E020912A0330912B038B
:101AC0002F5F3F4F30932B0320932A0390912903DC
:101AD000953618F096E09093250390912503943065
:101AE00009F466C0B8F49230F1F0933009F444C0C0
:101AF00090912803992309F46BC081117CC08091D7
:101B00002703882309F463C08091270361E00E94C2
:101B1000F3015EC0953009F457C0963049F791E063
:101B20009093F6034FC08111E3CF20912A033091A7
:101B30002B032436310528F410922B0310922A032C
:101B4000D7CF1092F60310922903E091290391E078
:101B50009E0F90932903F0E020912A0330912B03EC
:101B6000EE0FFF1FEB5DFC4F3087278310922B0396
:101B700010922A0393E019C0813009F0B9CFE091A7
:101B8000290391E09E0F90932903F0E020912A030E
:101B900030912B03EE0FFF1FEB5DFC4F3087278347
:101BA00010922B0310922A0394E090932503A0CF68
:101BB000882359F220912A0330912B0325363105D1
:101BC00008F496CF95E0F1CF811192CFB5CF2D9A41
:101BD000FF91EF91DF91CF91BF91AF919F918F9145
:101BE0007F916F915F914F913F912F910F900FBE19
:101BF0000F901F90189580912703882321F08091E2
:101C0000270360E084CF2D98E3CF0F931F93CF93EA
:101C1000DF93EFE6F2E01382128288EE93E0A0E019
:101C2000B0E084839583A683B78386E191E09183B6
:101C3000808385EC90E09587848784EC90E097879B
:101C4000868780EC90E0918B808B81EC90E0938B89
:101C5000828B82EC90E0958B848B86EC90E0978B66
:101C6000868B118E128E138E148E83E08093F70371
:101C7000C6E1D3E00FEF1FEF1B830A838AE090E0F9
:101C80009D838C8349E050E062EC70E08CE193E04E
:101C90000E94600F198308838CE390E09093050104
:101CA0008093040110920C0310920D0310920E0306
:101CB00010920F0362E371E080E193E0DF91CF9136
:101CC0001F910F910C94B208CF93DF93CDB7DEB77D
:101CD000A1970FB6F894DEBF0FBECDBF789484B540
:101CE000826084BD84B5816084BD85B5826085BD18
:101CF00085B5816085BD80916E00816080936E00A6
:101D00001092810080918100826080938100809197
:101D10008100816080938100809180008160809348
:101D200080008091B10084608093B1008091B00008
:101D300081608093B00080917A00846080937A0003
:101D400080917A00826080937A0080917A0081602D
:101D500080937A0080917A00806880937A00109254
:101D6000C100E0917F02F091800282E08083E091E7
:101D70007B02F0917C021082E0917D02F0917E0264
:101D80008FEC808310928702E0918302F0918402AD
:101D900086E08083E0918102F091820280818061FF
:101DA0008083E0918102F09182028081886080834B
:101DB000E0918102F0918202808180688083E091CD
:101DC0008102F091820280818F7D80839AE0492E8A
:101DD000512C612C712C80910C0390910D03A091DA
:101DE0000E03B0910F030097A105B10591F1892B66
:101DF000C1F58BE891E00E945E050E946A024B01EA
:101E00005C0188ECC82ED12CE12CF12C0E946A02D6
:101E1000681979098A099B09683E73408105910513
:101E2000A8F3F1E0CF1AD108E108F10828EE820EFC
:101E300023E0921EA11CB11CC114D104E104F104E1
:101E400029F710920C0310920D0310920E031092BA
:101E50000F030E943101882309F4BDCF0E94D00BEB
:101E6000BACF8CE991E00E945E0520910C0330917D
:101E70000D0340910E0350910F0319A28E010F5DC7
:101E80001F4FCA01B901A30192010E942D10605D8C
:101E9000F80162938F01211531054105510589F73C
:101EA000309719F0CF010E945E058AEB91E00E9405
:101EB0005E058CEB91E09FCF80E193E00C94570896
:101EC000FB01DC0102C005900D9241505040D8F753
:101ED000089557FD9058440F551F59F05F3F71F01A
:101EE0004795880F97FB991F61F09F3F79F0879581
:101EF0000895121613061406551FF2CF4695F1DF0A
:101F000008C0161617061806991FF1CF8695710599
:101F1000610508940895E894BB2766277727CB01CD
:101F200097F908950E94D40FA59F900DB49F900D2E
:101F3000A49F800D911D112408952F923F924F92DE
:101F40005F926F927F928F929F92AF92BF92CF9249
:101F5000DF92EF92FF920F931F93CF93DF93CDB752
:101F6000DEB7CA1BDB0B0FB6F894DEBF0FBECDBFCA
:101F700009942A88398848885F846E847D848C849B
:101F80009B84AA84B984C884DF80EE80FD800C81A4
:101F90001B81AA81B981CE0FD11D0FB6F894DEBF87
:101FA0000FBECDBFED010895A29FB001B39FC00148
:101FB000A39F700D811D1124911DB29F700D811D75
:101FC0001124911D08950E94EA0F6894B1110C9498
:101FD0008C0F08950E94710F88F09F5798F0B92FC9
:101FE0009927B751B0F0E1F0660F771F881F991F4E
:101FF0001AF0BA95C9F714C0B13091F00E948B0F56
:10200000B1E008950C948B0F672F782F8827B85F65
:1020100039F0B93FCCF3869577956795B395D9F7A5
:102020003EF490958095709561957F4F8F4F9F4FAF
:102030000895AA1BBB1B51E107C0AA1FBB1FA6170F
:10204000B70710F0A61BB70B881F991F5A95A9F761
:1020500080959095BC01CD010895A1E21A2EAA1B8E
:10206000BB1BFD010DC0AA1FBB1FEE1FFF1FA21748
:10207000B307E407F50720F0A21BB30BE40BF50B45
:10208000661F771F881F991F1A9469F760957095CE
:10209000809590959B01AC01BD01CF010895EE0F95
:1020A000FF1F0590F491E02D09940F931F93CF9398
:1020B000DF938230910510F482E090E0E091FC0320
:1020C000F091FD0330E020E0B0E0A0E0309799F41B
:1020D0002115310509F44AC0281B390B243031057C
:1020E000D8F58A819B816115710589F1FB01938384
:1020F0008283FE0111C04081518102811381481702
:102100005907E0F04817590799F4109761F01296B3
:102110000C93129713961C933296CF01DF91CF91B7
:102120001F910F9108950093FC031093FD03F4CFCA
:102130002115310551F04217530738F0A901DB0191
:102140009A01BD01DF01F801C1CFEF01F9CF9093F2
:10215000FD038093FC03CDCFFE01E20FF31F8193BB
:1021600091932250310939832883D7CF2091FA03E4
:102170003091FB03232B41F4209108013091090198
:102180003093FB032093FA0320910601309107015D
:102190002115310541F42DB73EB740910A01509108
:1021A0000B01241B350BE091FA03F091FB03E217BE
:1021B000F307A0F42E1B3F0B2817390778F0AC016A
:1021C0004E5F5F4F2417350748F04E0F5F1F509347
:1021D000FB034093FA03819391939FCFF0E0E0E0FB
:1021E0009CCFCF93DF930097E9F0FC0132971382E5
:1021F0001282A091FC03B091FD03ED0130E020E0DC
:102200001097A1F420813181820F931F2091FA034E
:102210003091FB032817390709F061C0F093FB03E5
:10222000E093FA03DF91CF910895EA01CE17DF071B
:10223000E8F54A815B819E0141155105B1F7E9013D
:10224000FB83EA8349915991C40FD51FEC17FD0711
:1022500061F4808191810296840F951FE901998331
:102260008883828193819B838A83F0E0E0E01296E9
:102270008D919C9113970097B9F52D913C911197F1
:10228000CD010296820F931F2091FA033091FB0338
:102290002817390739F6309751F51092FD0310923F
:1022A000FC03B093FB03A093FA03BCCFD383C28398
:1022B00040815181840F951FC817D90761F44E5F83
:1022C0005F4F88819981480F591F518340838A81CC
:1022D0009B81938382832115310509F0B0CFF09360
:1022E000FD03E093FC039ECFFD01DC01C0CF138210
:1022F0001282D7CFB0E0A0E0E0E8F1E10C949F0FAC
:102300008C01009751F4CB010E9455108C01C8013B
:10231000CDB7DEB7E0E10C94BB0FFC01E60FF71F71
:102320009C0122503109E217F30708F49DC0D9013E
:10233000CD91DC911197C617D70798F0C530D1051C
:1023400030F3CE0104978617970708F3C61BD70B07
:102350002297C193D1936D937C93CF010E94F1108A
:10236000D6CF5B01AC1ABD0A4C018C0E9D1EA0910C
:10237000FC03B091FD03512C412CF12CE12C109762
:1023800031F58091FA039091FB038815990509F0C6
:102390005CC04616570608F058C08091060190911F
:1023A0000701009741F48DB79EB740910A01509103
:1023B0000B01841B950BE817F90708F055C0F09343
:1023C000FB03E093FA03F90171836083A0CF8D9141
:1023D0009C91119712966C90129713967C9013977C
:1023E000A815B90559F56C0142E0C40ED11CCA14F8
:1023F000DB0420F1AC014A195B09DA01129615974A
:1024000080F06282738251834083D9016D937C9303
:10241000E114F10471F0D7011396FC93EE93129737
:1024200076CF22968C0F9D1FF90191838083F30153
:10243000EFCFF093FD03E093FC0369CF48165906F4
:1024400008F42C017D01D3019ACFCB010E945510D5
:102450007C01009749F0AE01B8010E943712C80113
:102460000E94F110870153CF10E000E050CFFB0134
:10247000DC0102C001900D9241505040D8F7089500
:10248000FB01DC018D91019080190110D9F3990BAA
:102490000895FB01DC0101900D920020E1F7089501
:1024A00010E0CDE7D0E004C0FE010E944F1021965D
:0A24B000CE37D107C9F7F894FFCF2B
:1024BA00CB02CB023C000000FE03800000000000BB
:1024CA00D003000000005D01C700F400AA01250145
:1024DA000301170122225C5C6208660C6E0A720D07
:1024EA00740900706172616D6574657273006E754E
:1024FA006C6C00636F646500656D69745F343333B7
:10250A000066756E6374696F6E5F6E616D650064F7
:10251A006174615F70696E006269745F6C656E6791
:10252A00746800656D69745F3433335F636861632F
:10253A006F6E00656D69745F697200556E6B6E6FC0
:10254A00776E20656E636F64696E67007B226163D4
:10255A0074696F6E223A22726563656976656422D0
:10256A002C2276616C7565223A007D000D0A000006
:107E0000112484B714BE81FFF0D085E080938100F7
:107E100082E08093C00088E18093C10086E0809377
:107E2000C20080E18093C4008EE0C9D0259A86E02C
:107E300020E33CEF91E0309385002093840096BBD3
:107E4000B09BFECF1D9AA8958150A9F7CC24DD24C4
:107E500088248394B5E0AB2EA1E19A2EF3E0BF2EE7
:107E6000A2D0813461F49FD0082FAFD0023811F036
:107E7000013811F484E001C083E08DD089C08234E0
:107E800011F484E103C0853419F485E0A6D080C0E4
:107E9000853579F488D0E82EFF2485D0082F10E0AE
:107EA000102F00270E291F29000F111F8ED06801E7
:107EB0006FC0863521F484E090D080E0DECF843638
:107EC00009F040C070D06FD0082F6DD080E0C81688
:107ED00080E7D80618F4F601B7BEE895C0E0D1E017
:107EE00062D089930C17E1F7F0E0CF16F0E7DF06D8
:107EF00018F0F601B7BEE89568D007B600FCFDCFD4
:107F0000A601A0E0B1E02C9130E011968C91119780
:107F100090E0982F8827822B932B1296FA010C0160
:107F200087BEE89511244E5F5F4FF1E0A038BF0790
:107F300051F7F601A7BEE89507B600FCFDCF97BE46
:107F4000E89526C08437B1F42ED02DD0F82E2BD052
:107F50003CD0F601EF2C8F010F5F1F4F84911BD097
:107F6000EA94F801C1F70894C11CD11CFA94CF0C13
:107F7000D11C0EC0853739F428D08EE10CD085E9AC
:107F80000AD08FE07ACF813511F488E018D01DD067
:107F900080E101D065CF982F8091C00085FFFCCF94
:107FA0009093C60008958091C00087FFFCCF809118
:107FB000C00084FD01C0A8958091C6000895E0E648
:107FC000F0E098E1908380830895EDDF803219F02E
:107FD00088E0F5DFFFCF84E1DECF1F93182FE3DFCA
:107FE0001150E9F7F2DF1F91089580E0E8DFEE27F6
:047FF000FF270994CA
:027FFE00040479
:0400000300007E007B
:00000001FF
