:100000000C94EF000C94420A0C941B0A0C94F40913
:100010000C94CD090C9417010C9417010C94A609AB
:100020000C9417010C9417010C94BB060C942A072E
:100030000C9417010C9417010C9417010C941701E0
:100040000C9417010C94690A0C9417010C94170175
:100050000C9417010C9417010C9417010C945C0973
:100060000C9417010C9417010C9417010C941701B0
:100070000C9417010C9417010C9417010C941701A0
:100080000C9417010C9417010C9417010C94170190
:100090000C9417010C9417010C9417010C94170180
:1000A0000C9417010C94250B0C9417010000000010
:1000B000240027002A002D00300000000000250049
:1000C00028002B002E0031000000000200090F0064
:1000D00000030401000C000000000000000000000C
:1000E00000000000000000080B00020202000009EE
:1000F0000400000102020000052400100105240193
:1001000001010424020605240600010705810310ED
:10011000004009040100020A000000070502024035
:1001200000000705830240000004030904120100D7
:1001300002EF02014041234180000101020301411D
:10014000726475696E6F204C4C430041726475692E
:100150006E6F2059756E00000000002300260029F4
:10016000002C002F0004040404040304050202020E
:100170000204030202020206060606060604040240
:100180000202040404080201104080401020408054
:1001900040800802040180402010020110801020DD
:1001A0004040205E01011F01030301008A02010A91
:1001B000010202010064001E47040B0906007C01D5
:1001C00001060103030100F401060E010202010011
:1001D000C2011701010202010100020CBE0E11242E
:1001E0001FBECFEFDAE0DEBFCDBF12E0A0E0B1E08E
:1001F000ECEFF6E202C005900D92A030B107D9F7FE
:1002000024E0A0E0B2E001C01D92AC32B207E1F7F9
:1002100010E0CEEED0E004C02197FE010E947911DB
:10022000CD3ED107C9F70E94AB0C0C9471130C940E
:100230000000FC018091C102882311F13FB7F894BE
:1002400082E08093E9002091F200822F90E018165E
:10025000190614F481E090E0882339F0289844E6E8
:100260004093C0024091F1004083222339F0209155
:10027000F200211103C02BE62093E8003FBF089550
:100280008FEF9FEF08952FB7F89483E08093E900F4
:100290009091E800892F807295FF04C09091F20040
:1002A00080E4891B2FBF08958091B80281110DC091
:1002B00082E08093B40284E08093B5021092B7028A
:1002C0001092B60281E08093B80284EB92E0089528
:1002D000409196025091970220919402309195029C
:1002E00042175307B4F49091E8009570E1F39091B0
:1002F000E80092FD19C08093F100809196029091E0
:10030000970201968F739927892B19F48EEF8093AA
:10031000E80080919602909197020196909397023F
:100320008093960281E0089580E00895EF92FF9215
:100330000F931F93CF93DF93F82E192FE62E042FE0
:1003400081E0860F880F0E94680183E00E946801A7
:10035000CF2DD12FEC0EFD2EF11CCE15DF05B9F0FF
:1003600007FF13C0FE0184910E946801182F80E0EE
:100370000E946801812321968111EFCFDF91CF91F7
:100380001F910F91FF90EF9008958881EDCF81E04C
:10039000F5CFDF92EF92FF920F931F93CF93DF93EE
:1003A000D82E8A01EB017B01E40EF51ECE15DF0588
:1003B00059F0D7FE12C0FE0184910E946801219677
:1003C0008111F4CF0FEF1FEFC801DF91CF911F9183
:1003D0000F91FF90EF90DF9008958881EECF0F93FB
:1003E0001F93CF93DF931F92CDB7DEB782E089834F
:1003F00042E450E067EE70E080E80E94C9010E948C
:100400005401DC0112960D911C910115110589F022
:10041000D801ED91FC910280F381E02DBE016F5F68
:100420007F4FC801099597FD04C0F801008511852B
:10043000ECCF89810F90DF91CF911F910F9108959B
:10044000615030F02091F100FC0120830196F8CF3B
:10045000289884E68093C0020895CF93DF931F927B
:10046000CDB7DEB76983DC01ED91FC910280F381A9
:10047000E02D41E050E0BE016F5F7F4F09950F9086
:10048000DF91CF91089583E08093E9008091F2009D
:10049000882319F08AE38093E80008950E944301BD
:1004A00090E00895CF93DF931F92CDB7DEB7FC01A4
:1004B0008485958597FD08C02FEF3FEF358724870A
:1004C0000F90DF91CF910895CE0101960E941901FE
:1004D000019719F4898190E0F3CF8FEF9FEFF0CF70
:1004E0000F931F93CF93DF931F92CDB7DEB78C018D
:1004F000FC018485958597FF0BC0CE0101960E9473
:100500001901019771F4898190E0F801958784873A
:10051000F801848595850F90DF91CF911F910F9100
:1005200008958FEF9FEFF1CFFC018485958597FDAE
:100530000BC09FB7F89482E08093E9008091F200AD
:100540009FBF90E0019608959FB7F89482E0809352
:10055000E9008091F2009FBF90E0089581508F30B4
:1005600008F047C0E82FF0E0E854FD4F0C947911F3
:10057000D502D902C702CD02D102F902F902F9026D
:10058000DC02E202E602EA02F002F902F4028091E1
:1005900080008F77809380000895809180008F7D08
:1005A000F9CF80918000877FF5CF84B58F7784BDA8
:1005B000089584B58F7DFBCF809190008F778093D5
:1005C00090000895809190008F7DF9CF80919000E8
:1005D000877FF5CF8091C0008F778093C00008950A
:1005E0008091C0008F7DF9CF8091C200877F80937A
:1005F000C20008951F93CF93DF93282F30E0F901B5
:10060000E853FF4F8491F901EC57FE4FD491F90163
:10061000EB59FE4FC491CC23A9F0162F81110E94F3
:10062000AE02EC2FF0E0EE0FFF1FE654FF4FA59156
:10063000B4918FB7F894EC91111108C0D095DE23D6
:10064000DC938FBFDF91CF911F910895DE2BF8CF00
:10065000CF93DF9390E0FC01EC57FE4F24918B5930
:100660009E4FFC0184918823D1F090E0880F991F60
:10067000FC01E455FF4FA591B491FC01E654FF4FF6
:10068000C591D49161110EC09FB7F8948C91E22F5F
:10069000E0958E238C932881E223E8839FBFDF912E
:1006A000CF9108958FB7F894EC91E22BEC938FBF24
:1006B000F6CF3FB7F8948091900290919102A0916B
:1006C0009202B091930226B5A89B05C02F3F19F066
:1006D0000196A11DB11D3FBFBA2FA92F982F8827C2
:1006E000BC01CD01620F711D811D911D42E0660F9D
:1006F000771F881F991F4A95D1F708958F929F926F
:10070000AF92BF92CF92DF92EF92FF926B017C018A
:100710000E9459034B015C01C114D104E104F104AE
:10072000B9F00E945903681979098A099B09683E42
:1007300073408105910580F321E0C21AD108E108D8
:10074000F10888EE880E83E0981EA11CB11CE4CF4E
:10075000FF90EF90DF90CF90BF90AF909F908F90E1
:1007600008958F929F92AF92BF92CF92DF92EF92B5
:10077000FF920F931F93CF93DF936C017B018A014C
:1007800080910B01882309F45CC08091C102882309
:1007900009F457C080919A0280FF05C08091E00063
:1007A00082608093E000E801B12C8AEFA82E93E0EC
:1007B000892E2AE3922E209711F4BB20D9F10E94B2
:1007C000430181110AC0AA94AA20D9F161E070E026
:1007D00080E090E00E947E03EECF8C171D0611F0A2
:1007E0000CF08C2F9FB7F8948092E9002091E800DC
:1007F00025FD02C09FBFDFCF282F30E0C21BD30BE7
:10080000F701815020F041914093F100FACFE20EC0
:10081000F31EBB2021F09092E800B12CEBCF809129
:10082000E80085FDE7CF9092E800BB24B3942097C1
:1008300009F3F3CF5D9884E68093990210161106B0
:100840003CF081E090E0F6019383828310E000E0C9
:10085000C801DF91CF911F910F91FF90EF90DF9032
:10086000CF90BF90AF909F908F90089508952F9252
:100870003F924F925F926F927F928F929F92AF9230
:10088000BF92CF92DF92EF92FF920F931F93CF937D
:10089000DF93CDB7DEB761970FB6F894DEBF0FBE1A
:1008A000CDBF0E9459036B017C0180918A02909117
:1008B0008B023601681A790A2DEC621620E1720665
:1008C00008F4D1C08091040290910502D301A81BC5
:1008D000B90BCD01B7FF03C0919581959109883C73
:1008E00091050CF0BCC08091020290910302019628
:1008F0009093030280930202029709F0B0C003EACA
:1009000011E0409000025090010249E050E0B8012F
:10091000CE0101960E94C70E8B816C81681708F486
:10092000682F70E080910402909105020E94651189
:100930009B014091170150911801649FC001659F70
:10094000900D749F900D112464E670E00E94651173
:10095000898541E050E0882311F042E050E08D812C
:10096000829FF001839FF00D1124FB87EA878E811F
:10097000829FD001839FB00D1124BD87AC878F81EA
:10098000829FF001839FF00D1124FF87EE878885F9
:10099000829F1001839F300C1124FA01EE0FFF1F7C
:1009A000EC5FFD4F812C912C5401920121503109B3
:1009B000398B288B888999894817590708F03FC0D7
:1009C000880C991CAA1CBB1C808191819C01AA8562
:1009D000BB852A1B3B0B37FF03C03195219531099D
:1009E0002617370770F422813381AC85BD852A1B19
:1009F0003B0B37FF03C03195219531092617370787
:100A0000D0F02E853F85821B930B97FF03C09195F5
:100A10008195910986179707B8F48281938182198D
:100A2000930997FF03C091958195910986179707C0
:100A300058F4689480F84E5F5F4F3496BBCF38E02F
:100A40004316510408F051C0075F1F4F81E0093D74
:100A5000180709F056CF109203021092020210926A
:100A600001021092000280910002909101028334F1
:100A7000910540F0109201021092000210920302C0
:100A80001092020280910002909101029C012F5F5E
:100A90003F4F3093010220930002880F991FFC0101
:100AA000EC5FFD4F71826082C0928A02D0928B020D
:100AB000E0928C02F0928D0261960FB6F894DEBF40
:100AC0000FBECDBFDF91CF911F910F91FF90EF909F
:100AD000DF90CF90BF90AF909F908F907F906F905E
:100AE0005F904F903F902F9008958092370390929F
:100AF0003803A0923903B0923A03ADCFFC010190C4
:100B00000020E9F73197AF01481B590BBC0182EC7B
:100B100092E00C94B1038F929F92AF92BF920F9389
:100B20001F93CF93DF93CDB7DEB7A1970FB6F8949D
:100B3000DEBF0FBECDBF19A2423008F44AE08E01DD
:100B40000F5D1F4F842E912CB12CA12CA501940177
:100B50000E942B10E62FB901CA01EA30F4F4E05DDF
:100B6000D801EE938D01232B242B252B79F790E0D0
:100B700080E0109719F0CD010E947E05A1960FB676
:100B8000F894DEBF0FBECDBFDF91CF911F910F91C3
:100B9000BF90AF909F908F900895E95CE1CFCF9385
:100BA000DF9388E391E00E947E05EC018BE391E006
:100BB0000E947E058C0F9D1FDF91CF9108954F926B
:100BC0005F926F927F928F929F92AF92BF92CF92DD
:100BD000DF92EF92FF920F931F93CF936B017C01F3
:100BE000742EAC019B010E946011882399F08EE362
:100BF00091E0CF911F910F91FF90EF90DF90CF90F8
:100C0000BF90AF909F908F907F906F905F904F902C
:100C10000C947E0546015701E894B7F82FEF3FEF9B
:100C20004FE75FE7C501B4010E94601181110DC05B
:100C30002FEF3FEF4FE75FE7C501B4010E94D00EF1
:100C400018161CF482E491E0D4CF2FEF3FEF4FE76A
:100C50005FE4C701B6010E945B1118161CF486E41C
:100C600091E0C7CF2FEF3FEF4FE75FECC701B60131
:100C70000E94D00E87FDF3CF20E030E0A901C7012C
:100C8000B6010E94D00E10E000E087FF0AC06DE2BE
:100C900082EC92E00E942D028C01F7FAF094F7F8B2
:100CA000F094C0E060E070E080E09FE37C1641F0EB
:100CB00020E030E040E251E40E94BA10CF5FF6CF6E
:100CC000A70196010E944E102B013C010E942C119D
:100CD0004B015C014AE00E948B057C01E00EF11E95
:100CE000CC23C1F1C501B4010E94D50E9B01AC011A
:100CF000C301B2010E944D104B015C016EE282EC17
:100D000092E00E942D02E80EF91EC15018F120E079
:100D100030E040E251E4C501B4010E94360F2B01DE
:100D20003C010E942C114B01B12CA12C4AE0C501C1
:100D3000B4010E948B05E80EF91EC501B4010E94A2
:100D4000D50E9B01AC01C301B2010E944D104B01B5
:100D50005C01DBCFC701CF911F910F91FF90EF9006
:100D6000DF90CF90BF90AF909F908F907F906F90CB
:100D70005F904F9008951F920F920FB60F9211241B
:100D80008F939F938091E1009091E100937F9093E6
:100D9000E10083FF0FC01092E90091E09093EB0017
:100DA0001092EC0092E39093ED001092C10298E053
:100DB0009093F00082FF22C093E09093E90090911D
:100DC000F200992319F09AE39093E8009091990228
:100DD000992341F090919902915090939902911129
:100DE00001C05D9A9091C002992341F09091C00298
:100DF00091509093C002911101C0289A84FF18C0AD
:100E00008091E2008E7E81608093E2008091E1001B
:100E10008F7E8093E10080919A028E7E8061809324
:100E20009A029F918F910F900FBE0F901F9018956F
:100E300080FFF7CF8091E2008E7E80618093E20098
:100E40008091E1008E7E8093E10080919A028E7EF7
:100E50008160E5CF1F920F920FB60F921124CF92AF
:100E6000DF92EF92FF920F931F932F933F934F9335
:100E70005F936F937F938F939F93AF93BF93EF9302
:100E8000FF93CF93DF93CDB7DEB76C97DEBFCDBFB7
:100E90001092E9008091E80083FF25C068E0CE0150
:100EA00045960E94200282EF8093E8008D8987FF9B
:100EB00039C09091E80090FFFCCF982F907609F010
:100EC00034C19E894F89588D2F89F88C911131C07A
:100ED000803861F580919B028093F1001092F100BF
:100EE0008EEF8093E8006C960FB6F894DEBF0FBECD
:100EF000CDBFDF91CF91FF91EF91BF91AF919F91C6
:100F00008F917F916F915F914F913F912F911F91A1
:100F10000F91FF90EF90DF90CF900F900FBE0F904A
:100F20001F9018959EEF9093E800C7CF1092F100A4
:100F3000D5CF913059F48111D3CF4130510581F68D
:100F400080919B028D7F80939B02CACF933049F49E
:100F50008111C6CF4130510519F680919B02826004
:100F6000F2CF953041F48091E80080FFFCCF2068FB
:100F70002093E300B5CF963009F0A9C00B8D1C8DEE
:100F800022E01092E9001092970210929602F2125B
:100F90002EC010929502109294020E94EF011F82BF
:100FA00099E09983FA8291E09E8390EA98879AEF7C
:100FB00099872091960230919702275F3F4F3C839B
:100FC0002B838D831092E900109297021092960263
:100FD000109395020093940249E050E0BE016F5FC8
:100FE0007F4F80E00E94C9010E94EF0179CF1093EA
:100FF0009502009394020E945401DC0112960D9117
:101000001C910115110509F451C1D801ED91FC9114
:101010000480F581E02DBE016B5E7F4FC80109950C
:10102000009709F03EC1F80100851185EACFF3E091
:10103000FF120EC08F89882309F440C0823061F40A
:1010400040E86BE08BE491E00E949601811148CF6B
:1010500081E28093EB0047CF813029F440E86BE0D8
:101060008FE391E0F1CF833099F70E945401DC01C6
:101070001296ED90FC908E010F5F1F4F6801E114F6
:10108000F10479F0D701ED91FC910680F781E02D14
:10109000B801C7010995080F111DF701E084F1841B
:1010A000EECFD8011C92F60101900020E9F73197AC
:1010B000BF016C197D0940E0C601C6CF69E271E04D
:1010C000FB01449150E080E80E94C90109CF9730AC
:1010D00009F4BECF983021F481E08093F10000CF75
:1010E000993009F0FDCE837009F0B2CFE0E2F1E073
:1010F00081E031E096E32191222371F08093E900B1
:101100003093EB00DF0111972C912093EC0090932A
:10111000ED008F5F873079F78EE78093EA001092B9
:10112000EA008F898093C102DBCE8B8D9C8D10925B
:10113000E900109297021092960290939502809384
:101140009402898D811192C08E899D89913A49F4CA
:10115000813209F07DCF47E050E064E071E080E04B
:10116000B3CF913209F074CF833269F48F89988DAF
:10117000B0E0A0E08093000190930101A0930201F0
:10118000B0930301ADCE803269F48091E80082FF14
:10119000FCCF67E084E091E00E9420028BEF809317
:1011A000E8009ECE823209F09BCE8F8980930B019E
:1011B000EEEFFFE7859194918B3F9C4D51F1E0E07C
:1011C000F8E08091040190910501A0910601B09191
:1011D0000701803B9440A105B105F1F480910B011A
:1011E00080FD1AC0EE3F8AE0F80789F587E797E7A8
:1011F00091838083809160008093980288E19BE0D6
:101200000FB6F894A895809360000FBE909360008D
:1012100067CEEEEFFAE0D5CF80819181873797478F
:1012200009F05ECEA895809160008861809360008F
:101230008091980280936000EE3F2AE0F20789F0E7
:101240008091FE0A9091FF0A9183808349CE80812C
:1012500091818737980751F29093FF0A8093FE0A95
:10126000C5CF1092FF0A1092FE0A3ACE0E94540196
:10127000DC0112960D911C910115110509F4E8CEBF
:10128000D801ED91FC910190F081E02DBE016B5EE3
:101290007F4FC8010995811123CEF8010085118582
:1012A000EBCF181619060CF41BCED2CEF1E0FF12CC
:1012B000BECE6DE271E004CF1F920F920FB60F9277
:1012C00011242F933F938F939F93AF93BF9380915C
:1012D0009C0290919D02A0919E02B0919F0230913C
:1012E0008F0223E0230F2D3758F50196A11DB11D64
:1012F00020938F0280939C0290939D02A0939E0264
:10130000B0939F028091900290919102A0919202DD
:10131000B09193020196A11DB11D8093900290930C
:101320009102A0939202B0939302BF91AF919F91CB
:101330008F913F912F910F900FBE0F901F90189596
:1013400026E8230F0296A11DB11DD2CF1F920F9246
:101350000FB60F9211242F933F934F935F936F9388
:101360007F938F939F93AF93BF93EF93FF93E091FE
:101370001401F09115010995FF91EF91BF91AF9183
:101380009F918F917F916F915F914F913F912F919D
:101390000F900FBE0F901F9018951F920F920FB6CF
:1013A0000F9211242F933F934F935F936F937F93EB
:1013B0008F939F93AF93BF93EF93FF93E0911201AD
:1013C000F09113010995FF91EF91BF91AF919F911A
:1013D0008F917F916F915F914F913F912F910F90DE
:1013E0000FBE0F901F9018951F920F920FB60F927D
:1013F00011242F933F934F935F936F937F938F931A
:101400009F93AF93BF93EF93FF93E0911001F091FF
:1014100011010995FF91EF91BF91AF919F918F912C
:101420007F916F915F914F913F912F910F900FBEE0
:101430000F901F9018951F920F920FB60F921124C4
:101440002F933F934F935F936F937F938F939F93CC
:10145000AF93BF93EF93FF93E0910E01F0910F01D3
:101460000995FF91EF91BF91AF919F918F917F91DE
:101470006F915F914F913F912F910F900FBE0F9001
:101480001F9018951F920F920FB60F9211242F9351
:101490003F934F935F936F937F938F939F93AF93FC
:1014A000BF93EF93FF93E0910C01F0910D0109952B
:1014B000FF91EF91BF91AF919F918F917F916F912C
:1014C0005F914F913F912F910F900FBE0F901F9002
:1014D00018951F920F920FB60F9211242F933F93DE
:1014E0004F935F936F937F938F939F93AF93BF932C
:1014F000CF93DF93EF93FF9380918E02C0913603D9
:10150000D0E087FF24C01092850010928400809163
:101510008E028F5F80938E0280918E02082E000CC7
:10152000990B8C179D0724F480918E028C30C4F1A6
:101530008091840090918500049680349C4908F441
:101540007AC08091840090918500049676C0809145
:101550008E02082E000C990B8C179D07C4F6E091A3
:101560008E028E2FEE0F990BFC01EE0FFF1FE80F7E
:10157000F91FEE5EFC4F808186FFC9CFE0918E029D
:101580008E2FEE0F990BFC01EE0FFF1FE80FF91FD6
:10159000EE5EFC4F808160E08F730E94FA02B7CF4D
:1015A0002091840030918500E0918E028E2FEE0F05
:1015B000990BFC01EE0FFF1FE80FF91FEE5EFC4FC9
:1015C00081819281820F931F90938900809388007C
:1015D000E0918E028E2FEE0F990BFC01EE0FFF1F94
:1015E000E80FF91FEE5EFC4F808186FF11C0E0918D
:1015F0008E028E2FEE0F990BFC01EE0FFF1FE80FEE
:10160000F91FEE5EFC4F808161E08F730E94FA0249
:10161000FF91EF91DF91CF91BF91AF919F918F910A
:101620007F916F915F914F913F912F910F900FBEDE
:101630000F901F90189580E49CE990938900809307
:1016400088008FEF80938E02E3CF1F920F920FB628
:101650000F9211242F933F934F935F936F937F9338
:101660008F939F93AF93BF93CF93DF93EF93FF93AA
:101670002091540330E0F901E853FF4F8491F901C0
:10168000EC57FE4FD491F901EB59FE4FC491CC2396
:1016900079F081110E94AE02EC2FF0E0EE0FFF1FF7
:1016A000E95AFE4FA591B491EC91ED2381E009F444
:1016B00080E020915803309159032F5F3F4F3093C2
:1016C00059032093580390915703953618F096E0EC
:1016D0009093530390915303943009F466C0B8F487
:1016E0009230F1F0933009F444C09091560399235D
:1016F00009F46BC081117CC080915503882309F4E3
:1017000063C08091550361E00E94FA025EC095308B
:1017100009F457C0963049F791E0909324044FC0E4
:101720008111E3CF209158033091590324363105BC
:1017300028F41092590310925803D7CF1092240422
:1017400010925703E091570391E09E0F9093570337
:10175000F0E02091580330915903EE0FFF1FED5A2E
:10176000FC4F30872783109259031092580393E05F
:1017700019C0813009F0B9CFE091570391E09E0F75
:1017800090935703F0E02091580330915903EE0FE6
:10179000FF1FED5AFC4F3087278310925903109298
:1017A000580394E090935303A0CF882359F22091DB
:1017B0005803309159032536310508F496CF95E04A
:1017C000F1CF811192CFB5CF2D9AFF91EF91DF919B
:1017D000CF91BF91AF919F918F917F916F915F91C9
:1017E0004F913F912F910F900FBE0F901F90189522
:1017F00080915503882321F08091550360E084CFC8
:101800002D98E3CFCF93DF931092C5021092C402BC
:1018100088EE93E0A0E0B0E08093C6029093C70208
:10182000A093C802B093C9028AE291E09093C302E8
:101830008093C202CFEFDFEFD093CF02C093CE02EE
:1018400083E080932504D0934703C09346038AE046
:1018500090E0909349038093480349E050E063EAA5
:1018600071E08AE493E00E94C70ED0934503C093D1
:1018700044038CE390E09093180180931701109239
:101880003703109238031092390310923A03809173
:1018900036038C3008F044C091E0980F90933603E3
:1018A0008093410390E0FC01EE0FFF1FE80FF91F4A
:1018B000EE5EFC4F88EB9BE09283818310923C03A9
:1018C00010923B0310923E0310923D03109240038E
:1018D00010923F0361E070E090E080E00E94A4126B
:1018E000009711F190933C0380933B0310923E03C9
:1018F00010923D0320913F0330914003232B11F4BC
:10190000FC0110821092400310923F036DE371E0DE
:1019100080913B0390913C03DF91CF910C946A132B
:101920008FEF80934103CACF80913B0390913C039A
:10193000009711F00E941B1210923C0310923B037F
:101940001092400310923F0310923E0310923D0309
:10195000DF91CF910895789484B5826084BD84B579
:10196000816084BD85B5826085BD85B5816085BD9A
:1019700080916E00816080936E0010928100809152
:1019800081008260809381008091810081608093DA
:10199000810080918000816080938000809191001F
:1019A000826080939100809191008160809391008A
:1019B000809190008160809390008091C10084604C
:1019C0008093C1008091C10082608093C1008091AA
:1019D000C10081608093C1008091C30081608093C9
:1019E000C3008091C00082608093C0008091C200DB
:1019F00081608093C20080917A00846080937A0035
:101A000080917A00826080937A0080917A00816070
:101A100080937A0080917A00806880937A00109297
:101A2000C10210929B0210929A028091D7008160AD
:101A30008093D70080EA8093D80089B5806189BD02
:101A400089B5826089BD09B400FEFDCF61E070E018
:101A500080E090E00E947E038091D8008F7C8061BE
:101A60008093D8008091E000807F8093E000809197
:101A7000E1008E7E8093E1008DE08093E200559A34
:101A8000209A8FEF9FEF9093CF028093CE02109217
:101A900045031092440310923703109238031092BA
:101AA000390310923A0387E394E090930D018093F9
:101AB0000C01809169008C7F816080936900E89AB5
:101AC00081E0809316018093B30288E090E09093C8
:101AD000AE028093AD024BE9E42EF12C412C50EC88
:101AE000552E59E7652E54EC752E2FB7F89480913A
:101AF0009C0290919D02A0919E02B0919F022FBFE7
:101B00002091B302222309F4FFC04091AF0250910B
:101B1000B0026091B1027091B2028C019D01041B70
:101B2000150B260B370BB901A80140325E44610545
:101B3000710508F4E9C08093AF029093B002A093BE
:101B4000B102B093B202C091AD02D091AE02CE010B
:101B50009927FC01EC57FE4FD490FC01EB59FE4F46
:101B6000E491F0E0EE0FFF1FE95AFE4F059114914A
:101B70001092A8021092A9021092AA021092AB022F
:101B80001092AC0261E08C2F0E94280360E08C2F41
:101B90000E94FA0262E170E080E090E00E947E0321
:101BA00061E08C2F0E94FA02C7010197F1F760E013
:101BB0008C2F0E94280380E991E0F80120812D21DB
:101BC00099F40197D1F74092A0025092A10260923D
:101BD000A2027092A3024092A4025092A5026092C7
:101BE000A6027092A70264C080E991E0F80120810A
:101BF0002D2119F00197D1F7E6CF98E2392E20E890
:101C0000C22E212C80E991E0F80120812D2119F4C8
:101C10000197D1F7D8CF0E9459034B015C0180E9AD
:101C200091E0F80120812D2119F00197D1F7CBCF58
:101C30000E945903681979098A099B09693271055B
:101C40008105910538F0E22DF0E0E056FD4F8085EA
:101C50008C298087C69419F4239480E8C82E3A947E
:101C60003110D0CF61E08C2F0E94280361E08C2FCF
:101C70000E94FA026091A80270E090E080E00E9469
:101C8000D50E6093A0027093A1028093A20290935C
:101C9000A3026091AA0270E090E080E00E94D50E5D
:101CA0006093A4027093A5028093A6029093A7026A
:101CB000C3E0D0E08AE491E00E947E056091A40236
:101CC0007091A5028091A6029091A70242E00E9425
:101CD000DF050E94CF0584E891E00E947E056091B7
:101CE000A0027091A1028091A2029091A30242E011
:101CF0000E94DF050E94CF0564E670E080E090E07E
:101D00000E947E032197B1F680911601882311F17C
:101D10008090370390903803A0903903B0903A0335
:101D200081149104A104B104A9F081149104D1F4A7
:101D30008BEB91E00E947E0568EC70E080E090E023
:101D40000E947E03109237031092380310923903D9
:101D500010923A0300E010E0012B09F4C6CE0E9475
:101D60000000C3CE8CEC91E00E947E054AE0C501E4
:101D7000B4010E948B050E94CF05DECF80913B030A
:101D800090913C03009711F00C941B120895FB01F5
:101D9000DC0102C005900D9241505040D8F70895E3
:101DA0000E94120F08F481E00895E89409C097FB9F
:101DB0003EF490958095709561957F4F8F4F9F4F22
:101DC0009923A9F0F92F96E9BB279395F695879566
:101DD00077956795B795F111F8CFFAF4BB0F11F429
:101DE00060FF1BC06F5F7F4F8F4F9F4F16C08823D0
:101DF00011F096E911C0772321F09EE8872F762F06
:101E000005C0662371F096E8862F70E060E02AF046
:101E10009A95660F771F881FDAF7880F9695879532
:101E200097F90895990F0008550FAA0BE0E8FEEF07
:101E300016161706E807F907C0F012161306E4078E
:101E4000F50798F0621B730B840B950B39F40A2687
:101E500061F0232B242B252B21F408950A2609F465
:101E6000A140A6958FEF811D811D08950E94490F05
:101E70000C94BA0F0E94AC0F38F00E94B30F20F000
:101E8000952311F00C94A30F0C94A90F11240C941A
:101E9000EE0F0E94CB0F70F3959FC1F3950F50E0AA
:101EA000551F629FF001729FBB27F00DB11D639F0C
:101EB000AA27F00DB11DAA1F649F6627B00DA11DB2
:101EC000661F829F2227B00DA11D621F739FB00D58
:101ED000A11D621F839FA00D611D221F749F3327C8
:101EE000A00D611D231F849F600D211D822F762F61
:101EF0006A2F11249F5750409AF0F1F088234AF03E
:101F0000EE0FFF1FBB1F661F771F881F91505040A9
:101F1000A9F79E3F510580F00C94A30F0C94EE0F8F
:101F20005F3FE4F3983ED4F3869577956795B79530
:101F3000F795E7959F5FC1F7FE2B880F911D96954A
:101F4000879597F9089597F99F6780E870E060E0BA
:101F500008959FEF80EC089500240A941616170642
:101F600018060906089500240A941216130614068A
:101F700005060895092E0394000C11F4882352F0ED
:101F8000BB0F40F4BF2B11F460FF04C06F5F7F4FA5
:101F90008F4F9F4F089557FD9058440F551F59F08C
:101FA0005F3F71F04795880F97FB991F61F09F3F46
:101FB00079F087950895121613061406551FF2CF6F
:101FC0004695F1DF08C0161617061806991FF1CFBF
:101FD00086957105610508940895E894BB276627E6
:101FE0007727CB0197F908952F923F924F925F92F6
:101FF0006F927F928F929F92AF92BF92CF92DF9219
:10200000EF92FF920F931F93CF93DF93CDB7DEB77D
:10201000CA1BDB0B0FB6F894DEBF0FBECDBF099411
:102020002A88398848885F846E847D848C849B8468
:10203000AA84B984C884DF80EE80FD800C811B8176
:10204000AA81B981CE0FD11D0FB6F894DEBF0FBEA5
:10205000CDBFED010895A1E21A2EAA1BBB1BFD0105
:102060000DC0AA1FBB1FEE1FFF1FA217B307E40777
:10207000F50720F0A21BB30BE40BF50B661F771FCF
:10208000881F991F1A9469F76095709580959095AF
:102090009B01AC01BD01CF0108955058BB27AA2771
:1020A0000E9465100C94BA0F0E94AC0F38F00E9489
:1020B000B30F20F039F49F3F19F426F40C94A90FC4
:1020C0000EF4E095E7FB0C94A30FE92F0E94CB0FD1
:1020D00058F3BA17620773078407950720F079F45D
:1020E000A6F50C94ED0F0EF4E0950B2EBA2FA02D53
:1020F0000B01B90190010C01CA01A0011124FF27B5
:10210000591B99F0593F50F4503E68F11A16F040AF
:10211000A22F232F342F4427585FF3CF46953795AE
:102120002795A795F0405395C9F77EF41F16BA0B73
:10213000620B730B840BBAF09150A1F0FF0FBB1F21
:10214000661F771F881FC2F70EC0BA0F621F731F6A
:10215000841F48F4879577956795B795F7959E3FC7
:1021600008F0B0CF9395880F08F09927EE0F979558
:10217000879508950E94CE100C94BA0F0E94B30F59
:1021800058F00E94AC0F40F029F45F3F29F00C9406
:10219000A30F51110C94EE0F0C94A90F0E94CB0FBA
:1021A00068F39923B1F3552391F3951B550BBB2786
:1021B000AA2762177307840738F09F5F5F4F220FCB
:1021C000331F441FAA1FA9F335D00E2E3AF0E0E8C2
:1021D00032D091505040E695001CCAF72BD0FE2F0C
:1021E00029D0660F771F881FBB1F261737074807A0
:1021F000AB07B0E809F0BB0B802DBF01FF27935858
:102200005F4F3AF09E3F510578F00C94A30F0C9469
:10221000EE0F5F3FE4F3983ED4F38695779567958C
:10222000B795F7959F5FC9F7880F911D969587958C
:1022300097F90895E1E0660F771F881FBB1F6217AB
:1022400073078407BA0720F0621B730B840BBA0B69
:10225000EE1F88F7E09508950E94D30F88F09F57EE
:1022600098F0B92F9927B751B0F0E1F0660F771FBA
:10227000881F991F1AF0BA95C9F714C0B13091F0B0
:102280000E94ED0FB1E008950C94ED0F672F782FA9
:102290008827B85F39F0B93FCCF386957795679575
:1022A000B395D9F73EF490958095709561957F4FE1
:1022B0008F4F9F4F08950E94120F08F48FEF0895DB
:1022C0000E94120F880B990B0895AA1BBB1B51E1AA
:1022D00007C0AA1FBB1FA617B70710F0A61BB70B96
:1022E000881F991F5A95A9F780959095BC01CD013B
:1022F0000895EE0FFF1F0590F491E02D09940F93C0
:102300001F93CF93DF938230910510F482E090E029
:10231000E0912A04F0912B0430E020E0B0E0A0E04E
:10232000309799F42115310509F44AC0281B390B5F
:1023300024303105D8F58A819B816115710589F1B9
:10234000FB0193838283FE0111C040815181028190
:10235000138148175907E0F04817590799F4109767
:1023600061F012960C93129713961C933296CF013C
:10237000DF91CF911F910F91089500932A0410933C
:102380002B04F4CF2115310551F04217530738F0D3
:10239000A901DB019A01BD01DF01F801C1CFEF0105
:1023A000F9CF90932B0480932A04CDCFFE01E20F46
:1023B000F31F819391932250310939832883D7CF1A
:1023C0002091280430912904232B41F420911B01F2
:1023D00030911C0130932904209328042091190185
:1023E00030911A012115310541F42DB73EB74091C6
:1023F0001D0150911E01241B350BE0912804F09122
:102400002904E217F307A0F42E1B3F0B2817390706
:1024100078F0AC014E5F5F4F2417350748F04E0F40
:102420005F1F5093290440932804819391939FCF79
:10243000F0E0E0E09CCFCF93DF930097E9F0FC0160
:10244000329713821282A0912A04B0912B04ED01DD
:1024500030E020E01097A1F420813181820F931F9A
:1024600020912804309129042817390709F061C008
:10247000F0932904E0932804DF91CF910895EA01B5
:10248000CE17DF07E8F54A815B819E0141155105B2
:10249000B1F7E901FB83EA8349915991C40FD51F34
:1024A000EC17FD0761F4808191810296840F951FDE
:1024B000E90199838883828193819B838A83F0E0F9
:1024C000E0E012968D919C9113970097B9F52D91AC
:1024D0003C911197CD010296820F931F2091280401
:1024E000309129042817390739F6309751F51092A1
:1024F0002B0410922A04B0932904A0932804BCCF83
:10250000D383C28340815181840F951FC817D90797
:1025100061F44E5F5F4F88819981480F591F518345
:1025200040838A819B81938382832115310509F041
:10253000B0CFF0932B04E0932A049ECFFD01DC0181
:10254000C0CF13821282D7CFB0E0A0E0EAEAF2E176
:102550000C94F60F8C01009751F4CB010E947F116F
:102560008C01C801CDB7DEB7E0E10C941210FC017C
:10257000E60FF71F9C0122503109E217F30708F418
:102580009DC0D901CD91DC911197C617D70798F05E
:10259000C530D10530F3CE0104978617970708F3AD
:1025A000C61BD70B2297C193D1936D937C93CF0118
:1025B0000E941B12D6CF5B01AC1ABD0A4C018C0ED7
:1025C0009D1EA0912A04B0912B04512C412CF12C7A
:1025D000E12C109731F580912804909129048815F9
:1025E000990509F05CC04616570608F058C080915E
:1025F000190190911A01009741F48DB79EB740914F
:102600001D0150911E01841B950BE817F90708F076
:1026100055C0F0932904E0932804F9017183608385
:10262000A0CF8D919C91119712966C901297139652
:102630007C901397A815B90559F56C0142E0C40EBA
:10264000D11CCA14DB0420F1AC014A195B09DA0180
:102650001296159780F06282738251834083D9016C
:102660006D937C93E114F10471F0D7011396FC9300
:10267000EE93129776CF22968C0F9D1FF9019183CE
:102680008083F301EFCFF0932B04E0932A0469CF0A
:102690004816590608F42C017D01D3019ACFCB01CD
:1026A0000E947F117C01009749F0AE01B8010E94A1
:1026B0006113C8010E941B12870153CF10E000E094
:1026C00050CFFB01DC0102C001900D9241505040FF
:1026D000D8F70895FB01DC0101900D920020E1F78D
:1026E000089510E0CEEED0E004C0FE010E94791102
:0C26F0002196CF3ED107C9F7F894FFCF28
:1026FC00FFFFFFFF00E1000000000000360436047D
:10270C00360436043604013C0000002C0480000022
:10271C00C18081000000000000002D02B1034E02B8
:10272C0043029402520270027D7D000D0A006E611C
:10273C006E00696E66006F7666007B2266756E634E
:10274C0074696F6E5F6E616D65223A226468745FA6
:10275C0074656D7065726174757265222C2270617E
:10276C0072616D6574657273223A7B2276616C7549
:10277C0065223A007B2266756E6374696F6E5F6EBC
:10278C00616D65223A226468745F68756D6964696D
:10279C007479222C22706172616D6574657273227A
:1027AC003A7B2276616C7565223A00556E6B6E6FC2
:1027BC00776E20656E636F64696E67007B22667549
:1027CC006E6374696F6E5F6E616D65223A2272651D
:1027DC0063765F343333222C22706172616D6574C1
:1027EC00657273223A7B2276616C7565223A000021
:1070000055C000006EC000006CC000006AC00000E7
:1070100068C0000066C0000064C0000062C00000DC
:1070200060C000005EC00000FCC400005AC0000048
:1070300058C0000056C0000054C0000052C00000FC
:1070400050C000005DC000004CC000004AC00000FD
:1070500048C0000046C0000044C0000042C000001C
:1070600040C000003EC000003CC000003AC000002C
:1070700038C0000036C0000034C0000032C000003C
:1070800030C000002EC000002CC000002AC000004C
:1070900028C0000026C0000024C0000022C000005C
:1070A00020C000001EC000001CC0000011241FBE34
:1070B000CFEFDAE0DEBFCDBF11E0A0E0B1E0E6E463
:1070C000FFE702C005900D92A63AB107D9F711E08B
:1070D000A6EAB1E001C01D92AF3BB107E1F74FD383
:1070E00030C78ECFF89410926F001092810081E02B
:1070F00085BF15BE47985D9A289A0C9400000895A4
:107100001F920F920FB60F9211242F938F939F937C
:10711000EF93FF9310928500109284008091A60156
:107120009091A701009741F001979093A701809358
:10713000A601892B09F45D9A8091A8019091A9017B
:10714000009741F001979093A9018093A801892BA2
:1071500009F4289A8091AC019091AD010196909329
:10716000AD018093AC01E0E0F0E0859194918F5FF8
:107170009F4F49F08091AA019091AB0101969093A5
:10718000AB018093AA01FF91EF919F918F912F9175
:107190000F900FBE0F901F90189584E08093E90028
:1071A0000DC08091E8008B778093E80003C08EB318
:1071B000882351F08091E80082FFF9CF8091E800A8
:1071C00085FFEFCF8091F1000895982F83E08093A1
:1071D000E9008091E80085FD0DC08091E8008E7780
:1071E0008093E80003C08EB3882369F08091E800A3
:1071F00080FFF9CF9093F1005D9884E690E0909342
:10720000A7018093A60108954F925F926F927F929B
:107210008F929F92AF92BF92CF92DF92EF92FF92A6
:107220000F931F93CF93DF9384E08093E9008091C5
:10723000E80082FF57C2289884E690E09093A90165
:107240008093A801AADF182F853481F48CE49DE196
:107250009093AB018093AA0107B600FCFDCFF9998A
:10726000FECF81E180935700E89503C0843519F47F
:1072700094DF8DE00DC28C34E1F38035D1F3843797
:1072800021F484E4A2DF80E003C2813611F489E5B1
:10729000FFC18134B1F481DF182F7FDF90E0880FC8
:1072A000991FAA2797FDA095BA2F312F330F20E001
:1072B000442737FD4095542F822B932BA42BB52BBD
:1072C000B8C1803711F483E5E3C1833549F4C0E0E8
:1072D000D1E089917ADF21E0C730D207D1F7D9C157
:1072E000863521F481E371DF80E3D2C1833731F445
:1072F00087E86BDF85E969DF8EE1CAC18536B9F4BD
:10730000E0E0F0E093E085E090935700E89507B661
:1073100000FCFDCF80935700E89507B600FCFDCF39
:10732000E058FF4FA0E7E030FA0771F7A2CF8237AD
:1073300039F4E1E0F0E089E0809357008491A8C13E
:10734000863439F4E0E0F0E089E0809357008491DE
:107350009FC18E3439F4E3E0F0E089E08093570078
:10736000849196C1813539F4E2E0F0E089E08093C0
:10737000570084918DC1823631F489E526DF80E0A3
:1073800024DF80E885C1823419F0873609F0E5C032
:107390001092AB011092AA0100DF082FFEDEF82E3A
:1073A000FCDE682E8554823008F071C1902F80E099
:1073B000CF2DD0E0C82BD92B10926F00173609F0D3
:1073C0004BC081E180935700E895DD24CC24C39421
:1073D0003FC0E090AF01F090B0010091B101109179
:1073E000B201B6E46B16D9F4ED2DF0E0EE29FF29D9
:1073F000E4918E2FEADEDD2081F082E090E0A0E0D3
:10740000B0E0E80EF91E0A1F1B1FE092AF01F092D8
:10741000B0010093B1011093B201DC2418C0D8016F
:10742000C701B695A7959795879575D5CEDE82E06D
:1074300090E0A0E0B0E0E80EF91E0A1F1B1FE092EA
:10744000AF01F092B0010093B1011093B201219706
:10745000209709F0BECF7DC08090AF019090B00121
:10746000A090B101B090B20196E4691609F05DC038
:1074700083E0F40180935700E89507B600FCFDCF48
:1074800054C0F6E46F1661F5772031F1E090AF015A
:10749000F090B0010091B1011091B2017EDED82EC2
:1074A000CC24852D90E08C299D29F7010C01409278
:1074B0005700E895112482E090E0A0E0B0E0E80EEB
:1074C000F91E0A1F1B1FE092AF01F092B00100935A
:1074D000B1011093B20102C060DE582E742423C0A3
:1074E000E090AF01F090B0010091B1011091B201B4
:1074F00016950795F794E79450DE682FC70113D5CA
:107500008091AF019091B001A091B101B091B20111
:107510000296A11DB11D8093AF019093B001A0937D
:10752000B101B093B201219704C0552477244424BB
:107530004394209709F0A5CF96E4691641F485E0BD
:10754000F40180935700E89507B600FCFDCF8DE06D
:107550003CDE82E080936F009CC0833471F4009124
:10756000AF011091B00119DE90E021E0F8010C01AB
:1075700020935700E89511247CCE833619F5E090CE
:10758000AF01F090B0010091B1011091B20105DEA0
:10759000F701E16090E021E00C0120935700E895AD
:1075A000112482E090E0A0E0B0E0E80EF91E0A1F8E
:1075B0001B1FE092AF01F092B0010093B101109354
:1075C000B20157CE8D3661F4E091AF01F091B00178
:1075D00085E080935700E89507B600FCFDCF49CEC3
:1075E000823551F4E091AF01F091B0010591149111
:1075F000812FEBDD802F4CC0843421F5E090AF016A
:10760000F090B0010091B1011091B201169507956B
:10761000F794E794C2DD682FC70185D48091AF014C
:107620009091B001A091B101B091B2010296A11D5B
:10763000B11D8093AF019093B001A093B101B093BD
:10764000B20117CE843609F5E090AF01F090B00199
:107650000091B1011091B201D801C701B695A7956B
:107660009795879558D4B1DD82E090E0A0E0B0E036
:10767000E80EF91E0A1F1B1FE092AF01F092B00145
:107680000093B1011093B20104C08B3111F08FE36C
:107690009CDD83E08093E9009091E8008091E80010
:1076A0008E778093E80095FF04C010C08EB38823C6
:1076B000C9F08091E80080FFF9CF8091E8008E77D3
:1076C0008093E80003C08EB3882361F08091E800C6
:1076D00080FFF9CF84E08093E9008091E8008B7708
:1076E0008093E800DF91CF911F910F91FF90EF9071
:1076F000DF90CF90BF90AF909F908F907F906F90D2
:107700005F904F9008959091B701892F8F778132C4
:1077100049F58091B8018032A1F0813219F5913A92
:1077200009F58091E800877F8093E8008CE091E084
:1077300067E070E027D28091E8008B778093E800C3
:107740000895913279F48091E800877F8093E80072
:107750008CE091E067E070E079D28091E8008E776C
:107760008093E800089582E061EC42E0D1D083E0AC
:1077700061E842E1CDD084E060E842E1C9C01F93F6
:10778000209100081092000844B714BE88E10FB69B
:10779000F89480936000109260000FBE80E8E0E0F3
:1077A000F0E00FB6F89480936100E09361000FBEA3
:1077B00031E035BF92E095BF3F9A209A559A809369
:1077C00061001092610047985D9A289A1092890092
:1077D0008AEF8093880090936F0083E0809381000C
:1077E000859194918F5F9F4F11F03093AE01942F4C
:1077F00041FF19C0809109012817A9F08093000862
:10780000789480911301882339F08091AC01909194
:10781000AD018F5E9240C8F310920008F89481E0A9
:10782000809313010CC090FF04C08091AE018823A7
:1078300051F493FF09C080910901281729F0809124
:10784000AE01882309F04EDCD4D078941092AB01BD
:107850001092AA011EEF20C0D7DC4BD38091AA0161
:107860009091AB0181549F4110F0109213018091CF
:10787000B3019091B40101969093B4018093B30148
:10788000292F97FF03C0512F591B252F220F28178F
:1078900010F4479801C0479A809113018823E1F6BC
:1078A0008091E00081608093E0001CDC80E090E04B
:1078B0001F910895FA01923049F0933061F09130B0
:1078C000F9F484E191E022E130E01EC086E291E02B
:1078D0002EE330E019C0882329F484E691E024E007
:1078E00030E012C0813029F488E691E022E230E0F5
:1078F0000BC0823029F48CE891E028E130E004C02C
:1079000080E090E020E030E091838083C901089519
:107910008093E9008091EB0081608093EB001092EE
:10792000ED006093EC004093ED008091EE00881F25
:107930008827881F08958091B70188238CF403C09D
:107940008EB38823B1F08091E80082FFF9CF809157
:10795000E8008B778093E80008958EB3882349F080
:107960008091E80080FFF9CF8091E8008E778093C6
:10797000E8000895EF92FF920F931F9345D04CD0EB
:1079800008ED10E0F80180818F7780838081806826
:10799000808380818F7D808319BC1EBA1092B501CF
:1079A00080EEE82EF12CF70180818B7F8083F80137
:1079B00080818160808380E060E042E0A9DFE1EEC9
:1079C000F0E080818E7F8083E2EEF0E08081816054
:1079D0008083808188608083F70180818E7F8083AF
:1079E000F8018081806180831F910F91FF90EF905B
:1079F0000895E7EDF0E08081816080838AE482BFB2
:107A000081E08093B601B6CFE8EDF0E080818E7F13
:107A100080831092E20008951092DA001092E10043
:107A200008951F920F920FB60F9211242F933F9338
:107A30004F935F936F937F938F939F93AF93BF9376
:107A4000EF93FF938091DA0080FF1BC08091D800F4
:107A500080FF17C08091DA008E7F8093DA008091DA
:107A6000D90080FF0BC080E189BD82E189BD09B4E6
:107A700000FEFDCF81E08EBB3BD203C019BC1EBA15
:107A800037D28091E10080FF17C08091E20080FF33
:107A900013C08091E2008E7F8093E2008091E2002B
:107AA00080618093E2008091D80080628093D8004A
:107AB00019BC85E08EBB1CD28091E10084FF2CC0F4
:107AC0008091E20084FF28C080E189BD82E189BD08
:107AD00009B400FEFDCF8091D8008F7D8093D8003F
:107AE0008091E1008F7E8093E1008091E2008F7EA3
:107AF0008093E2008091E20081608093E2008091B7
:107B0000B501882331F48091E30087FD02C081E054
:107B100001C084E08EBBECD18091E10083FF21C0E5
:107B20008091E20083FF1DC08091E100877F8093F8
:107B3000E10082E08EBB1092B5018091E1008E7F62
:107B40008093E1008091E2008E7F8093E20080913B
:107B5000E20080618093E20080E060E042E0D8DEF5
:107B6000C7D1FF91EF91BF91AF919F918F917F917D
:107B70006F915F914F913F912F910F900FBE0F909A
:107B80001F9018959C014091BD015091BE01461770
:107B9000570718F4F90190E044C06115710511F020
:107BA000AB01F8CF8091E8008E778093E80040E049
:107BB00050E0F0CF8EB3882309F444C0853009F437
:107BC00043C08091E80083FF02C081E00895809166
:107BD000E80082FD31C08091E80080FF22C08091E2
:107BE000F3009091F200782F60E0292F30E0262BEF
:107BF000372B07C081918093F100415050402F5F97
:107C00003F4F4115510519F02830310598F390E0A8
:107C10002830310509F491E08091E8008E77809357
:107C2000E8004115510531F6992321F605C08EB3C0
:107C3000882341F0853041F08091E80082FFF7CF42
:107C400080E0089582E0089583E008959C01611525
:107C5000710529F48091E8008B778093E800F901A1
:107C600026C08EB3882391F1853091F18091E80090
:107C700083FF02C081E008958091E80082FFF1CF88
:107C800006C08091F10081936150704059F02091BD
:107C9000F3008091F200322F20E090E0822B932BB2
:107CA000892B79F78091E8008B778093E800611544
:107CB0007105B9F605C08EB3882341F0853041F0D7
:107CC0008091E80080FFF7CF80E0089582E008957A
:107CD00083E008950F931F93DF93CF9300D0CDB728
:107CE000DEB7E7EBF1E08091F100819381E0EF3BBB
:107CF000F807C9F708DD8091E80083FFE4C08091B0
:107D0000B7019091B801953009F46DC0963040F4F8
:107D1000913081F1913070F0933009F0D4C02AC0D5
:107D2000983009F4A3C0993009F4B2C0963009F034
:107D3000CAC07CC0803809F4C6C0823809F0C3C00C
:107D40008091BB0187708093E9008091EB001092D5
:107D5000E9002091E800277F2093E80090E025E0EB
:107D6000969587952A95E1F781708093F10010929E
:107D7000F10087C0882319F0823009F0A4C08F7108
:107D8000823009F0A0C08091B901882331F520919B
:107D9000BB01277009F497C02093E9008091EB00A4
:107DA00080FF1BC0933021F48091EB00806213C0F0
:107DB0008091EB0080618093EB0081E090E002C055
:107DC000880F991F2A95E2F78093EA001092EA0043
:107DD0008091EB0088608093EB001092E900809125
:107DE000E800877F51C0882309F06DC01091B90168
:107DF0001F770FB7F8948091E800877F8093E800A1
:107E00009ADD8091E80080FFFCCF8091E3008078CC
:107E1000812B8093E30080688093E300112311F4A9
:107E200082E001C083E08EBB0FBF4DC0805882301E
:107E300008F049C08091B9019091BA016091BB01ED
:107E4000AE014F5F5F4F36DDBC01009709F43BC0C8
:107E50008091E800877F8093E80089819A8192DE93
:107E60008091E8008B778093E8002DC0803859F529
:107E70008091E800877F8093E8008091B50180932E
:107E8000F1008091E8008E778093E80054DD1BC0FC
:107E90008823C9F49091B9019230A8F48091E80048
:107EA000877F8093E8009093B50145DD8091B5010F
:107EB000882331F48091E30087FD02C081E001C096
:107EC00084E08EBB50DC8091E80083FF0AC0809183
:107ED000EB0080628093EB008091E800877F8093C5
:107EE000E8000F900F90CF91DF911F910F910895AF
:107EF00008951F938EB3882361F01091E9001092CA
:107F0000E9008091E80083FF01C0E4DE1770109360
:107F1000E9001F910895F999FECF92BD81BDF89AAD
:107F2000992780B50895262FF999FECF1FBA92BDE3
:107F300081BD20BD0FB6F894FA9AF99A0FBE01964A
:067F40000895F894FFCF44
:107F46004341544552494E41007700080000000065
:107F5600000008011201100102000008412341003F
:107F660001000201000109023E00020100803209FF
:107F7600040000010202010005240010010424028D
:107F8600040524060001070582030800FF09040111
:107F960000020A000000070504021000010705831D
:107FA6000210000104030904220341007200640068
:107FB600750069006E006F002000590075006E00A4
:107FC60020002000200020002000000018034100AF
:107FD60072006400750069006E006F0020004C009E
:067FE6004C004300000006
:040000030000700089
:00000001FF
