:100000000C94E8000C9492070C946B070C94440732
:100010000C941D070C9410010C9410010C94F6061E
:100020000C9410010C9410010C940B040C947A04A1
:100030000C9410010C9410010C9410010C941001FC
:100040000C9410010C9410010C9410010C941001EC
:100050000C9410010C9410010C9410010C94AC063B
:100060000C9410010C9410010C9410010C941001CC
:100070000C9410010C9410010C9410010C941001BC
:100080000C9410010C9410010C9410010C941001AC
:100090000C9410010C9410010C9410010C9410019C
:1000A0000C9410010C94B9070C941001000000008E
:1000B0002300260029002C002F000000000025004E
:1000C00028002B002E00310004040404040304055E
:1000D00002020202040302020202060606060606E5
:1000E00004040202020404040802011040804010CB
:1000F000204080408008020401804020100201104E
:100100008010204040200000000200090F00000382
:100110000401000C000000000000000000000000CE
:100120000000000000080B000202020000090400A9
:100130000001020200000524001001052401010154
:10014000042402060524060001070581031000406F
:1001500009040100020A0000000705020240000035
:10016000070583024000000403090412010002EFA6
:1001700002014041234180000101020301417264F8
:1001800075696E6F204C4C430041726475696E6FE7
:100190002059756E005E01011F01030301008A02F0
:1001A000010A010202010064001E47040B09060057
:1001B0007C0101060103030100F401060E010202A5
:1001C0000100C201170101020201010096081A0A8A
:1001D00011241FBECFEFDAE0DEBFCDBF22E0AAE6DA
:1001E000B1E001C01D92AB3CB207E1F711E0A0E025
:1001F000B1E0E4E1F9E102C005900D92AA36B10741
:10020000D9F710E0C7EED0E004C02197FE010E94AC
:10021000850AC63ED107C9F70E941E090C947D0CC1
:100220000C940000FC0180918801882311F13FB7F4
:10023000F89482E08093E9002091F200822F90E010
:100240001816190614F481E090E0882339F02898F4
:1002500044E6409387014091F1004083222339F026
:100260002091F200211103C02BE62093E8003FBF4C
:1002700008958FEF9FEF08952FB7F89483E0809350
:10028000E9009091E800892F807295FF04C0909159
:10029000F20080E4891B2FBF089580917F018111B6
:1002A0000DC082E080937B0184E080937C011092FA
:1002B0007E0110927D0181E080937F018BE791E0C8
:1002C000089540917501509176012091730130910C
:1002D000740142175307B4F49091E8009570E1F36C
:1002E0009091E80092FD19C08093F1008091750112
:1002F0009091760101968F739927892B19F48EEFCF
:100300008093E80080917501909176010196909319
:1003100076018093750181E0089580E00895EF9261
:10032000FF920F931F93CF93DF93F82E192FE62E92
:10033000042F81E0860F880F0E94610183E00E94F4
:100340006101CF2DD12FEC0EFD2EF11CCE15DF0556
:10035000B9F007FF13C0FE0184910E946101182FBC
:1003600080E00E946101812321968111EFCFDF910E
:10037000CF911F910F91FF90EF9008958881EDCF5D
:1003800081E0F5CFDF92EF92FF920F931F93CF930F
:10039000DF93D82E8A01EB017B01E40EF51ECE150A
:1003A000DF0559F0D7FE12C0FE0184910E94610161
:1003B00021968111F4CF0FEF1FEFC801DF91CF918C
:1003C0001F910F91FF90EF90DF9008958881EECFFD
:1003D0000F931F93CF93DF931F92CDB7DEB782E0C9
:1003E000898342E450E065E271E080E80E94C20146
:1003F0000E944D01DC0112960D911C910115110511
:1004000089F0D801ED91FC910280F381E02DBE01CD
:100410006F5F7F4FC801099597FD04C0F801008503
:100420001185ECCF89810F90DF91CF911F910F91B2
:100430000895615030F02091F100FC012083019675
:10044000F8CF289884E6809387010895CF93DF93AF
:100450001F92CDB7DEB76983DC01ED91FC9102807C
:10046000F381E02D41E050E0BE016F5F7F4F0995C1
:100470000F90DF91CF91089583E08093E900809100
:10048000F200882319F08AE38093E80008950E941F
:100490003C0190E00895CF93DF931F92CDB7DEB774
:1004A000FC018485958597FD08C02FEF3FEF3587C8
:1004B00024870F90DF91CF910895CE0101960E947D
:1004C0001201019719F4898190E0F3CF8FEF9FEF2C
:1004D000F0CF0F931F93CF93DF931F92CDB7DEB76B
:1004E0008C01FC018485958597FF0BC0CE01019698
:1004F0000E941201019771F4898190E0F8019587BB
:100500008487F801848595850F90DF91CF911F91A5
:100510000F9108958FEF9FEFF1CFFC0184859585B2
:1005200097FD0BC09FB7F89482E08093E90080911B
:10053000F2009FBF90E0019608959FB7F89482E083
:100540008093E9008091F2009FBF90E00895815070
:100550008F3008F047C0E82FF0E0EF54FD4F0C94C7
:10056000850ACE02D202C002C602CA02F202F2021A
:10057000F202D502DB02DF02E302E902F202ED023F
:10058000809180008F778093800008958091800013
:100590008F7DF9CF80918000877FF5CF84B58F77ED
:1005A00084BD089584B58F7DFBCF809190008F77B7
:1005B000809390000895809190008F7DF9CF809175
:1005C0009000877FF5CF8091C0008F778093C00027
:1005D00008958091C0008F7DF9CF8091C200877F00
:1005E0008093C20008951F93CF93DF93282F30E0AC
:1005F000F901EA5FFE4F8491F901E951FF4FD4916F
:10060000F901E853FF4FC491CC23A9F0162F8111B3
:100610000E94A702EC2FF0E0EE0FFF1FE654FF4F01
:10062000A591B4918FB7F894EC91111108C0D095B1
:10063000DE23DC938FBFDF91CF911F910895DE2BD6
:10064000F8CF3FB7F89480916F0190917001A0911D
:100650007101B091720126B5A89B05C02F3F19F01A
:100660000196A11DB11D3FBFBA2FA92F982F882732
:10067000BC01CD01620F711D811D911D42E0660F0D
:10068000771F881F991F4A95D1F708958F929F92DF
:10069000AF92BF92CF92DF92EF92FF924B015C013B
:1006A0000E9421036B017C010E9421036C197D09CA
:1006B0008E099F09683E734081059105A8F321E0EA
:1006C000821A9108A108B10888EEC80E83E0D81EEE
:1006D000E11CF11C81149104A104B10429F7FF90DD
:1006E000EF90DF90CF90BF90AF909F908F90089544
:1006F0008F929F92AF92BF92CF92DF92EF92FF9232
:100700000F931F93CF93DF936C017B018A0180913C
:100710001501882309F45CC080918801882309F4BD
:1007200057C08091790180FF05C08091E000826010
:100730008093E000E801B12C8AEFA82E93E0892E87
:100740002AE3922E209711F4BB20D9F10E943C019C
:1007500081110AC0AA94AA20D9F161E070E080E07A
:1007600090E00E944603EECF8C171D0611F00CF0AE
:100770008C2F9FB7F8948092E9002091E80025FD26
:1007800002C09FBFDFCF282F30E0C21BD30BF70181
:10079000815020F041914093F100FACFE20EF31E18
:1007A000BB2021F09092E800B12CEBCF8091E800C3
:1007B00085FDE7CF9092E800BB24B394209709F31E
:1007C000F3CF5D9884E680937801101611063CF013
:1007D00081E090E0F6019383828310E000E0C8019D
:1007E000DF91CF911F910F91FF90EF90DF90CF900D
:1007F000BF90AF909F908F9008950895FC01019055
:100800000020E9F73197AF01481B590BBC0189E87B
:1008100091E00C9478031F920F920FB60F9211245F
:100820008F939F938091E1009091E100937F90934B
:10083000E10083FF0FC01092E90091E09093EB007C
:100840001092EC0092E39093ED001092880198E0F2
:100850009093F00082FF22C093E09093E900909182
:10086000F200992319F09AE39093E80090917801AF
:10087000992341F0909178019150909378019111D2
:1008800001C05D9A90918701992341F09091870171
:10089000915090938701911101C0289A84FF18C04C
:1008A0008091E2008E7E81608093E2008091E10081
:1008B0008F7E8093E100809179018E7E80618093AC
:1008C00079019F918F910F900FBE0F901F901895F7
:1008D00080FFF7CF8091E2008E7E80618093E200FE
:1008E0008091E1008E7E8093E100809179018E7E7F
:1008F0008160E5CF1F920F920FB60F921124CF9215
:10090000DF92EF92FF920F931F932F933F934F939A
:100910005F936F937F938F939F93AF93BF93EF9367
:10092000FF93CF93DF93CDB7DEB76C97DEBFCDBF1C
:100930001092E9008091E80083FF25C068E0CE01B5
:1009400045960E94190282EF8093E8008D8987FF07
:1009500039C09091E80090FFFCCF982F907609F075
:1009600034C19E894F89588D2F89F88C911131C0DF
:10097000803861F580917A018093F1001092F10046
:100980008EEF8093E8006C960FB6F894DEBF0FBE32
:10099000CDBFDF91CF91FF91EF91BF91AF919F912B
:1009A0008F917F916F915F914F913F912F911F9107
:1009B0000F91FF90EF90DF90CF900F900FBE0F90B0
:1009C0001F9018959EEF9093E800C7CF1092F1000A
:1009D000D5CF913059F48111D3CF4130510581F6F3
:1009E00080917A018D7F80937A01CACF933049F448
:1009F0008111C6CF4130510519F680917A0182608C
:100A0000F2CF953041F48091E80080FFFCCF206860
:100A10002093E300B5CF963009F0A9C00B8D1C8D53
:100A200022E01092E9001092760110927501F21204
:100A30002EC010927401109273010E94E8011F826F
:100A400099E09983FA8291E09E8390EA98879AEFE1
:100A500099872091750130917601275F3F4F3C8344
:100A60002B838D831092E90010927601109275010C
:100A7000109374010093730149E050E0BE016F5F71
:100A80007F4F80E00E94C2010E94E80179CF10935D
:100A90007401009373010E944D01DC0112960D91C7
:100AA0001C910115110509F451C1D801ED91FC917A
:100AB0000480F581E02DBE016B5E7F4FC801099572
:100AC000009709F03EC1F80100851185EACFF3E0F7
:100AD000FF120EC08F89882309F440C0823061F470
:100AE00040E86BE089E891E00E948F01811148CFD6
:100AF00081E28093EB0047CF813029F440E86BE03E
:100B00008DE791E0F1CF833099F70E944D01DC0130
:100B10001296ED90FC908E010F5F1F4F6801E1145B
:100B2000F10479F0D701ED91FC910680F781E02D79
:100B3000B801C7010995080F111DF701E084F18480
:100B4000EECFD8011C92F60101900020E9F7319711
:100B5000BF016C197D0940E0C601C6CF67E671E0B0
:100B6000FB01449150E080E80E94C20109CF973018
:100B700009F4BECF983021F481E08093F10000CFDA
:100B8000993009F0FDCE837009F0B2CFEDE1F1E0CC
:100B900081E031E096E32191222371F08093E90016
:100BA0003093EB00DF0111972C912093EC00909390
:100BB000ED008F5F873079F78EE78093EA0010921F
:100BC000EA008F8980938801DBCE8B8D9C8D1092FB
:100BD000E900109276011092750190937401809350
:100BE0007301898D811192C08E899D89913A49F452
:100BF000813209F07DCF47E050E06EE071E080E0A7
:100C0000B3CF913209F074CF833269F48F89988D14
:100C1000B0E0A0E080930A0190930B01A0930C0137
:100C2000B0930D01ADCE803269F48091E80082FF6F
:100C3000FCCF67E08EE091E00E9419028BEF809379
:100C4000E8009ECE823209F09BCE8F8980931501F9
:100C5000EEEFFFE7859194918B3F9C4D51F1E0E0E1
:100C6000F8E080910E0190910F01A0911001B091D8
:100C70001101803B9440A105B105F1F4809115016B
:100C800080FD1AC0EE3F8AE0F80789F587E797E70D
:100C900091838083809160008093770188E19BE05D
:100CA0000FB6F894A895809360000FBE90936000F3
:100CB00067CEEEEFFAE0D5CF8081918187379747F5
:100CC00009F05ECEA89580916000886180936000F5
:100CD0008091770180936000EE3F2AE0F20789F06F
:100CE0008091FE0A9091FF0A9183808349CE808192
:100CF00091818737980751F29093FF0A8093FE0AFB
:100D0000C5CF1092FF0A1092FE0A3ACE0E944D0102
:100D1000DC0112960D911C910115110509F4E8CE24
:100D2000D801ED91FC910190F081E02DBE016B5E48
:100D30007F4FC8010995811123CEF80100851185E7
:100D4000EBCF181619060CF41BCED2CEF1E0FF1231
:100D5000BECE6BE671E004CF1F920F920FB60F92DA
:100D600011242F933F938F939F93AF93BF938091C1
:100D70006B0190916C01A0916D01B0916E01309169
:100D80006A0123E0230F2D3758F50196A11DB11DEF
:100D900020936A0180936B0190936C01A0936D0185
:100DA000B0936E0180916F0190917001A0917101DB
:100DB000B09172010196A11DB11D80936F019093B6
:100DC0007001A0937101B0937201BF91AF919F9197
:100DD0008F913F912F910F900FBE0F901F901895FC
:100DE00026E8230F0296A11DB11DD2CF1F920F92AC
:100DF0000FB60F9211242F933F934F935F936F93EE
:100E00007F938F939F93AF93BF93EF93FF93E09163
:100E10000801F09109010995FF91EF91BF91AF9100
:100E20009F918F917F916F915F914F913F912F9102
:100E30000F900FBE0F901F9018951F920F920FB634
:100E40000F9211242F933F934F935F936F937F9350
:100E50008F939F93AF93BF93EF93FF93E09106011E
:100E6000F09107010995FF91EF91BF91AF919F918B
:100E70008F917F916F915F914F913F912F910F9043
:100E80000FBE0F901F9018951F920F920FB60F92E2
:100E900011242F933F934F935F936F937F938F937F
:100EA0009F93AF93BF93EF93FF93E0910401F09171
:100EB00005010995FF91EF91BF91AF919F918F919E
:100EC0007F916F915F914F913F912F910F900FBE46
:100ED0000F901F9018951F920F920FB60F9211242A
:100EE0002F933F934F935F936F937F938F939F9332
:100EF000AF93BF93EF93FF93E0910201F091030151
:100F00000995FF91EF91BF91AF919F918F917F9143
:100F10006F915F914F913F912F910F900FBE0F9066
:100F20001F9018951F920F920FB60F9211242F93B6
:100F30003F934F935F936F937F938F939F93AF9361
:100F4000BF93EF93FF93E0910001F09101010995A8
:100F5000FF91EF91BF91AF919F918F917F916F9191
:100F60005F914F913F912F910F900FBE0F901F9067
:100F700018951F920F920FB60F9211242F933F9343
:100F80004F935F936F937F938F939F93AF93BF9391
:100F9000CF93DF93EF93FF932091F30130E0F901BA
:100FA000EA5FFE4F8491F901E951FF4FD491F901B5
:100FB000E853FF4FC491CC2379F081110E94A7021E
:100FC000EC2FF0E0EE0FFF1FE455FF4FA591B49119
:100FD000EC91ED2381E009F480E02091F70130915C
:100FE000F8012F5F3F4F3093F8012093F701909164
:100FF000F601953618F096E09093F2019091F20187
:10100000943009F466C0B8F49230F1F0933009F4EA
:1010100044C09091F501992309F46BC081117CC003
:101020008091F401882309F463C08091F40161E0A8
:101030000E94F3025EC0953009F457C0963049F71C
:1010400091E09093C3024FC08111E3CF2091F7014B
:101050003091F8012436310528F41092F8011092ED
:10106000F701D7CF1092C3021092F601E091F6017A
:1010700091E09E0F9093F601F0E02091F7013091FE
:10108000F801EE0FFF1FEE50FE4F308727831092BE
:10109000F8011092F70193E019C0813009F0B9CF3F
:1010A000E091F60191E09E0F9093F601F0E020911F
:1010B000F7013091F801EE0FFF1FEE50FE4F308721
:1010C00027831092F8011092F70194E09093F201B7
:1010D000A0CF882359F22091F7013091F8012536ED
:1010E000310508F496CF95E0F1CF811192CFB5CFBD
:1010F0002D9AFF91EF91DF91CF91BF91AF919F9189
:101100008F917F916F915F914F913F912F910F90B0
:101110000FBE0F901F9018958091F401882321F045
:101120008091F40160E084CF2D98E3CFCF93DF93DB
:1011300010928C0110928B0188EE93E0A0E0B0E059
:1011400080938D0190938E01A0938F01B0939001B5
:1011500087E291E090938A0180938901CFEFDFEFDE
:10116000D0939601C093950183E08093C402D093FD
:10117000E601C093E5018AE090E09093E801809356
:10118000E70149E050E065E971E089EE91E00E94F5
:10119000230AD093E401C093E3011092D901109285
:1011A000DA011092DB011092DC011092DE01109244
:1011B000DD011092E0011092DF011092E201109225
:1011C000E10161E070E090E080E00E94B00B0097E8
:1011D000F1F09093DE018093DD011092E001109216
:1011E000DF012091E1013091E201232B11F4FC0198
:1011F00010821092E2011092E10168E671E08091A4
:10120000DD019091DE01DF91CF910C94760C8091FD
:10121000DD019091DE01009711F00E94270B1092E2
:10122000DE011092DD011092E2011092E1011092B4
:10123000E0011092DF01DF91CF910895CF93DF930A
:10124000CDB7DEB7A1970FB6F894DEBF0FBECDBF06
:10125000789484B5826084BD84B5816084BD85B591
:10126000826085BD85B5816085BD80916E0081609D
:1012700080936E0010928100809181008260809343
:101280008100809181008160809381008091800045
:1012900081608093800080919100826080939100B2
:1012A0008091910081608093910080919000816095
:1012B000809390008091C10084608093C1008091F0
:1012C000C10082608093C1008091C10081608093E1
:1012D000C1008091C30081608093C3008091C000F1
:1012E00082608093C0008091C20081608093C200C0
:1012F00080917A00846080937A0080917A00826085
:1013000080937A0080917A00816080937A00809146
:101310007A00806880937A001092880110927A0196
:10132000109279018091D70081608093D70080EA84
:101330008093D80089B5806189BD89B5826089BDF7
:1013400009B400FEFDCF61E070E080E090E00E9413
:1013500046038091D8008F7C80618093D800809173
:10136000E000807F8093E0008091E1008E7E80939A
:10137000E1008DE08093E200559A209A8FEF9FEF75
:1013800090939601809395018AE0482E512C612C10
:10139000712C90E0A92E90E0B92EC090D901D09088
:1013A000DA01E090DB01F090DC01C114D104E1042A
:1013B000F104C9F185E391E0C114D10421F186E47F
:1013C00091E00E94FE0319A28E010F5D1F4FC7011D
:1013D000B601A30192010E94630A69017A01605D6E
:1013E000F80162938F01C114D104E104F10479F78B
:1013F000309719F0CF010E94FE0384E691E00E942D
:10140000FE0386E691E00E94FE0368EC70E080E057
:1014100090E00E9446031092D9011092DA011092D6
:10142000DB011092DC01A114B10409F4B6CF0E94D3
:101430000000B3CF8091DD019091DE01009711F0A3
:101440000C94270B0895FB01DC0102C005900D925E
:1014500041505040D8F708952F923F924F925F929B
:101460006F927F928F929F92AF92BF92CF92DF92B4
:10147000EF92FF920F931F93CF93DF93CDB7DEB719
:10148000CA1BDB0B0FB6F894DEBF0FBECDBF0994AD
:101490002A88398848885F846E847D848C849B8404
:1014A000AA84B984C884DF80EE80FD800C811B8112
:1014B000AA81B981CE0FD11D0FB6F894DEBF0FBE41
:1014C000CDBFED010895A1E21A2EAA1BBB1BFD01A1
:1014D0000DC0AA1FBB1FEE1FFF1FA217B307E40713
:1014E000F50720F0A21BB30BE40BF50B661F771F6B
:1014F000881F991F1A9469F760957095809590954B
:101500009B01AC01BD01CF010895EE0FFF1F0590B7
:10151000F491E02D09940F931F93CF93DF938230C2
:10152000910510F482E090E0E091C902F091CA02C6
:1015300030E020E0B0E0A0E0309799F421153105CB
:1015400009F44AC0281B390B24303105D8F58A81AB
:101550009B816115710589F1FB0193838283FE01F3
:1015600011C0408151810281138148175907E0F071
:101570004817590799F4109761F012960C93129737
:1015800013961C933296CF01DF91CF911F910F914B
:1015900008950093C9021093CA02F4CF21153105B2
:1015A00051F04217530738F0A901DB019A01BD0140
:1015B000DF01F801C1CFEF01F9CF9093CA02809308
:1015C000C902CDCFFE01E20FF31F81939193225008
:1015D000310939832883D7CF2091C7023091C802BF
:1015E000232B41F420911801309119013093C80246
:1015F0002093C70220911601309117012115310562
:1016000041F42DB73EB740911A0150911B01241BA4
:10161000350BE091C702F091C802E217F307A0F47E
:101620002E1B3F0B2817390778F0AC014E5F5F4F38
:101630002417350748F04E0F5F1F5093C8024093A0
:10164000C702819391939FCFF0E0E0E09CCFCF93CE
:10165000DF930097E9F0FC01329713821282A09188
:10166000C902B091CA02ED0130E020E01097A1F468
:1016700020813181820F931F2091C7023091C802CF
:101680002817390709F061C0F093C802E093C70238
:10169000DF91CF910895EA01CE17DF07E8F54A817F
:1016A0005B819E0141155105B1F7E901FB83EA8396
:1016B00049915991C40FD51FEC17FD0761F4808142
:1016C00091810296840F951FE90199838883828115
:1016D00093819B838A83F0E0E0E012968D919C9148
:1016E00013970097B9F52D913C911197CD01029672
:1016F000820F931F2091C7023091C8022817390723
:1017000039F6309751F51092CA021092C902B0937F
:10171000C802A093C702BCCFD383C283408151814A
:10172000840F951FC817D90761F44E5F5F4F8881FA
:101730009981480F591F518340838A819B819383EC
:1017400082832115310509F0B0CFF093CA02E093EE
:10175000C9029ECFFD01DC01C0CF13821282D7CF18
:10176000B0E0A0E0E6EBFBE00C942E0A8C010097C1
:1017700051F4CB010E948B0A8C01C801CDB7DEB7B2
:10178000E0E10C944A0AFC01E60FF71F9C0122508D
:101790003109E217F30708F49DC0D901CD91DC911E
:1017A0001197C617D70798F0C530D10530F3CE0191
:1017B00004978617970708F3C61BD70B2297C19388
:1017C000D1936D937C93CF010E94270BD6CF5B0101
:1017D000AC1ABD0A4C018C0E9D1EA091C902B0919D
:1017E000CA02512C412CF12CE12C109731F580913B
:1017F000C7029091C8028815990509F05CC0461689
:10180000570608F058C08091160190911701009773
:1018100041F48DB79EB740911A0150911B01841B72
:10182000950BE817F90708F055C0F093C802E0934C
:10183000C702F90171836083A0CF8D919C911197AC
:1018400012966C90129713967C901397A815B90571
:1018500059F56C0142E0C40ED11CCA14DB0420F11E
:10186000AC014A195B09DA011296159780F0628281
:10187000738251834083D9016D937C93E114F10409
:1018800071F0D7011396FC93EE93129776CF2296C0
:101890008C0F9D1FF90191838083F301EFCFF093AB
:1018A000CA02E093C90269CF4816590608F42C0110
:1018B0007D01D3019ACFCB010E948B0A7C01009756
:1018C00049F0AE01B8010E946D0CC8010E94270BBF
:1018D000870153CF10E000E050CFFB01DC0102C0D4
:1018E00001900D9241505040D8F70895FB01DC0162
:1018F00001900D920020E1F7089510E0C7EED0E0CE
:1019000004C0FE010E94850A2196C83ED107C9F78E
:04191000F894FFCF79
:10191400FD03FD03FD03FD03FD03FFFFFFFF00E1E6
:101924000000000000000000CB02800000C18081A4
:10193400000000000000002602780347023C028DEC
:10194400024B026902556E6B6E6F776E20656E6393
:101954006F64696E67007B22616374696F6E223AFB
:10196400227265636569766564222C2276616C75E2
:0A19740065223A007D000D0A000014
:00000001FF
