:100000000C94E8000C94D9080C94B2080C948B085A
:100010000C9464080C9410010C9410010C943D088D
:100020000C9410010C9410010C9452050C94C10511
:100030000C9410010C9410010C9410010C941001FC
:100040000C9410010C9410010C9410010C941001EC
:100050000C9410010C9410010C9410010C94F307F3
:100060000C9410010C9410010C9410010C941001CC
:100070000C9410010C9410010C9410010C941001BC
:100080000C9410010C9410010C9410010C941001AC
:100090000C9410010C9410010C9410010C9410019C
:1000A0000C9410010C9400090C9410010000000045
:1000B0002300260029002C002F000000000025004E
:1000C00028002B002E00310004040404040304055E
:1000D00002020202040302020202060606060606E5
:1000E00004040202020404040802011040804010CB
:1000F000204080408008020401804020100201104E
:100100008010204040200000000200090F00000382
:100110000401000C000000000000000000000000CE
:100120000000000000080B000202020000090400A9
:100130000001020200000524001001052401010154
:10014000042402060524060001070581031000406F
:1001500009040100020A0000000705020240000035
:10016000070583024000000403090412010002EFA6
:1001700002014041234180000101020301417264F8
:1001800075696E6F204C4C430041726475696E6FE7
:100190002059756E005E01011F01030301008A02F0
:1001A000010A010202010064001E47040B09060057
:1001B0007C0101060103030100F401060E010202A5
:1001C0000100C2011701010202010100DD09890BD2
:1001D00011241FBECFEFDAE0DEBFCDBF23E0A2E8DF
:1001E000B1E001C01D92A137B207E1F711E0A0E034
:1001F000B1E0EAE1FCE102C005900D92A238B1073E
:10020000D9F710E0C7EED0E004C02197FE010E94AC
:10021000080CC63ED107C9F70E946C0A0C94000E68
:100220000C940000FC0180912E02882311F13FB74D
:10023000F89482E08093E9002091F200822F90E010
:100240001816190614F481E090E0882339F02898F4
:1002500044E640932D024091F1004083222339F07F
:100260002091F200211103C02BE62093E8003FBF4C
:1002700008958FEF9FEF08952FB7F89483E0809350
:10028000E9009091E800892F807295FF04C0909159
:10029000F20080E4891B2FBF08958091250281110F
:1002A0000DC082E08093210284E0809322021092AC
:1002B00024021092230281E08093250281E292E0E1
:1002C000089540911B0250911C0220911902309117
:1002D0001A0242175307B4F49091E8009570E1F3C5
:1002E0009091E80092FD19C08093F10080911B026B
:1002F00090911C0201968F739927892B19F48EEF28
:100300008093E80080911B0290911C0201969093CB
:100310001C0280931B0281E0089580E00895EF9213
:10032000FF920F931F93CF93DF93F82E192FE62E92
:10033000042F81E0860F880F0E94610183E00E94F4
:100340006101CF2DD12FEC0EFD2EF11CCE15DF0556
:10035000B9F007FF13C0FE0184910E946101182FBC
:1003600080E00E946101812321968111EFCFDF910E
:10037000CF911F910F91FF90EF9008958881EDCF5D
:1003800081E0F5CFDF92EF92FF920F931F93CF930F
:10039000DF93D82E8A01EB017B01E40EF51ECE150A
:1003A000DF0559F0D7FE12C0FE0184910E94610161
:1003B00021968111F4CF0FEF1FEFC801DF91CF918C
:1003C0001F910F91FF90EF90DF9008958881EECFFD
:1003D0000F931F93CF93DF931F92CDB7DEB782E0C9
:1003E000898342E450E065E271E080E80E94C20146
:1003F0000E944D01DC0112960D911C910115110511
:1004000089F0D801ED91FC910280F381E02DBE01CD
:100410006F5F7F4FC801099597FD04C0F801008503
:100420001185ECCF89810F90DF91CF911F910F91B2
:100430000895615030F02091F100FC012083019675
:10044000F8CF289884E680932D020895CF93DF9308
:100450001F92CDB7DEB76983DC01ED91FC9102807C
:10046000F381E02D41E050E0BE016F5F7F4F0995C1
:100470000F90DF91CF91089583E08093E900809100
:10048000F200882319F08AE38093E80008950E941F
:100490003C0190E00895CF93DF931F92CDB7DEB774
:1004A000FC018485958597FD08C02FEF3FEF3587C8
:1004B00024870F90DF91CF910895CE0101960E947D
:1004C0001201019719F4898190E0F3CF8FEF9FEF2C
:1004D000F0CF0F931F93CF93DF931F92CDB7DEB76B
:1004E0008C01FC018485958597FF0BC0CE01019698
:1004F0000E941201019771F4898190E0F8019587BB
:100500008487F801848595850F90DF91CF911F91A5
:100510000F9108958FEF9FEFF1CFFC0184859585B2
:1005200097FD0BC09FB7F89482E08093E90080911B
:10053000F2009FBF90E0019608959FB7F89482E083
:100540008093E9008091F2009FBF90E00895815070
:100550008F3008F047C0E82FF0E0EF54FD4F0C94C7
:10056000080CCE02D202C002C602CA02F202F20295
:10057000F202D502DB02DF02E302E902F202ED023F
:10058000809180008F778093800008958091800013
:100590008F7DF9CF80918000877FF5CF84B58F77ED
:1005A00084BD089584B58F7DFBCF809190008F77B7
:1005B000809390000895809190008F7DF9CF809175
:1005C0009000877FF5CF8091C0008F778093C00027
:1005D00008958091C0008F7DF9CF8091C200877F00
:1005E0008093C20008951F93CF93DF93282F30E0AC
:1005F000F901EA5FFE4F8491F901E951FF4FD4916F
:10060000F901E853FF4FC491CC23A9F0162F8111B3
:100610000E94A702EC2FF0E0EE0FFF1FE654FF4F01
:10062000A591B4918FB7F894EC91111108C0D095B1
:10063000DE23DC938FBFDF91CF911F910895DE2BD6
:10064000F8CF3FB7F8948091150290911602A091CF
:100650001702B091180226B5A89B05C02F3F19F0CC
:100660000196A11DB11D3FBFBA2FA92F982F882732
:10067000BC01CD01620F711D811D911D42E0660F0D
:10068000771F881F991F4A95D1F708958F929F92DF
:10069000AF92BF92CF92DF92EF92FF924B015C013B
:1006A0000E9421036B017C010E9421036C197D09CA
:1006B0008E099F09683E734081059105A8F321E0EA
:1006C000821A9108A108B10888EEC80E83E0D81EEE
:1006D000E11CF11C81149104A104B10429F7FF90DD
:1006E000EF90DF90CF90BF90AF909F908F90089544
:1006F0008F929F92AF92BF92CF92DF92EF92FF9232
:100700000F931F93CF93DF936C017B018A0180913C
:100710000B01882309F45CC080912E02882309F420
:1007200057C080911F0280FF05C08091E000826069
:100730008093E000E801B12C8AEFA82E93E0892E87
:100740002AE3922E209711F4BB20D9F10E943C019C
:1007500081110AC0AA94AA20D9F161E070E080E07A
:1007600090E00E944603EECF8C171D0611F00CF0AE
:100770008C2F9FB7F8948092E9002091E80025FD26
:1007800002C09FBFDFCF282F30E0C21BD30BF70181
:10079000815020F041914093F100FACFE20EF31E18
:1007A000BB2021F09092E800B12CEBCF8091E800C3
:1007B00085FDE7CF9092E800BB24B394209709F31E
:1007C000F3CF5D9884E680931E02101611063CF06C
:1007D00081E090E0F6019383828310E000E0C8019D
:1007E000DF91CF911F910F91FF90EF90DF90CF900D
:1007F000BF90AF909F908F9008950895FC01019055
:100800000020E9F73197AF01481B590BBC018FE27B
:1008100092E00C9478032F923F924F925F926F92E6
:100820007F928F929F92AF92BF92CF92DF92EF9280
:10083000FF920F931F93CF93DF93CDB7DEB76197EE
:100840000FB6F894DEBF0FBECDBF0E9421036B012F
:100850007C0180910C0290910D023601681A790A90
:100860002DEC621620E1720608F4D1C08091860159
:1008700090918701D301A81BB90BCD01B7FF03C02D
:10088000919581959109883C91050CF0BCC08091AF
:100890008401909185010196909385018093840154
:1008A000029709F0B0C005E911E040908201509034
:1008B000830149E050E0B801CE0101960E94920BFD
:1008C0008B816C81681708F4682F70E08091860135
:1008D000909187010E94D20B9B014091170150918A
:1008E0001801649FC001659F900D749F900D1124A5
:1008F00064E670E00E94D20B898541E050E08823D5
:1009000011F042E050E08D81829FF001839FF00D55
:100910001124FB87EA878E81829FD001839FB00DCF
:100920001124BD87AC878F81829FF001839FF00DDA
:100930001124FF87EE878885829F1001839F300CEA
:100940001124FA01EE0FFF1FEA57FE4F812C912C64
:100950005401920121503109398B288B888999895A
:100960004817590708F03FC0880C991CAA1CBB1CEB
:10097000808191819C01AA85BB852A1B3B0B37FF97
:1009800003C03195219531092617370770F422816C
:100990003381AC85BD852A1B3B0B37FF03C03195E6
:1009A0002195310926173707D0F02E853F85821B08
:1009B000930B97FF03C0919581959109861797072F
:1009C000B8F4828193818219930997FF03C09195AE
:1009D000819591098617970758F4689480F84E5FBF
:1009E0005F4F3496BBCF38E04316510408F051C036
:1009F000075F1F4F81E00B3C180709F056CF10929C
:100A000085011092840110928301109282018091DD
:100A10008201909183018334910540F0109283010B
:100A200010928201109285011092840180918201BE
:100A3000909183019C012F5F3F4F3093830120935E
:100A40008201880F991FFC01EA57FE4F7182608274
:100A5000C0920C02D0920D02E0920E02F0920F02B0
:100A600061960FB6F894DEBF0FBECDBFDF91CF9178
:100A70001F910F91FF90EF90DF90CF90BF90AF90BC
:100A80009F908F907F906F905F904F903F902F90AE
:100A9000089580927F0290928002A0928102B0928B
:100AA0008202ADCF1F920F920FB60F9211248F9337
:100AB0009F938091E1009091E100937F9093E100FA
:100AC00083FF0FC01092E90091E09093EB00109229
:100AD000EC0092E39093ED0010922E0298E0909338
:100AE000F00082FF22C093E09093E9009091F20021
:100AF000992319F09AE39093E80090911E029923AC
:100B000041F090911E02915090931E02911101C0EC
:100B10005D9A90912D02992341F090912D02915070
:100B200090932D02911101C0289A84FF18C08091E2
:100B3000E2008E7E81608093E2008091E1008F7EF2
:100B40008093E10080911F028E7E806180931F025E
:100B50009F918F910F900FBE0F901F90189580FF5F
:100B6000F7CF8091E2008E7E80618093E2008091D9
:100B7000E1008E7E8093E10080911F028E7E816075
:100B8000E5CF1F920F920FB60F921124CF92DF92F2
:100B9000EF92FF920F931F932F933F934F935F9387
:100BA0006F937F938F939F93AF93BF93EF93FF9335
:100BB000CF93DF93CDB7DEB76C97DEBFCDBF10927A
:100BC000E9008091E80083FF25C068E0CE014596EA
:100BD0000E94190282EF8093E8008D8987FF39C057
:100BE0009091E80090FFFCCF982F907609F034C1E7
:100BF0009E894F89588D2F89F88C911131C080388A
:100C000061F5809120028093F1001092F1008EEF47
:100C10008093E8006C960FB6F894DEBF0FBECDBF90
:100C2000DF91CF91FF91EF91BF91AF919F918F9104
:100C30007F916F915F914F913F912F911F910F91F4
:100C4000FF90EF90DF90CF900F900FBE0F901F900E
:100C500018959EEF9093E800C7CF1092F100D5CF82
:100C6000913059F48111D3CF4130510581F68091F3
:100C700020028D7F80932002CACF933049F48111E6
:100C8000C6CF4130510519F6809120028260F2CF23
:100C9000953041F48091E80080FFFCCF20682093DC
:100CA000E300B5CF963009F0A9C00B8D1C8D22E072
:100CB0001092E90010921C0210921B02F2122EC038
:100CC00010921A02109219020E94E8011F8299E004
:100CD0009983FA8291E09E8390EA98879AEF9987A8
:100CE00020911B0230911C02275F3F4F3C832B83D6
:100CF0008D831092E90010921C0210921B02109337
:100D00001A020093190249E050E0BE016F5F7F4F65
:100D100080E00E94C2010E94E80179CF10931A027C
:100D2000009319020E944D01DC0112960D911C9155
:100D30000115110509F451C1D801ED91FC91048010
:100D4000F581E02DBE016B5E7F4FC80109950097CC
:100D500009F03EC1F80100851185EACFF3E0FF12EA
:100D60000EC08F89882309F440C0823061F440E8C6
:100D70006BE089E891E00E948F01811148CF81E208
:100D80008093EB0047CF813029F440E86BE08DE79A
:100D900091E0F1CF833099F70E944D01DC0112966A
:100DA000ED90FC908E010F5F1F4F6801E114F1047C
:100DB00079F0D701ED91FC910680F781E02DB80123
:100DC000C7010995080F111DF701E084F184EECFEA
:100DD000D8011C92F60101900020E9F73197BF017C
:100DE0006C197D0940E0C601C6CF67E671E0FB01E2
:100DF000449150E080E80E94C20109CF973009F485
:100E0000BECF983021F481E08093F10000CF99307B
:100E100009F0FDCE837009F0B2CFE0E2F1E081E0AD
:100E200031E096E32191222371F08093E900309321
:100E3000EB00DF0111972C912093EC009093ED00D3
:100E40008F5F873079F78EE78093EA001092EA008F
:100E50008F8980932E02DBCE8B8D9C8D1092E900C2
:100E600010921C0210921B0290931A028093190296
:100E7000898D811192C08E899D89913A49F4813280
:100E800009F07DCF47E050E064E071E080E0B3CF4F
:100E9000913209F074CF833269F48F89988DB0E074
:100EA000A0E08093000190930101A0930201B09310
:100EB0000301ADCE803269F48091E80082FFFCCF5F
:100EC00067E084E091E00E9419028BEF8093E800D4
:100ED0009ECE823209F09BCE8F8980930B01EEEF7C
:100EE000FFE7859194918B3F9C4D51F1E0E0F8E054
:100EF0008091040190910501A0910601B091070134
:100F0000803B9440A105B105F1F480910B0180FD77
:100F10001AC0EE3F8AE0F80789F587E797E79183E3
:100F200080838091600080931D0288E19BE00FB672
:100F3000F894A895809360000FBE9093600067CEF0
:100F4000EEEFFAE0D5CF808191818737974709F09E
:100F50005ECEA8958091600088618093600080914A
:100F60001D0280936000EE3F2AE0F20789F0809135
:100F7000FE0A9091FF0A9183808349CE80819181FE
:100F80008737980751F29093FF0A8093FE0AC5CFE6
:100F90001092FF0A1092FE0A3ACE0E944D01DC0127
:100FA00012960D911C910115110509F4E8CED80196
:100FB000ED91FC910190F081E02DBE016B5E7F4FC1
:100FC000C8010995811123CEF80100851185EBCF69
:100FD000181619060CF41BCED2CEF1E0FF12BECECD
:100FE0006BE671E004CF1F920F920FB60F9211249F
:100FF0002F933F938F939F93AF93BF938091110251
:1010000090911202A0911302B0911402309110023B
:1010100023E0230F2D3758F50196A11DB11D209314
:1010200010028093110290931202A0931302B093C6
:1010300014028091150290911602A0911702B091AE
:1010400018020196A11DB11D8093150290931602FE
:10105000A0931702B0931802BF91AF919F918F9107
:101060003F912F910F900FBE0F901F90189526E87B
:10107000230F0296A11DB11DD2CF1F920F920FB662
:101080000F9211242F933F934F935F936F937F930E
:101090008F939F93AF93BF93EF93FF93E0911401CE
:1010A000F09115010995FF91EF91BF91AF919F913B
:1010B0008F917F916F915F914F913F912F910F9001
:1010C0000FBE0F901F9018951F920F920FB60F92A0
:1010D00011242F933F934F935F936F937F938F933D
:1010E0009F93AF93BF93EF93FF93E0911201F09121
:1010F00013010995FF91EF91BF91AF919F918F914E
:101100007F916F915F914F913F912F910F900FBE03
:101110000F901F9018951F920F920FB60F921124E7
:101120002F933F934F935F936F937F938F939F93EF
:10113000AF93BF93EF93FF93E0911001F0911101F2
:101140000995FF91EF91BF91AF919F918F917F9101
:101150006F915F914F913F912F910F900FBE0F9024
:101160001F9018951F920F920FB60F9211242F9374
:101170003F934F935F936F937F938F939F93AF931F
:10118000BF93EF93FF93E0910E01F0910F0109954A
:10119000FF91EF91BF91AF919F918F917F916F914F
:1011A0005F914F913F912F910F900FBE0F901F9025
:1011B00018951F920F920FB60F9211242F933F9301
:1011C0004F935F936F937F938F939F93AF93BF934F
:1011D000EF93FF93E0910C01F0910D010995FF91C0
:1011E000EF91BF91AF919F918F917F916F915F919F
:1011F0004F913F912F910F900FBE0F901F90189518
:101200001F920F920FB60F9211242F933F934F937B
:101210005F936F937F938F939F93AF93BF93CF937E
:10122000DF93EF93FF932091930230E0F901EA5F9F
:10123000FE4F8491F901E951FF4FD491F901E85330
:10124000FF4FC491CC2379F081110E94A702EC2FAB
:10125000F0E0EE0FFF1FE455FF4FA591B491EC9124
:10126000ED2381E009F480E020919702309198020B
:101270002F5F3F4F309398022093970290919602F0
:10128000953618F096E090939202909192029430E5
:1012900009F466C0B8F49230F1F0933009F444C018
:1012A00090919502992309F46BC081117CC08091C3
:1012B0009402882309F463C08091940261E00E9443
:1012C000F3025EC0953009F457C0963049F791E0BB
:1012D000909363034FC08111E3CF20919702309127
:1012E00098022436310528F4109298021092970241
:1012F000D7CF1092630310929602E091960291E08C
:101300009E0F90939602F0E0209197023091980200
:10131000EE0FFF1FEE56FD4F308727831092980285
:101320001092970293E019C0813009F0B9CFE09193
:10133000960291E09E0F90939602F0E02091970222
:1013400030919802EE0FFF1FEE56FD4F3087278336
:10135000109298021092970294E090939202A0CF7C
:10136000882359F220919702309198022536310551
:1013700008F496CF95E0F1CF811192CFB5CF2D9A99
:10138000FF91EF91DF91CF91BF91AF919F918F919D
:101390007F916F915F914F913F912F910F900FBE71
:1013A0000F901F90189580919402882321F08091CE
:1013B000940260E084CF2D98E3CFCF93DF93109217
:1013C00032021092310288EE93E0A0E0B0E0809308
:1013D000330290933402A0933502B09336028AE22E
:1013E00091E09093300280932F028FEF9FEF9093C4
:1013F0003C0280933B0210926803109267031092A4
:101400006A031092690310926C0310926B0361E0FF
:1014100070E090E080E00E94330D0097E9F0909337
:1014200068038093670310926A0310926903209106
:101430006B0330916C03232B11F4FC01108210928A
:101440006C0310926B0361E871E0809167039091E7
:1014500068030E94F90D14C080916703909168039E
:10146000009711F00E94AA0C109268031092670373
:1014700010926C0310926B0310926A03109269032E
:1014800083E080936403CFEFDFEFD0938602C093B5
:1014900085028AE090E0909388028093870249E079
:1014A00050E065E971E089E892E00E94920BD093E8
:1014B0008402C09383028CE390E0909318018093A0
:1014C000170110927F0210928002109281021092F6
:1014D0008202DF91CF910895CF93DF93CDB7DEB72E
:1014E000A1970FB6F894DEBF0FBECDBF789484B538
:1014F000826084BD84B5816084BD85B5826085BD10
:1015000085B5816085BD80916E00816080936E009D
:10151000109281008091810082608093810080918F
:101520008100816080938100809180008160809340
:101530008000809191008260809391008091910061
:1015400081608093910080919000816080939000F1
:101550008091C10084608093C1008091C10082604D
:101560008093C1008091C10081608093C10080910F
:10157000C30081608093C3008091C000826080932B
:10158000C0008091C20081608093C20080917A0087
:10159000846080937A0080917A00826080937A00E0
:1015A00080917A00816080937A0080917A008068CF
:1015B00080937A0010922E021092200210921F0245
:1015C0008091D70081608093D70080EA8093D80013
:1015D00089B5806189BD89B5826089BD09B400FE85
:1015E000FDCF61E070E080E090E00E9446038091D2
:1015F000D8008F7C80618093D8008091E000807F4C
:101600008093E0008091E1008E7E8093E1008DE088
:101610008093E200559A209A8FEF9FEF90933C02BF
:1016200080933B02109284021092830210927F02F8
:101630001092800210928102109282028BE094E05C
:1016400090930D0180930C01809169008C7F8160E3
:1016500080936900E89A81E0809316018AE0482E21
:10166000512C612C712C90E0A92E90E0B92E809124
:101670001601882309F446C0C0907F02D0908002F2
:10168000E0908102F0908202C114D104E104F104DF
:10169000C9F188E391E0C114D10421F189E491E01A
:1016A0000E94FE0319A28E010F5D1F4FC701B601F4
:1016B000A30192010E94E60B69017A01605DF801C5
:1016C00062938F01C114D104E104F10479F73097DA
:1016D00019F0CF010E94FE038CE791E00E94FE0307
:1016E0008FE791E00E94FE0368EC70E080E090E0FC
:1016F0000E94460310927F02109280021092810293
:1017000010928202A114B10409F4B1CF0E9400002A
:10171000AECF8091670390916803009711F00C940D
:10172000AA0C0895FB01DC0102C005900D92415006
:101730005040D8F708952F923F924F925F926F9248
:101740007F928F929F92AF92BF92CF92DF92EF9251
:10175000FF920F931F93CF93DF93CDB7DEB7CA1BD2
:10176000DB0B0FB6F894DEBF0FBECDBF09942A88FD
:10177000398848885F846E847D848C849B84AA84A5
:10178000B984C884DF80EE80FD800C811B81AA8132
:10179000B981CE0FD11D0FB6F894DEBF0FBECDBFFD
:1017A000ED010895AA1BBB1B51E107C0AA1FBB1F77
:1017B000A617B70710F0A61BB70B881F991F5A95DD
:1017C000A9F780959095BC01CD010895A1E21A2E4C
:1017D000AA1BBB1BFD010DC0AA1FBB1FEE1FFF1FD5
:1017E000A217B307E407F50720F0A21BB30BE40B25
:1017F000F50B661F771F881F991F1A9469F760956C
:101800007095809590959B01AC01BD01CF01089525
:10181000EE0FFF1F0590F491E02D09940F931F9395
:10182000CF93DF938230910510F482E090E0E09155
:101830006F03F091700330E020E0B0E0A0E030975B
:1018400099F42115310509F44AC0281B390B2430BD
:101850003105D8F58A819B816115710589F1FB01FC
:1018600093838283FE0111C04081518102811381E3
:1018700048175907E0F04817590799F4109761F095
:1018800012960C93129713961C933296CF01DF9108
:10189000CF911F910F91089500936F0310937003E0
:1018A000F4CF2115310551F04217530738F0A90143
:1018B000DB019A01BD01DF01F801C1CFEF01F9CFD2
:1018C0009093700380936F03CDCFFE01E20FF31F5F
:1018D000819391932250310939832883D7CF209166
:1018E0006D0330916E03232B41F420911B01309145
:1018F0001C0130936E0320936D03209119013091E8
:101900001A012115310541F42DB73EB740911D0153
:1019100050911E01241B350BE0916D03F0916E0375
:10192000E217F307A0F42E1B3F0B2817390778F0B6
:10193000AC014E5F5F4F2417350748F04E0F5F1F15
:1019400050936E0340936D03819391939FCFF0E08A
:10195000E0E09CCFCF93DF930097E9F0FC01329752
:1019600013821282A0916F03B0917003ED0130E0F9
:1019700020E01097A1F420813181820F931F2091E4
:101980006D0330916E032817390709F061C0F09399
:101990006E03E0936D03DF91CF910895EA01CE17B6
:1019A000DF07E8F54A815B819E0141155105B1F7DA
:1019B000E901FB83EA8349915991C40FD51FEC17C4
:1019C000FD0761F4808191810296840F951FE901E2
:1019D00099838883828193819B838A83F0E0E0E00E
:1019E00012968D919C9113970097B9F52D913C918A
:1019F0001197CD010296820F931F20916D033091B4
:101A00006E032817390739F6309751F51092700395
:101A100010926F03B0936E03A0936D03BCCFD3837A
:101A2000C28340815181840F951FC817D90761F483
:101A30004E5F5F4F88819981480F591F51834083C2
:101A40008A819B81938382832115310509F0B0CF70
:101A5000F0937003E0936F039ECFFD01DC01C0CFD4
:101A600013821282D7CFB0E0A0E0E9E3FDE00C944E
:101A70009D0B8C01009751F4CB010E940E0C8C0140
:101A8000C801CDB7DEB7E0E10C94B90BFC01E60F5D
:101A9000F71F9C0122503109E217F30708F49DC09B
:101AA000D901CD91DC911197C617D70798F0C530B1
:101AB000D10530F3CE0104978617970708F3C61BAC
:101AC000D70B2297C193D1936D937C93CF010E9442
:101AD000AA0CD6CF5B01AC1ABD0A4C018C0E9D1E20
:101AE000A0916F03B0917003512C412CF12CE12C8B
:101AF000109731F580916D0390916E0388159905CB
:101B000009F05CC04616570608F058C080911901CC
:101B100090911A01009741F48DB79EB740911D0135
:101B200050911E01841B950BE817F90708F055C06A
:101B3000F0936E03E0936D03F90171836083A0CF8E
:101B40008D919C91119712966C90129713967C90A0
:101B50001397A815B90559F56C0142E0C40ED11CC4
:101B6000CA14DB0420F1AC014A195B09DA011296B0
:101B7000159780F06282738251834083D9016D93FF
:101B80007C93E114F10471F0D7011396FC93EE936A
:101B9000129776CF22968C0F9D1FF9019183808337
:101BA000F301EFCFF0937003E0936F0369CF481612
:101BB000590608F42C017D01D3019ACFCB010E9474
:101BC0000E0C7C01009749F0AE01B8010E94F00DA7
:101BD000C8010E94AA0C870153CF10E000E050CF4B
:101BE000FB01DC0102C001900D9241505040D8F73A
:101BF0000895FB01DC0101900D920020E1F70895AA
:101C000010E0C7EED0E004C0FE010E94080C21964F
:0A1C1000C83ED107C9F7F894FFCFD2
:101C1A00FFFFFFFF00E1000000000000FD03FD03DD
:101C2A00FD03FD03FD03013C000000710380000079
:101C3A00C1808100000000000000260278034702EC
:101C4A003C028D024B026902556E6B6E6F776E20F5
:101C5A00656E636F64696E67007B2266756E637476
:101C6A00696F6E5F6E616D65223A22726563765F97
:101C7A00343333222C22706172616D65746572731C
:101C8A00223A7B2276616C7565223A007D7D000DD1
:021C9A000A003E
:00000001FF
