:100000000C94E8000C9492070C946B070C94440732
:100010000C941D070C9410010C9410010C94F6061E
:100020000C9410010C9410010C940B040C947A04A1
:100030000C9410010C9410010C9410010C941001FC
:100040000C9410010C9410010C9410010C941001EC
:100050000C9410010C9410010C9410010C94AC063B
:100060000C9410010C9410010C9410010C941001CC
:100070000C9410010C9410010C9410010C941001BC
:100080000C9410010C9410010C9410010C941001AC
:100090000C9410010C9410010C9410010C9410019C
:1000A0000C9410010C94B9070C941001000000008E
:1000B0002300260029002C002F000000000025004E
:1000C00028002B002E00310004040404040304055E
:1000D00002020202040302020202060606060606E5
:1000E00004040202020404040802011040804010CB
:1000F000204080408008020401804020100201104E
:100100008010204040200000000200090F00000382
:100110000401000C000000000000000000000000CE
:100120000000000000080B000202020000090400A9
:100130000001020200000524001001052401010154
:10014000042402060524060001070581031000406F
:1001500009040100020A0000000705020240000035
:10016000070583024000000403090412010002EFA6
:1001700002014041234180000101020301417264F8
:1001800075696E6F204C4C430041726475696E6FE7
:100190002059756E005E01011F01030301008A02F0
:1001A000010A010202010064001E47040B09060057
:1001B0007C0101060103030100F401060E010202A5
:1001C0000100C201170101020201010096081A0A8A
:1001D00011241FBECFEFDAE0DEBFCDBF22E0AAE6DA
:1001E000B1E001C01D92AB3CB207E1F711E0A0E025
:1001F000B1E0E4E1F9E102C005900D92AA36B10741
:10020000D9F710E0C7EED0E004C02197FE010E94AC
:10021000850AC63ED107C9F70E941E090C947D0CC1
:100220000C940000FC0180918801882311F13FB7F4
:10023000F89482E08093E9002091F200822F90E010
:100240001816190614F481E090E0882339F02898F4
:1002500044E6409387014091F1004083222339F026
:100260002091F200211103C02BE62093E8003FBF4C
:1002700008958FEF9FEF08952FB7F89483E0809350
:10028000E9009091E800892F807295FF04C0909159
:10029000F20080E4891B2FBF089580917F018111B6
:1002A0000DC082E080937B0184E080937C011092FA
:1002B0007E0110927D0181E080937F018BE791E0C8
:1002C000089540917501509176012091730130910C
:1002D000740142175307B4F49091E8009570E1F36C
:1002E0009091E80092FD19C08093F1008091750112
:1002F0009091760101968F739927892B19F48EEFCF
:100300008093E80080917501909176010196909319
:1003100076018093750181E0089580E00895EF9261
:10032000FF920F931F93CF93DF93F82E192FE62E92
:10033000042F81E0860F880F0E94610183E00E94F4
:100340006101CF2DD12FEC0EFD2EF11CCE15DF0556
:10035000B9F007FF13C0FE0184910E946101182FBC
:1003600080E00E946101812321968111EFCFDF910E
:10037000CF911F910F91FF90EF9008958881EDCF5D
:1003800081E0F5CFDF92EF92FF920F931F93CF930F
:10039000DF93D82E8A01EB017B01E40EF51ECE150A
:1003A000DF0559F0D7FE12C0FE0184910E94610161
:1003B00021968111F4CF0FEF1FEFC801DF91CF918C
:1003C0001F910F91FF90EF90DF9008958881EECFFD
:1003D0000F931F93CF93DF931F92CDB7DEB782E0C9
:1003E000898342E450E065E271E080E80E94C20146
:1003F0000E944D01DC0112960D911C910115110511
:1004000089F0D801ED91FC910280F381E02DBE01CD
:100410006F5F7F4FC801099597FD04C0F801008503
:100420001185ECCF89810F90DF91CF911F910F91B2
:100430000895615030F02091F100FC012083019675
:10044000F8CF289884E6809387010895CF93DF93AF
:100450001F92CDB7DEB76983DC01ED91FC9102807C
:10046000F381E02D41E050E0BE016F5F7F4F0995C1
:100470000F90DF91CF91089583E08093E900809100
:10048000F200882319F08AE38093E80008950E941F
:100490003C0190E00895CF93DF931F92CDB7DEB774
:1004A000FC018485958597FD08C02FEF3FEF3587C8
:1004B00024870F90DF91CF910895CE0101960E947D
:1004C0001201019719F4898190E0F3CF8FEF9FEF2C
:1004D000F0CF0F931F93CF93DF931F92CDB7DEB76B
:1004E0008C01FC018485958597FF0BC0CE01019698
:1004F0000E941201019771F4898190E0F8019587BB
:100500008487F801848595850F90DF91CF911F91A5
:100510000F9108958FEF9FEFF1CFFC0184859585B2
:1005200097FD0BC09FB7F89482E08093E90080911B
:10053000F2009FBF90E0019608959FB7F89482E083
:100540008093E9008091F2009FBF90E00895815070
:100550008F3008F047C0E82FF0E0EF54FD4F0C94C7
:10056000850ACE02D202C002C602CA02F202F2021A
:10057000F202D502DB02DF02E302E902F202ED023F
:10058000809180008F778093800008958091800013
:100590008F7DF9CF80918000877FF5CF84B58F77ED
:1005A00084BD089584B58F7DFBCF809190008F77B7
:1005B000809390000895809190008F7DF9CF809175
:1005C0009000877FF5CF8091C0008F778093C00027
:1005D00008958091C0008F7DF9CF8091C200877F00
:1005E0008093C20008951F93CF93DF93282F30E0AC
:1005F000F901EA5FFE4F8491F901E951FF4FD4916F
:10060000F901E853FF4FC491CC23A9F0162F8111B3
:100610000E94A702EC2FF0E0EE0FFF1FE654FF4F01
:10062000A591B4918FB7F894EC91111108C0D095B1
:10063000DE23DC938FBFDF91CF911F910895DE2BD6
:10064000F8CF3FB7F89480916F0190917001A0911D
:100650007101B091720126B5A89B05C02F3F19F01A
:100660000196A11DB11D3FBFBA2FA92F982F882732
:10067000BC01CD01620F711D811D911D42E0660F0D
:10068000771F881F991F4A95D1F708958F929F92DF
:10069000AF92BF92CF92DF92EF92FF924B015C013B
:1006A0000E9421036B017C010E9421036C197D09CA
:1006B0008E099F09683E734081059105A8F321E0EA
:1006C000821A9108A108B10888EEC80E83E0D81EEE
:1006D000E11CF11C81149104A104B10429F7FF90DD
:1006E000EF90DF90CF90BF90AF909F908F90089544
:1006F0008F929F92AF92BF92CF92DF92EF92FF9232
:100700000F931F93CF93DF936C017B018A0180913C
:100710001501882309F45CC080918801882309F4BD
:1007200057C08091790180FF05C08091E000826010
:100730008093E000E801B12C8AEFA82E93E0892E87
:100740002AE3922E209711F4BB20D9F10E943C019C
:1007500081110AC0AA94AA20D9F161E070E080E07A
:1007600090E00E944603EECF8C171D0611F00CF0AE
:100770008C2F9FB7F8948092E9002091E80025FD26
:1007800002C09FBFDFCF282F30E0C21BD30BF70181
:10079000815020F041914093F100FACFE20EF31E18
:1007A000BB2021F09092E800B12CEBCF8091E800C3
:1007B00085FDE7CF9092E800BB24B394209709F31E
:1007C000F3CF5D9884E680937801101611063CF013
:1007D00081E090E0F6019383828310E000E0C8019D
:1007E000DF91CF911F910F91FF90EF90DF90CF900D
:1007F000BF90AF909F908F9008950895FC01019055
:100800000020E9F73197AF01481B590BBC0189E87B
:1008100091E00C9478031F920F920FB60F9211245F
:100820008F939F938091E1009091E100937F90934B
:10083000E10083FF0FC01092E90091E09093EB007C
:100840001092EC0092E39093ED001092880198E0F2
:100850009093F00082FF22C093E09093E900909182
:10086000F200992319F09AE39093E80090917801AF
:10087000992341F0909178019150909378019111D2
:1008800001C05D9A90918701992341F09091870171
:10089000915090938701911101C0289A84FF18C04C
:1008A0008091E2008E7E81608093E2008091E10081
:1008B0008F7E8093E100809179018E7E80618093AC
:1008C00079019F918F910F900FBE0F901F901895F7
:1008D00080FFF7CF8091E2008E7E80618093E200FE
:1008E0008091E1008E7E8093E100809179018E7E7F
:1008F0008160E5CF1F920F920FB60F921124CF9215
:10090000DF92EF92FF920F931F932F933F934F939A
:100910005F936F937F938F939F93AF93BF93EF9367
:10092000FF93CF93DF93CDB7DEB76C97DEBFCDBF1C
:100930001092E9008091E80083FF25C068E0CE01B5
:1009400045960E94190282EF8093E8008D8987FF07
:1009500039C09091E80090FFFCCF982F907609F075
:1009600034C19E894F89588D2F89F88C911131C0DF
:10097000803861F580917A018093F1001092F10046
:100980008EEF8093E8006C960FB6F894DEBF0FBE32
:10099000CDBFDF91CF91FF91EF91BF91AF919F912B
:1009A0008F917F916F915F914F913F912F911F9107
:1009B0000F91FF90EF90DF90CF900F900FBE0F90B0
:1009C0001F9018959EEF9093E800C7CF1092F1000A
:1009D000D5CF913059F48111D3CF4130510581F6F3
:1009E00080917A018D7F80937A01CACF933049F448
:1009F0008111C6CF4130510519F680917A0182608C
:100A0000F2CF953041F48091E80080FFFCCF206860
:100A10002093E300B5CF963009F0A9C00B8D1C8D53
:100A200022E01092E9001092760110927501F21204
:100A30002EC010927401109273010E94E8011F826F
:100A400099E09983FA8291E09E8390EA98879AEFE1
:100A500099872091750130917601275F3F4F3C8344
:100A60002B838D831092E90010927601109275010C
:100A7000109374010093730149E050E0BE016F5F71
:100A80007F4F80E00E94C2010E94E80179CF10935D
:100A90007401009373010E944D01DC0112960D91C7
:100AA0001C910115110509F451C1D801ED91FC917A
:100AB0000480F581E02DBE016B5E7F4FC801099572
:100AC000009709F03EC1F80100851185EACFF3E0F7
:100AD000FF120EC08F89882309F440C0823061F470
:100AE00040E86BE089E891E00E948F01811148CFD6
:100AF00081E28093EB0047CF813029F440E86BE03E
:100B00008DE791E0F1CF833099F70E944D01DC0130
:100B10001296ED90FC908E010F5F1F4F6801E1145B
:100B2000F10479F0D701ED91FC910680F781E02D79
:100B3000B801C7010995080F111DF701E084F18480
:100B4000EECFD8011C92F60101900020E9F7319711
:100B5000BF016C197D0940E0C601C6CF67E671E0B0
:100B6000FB01449150E080E80E94C20109CF973018
:100B700009F4BECF983021F481E08093F10000CFDA
:100B8000993009F0FDCE837009F0B2CFEDE1F1E0CC
:100B900081E031E096E32191222371F08093E90016
:100BA0003093EB00DF0111972C912093EC00909390
:100BB000ED008F5F873079F78EE78093EA0010921F
:100BC000EA008F8980938801DBCE8B8D9C8D1092FB
:100BD000E900109276011092750190937401809350
:100BE0007301898D811192C08E899D89913A49F452
:100BF000813209F07DCF47E050E06EE071E080E0A7
:100C0000B3CF913209F074CF833269F48F89988D14
:100C1000B0E0A0E080930A0190930B01A0930C0137
:100C2000B0930D01ADCE803269F48091E80082FF6F
:100C3000FCCF67E08EE091E00E9419028BEF809379
:100C4000E8009ECE823209F09BCE8F8980931501F9
:100C5000EEEFFFE7859194918B3F9C4D51F1E0E0E1
:100C6000F8E080910E0190910F01A0911001B091D8
:100C70001101803B9440A105B105F1F4809115016B
:100C800080FD1AC0EE3F8AE0F80789F587E797E70D
:100C900091838083809160008093770188E19BE05D
:100CA0000FB6F894A895809360000FBE90936000F3
:100CB00067CEEEEFFAE0D5CF8081918187379747F5
:100CC00009F05ECEA89580916000886180936000F5
:100CD0008091770180936000EE3F2AE0F20789F06F
:100CE0008091FE0A9091FF0A9183808349CE808192
:100CF00091818737980751F29093FF0A8093FE0AFB
:100D0000C5CF1092FF0A1092FE0A3ACE0E944D0102
:100D1000DC0112960D911C910115110509F4E8CE24
:100D2000D801ED91FC910190F081E02DBE016B5E48
:100D30007F4FC8010995811123CEF80100851185E7
:100D4000EBCF181619060CF41BCED2CEF1E0FF1231
:100D5000BECE6BE671E004CF1F920F920FB60F92DA
:100D600011242F933F938F939F93AF93BF938091C1
:100D70006B0190916C01A0916D01B0916E01309169
:100D80006A0123E0230F2D3758F50196A11DB11DEF
:100D900020936A0180936B0190936C01A0936D0185
:100DA000B0936E0180916F0190917001A0917101DB
:100DB000B09172010196A11DB11D80936F019093B6
:100DC0007001A0937101B0937201BF91AF919F9197
:100DD0008F913F912F910F900FBE0F901F901895FC
:100DE00026E8230F0296A11DB11DD2CF1F920F92AC
:100DF0000FB60F9211242F933F934F935F936F93EE
:100E00007F938F939F93AF93BF93EF93FF93E09163
:100E10000801F09109010995FF91EF91BF91AF9100
:100E20009F918F917F916F915F914F913F912F9102
:100E30000F900FBE0F901F9018951F920F920FB634
:100E40000F9211242F933F934F935F936F937F9350
:100E50008F939F93AF93BF93EF93FF93E09106011E
:100E6000F09107010995FF91EF91BF91AF919F918B
:100E70008F917F916F915F914F913F912F910F9043
:100E80000FBE0F901F9018951F920F920FB60F92E2
:100E900011242F933F934F935F936F937F938F937F
:100EA0009F93AF93BF93EF93FF93E0910401F09171
:100EB00005010995FF91EF91BF91AF919F918F919E
:100EC0007F916F915F914F913F912F910F900FBE46
:100ED0000F901F9018951F920F920FB60F9211242A
:100EE0002F933F934F935F936F937F938F939F9332
:100EF000AF93BF93EF93FF93E0910201F091030151
:100F00000995FF91EF91BF91AF919F918F917F9143
:100F10006F915F914F913F912F910F900FBE0F9066
:100F20001F9018951F920F920FB60F9211242F93B6
:100F30003F934F935F936F937F938F939F93AF9361
:100F4000BF93EF93FF93E0910001F09101010995A8
:100F5000FF91EF91BF91AF919F918F917F916F9191
:100F60005F914F913F912F910F900FBE0F901F9067
:100F700018951F920F920FB60F9211242F933F9343
:100F80004F935F936F937F938F939F93AF93BF9391
:100F9000CF93DF93EF93FF932091F30130E0F901BA
:100FA000EA5FFE4F8491F901E951FF4FD491F901B5
:100FB000E853FF4FC491CC2379F081110E94A7021E
:100FC000EC2FF0E0EE0FFF1FE455FF4FA591B49119
:100FD000EC91ED2381E009F480E02091F70130915C
:100FE000F8012F5F3F4F3093F8012093F701909164
:100FF000F601953618F096E09093F2019091F20187
:10100000943009F466C0B8F49230F1F0933009F4EA
:1010100044C09091F501992309F46BC081117CC003
:101020008091F401882309F463C08091F40161E0A8
:101030000E94F3025EC0953009F457C0963049F71C
:1010400091E09093C3024FC08111E3CF2091F7014B
:101050003091F8012436310528F41092F8011092ED
:10106000F701D7CF1092C3021092F601E091F6017A
:1010700091E09E0F9093F601F0E02091F7013091FE
:10108000F801EE0FFF1FEE50FE4F308727831092BE
:10109000F8011092F70193E019C0813009F0B9CF3F
:1010A000E091F60191E09E0F9093F601F0E020911F
:1010B000F7013091F801EE0FFF1FEE50FE4F308721
:1010C00027831092F8011092F70194E09093F201B7
:1010D000A0CF882359F22091F7013091F8012536ED
:1010E000310508F496CF95E0F1CF811192CFB5CFBD
:1010F0002D9AFF91EF91DF91CF91BF91AF919F9189
:101100008F917F916F915F914F913F912F910F90B0
:101110000FBE0F901F9018958091F401882321F045
:101120008091F40160E084CF2D98E3CFCF93DF93DB
:1011300010928C0110928B0188EE93E0A0E0B0E059
:1011400080938D0190938E01A0938F01B0939001B5
:1011500087E291E090938A0180938901CFEFDFEFDE
:10116000D0939601C093950183E08093C402D093FD
:10117000E601C093E5018AE090E09093E801809356
:10118000E70149E050E065E971E089EE91E00E94F5
:10119000230AD093E401C093E3011092D901109285
:1011A000DA011092DB011092DC011092DE01109244
:1011B000DD011092E0011092DF011092E201109225
:1011C000E10161E070E090E080E00E94B00B0097E8
:1011D000F1F09093DE018093DD011092E001109216
:1011E000DF012091E1013091E201232B11F4FC0198
:1011F00010821092E2011092E10168E671E08091A4
:10120000DD019091DE01DF91CF910C94760C8091FD
:10121000DD019091DE01009711F00E94270B1092E2
:10122000DE011092DD011092E2011092E1011092B4
:10123000E0011092DF01DF91CF910895CF93DF930A
:10124000CDB7DEB7A1970FB6F894DEBF0FBECDBF06
:10125000789484B5826084BD84B5816084BD85B591
:10126000826085BD85B5816085BD80916E0081609D
:1012700080936E0010928100809181008260809343
:101280008100809181008160809381008091800045
:1012900081608093800080919100826080939100B2
:1012A0008091910081608093910080919000816095
:1012B000809390008091C10084608093C1008091F0
:1012C000C10082608093C1008091C10081608093E1
:1012D000C1008091C30081608093C3008091C000F1
:1012E00082608093C0008091C20081608093C200C0
:1012F00080917A00846080937A0080917A00826085
:1013000080937A0080917A00816080937A00809146
:101310007A00806880937A001092880110927A0196
:10132000109279018091D70081608093D70080EA84
:101330008093D80089B5806189BD89B5826089BDF7
:1013400009B400FEFDCF61E070E080E090E00E9413
:1013500046038091D8008F7C80618093D800809173
:10136000E000807F8093E0008091E1008E7E80939A
:10137000E1008DE08093E200559A209A8FEF9FEF75
:1013800090939601809395018AE0482E512C612C10
:10139000712C90E0A92E90E0B92EC090D901D09088
:1013A000DA01E090DB01F090DC01C114D104E1042A
:1013B000F104C9F185E391E0C114D10421F186E47F
:1013C00091E00E94FE0319A28E010F5D1F4FC7011D
:1013D000B601A30192010E94630A69017A01605D6E
:1013E000F80162938F01C114D104E104F10479F78B
:1013F000309719F0CF010E94FE0384E691E00E942D
:10140000FE0386E691E00E94FE0368EC70E080E057
:1014100090E00E9446031092D9011092DA011092D6
:10142000DB011092DC01A114B10409F4B6CF0E94D3
:101430000000B3CF8091DD019091DE01009711F0A3
:101440000C94270B0895FB01DC0102C005900D925E
:1014500041505040D8F708952F923F924F925F929B
:101460006F927F928F929F92AF92BF92CF92DF92B4
:10147000EF92FF920F931F93CF93DF93CDB7DEB719
:10148000CA1BDB0B0FB6F894DEBF0FBECDBF0994AD
:101490002A88398848885F846E847D848C849B8404
:1014A000AA84B984C884DF80EE80FD800C811B8112
:1014B000AA81B981CE0FD11D0FB6F894DEBF0FBE41
:1014C000CDBFED010895A1E21A2EAA1BBB1BFD01A1
:1014D0000DC0AA1FBB1FEE1FFF1FA217B307E40713
:1014E000F50720F0A21BB30BE40BF50B661F771F6B
:1014F000881F991F1A9469F760957095809590954B
:101500009B01AC01BD01CF010895EE0FFF1F0590B7
:10151000F491E02D09940F931F93CF93DF938230C2
:10152000910510F482E090E0E091C902F091CA02C6
:1015300030E020E0B0E0A0E0309799F421153105CB
:1015400009F44AC0281B390B24303105D8F58A81AB
:101550009B816115710589F1FB0193838283FE01F3
:1015600011C0408151810281138148175907E0F071
:101570004817590799F4109761F012960C93129737
:1015800013961C933296CF01DF91CF911F910F914B
:1015900008950093C9021093CA02F4CF21153105B2
:1015A00051F04217530738F0A901DB019A01BD0140
:1015B000DF01F801C1CFEF01F9CF9093CA02809308
:1015C000C902CDCFFE01E20FF31F81939193225008
:1015D000310939832883D7CF2091C7023091C802BF
:1015E000232B41F420911801309119013093C80246
:1015F0002093C70220911601309117012115310562
:1016000041F42DB73EB740911A0150911B01241BA4
:10161000350BE091C702F091C802E217F307A0F47E
:101620002E1B3F0B2817390778F0AC014E5F5F4F38
:101630002417350748F04E0F5F1F5093C8024093A0
:10164000C702819391939FCFF0E0E0E09CCFCF93CE
:10165000DF930097E9F0FC01329713821282A09188
:10166000C902B091CA02ED0130E020E01097A1F468
:1016700020813181820F931F2091C7023091C802CF
:101680002817390709F061C0F093C802E093C70238
:10169000DF91CF910895EA01CE17DF07E8F54A817F
:1016A0005B819E0141155105B1F7E901FB83EA8396
:1016B00049915991C40FD51FEC17FD0761F4808142
:1016C00091810296840F951FE90199838883828115
:1016D00093819B838A83F0E0E0E012968D919C9148
:1016E00013970097B9F52D913C911197CD01029672
:1016F000820F931F2091C7023091C8022817390723
:1017000039F6309751F51092CA021092C902B0937F
:10171000C802A093C702BCCFD383C283408151814A
:10172000840F951FC817D90761F44E5F5F4F8881FA
:101730009981480F591F518340838A819B819383EC
:1017400082832115310509F0B0CFF093CA02E093EE
:10175000C9029ECFFD01DC01C0CF13821282D7CF18
:10176000B0E0A0E0E6EBFBE00C942E0A8C010097C1
:1017700051F4CB010E948B0A8C01C801CDB7DEB7B2
:10178000E0E10C944A0AFC01E60FF71F9C0122508D
:101790003109E217F30708F49DC0D901CD91DC911E
:1017A0001197C617D70798F0C530D10530F3CE0191
:1017B00004978617970708F3C61BD70B2297C19388
:1017C000D1936D937C93CF010E94270BD6CF5B0101
:1017D000AC1ABD0A4C018C0E9D1EA091C902B0919D
:1017E000CA02512C412CF12CE12C109731F580913B
:1017F000C7029091C8028815990509F05CC0461689
:10180000570608F058C08091160190911701009773
:1018100041F48DB79EB740911A0150911B01841B72
:10182000950BE817F90708F055C0F093C802E0934C
:10183000C702F90171836083A0CF8D919C911197AC
:1018400012966C90129713967C901397A815B90571
:1018500059F56C0142E0C40ED11CCA14DB0420F11E
:10186000AC014A195B09DA011296159780F0628281
:10187000738251834083D9016D937C93E114F10409
:1018800071F0D7011396FC93EE93129776CF2296C0
:101890008C0F9D1FF90191838083F301EFCFF093AB
:1018A000CA02E093C90269CF4816590608F42C0110
:1018B0007D01D3019ACFCB010E948B0A7C01009756
:1018C00049F0AE01B8010E946D0CC8010E94270BBF
:1018D000870153CF10E000E050CFFB01DC0102C0D4
:1018E00001900D9241505040D8F70895FB01DC0162
:1018F00001900D920020E1F7089510E0C7EED0E0CE
:1019000004C0FE010E94850A2196C83ED107C9F78E
:04191000F894FFCF79
:10191400FD03FD03FD03FD03FD03FFFFFFFF00E1E6
:101924000000000000000000CB02800000C18081A4
:10193400000000000000002602780347023C028DEC
:10194400024B026902556E6B6E6F776E20656E6393
:101954006F64696E67007B22616374696F6E223AFB
:10196400227265636569766564222C2276616C75E2
:0A19740065223A007D000D0A000014
:1070000055C000006EC000006CC000006AC00000E7
:1070100068C0000066C0000064C0000062C00000DC
:1070200060C000005EC00000FCC400005AC0000048
:1070300058C0000056C0000054C0000052C00000FC
:1070400050C000005DC000004CC000004AC00000FD
:1070500048C0000046C0000044C0000042C000001C
:1070600040C000003EC000003CC000003AC000002C
:1070700038C0000036C0000034C0000032C000003C
:1070800030C000002EC000002CC000002AC000004C
:1070900028C0000026C0000024C0000022C000005C
:1070A00020C000001EC000001CC0000011241FBE34
:1070B000CFEFDAE0DEBFCDBF11E0A0E0B1E0E6E463
:1070C000FFE702C005900D92A63AB107D9F711E08B
:1070D000A6EAB1E001C01D92AF3BB107E1F74FD383
:1070E00030C78ECFF89410926F001092810081E02B
:1070F00085BF15BE47985D9A289A0C9400000895A4
:107100001F920F920FB60F9211242F938F939F937C
:10711000EF93FF9310928500109284008091A60156
:107120009091A701009741F001979093A701809358
:10713000A601892B09F45D9A8091A8019091A9017B
:10714000009741F001979093A9018093A801892BA2
:1071500009F4289A8091AC019091AD010196909329
:10716000AD018093AC01E0E0F0E0859194918F5FF8
:107170009F4F49F08091AA019091AB0101969093A5
:10718000AB018093AA01FF91EF919F918F912F9175
:107190000F900FBE0F901F90189584E08093E90028
:1071A0000DC08091E8008B778093E80003C08EB318
:1071B000882351F08091E80082FFF9CF8091E800A8
:1071C00085FFEFCF8091F1000895982F83E08093A1
:1071D000E9008091E80085FD0DC08091E8008E7780
:1071E0008093E80003C08EB3882369F08091E800A3
:1071F00080FFF9CF9093F1005D9884E690E0909342
:10720000A7018093A60108954F925F926F927F929B
:107210008F929F92AF92BF92CF92DF92EF92FF92A6
:107220000F931F93CF93DF9384E08093E9008091C5
:10723000E80082FF57C2289884E690E09093A90165
:107240008093A801AADF182F853481F48CE49DE196
:107250009093AB018093AA0107B600FCFDCFF9998A
:10726000FECF81E180935700E89503C0843519F47F
:1072700094DF8DE00DC28C34E1F38035D1F3843797
:1072800021F484E4A2DF80E003C2813611F489E5B1
:10729000FFC18134B1F481DF182F7FDF90E0880FC8
:1072A000991FAA2797FDA095BA2F312F330F20E001
:1072B000442737FD4095542F822B932BA42BB52BBD
:1072C000B8C1803711F483E5E3C1833549F4C0E0E8
:1072D000D1E089917ADF21E0C730D207D1F7D9C157
:1072E000863521F481E371DF80E3D2C1833731F445
:1072F00087E86BDF85E969DF8EE1CAC18536B9F4BD
:10730000E0E0F0E093E085E090935700E89507B661
:1073100000FCFDCF80935700E89507B600FCFDCF39
:10732000E058FF4FA0E7E030FA0771F7A2CF8237AD
:1073300039F4E1E0F0E089E0809357008491A8C13E
:10734000863439F4E0E0F0E089E0809357008491DE
:107350009FC18E3439F4E3E0F0E089E08093570078
:10736000849196C1813539F4E2E0F0E089E08093C0
:10737000570084918DC1823631F489E526DF80E0A3
:1073800024DF80E885C1823419F0873609F0E5C032
:107390001092AB011092AA0100DF082FFEDEF82E3A
:1073A000FCDE682E8554823008F071C1902F80E099
:1073B000CF2DD0E0C82BD92B10926F00173609F0D3
:1073C0004BC081E180935700E895DD24CC24C39421
:1073D0003FC0E090AF01F090B0010091B101109179
:1073E000B201B6E46B16D9F4ED2DF0E0EE29FF29D9
:1073F000E4918E2FEADEDD2081F082E090E0A0E0D3
:10740000B0E0E80EF91E0A1F1B1FE092AF01F092D8
:10741000B0010093B1011093B201DC2418C0D8016F
:10742000C701B695A7959795879575D5CEDE82E06D
:1074300090E0A0E0B0E0E80EF91E0A1F1B1FE092EA
:10744000AF01F092B0010093B1011093B201219706
:10745000209709F0BECF7DC08090AF019090B00121
:10746000A090B101B090B20196E4691609F05DC038
:1074700083E0F40180935700E89507B600FCFDCF48
:1074800054C0F6E46F1661F5772031F1E090AF015A
:10749000F090B0010091B1011091B2017EDED82EC2
:1074A000CC24852D90E08C299D29F7010C01409278
:1074B0005700E895112482E090E0A0E0B0E0E80EEB
:1074C000F91E0A1F1B1FE092AF01F092B00100935A
:1074D000B1011093B20102C060DE582E742423C0A3
:1074E000E090AF01F090B0010091B1011091B201B4
:1074F00016950795F794E79450DE682FC70113D5CA
:107500008091AF019091B001A091B101B091B20111
:107510000296A11DB11D8093AF019093B001A0937D
:10752000B101B093B201219704C0552477244424BB
:107530004394209709F0A5CF96E4691641F485E0BD
:10754000F40180935700E89507B600FCFDCF8DE06D
:107550003CDE82E080936F009CC0833471F4009124
:10756000AF011091B00119DE90E021E0F8010C01AB
:1075700020935700E89511247CCE833619F5E090CE
:10758000AF01F090B0010091B1011091B20105DEA0
:10759000F701E16090E021E00C0120935700E895AD
:1075A000112482E090E0A0E0B0E0E80EF91E0A1F8E
:1075B0001B1FE092AF01F092B0010093B101109354
:1075C000B20157CE8D3661F4E091AF01F091B00178
:1075D00085E080935700E89507B600FCFDCF49CEC3
:1075E000823551F4E091AF01F091B0010591149111
:1075F000812FEBDD802F4CC0843421F5E090AF016A
:10760000F090B0010091B1011091B201169507956B
:10761000F794E794C2DD682FC70185D48091AF014C
:107620009091B001A091B101B091B2010296A11D5B
:10763000B11D8093AF019093B001A093B101B093BD
:10764000B20117CE843609F5E090AF01F090B00199
:107650000091B1011091B201D801C701B695A7956B
:107660009795879558D4B1DD82E090E0A0E0B0E036
:10767000E80EF91E0A1F1B1FE092AF01F092B00145
:107680000093B1011093B20104C08B3111F08FE36C
:107690009CDD83E08093E9009091E8008091E80010
:1076A0008E778093E80095FF04C010C08EB38823C6
:1076B000C9F08091E80080FFF9CF8091E8008E77D3
:1076C0008093E80003C08EB3882361F08091E800C6
:1076D00080FFF9CF84E08093E9008091E8008B7708
:1076E0008093E800DF91CF911F910F91FF90EF9071
:1076F000DF90CF90BF90AF909F908F907F906F90D2
:107700005F904F9008959091B701892F8F778132C4
:1077100049F58091B8018032A1F0813219F5913A92
:1077200009F58091E800877F8093E8008CE091E084
:1077300067E070E027D28091E8008B778093E800C3
:107740000895913279F48091E800877F8093E80072
:107750008CE091E067E070E079D28091E8008E776C
:107760008093E800089582E061EC42E0D1D083E0AC
:1077700061E842E1CDD084E060E842E1C9C01F93F6
:10778000209100081092000844B714BE88E10FB69B
:10779000F89480936000109260000FBE80E8E0E0F3
:1077A000F0E00FB6F89480936100E09361000FBEA3
:1077B00031E035BF92E095BF3F9A209A559A809369
:1077C00061001092610047985D9A289A1092890092
:1077D0008AEF8093880090936F0083E0809381000C
:1077E000859194918F5F9F4F11F03093AE01942F4C
:1077F00041FF19C0809109012817A9F08093000862
:10780000789480911301882339F08091AC01909194
:10781000AD018F5E9240C8F310920008F89481E0A9
:10782000809313010CC090FF04C08091AE018823A7
:1078300051F493FF09C080910901281729F0809124
:10784000AE01882309F04EDCD4D078941092AB01BD
:107850001092AA011EEF20C0D7DC4BD38091AA0161
:107860009091AB0181549F4110F0109213018091CF
:10787000B3019091B40101969093B4018093B30148
:10788000292F97FF03C0512F591B252F220F28178F
:1078900010F4479801C0479A809113018823E1F6BC
:1078A0008091E00081608093E0001CDC80E090E04B
:1078B0001F910895FA01923049F0933061F09130B0
:1078C000F9F484E191E022E130E01EC086E291E02B
:1078D0002EE330E019C0882329F484E691E024E007
:1078E00030E012C0813029F488E691E022E230E0F5
:1078F0000BC0823029F48CE891E028E130E004C02C
:1079000080E090E020E030E091838083C901089519
:107910008093E9008091EB0081608093EB001092EE
:10792000ED006093EC004093ED008091EE00881F25
:107930008827881F08958091B70188238CF403C09D
:107940008EB38823B1F08091E80082FFF9CF809157
:10795000E8008B778093E80008958EB3882349F080
:107960008091E80080FFF9CF8091E8008E778093C6
:10797000E8000895EF92FF920F931F9345D04CD0EB
:1079800008ED10E0F80180818F7780838081806826
:10799000808380818F7D808319BC1EBA1092B501CF
:1079A00080EEE82EF12CF70180818B7F8083F80137
:1079B00080818160808380E060E042E0A9DFE1EEC9
:1079C000F0E080818E7F8083E2EEF0E08081816054
:1079D0008083808188608083F70180818E7F8083AF
:1079E000F8018081806180831F910F91FF90EF905B
:1079F0000895E7EDF0E08081816080838AE482BFB2
:107A000081E08093B601B6CFE8EDF0E080818E7F13
:107A100080831092E20008951092DA001092E10043
:107A200008951F920F920FB60F9211242F933F9338
:107A30004F935F936F937F938F939F93AF93BF9376
:107A4000EF93FF938091DA0080FF1BC08091D800F4
:107A500080FF17C08091DA008E7F8093DA008091DA
:107A6000D90080FF0BC080E189BD82E189BD09B4E6
:107A700000FEFDCF81E08EBB3BD203C019BC1EBA15
:107A800037D28091E10080FF17C08091E20080FF33
:107A900013C08091E2008E7F8093E2008091E2002B
:107AA00080618093E2008091D80080628093D8004A
:107AB00019BC85E08EBB1CD28091E10084FF2CC0F4
:107AC0008091E20084FF28C080E189BD82E189BD08
:107AD00009B400FEFDCF8091D8008F7D8093D8003F
:107AE0008091E1008F7E8093E1008091E2008F7EA3
:107AF0008093E2008091E20081608093E2008091B7
:107B0000B501882331F48091E30087FD02C081E054
:107B100001C084E08EBBECD18091E10083FF21C0E5
:107B20008091E20083FF1DC08091E100877F8093F8
:107B3000E10082E08EBB1092B5018091E1008E7F62
:107B40008093E1008091E2008E7F8093E20080913B
:107B5000E20080618093E20080E060E042E0D8DEF5
:107B6000C7D1FF91EF91BF91AF919F918F917F917D
:107B70006F915F914F913F912F910F900FBE0F909A
:107B80001F9018959C014091BD015091BE01461770
:107B9000570718F4F90190E044C06115710511F020
:107BA000AB01F8CF8091E8008E778093E80040E049
:107BB00050E0F0CF8EB3882309F444C0853009F437
:107BC00043C08091E80083FF02C081E00895809166
:107BD000E80082FD31C08091E80080FF22C08091E2
:107BE000F3009091F200782F60E0292F30E0262BEF
:107BF000372B07C081918093F100415050402F5F97
:107C00003F4F4115510519F02830310598F390E0A8
:107C10002830310509F491E08091E8008E77809357
:107C2000E8004115510531F6992321F605C08EB3C0
:107C3000882341F0853041F08091E80082FFF7CF42
:107C400080E0089582E0089583E008959C01611525
:107C5000710529F48091E8008B778093E800F901A1
:107C600026C08EB3882391F1853091F18091E80090
:107C700083FF02C081E008958091E80082FFF1CF88
:107C800006C08091F10081936150704059F02091BD
:107C9000F3008091F200322F20E090E0822B932BB2
:107CA000892B79F78091E8008B778093E800611544
:107CB0007105B9F605C08EB3882341F0853041F0D7
:107CC0008091E80080FFF7CF80E0089582E008957A
:107CD00083E008950F931F93DF93CF9300D0CDB728
:107CE000DEB7E7EBF1E08091F100819381E0EF3BBB
:107CF000F807C9F708DD8091E80083FFE4C08091B0
:107D0000B7019091B801953009F46DC0963040F4F8
:107D1000913081F1913070F0933009F0D4C02AC0D5
:107D2000983009F4A3C0993009F4B2C0963009F034
:107D3000CAC07CC0803809F4C6C0823809F0C3C00C
:107D40008091BB0187708093E9008091EB001092D5
:107D5000E9002091E800277F2093E80090E025E0EB
:107D6000969587952A95E1F781708093F10010929E
:107D7000F10087C0882319F0823009F0A4C08F7108
:107D8000823009F0A0C08091B901882331F520919B
:107D9000BB01277009F497C02093E9008091EB00A4
:107DA00080FF1BC0933021F48091EB00806213C0F0
:107DB0008091EB0080618093EB0081E090E002C055
:107DC000880F991F2A95E2F78093EA001092EA0043
:107DD0008091EB0088608093EB001092E900809125
:107DE000E800877F51C0882309F06DC01091B90168
:107DF0001F770FB7F8948091E800877F8093E800A1
:107E00009ADD8091E80080FFFCCF8091E3008078CC
:107E1000812B8093E30080688093E300112311F4A9
:107E200082E001C083E08EBB0FBF4DC0805882301E
:107E300008F049C08091B9019091BA016091BB01ED
:107E4000AE014F5F5F4F36DDBC01009709F43BC0C8
:107E50008091E800877F8093E80089819A8192DE93
:107E60008091E8008B778093E8002DC0803859F529
:107E70008091E800877F8093E8008091B50180932E
:107E8000F1008091E8008E778093E80054DD1BC0FC
:107E90008823C9F49091B9019230A8F48091E80048
:107EA000877F8093E8009093B50145DD8091B5010F
:107EB000882331F48091E30087FD02C081E001C096
:107EC00084E08EBB50DC8091E80083FF0AC0809183
:107ED000EB0080628093EB008091E800877F8093C5
:107EE000E8000F900F90CF91DF911F910F910895AF
:107EF00008951F938EB3882361F01091E9001092CA
:107F0000E9008091E80083FF01C0E4DE1770109360
:107F1000E9001F910895F999FECF92BD81BDF89AAD
:107F2000992780B50895262FF999FECF1FBA92BDE3
:107F300081BD20BD0FB6F894FA9AF99A0FBE01964A
:067F40000895F894FFCF44
:107F46004341544552494E41007700080000000065
:107F5600000008011201100102000008412341003F
:107F660001000201000109023E00020100803209FF
:107F7600040000010202010005240010010424028D
:107F8600040524060001070582030800FF09040111
:107F960000020A000000070504021000010705831D
:107FA6000210000104030904220341007200640068
:107FB600750069006E006F002000590075006E00A4
:107FC60020002000200020002000000018034100AF
:107FD60072006400750069006E006F0020004C009E
:067FE6004C004300000006
:040000030000700089
:00000001FF
