:100000000C947E000C94540D0C942D0D0C94A600B1
:100010000C94A6000C94A6000C94A6000C947B0DE6
:100020000C94A6000C94A6000C94A6000C94A600B8
:100030000C94A6000C94A6000C94A6000C94A600A8
:100040000C94E30C0C94A6000C94B10C0C948B0C47
:100050000C94A6000C94A6000C94A6000C94A60088
:100060000C94A6000C94A6000000000023002600BB
:10007000290000000008000201000003040700003E
:1000800000000000000000000000250028002B00F8
:1000900000000000240027002A00040404040404D3
:1000A0000404020202020202030303030303010227
:1000B00004081020408001020408102001020408F6
:1000C00010205E01011F01030301008A02010A01E1
:1000D0000202010064001E47040B0906007C0101B6
:1000E000060103030100F401060E0102020100C231
:1000F0000117010102020101580EBD0F11241FBE9C
:10010000CFEFD8E0DEBFCDBF24E0A6EEB1E001C066
:100110001D92A432B207E1F711E0A0E0B1E0ECE7F4
:10012000F5E202C005900D92A63EB107D9F710E0A6
:10013000CDE7D0E004C02197FE010E94B010CC377B
:10014000D107C9F70E94B80E0C94B1120C940000AC
:1001500090E0FC01E255FF4F249186569F4FFC0131
:100160008491882399F090E0880F991FFC01E05753
:10017000FF4FA591B491FC01EA57FF4F85919491EF
:100180008FB7F894EC91E22BEC938FBF0895E09138
:100190003603F0913703EF3FFE0719F11092320357
:1001A0001092330310923403109235032E2FE23055
:1001B000C0F4FF27EE0FFF1FEF5FFE4F8FE894E0C4
:1001C0009183808380916900213031F08C7F816040
:1001D00080936900E89A0895837F84608093690022
:1001E000E99A0895AF92BF92CF92DF92EF92FF9279
:1001F0000F931F93CF93DF936C017B018B01040F4F
:10020000151FEB015E01AE18BF08C017D10759F0EA
:100210006991D601ED91FC910190F081E02DC6012C
:100220000995892B79F7C501DF91CF911F910F9126
:10023000FF90EF90DF90CF90BF90AF900895FC01BA
:10024000538D448D252F30E0842F90E0821B930B3B
:10025000541710F0CF96089501970895FC01918DE1
:10026000828D981761F0A28DAE0FBF2FB11D5D96E4
:100270008C91928D9F5F9F73928F90E008958FEF86
:100280009FEF0895FC01918D828D981731F0828D3A
:10029000E80FF11D858D90E008958FEF9FEF089591
:1002A000FC01918D228D892F90E0805C9F4F821BF5
:1002B00091098F739927089585E992E00E94500172
:1002C00021E0892B09F420E0822F0895FC01A48D00
:1002D000A80FB92FB11DA35ABF4F2C91848D90E068
:1002E00001968F739927848FA689B7892C93A0894B
:1002F000B1898C91837080648C93938D848D9813D5
:1003000006C00288F389E02D80818F7D8083089567
:10031000EF92FF920F931F93CF93DF93EC0181E055
:10032000888F9B8D8C8D98131AC0E889F9898081FC
:1003300085FF15C09FB7F894EE89FF896083E8892F
:10034000F98980818370806480839FBF81E090E021
:10035000DF91CF911F910F91FF90EF900895F62EAE
:100360000B8D10E00F5F1F4F0F731127E02E8C8D48
:100370008E110CC00FB607FCFACFE889F98980818D
:1003800085FFF5CFCE010E946601F1CFEB8DEC0F1A
:10039000FD2FF11DE35AFF4FF0829FB7F8940B8FAA
:1003A000EA89FB8980818062CFCFCF93DF93EC0114
:1003B000888D8823B9F0AA89BB89E889F9898C914D
:1003C00085FD03C0808186FD0DC00FB607FCF7CF09
:1003D0008C9185FFF2CF808185FFEDCFCE010E9409
:1003E0006601E9CFDF91CF910895833081F028F441
:1003F000813099F08230A9F008958730A9F08830D3
:10040000C9F08430B1F4809180008F7D03C0809169
:1004100080008F7780938000089584B58F7784BDA6
:10042000089584B58F7DFBCF8091B0008F77809346
:10043000B00008958091B0008F7DF9CF1F93CF93C6
:10044000DF93282F30E0F901EE58FF4F8491F90136
:10045000E255FF4FD491F901E656FF4FC491CC23EA
:10046000A9F0162F81110E94F501EC2FF0E0EE0F9C
:10047000FF1FEA57FF4FA591B4918FB7F894EC9105
:10048000111108C0D095DE23DC938FBFDF91CF918F
:100490001F910895DE2BF8CF8230910538F0880F38
:1004A000991F880F991F05970197F1F70895CF932A
:1004B000DF93EC018091170460E00E941E02CE01E0
:1004C000DF91CF910C944C021F93CF93DF93182FA1
:1004D000D92F8091440360E0C1E0811102C061E046
:1004E000C0E0809138030E941E0280913C039091ED
:1004F0003D039C01129FC001139F900D11240E9487
:100500004C026C2F809138030E941E0280913C03A4
:1005100090913D039C01D29FC001D39F900D112467
:10052000DF91CF911F910C944C023FB7F8948091CA
:10053000910290919202A0919302B091940226B5FB
:10054000A89B05C02F3F19F00196A11DB11D3FBF0B
:10055000BA2FA92F982F8827BC01CD01620F711DDA
:10056000811D911D42E0660F771F881F991F4A95D4
:10057000D1F708958F929F92AF92BF92CF92DF9260
:10058000EF92FF926C010E9495024B015C010D2CD1
:10059000000CEE08FF080E949502681979098A0983
:1005A0009B096C157D058E059F05B8F48091170495
:1005B00061E00E941E0280911804909119040E942B
:1005C0004C028091170460E00E941E028091180482
:1005D000909119040E944C02DECFFF90EF90DF90C3
:1005E000CF90BF90AF909F908F9008950895FC0199
:1005F000808191818330910540F5019708F441C0D5
:100600000280F381E02D3097E1F1808161E070E0BC
:10061000843749F18B3279F18D3271F5319691E061
:1006200070E060E04AE0819120ED280F2A3030F53B
:10063000469F9001479F300D1124682F880F770B3C
:1006400060537109620F731FEECF8530910548F03A
:10065000059759F062817381848195810E944410CD
:1006600002C062817381CB010895628173817195AB
:1006700061957109F8CF319690E0D2CF9111F7CF03
:10068000F2CF70E060E0EFCFFC01A081B1818C91EE
:100690008D3021F03CF489508230A8F51196B18359
:1006A000A083F3CF8032D1F38F3209F008951196F1
:1006B0008C9111978A3219F08F32C1F008951196FA
:1006C000B183A083A081B181CD0101969183808304
:1006D00011968C9111978823B1F08A3299F712966E
:1006E0008C9112978F3271F71396D9CFA081B18177
:1006F000CD0101969183808311968C91882319F006
:100700008A30A1F7C2CF08951F93CF93DF93EC01F6
:10071000162F0E944403E881F9818081181308C0D4
:100720003196F983E88381E0DF91CF911F9108959D
:1007300080E0FACFEF92FF920F931F93CF93DF9356
:100740008C01DC011496CD91DC91EA80FB808E81D6
:100750009F81E80EF91EC80102960E944403D80149
:100760001296ED91FC918081873219F0823209F066
:1007700042C03196D8011396FC93EE931297D8019C
:100780001296ED91FC9113979081992309F462C020
:100790009F012F5F3F4F13963C932E93129789171B
:1007A00009F458C09C3599F49181A9E2B1E02C91EB
:1007B000222321F092131DC011969C91992309F4D4
:1007C00049C03296D8011396FC93EE9312974E814E
:1007D0005F819A012F5F3F4F6C817D8162177307A4
:1007E00070F2EA81FB81E40FF51F3F832E83908333
:1007F000C6CF1296DCCF80330CF444C08A3324F089
:100800008F3504F18B3704F5F801228133812F5F96
:100810003F4F338322834E815F819A012F5F3F4F89
:100820006C817D816217730738F0EA81FB81E40FE8
:10083000F51F3F832E838083D8011296ED91FC91A2
:100840008081D9CF8134F4F08B35F4F293ED980F99
:100850009230D0F22E813F81C90101964C815D8199
:100860004817590790F0EA81FB81E20FF31F9F833D
:100870008E831082C701DF91CF911F910F91FF905E
:10088000EF9008958B3211F7BFCFF12CE12CF2CF0E
:10089000FC0186819781680F791F24813581261795
:1008A000370738F022813381820F931F7783668365
:1008B000089590E080E008958091F60181110BC0C9
:1008C0001092F3011092F2011092F5011092F401CE
:1008D00081E08093F60182EF91E008958091EA0132
:1008E00081110BC01092E7011092E6011092E9010C
:1008F0001092E80181E08093EA0186EE91E008958C
:10090000DB01109749F0ED91FC9111970190F08176
:10091000E02DBC01CD01099490E080E008952F9274
:100920003F924F925F926F927F928F929F92AF927F
:10093000BF92CF92DF92EF92FF920F931F93CF93CC
:10094000DF93CDB7DEB761970FB6F894DEBF0FBE69
:10095000CDBF0E9495026B017C018091880290912D
:1009600089023601681A790A2DEC621620E17206B6
:1009700008F4D1C08091020290910302D301A81B18
:10098000B90BCD01B7FF03C0919581959109883CC2
:1009900091050CF0BCC0809100029091010201967B
:1009A0009093010280930002029709F0B0C002EC1C
:1009B00010E04090FE015090FF0149E050E0B80186
:1009C000CE0101960E94C10F8B816C81681708F4DB
:1009D000682F70E080910202909103020E947A10C9
:1009E0009B014091050150910601649FC001659FE4
:1009F000900D749F900D112464E670E00E947A10AF
:100A0000898541E050E0882311F042E050E08D817B
:100A1000829FF001839FF00D1124FB87EA878E816E
:100A2000829FD001839FB00D1124BD87AC878F8139
:100A3000829FF001839FF00D1124FF87EE87888548
:100A4000829F1001839F300C1124FA01EE0FFF1FCB
:100A5000EE5FFD4F812C912C540192012150310900
:100A6000398B288B888999894817590708F03FC026
:100A7000880C991CAA1CBB1C808191819C01AA85B1
:100A8000BB852A1B3B0B37FF03C0319521953109EC
:100A90002617370770F422813381AC85BD852A1B68
:100AA0003B0B37FF03C031952195310926173707D6
:100AB000D0F02E853F85821B930B97FF03C0919545
:100AC0008195910986179707B8F4828193818219DD
:100AD000930997FF03C09195819591098617970710
:100AE00058F4689480F84E5F5F4F3496BBCF38E07F
:100AF0004316510408F051C0075F1F4F80E0083FC4
:100B0000180709F056CF10920102109200021092BD
:100B1000FF011092FE018091FE019091FF0183344C
:100B2000910540F01092FF011092FE011092010217
:100B3000109200028091FE019091FF019C012F5FB5
:100B40003F4F3093FF012093FE01880F991FFC0156
:100B5000EE5FFD4F71826082C0928802D09289025E
:100B6000E0928A02F0928B0261960FB6F894DEBF93
:100B70000FBECDBFDF91CF911F910F91FF90EF90EE
:100B8000DF90CF90BF90AF909F908F907F906F90AD
:100B90005F904F903F902F900895809232039092F3
:100BA0003303A0923403B0923503ADCFFC01019022
:100BB0000020E9F73197AF01481B590BBC0185E9CB
:100BC00092E00C94F2000F931F93CF93DF938B016D
:100BD000FC01C281D381209759F06A817B81011584
:100BE000110519F06115710549F46017710759F481
:100BF000CE01DF91CF911F910F910895C8010E94FE
:100C0000A112892BA9F30990D881C02DE4CF0E94AD
:100C1000E305089564E371E00E940706009749F038
:100C2000FC01248135812730310519F486819781B3
:100C300008950C945C04EF92FF920F931F93CF934F
:100C4000DF937B01FC0162817381808191810E942D
:100C50000706EC01892B29F10C811D81013011055A
:100C600059F46E817F816115710531F08FE391E058
:100C70000E94A112892BA9F001501109023011051F
:100C800080F46E817F81F70180819181009719F056
:100C90006115710549F421E08617970751F020E0AE
:100CA00008C070E060E0EFCF0E94A11221E0892B24
:100CB000B1F7822FDF91CF911F910F91FF90EF90AD
:100CC0000895CF93DF9364E471E00E940706FC016E
:100CD000892B09F464C0848195818330910588F55E
:100CE000019708F45CC00680F781E02D309709F485
:100CF00056C08081843709F456C08B3209F442C053
:100D00008D3209F040C03196D1E060E070E0CB0157
:100D1000C19120ED2C0F2A30C0F5AAE0B0E09B0174
:100D2000AC010E94F30F2C2FCC0F330B2053310951
:100D3000032E000C440B550B620F731F841F951F6D
:100D4000E7CF8530910548F0059771F0668177818E
:100D5000808591850E944B1004C0668177818085D3
:100D60009185DF91CF91089586819781A085B18586
:100D70009C01AD0166277727CB01621B730B840BA7
:100D8000950BEFCF3196D0E0C0CFDD2351F3909596
:100D90008095709561957F4F8F4F9F4FE2CF60E0B8
:100DA00070E0CB01DECF61E070E080E090E0D9CF71
:100DB0000E940706009719F004960C94F70290E041
:100DC00080E00895AF92BF92CF92DF92EF92FF92B0
:100DD0000F931F93CF93DF9300D000D000D0CDB7F7
:100DE000DEB77C01DC0116968C91811104C00E9453
:100DF0005C048C0188C08150F7018683C080D1805B
:100E0000B60184E090E00E9480048C01009709F410
:100E10008CC0DC011196DC92CE9213961C921E922D
:100E200012976701B2E0CB0ED11C6BE7C6010E949E
:100E300084038823E1F26DE7C6010E9484038111D7
:100E40005EC0C7010E949A035C01892B81F26AE3AC
:100E5000C6010E948403882351F21A821982BE01BE
:100E60006F5F7F4FC7010E949907882309F4BFCFA6
:100E7000B501C8010E94E305009759F5F8016081AA
:100E800071818AE090E00E948004009741F0DC01CB
:100E900011961C921E9215961C921E921497D801C0
:100EA0001296ED91FC91309729F4F8019383828397
:100EB00008C0F9012081318121153105D1F79183D5
:100EC0008083009709F493CFDC011396BC92AE9215
:100ED000129726E0FE013196DC01149601900D92E6
:100EE0002A95E1F76DE7C6010E948403811107C0CE
:100EF0006CE2C6010E9484038111A3CF78CFF70171
:100F000086818F5F8683C80126960FB6F894DEBF70
:100F10000FBECDBFDF91CF911F910F91FF90EF904A
:100F2000DF90CF90BF90AF9008950E945C048C0139
:100F300078CF8F929F92AF92BF92CF92DF92EF9233
:100F4000FF920F931F93CF93DF9300D000D000D078
:100F5000CDB7DEB77C016B015C0182E0A80EB11C4D
:100F6000C5010E944403D7011296ED91FC9113979D
:100F700080818B35E1F08B3709F4B2C011E0873204
:100F800019F0823209F010E0C7010E949A0300971D
:100F900009F485C021E030E0112309F4ABC022E060
:100FA00030E0F601318320839383828379C0F70197
:100FB0008681811104C00E946E048C016BC0815037
:100FC00016968C9316978D909C90B40184E090E0D7
:100FD0000E9480048C01009709F495C0FC01918265
:100FE0008082138212826BE5C5010E9484038823EC
:100FF00011F36DE5C5010E948403811144C01A827A
:101000001982BE016F5F7F4FC7010E949907882335
:1010100091F2D8016D917C9188E090E00E9480046B
:10102000DC01892B39F011961C921E9213961C92AA
:101030001E921297F801228133812115310521F486
:10104000B383A28308C09C01F9018081918100973C
:10105000D1F7B183A083109709F4ADCF86E0FE01EC
:101060003196129601900D928A95E1F76DE5C501D2
:101070000E948403811107C06CE2C5010E948403B1
:101080008111BDCF98CFD70116968C9116978F5F9F
:1010900016968C93F80180819181892BA9F410E038
:1010A000812F26960FB6F894DEBF0FBECDBFDF911D
:1010B000CF911F910F91FF90EF90DF90CF90BF9055
:1010C000AF909F908F90089586E090E0D6011196A2
:1010D0009C938E9313961C930E93129711E0E0CF7E
:1010E000C7010E94E206FC0120813181232BB9F265
:1010F00027E030E0D60111963C932E9313969C93F3
:101100008E931297EBCF0E946E048C016CCFFC0182
:1011100080819181009711F00C94521108950F93E2
:101120001F93CF93DF93EC0188819981009759F049
:101130002A813B812617370730F081E0DF91CF917C
:101140001F910F9108958B016F5F7F4F0E94DB11FC
:10115000009759F0998388831B830A832C813D81F2
:10116000232B59F7FC011082E8CF80E0E7CFEF9204
:10117000FF920F931F93CF93DF93EC017B018A01C2
:10118000BA010E948F0828813981811114C021156C
:10119000310519F0C9010E945211198218821D826D
:1011A0001C821B821A82CE01DF91CF911F910F9179
:1011B000FF90EF9008951D830C83B701C9010E9431
:1011C000AA12F1CFFC0111821082138212821582C1
:1011D0001482FB0101900020E9F73197AF01461B13
:1011E000570B0C94B7082F923F924F925F926F92D9
:1011F0007F928F929F92AF92BF92CF92DF92EF92A7
:10120000FF920F931F93CF93DF93CDB7DEB7C65AEC
:10121000D1400FB6F894DEBF0FBECDBF9E01275F51
:101220003F4F3C832B8320E931E03E832D8318869A
:101230001F8221E131E03A832983FC018081918181
:10124000009711F483E391E09E012F5F3F4FC75653
:10125000DE4F39832883C959D140C556DE4F998363
:101260008883CB59D140C356DE4F39832883CD596B
:10127000D1408AE0C156DE4F8883CF59D140CE019C
:1012800087569E4F0E94E2068C0169E471E0CE0110
:1012900087569E4F0E94E208C056DE4F198308838E
:1012A000C05AD14082E5C82E81E0D82ECE55DE4FFF
:1012B000D982C882C25AD140BE0167567E4FCE0144
:1012C00080569E4F0E941B06F82ECE0187569E4FD9
:1012D0000E948708FF2009F414C1C8010E940A0671
:1012E00060E671E00E94D806E82ED92EC8010E945F
:1012F0000A0669E671E00E94D8061C01C8010E9436
:101300000A0664E471E00E940706FC01892B09F4D7
:10131000BAC08481958183309105A0F5019708F4C6
:10132000B2C00680F781E02D309709F4ACC080810F
:10133000412C512C320143948437B9F18B3209F49A
:101340009CC08D3209F09AC03196412C512C32014B
:10135000119180ED810F8A3008F092C0AAE0B0E0D0
:10136000A30192010E94F30F212F110F330B205381
:1013700031092901330F66087708460E571E681E8B
:10138000791EE6CF8530910560F0059709F468C0B5
:1013900066817781808591850E9444102B013C01F4
:1013A00004C04680578060847184E0923803D092F4
:1013B00039038E2D0E94A800809138039091390343
:1013C000019609F47EC000913603109137030F3F58
:1013D0001007B1F0023070F4F801FF27013009F472
:1013E00056C0E898EE0FFF1FEF5FFE4F86EF92E0CA
:1013F000918380838FEF9FEF909337038093360321
:10140000D12CC12C812C912C5401839480913A03CE
:1014100090913B03C816D9060CF04AC0710181E0D7
:10142000E81AF108F7FC3AC0D501C4010E2C04C03B
:10143000880F991FAA1FBB1F0A94D2F784219521F8
:10144000A621B721892B8A2B8B2B19F1809142037E
:10145000909143030E946402E1E0EE1AF108E2CFAA
:101460004680578060847184709460945094409456
:10147000411C511C611C711C98CF3196F12C65CF19
:10148000F110F2CF92CF412C512C32018ECFE9983E
:10149000A9CF8091400390914103DCCF80913E031E
:1014A00090913F030E946402FFEFCF1ADF0AAECF94
:1014B0000F3F100731F010933703009336030E945B
:1014C000C7008FEF9FEF9093390380933803CA557D
:1014D000DE4F0FB6F894DEBF0FBECDBFDF91CF91C8
:1014E0001F910F91FF90EF90DF90CF90BF90AF9042
:1014F0009F908F907F906F905F904F903F902F9034
:10150000089564E771E0CE0187569E4F0E94E2087D
:10151000C056DE4F19830883C05AD140CE55DE4FE6
:10152000D982C882C25AD140BE0167567E4FCE01D1
:1015300080569E4F0E941B06F82ECE0187569E4F66
:101540000E948708FF2009F4ABC0C8010E940A0668
:1015500060E671E00E94D806382EC8010E940A0693
:101560000E946106CC55DE4F6883C45AD140CB55EA
:10157000DE4F7883C55AD140282ECA55DE4F988356
:10158000C65AD14045E0E42EF12C0BE613E053E7B8
:10159000852E55E0952E6BEDA62E65E1B62E61E009
:1015A000832D0E941E02C8010197F1F760E0832D90
:1015B0000E941E0287EC99E20197F1F7CC55DE4FAD
:1015C0004880C45AD140CB55DE4F5880C55AD140CF
:1015D000622CCA55DE4F7880C65AD14030E2C32E05
:1015E000D12C61E0832D77FE42C00E941E02C8010B
:1015F0000197F1F760E0832D0E941E02C50101975B
:10160000F1F761E0832D0E941E02C8010197F1F7F6
:1016100060E0832D0E941E02C4010197F1F7440C83
:10162000551C661C771C81E0C81AD108D1F661E010
:10163000832D0E941E02C8010197F1F760E0832DFF
:101640000E941E028BE995EA0197F1F761E0832D74
:101650000E941E02C8010197F1F760E0832D0E94ED
:101660001E02E1E0EE1AF10809F099CF30CF0E9496
:101670001E02C8010197F1F760E0832D0E941E024F
:10168000C4010197F1F761E0832D0E941E02C80199
:101690000197F1F760E0832D0E941E02C501BDCFC6
:1016A00064E871E0CE0187569E4F0E94E208C05662
:1016B000DE4F19830883C05AD140CE55DE4FD98200
:1016C000C882C25AD140BE0167567E4FCE018056B5
:1016D0009E4F0E941B06F82ECE0187569E4F0E94F9
:1016E0008708FF2009F469C0C8010E940A0660E665
:1016F00071E00E94D806D82EC8010E940A0669E649
:1017000071E00E94D8067C01C8010E940A060E946E
:1017100061064B015C01D09217048DE090E090933C
:10172000190480931804809117040E94A8008091E6
:10173000170460E00E941E0288E293E20E94BA024F
:1017400084E991E10E945702C7010197C12CD12C75
:101750007601C39404C0CC0CDD1CEE1CFF1C8A95E2
:10176000D2F7C114D104E104F104F1F0D501C401B0
:101770008C219D21AE21BF21892B8A2B8B2B69F0D7
:1017800080E392E00E94BA028AE996E00E94570242
:10179000F694E794D794C794E4CF80E392E00E9454
:1017A000BA0280E392E0F2CF80E392E00E94BA02B4
:1017B00090E080E00E9457028ACE6CE871E0CE0192
:1017C00087569E4F0E94E208C056DE4F1983088359
:1017D000C05AD140CE55DE4FD982C882C25AD140BC
:1017E000BE0167567E4FCE0180569E4F0E941B065B
:1017F000E82ECE0187569E4F0E948708EE2009F4FE
:1018000066CEC8010E940A0660E671E00E94D80612
:101810006C01C8010E940A0665E971E00E94070692
:10182000009741F004960E94F702FF24F394892B5D
:1018300009F4F12CD0923703C09236030E94C700FE
:10184000F092000144CE0F931F93CF93DF9300D00B
:1018500000D000D0CDB7DEB785E992E00E942E011E
:10186000853281F51A8219821C821B821E821D829A
:1018700060911A0470911B046115710541F040914B
:101880001E0450911F04CE0101960E94B708CE019C
:1018900001960E94F308CE0101960E94870850E04D
:1018A00040E063E371E08AE194E00E94B708269685
:1018B0000FB6F894DEBF0FBECDBFDF91CF911F9161
:1018C0000F91089589831A8200911E0410911F04BC
:1018D0000F5F1F4FB8018AE194E00E948F088823B0
:1018E00031F320911A0430911B0480911E049091D1
:1018F0001F04BE016F5F7F4F820F931F0E94AA12C9
:1019000010931F0400931E04D2CF0E945C0181112A
:101910000C94230C08951F920F920FB60F9211246E
:101920002F933F934F935F936F937F938F939F93E7
:10193000AF93BF93EF93FF9385E992E00E94660116
:10194000FF91EF91BF91AF919F918F917F916F9197
:101950005F914F913F912F910F900FBE0F901F906D
:1019600018951F920F920FB60F9211242F938F93F9
:101970009F93EF93FF93E091A502F091A6028081DF
:10198000E091AB02F091AC0282FD1BC0908180918E
:10199000AE028F5F8F732091AF02821741F0E0910A
:1019A000AE02F0E0EB56FD4F958F8093AE02FF91B3
:1019B000EF919F918F912F910F900FBE0F901F90DD
:1019C00018958081F4CF1F920F920FB60F921124B9
:1019D0002F933F938F939F93AF93BF9380918D02EB
:1019E00090918E02A0918F02B091900230918C0262
:1019F00023E0230F2D3758F50196A11DB11D20932B
:101A00008C0280938D0290938E02A0938F02B093EC
:101A100090028091910290919202A0919302B091D4
:101A200094020196A11DB11D8093910290939202A0
:101A3000A0939302B0939402BF91AF919F918F9125
:101A40003F912F910F900FBE0F901F90189526E891
:101A5000230F0296A11DB11DD2CF1F920F920FB678
:101A60000F9211242F933F934F935F936F937F9324
:101A70008F939F93AF93BF93EF93FF93E0910301F5
:101A8000F09104010995FF91EF91BF91AF919F9162
:101A90008F917F916F915F914F913F912F910F9017
:101AA0000FBE0F901F9018951F920F920FB60F92B6
:101AB00011242F933F934F935F936F937F938F9353
:101AC0009F93AF93BF93EF93FF93E0910101F09148
:101AD00002010995FF91EF91BF91AF919F918F9175
:101AE0007F916F915F914F913F912F910F900FBE1A
:101AF0000F901F9018951F920F920FB60F921124FE
:101B00002F933F934F935F936F937F938F939F9305
:101B1000AF93BF93CF93DF93EF93FF93209146034F
:101B200030E0F901EE58FF4F8491F901E255FF4F83
:101B3000D491F901E656FF4FC491CC2379F081117D
:101B40000E94F501EC2FF0E0EE0FFF1FE859FF4F68
:101B5000A591B491EC91ED2381E009F480E020910E
:101B60004A0330914B032F5F3F4F30934B03209339
:101B70004A0390914903953618F096E090934503F7
:101B800090914503943009F466C0B8F49230F1F0B6
:101B9000933009F444C090914803992309F46BC031
:101BA00081117CC080914703882309F463C0809130
:101BB000470361E00E941E025EC0953009F457C0E1
:101BC000963049F791E0909316044FC08111E3CF0E
:101BD00020914A0330914B032436310528F41092AA
:101BE0004B0310924A03D7CF109216041092490368
:101BF000E091490391E09E0F90934903F0E020911A
:101C00004A0330914B03EE0FFF1FEB5BFC4F308715
:101C1000278310924B0310924A0393E019C081303E
:101C200009F0B9CFE091490391E09E0F90934903E9
:101C3000F0E020914A0330914B03EE0FFF1FEB5B66
:101C4000FC4F3087278310924B0310924A0394E095
:101C500090934503A0CF882359F220914A033091F5
:101C60004B032536310508F496CF95E0F1CF81116D
:101C700092CFB5CF2D9AFF91EF91DF91CF91BF9188
:101C8000AF919F918F917F916F915F914F913F9114
:101C90002F910F900FBE0F901F90189580914703C2
:101CA000882321F08091470360E084CF2D98E3CF13
:101CB0000F931F93CF93DF93E5E9F2E01382128233
:101CC00088EE93E0A0E0B0E084839583A683B78399
:101CD00087E191E09183808385EC90E0958784870C
:101CE00084EC90E09787868780EC90E0918B808BE6
:101CF00081EC90E0938B828B82EC90E0958B848BCF
:101D000086EC90E0978B868B118E128E138E148E3C
:101D100063E371E08AE194E00E94E20883E080934B
:101D20001704C6E3D3E00FEF1FEF1B830A838AE09B
:101D300090E09D838C8349E050E062EC70E08CE39E
:101D400093E00E94C10F198308838CE390E0909385
:101D50000601809305011092320310923303109212
:101D6000340310923503DF91CF911F910F910895A5
:101D7000CF93DF93CDB7DEB7A1970FB6F894DEBF50
:101D80000FBECDBF789484B5826084BD84B5816078
:101D900084BD85B5826085BD85B5816085BD809136
:101DA0006E00816080936E001092810080918100AE
:101DB00082608093810080918100816080938100A6
:101DC000809180008160809380008091B100846068
:101DD0008093B1008091B00081608093B0008091C9
:101DE0007A00846080937A0080917A008260809388
:101DF0007A0080917A00816080937A0080917A00E5
:101E0000806880937A001092C100E091A502F09161
:101E1000A60282E08083E091A102F091A2021082EA
:101E2000E091A302F091A4028FEC80831092AD02A6
:101E3000E091A902F091AA0286E08083E091A702D6
:101E4000F091A802808180618083E091A702F091E7
:101E5000A802808188608083E091A702F091A802A7
:101E6000808180688083E091A702F091A802808140
:101E70008F7D808310923703109236030E94C70033
:101E800081E0809300019AE0492E512C612C712C45
:101E9000809100018823F1F1809132039091330306
:101EA000A0913403B09135030097A105B10591F1DC
:101EB000892BC1F58CE991E00E94D6050E9495021C
:101EC0004B015C0188ECC82ED12CE12CF12C0E9436
:101ED0009502681979098A099B09683E7340810552
:101EE0009105A8F3F1E0CF1AD108E108F10828EE36
:101EF000820E23E0921EA11CB11CC114D104E10486
:101F0000F10429F710923203109233031092340334
:101F1000109235030E945C01882309F4B9CF0E9416
:101F2000230CB6CF8DEA91E00E94D60520913203B2
:101F300030913303409134035091350319A28E013F
:101F40000F5D1F4FCA01B901A30192010E948E10BB
:101F5000605DF80162938F0121153105410551053E
:101F600089F7309719F0CF010E94D60580EE91E0F5
:101F70000E94D60583EE91E09FCF8AE194E00C9415
:101F80008708FB01DC0102C005900D9241505040D2
:101F9000D8F7089557FD9058440F551F59F05F3FEB
:101FA00071F04795880F97FB991F61F09F3F79F07B
:101FB00087950895121613061406551FF2CF4695FD
:101FC000F1DF08C0161617061806991FF1CF86957F
:101FD0007105610508940895E894BB276627772763
:101FE000CB0197F908950E943510A59F900DB49FDD
:101FF000900DA49F800D911D112408952F923F9262
:102000004F925F926F927F928F929F92AF92BF9208
:10201000CF92DF92EF92FF920F931F93CF93DF93B4
:10202000CDB7DEB7CA1BDB0B0FB6F894DEBF0FBE11
:10203000CDBF09942A88398848885F846E847D845E
:102040008C849B84AA84B984C884DF80EE80FD8060
:102050000C811B81AA81B981CE0FD11D0FB6F894D6
:10206000DEBF0FBECDBFED010895A29FB001B39FAB
:10207000C001A39F700D811D1124911DB29F700D91
:10208000811D1124911D08950E944B106894B11177
:102090000C94ED0F08950E94D20F88F09F5798F08E
:1020A000B92F9927B751B0F0E1F0660F771F881F5D
:1020B000991F1AF0BA95C9F714C0B13091F00E9477
:1020C000EC0FB1E008950C94EC0F672F782F882760
:1020D000B85F39F0B93FCCF3869577956795B3959E
:1020E000D9F73EF490958095709561957F4F8F4F0D
:1020F0009F4F0895AA1BBB1B51E107C0AA1FBB1F1E
:10210000A617B70710F0A61BB70B881F991F5A9583
:10211000A9F780959095BC01CD010895A1E21A2EF2
:10212000AA1BBB1BFD010DC0AA1FBB1FEE1FFF1F7B
:10213000A217B307E407F50720F0A21BB30BE40BCB
:10214000F50B661F771F881F991F1A9469F7609512
:102150007095809590959B01AC01BD01CF010895CC
:10216000EE0FFF1F0590F491E02D09940F931F933C
:10217000CF93DF938230910510F482E090E0E091FC
:102180002204F091230430E020E0B0E0A0E030979A
:1021900099F42115310509F44AC0281B390B243064
:1021A0003105D8F58A819B816115710589F1FB01A3
:1021B00093838283FE0111C040815181028113818A
:1021C00048175907E0F04817590799F4109761F03C
:1021D00012960C93129713961C933296CF01DF91AF
:1021E000CF911F910F91089500932204109323041F
:1021F000F4CF2115310551F04217530738F0A901EA
:10220000DB019A01BD01DF01F801C1CFEF01F9CF78
:102210009093230480932204CDCFFE01E20FF31F9D
:10222000819391932250310939832883D7CF20910C
:10223000200430912104232B41F420910901309195
:102240000A0130932104209320042091070130914A
:1022500008012115310541F42DB73EB740910B011E
:1022600050910C01241B350BE0912004F0912104C6
:10227000E217F307A0F42E1B3F0B2817390778F05D
:10228000AC014E5F5F4F2417350748F04E0F5F1FBC
:102290005093210440932004819391939FCFF0E0C9
:1022A000E0E09CCFCF93DF930097E9F0FC013297F9
:1022B00013821282A0912204B0912304ED0130E038
:1022C00020E01097A1F420813181820F931F20918B
:1022D0002004309121042817390709F061C0F093D8
:1022E0002104E0932004DF91CF910895EA01CE17F5
:1022F000DF07E8F54A815B819E0141155105B1F781
:10230000E901FB83EA8349915991C40FD51FEC176A
:10231000FD0761F4808191810296840F951FE90188
:1023200099838883828193819B838A83F0E0E0E0B4
:1023300012968D919C9113970097B9F52D913C9130
:102340001197CD010296820F931F209120043091A6
:1023500021042817390739F6309751F510922304D4
:1023600010922204B0932104A0932004BCCFD38305
:10237000C28340815181840F951FC817D90761F42A
:102380004E5F5F4F88819981480F591F5183408369
:102390008A819B81938382832115310509F0B0CF17
:1023A000F0932304E09322049ECFFD01DC01C0CF13
:1023B00013821282D7CFB0E0A0E0E1EEF1E10C94FD
:1023C00000108C01009751F4CB010E94B6108C01D3
:1023D000C801CDB7DEB7E0E10C941C10FC01E60F9C
:1023E000F71F9C0122503109E217F30708F49DC042
:1023F000D901CD91DC911197C617D70798F0C53058
:10240000D10530F3CE0104978617970708F3C61B52
:10241000D70B2297C193D1936D937C93CF010E94E8
:102420005211D6CF5B01AC1ABD0A4C018C0E9D1E19
:10243000A0912204B0912304512C412CF12CE12CC9
:10244000109731F580912004909121048815990509
:1024500009F05CC04616570608F058C08091070185
:1024600090910801009741F48DB79EB740910B0100
:1024700050910C01841B950BE817F90708F055C023
:10248000F0932104E0932004F90171836083A0CFCD
:102490008D919C91119712966C90129713967C9047
:1024A0001397A815B90559F56C0142E0C40ED11C6B
:1024B000CA14DB0420F1AC014A195B09DA01129657
:1024C000159780F06282738251834083D9016D93A6
:1024D0007C93E114F10471F0D7011396FC93EE9311
:1024E000129776CF22968C0F9D1FF90191838083DE
:1024F000F301EFCFF0932304E093220469CF481651
:10250000590608F42C017D01D3019ACFCB010E941A
:10251000B6107C01009749F0AE01B8010E949812F4
:10252000C8010E945211870153CF10E000E050CF44
:10253000FB01DC0102C001900D9241505040D8F7E0
:102540000895FB01DC018D91019080190110D9F3F0
:10255000990B0895FB01DC0101900D920020E1F739
:10256000089510E0CDE7D0E004C0FE010E94B01055
:0C2570002196CE37D107C9F7F894FFCFB1
:10257C0001F602F6023C000000240480000000007A
:10258C00004804000000008801F2001F01D5015032
:10259C00012E01420122225C5C6208660C6E0A72FA
:1025AC000D740900706172616D6574657273006EF3
:1025BC00756C6C00636F646500656D69745F3433B2
:1025CC00330066756E6374696F6E5F6E616D650066
:1025DC00646174615F70696E006269745F6C656ED2
:1025EC0067746800656D69745F3433335F63686169
:1025FC00636F6E00656D69745F69720072656376F6
:10260C005F34333300656E61626C6500556E6B6EC2
:10261C006F776E20656E636F64696E67007B2266F0
:10262C00756E6374696F6E5F6E616D65223A2272AE
:10263C006563765F343333222C22706172616D6571
:10264C0074657273223A7B2276616C7565223A004E
:06265C007D7D000D0A0067
:00000001FF
