:100000000C947E000C94D7130C94B0130C94A6009F
:100010000C94A6000C94A6000C94A6000C94BA14A0
:100020000C94A6000C94A6000C94A6000C94FE134D
:100030000C94A6000C94A6000C94A6000C94A600A8
:100040000C9466130C94A6000C9434130C940E13A9
:100050000C94A6000C94A6000C94A6000C94A60088
:100060000C94A6000C94A6000000000024002700B9
:100070002A0000000000250028002B0000000008D6
:10008000000201000003040700000000000000005F
:1000900000000000230026002900040404040404D6
:1000A0000404020202020202030303030303010227
:1000B00004081020408001020408102001020408F6
:1000C00010205E01011F01030301008A02010A01E1
:1000D0000202010064001E47040B0906007C0101B6
:1000E000060103030100F401060E0102020100C231
:1000F000011701010202010197150C1811241FBEFE
:10010000CFEFD8E0DEBFCDBF12E0A0E0B1E0E8E481
:10011000FAE302C005900D92A23FB107D9F725E09E
:10012000A2EFB2E001C01D92A535B207E1F710E0E1
:10013000CDE7D0E004C02197FE010E94161BCC370A
:10014000D107C9F70E9426160C94171D0C940000C5
:10015000E0916D04F0916E04EF3FFE0719F11092EB
:1001600060041092610410926204109263042E2FB6
:10017000E230C0F4FF27EE0FFF1FEF5FFE4F85EE6A
:1001800096E09183808380916900213031F08C7FEB
:10019000816080936900E89A0895837F84608093EA
:1001A0006900E99A08958230910538F0880F991F07
:1001B000880F991F05970197F1F70895AF92BF92A5
:1001C000CF92DF92EF92FF920F931F93CF93DF9323
:1001D0006C017B018B01040F151FEB015E01AE1852
:1001E000BF08C017D10759F06991D601ED91FC9174
:1001F0000190F081E02DC6010995892B79F7C501A1
:10020000DF91CF911F910F91FF90EF90DF90CF90F2
:10021000BF90AF900895FC01538D448D252F30E0A1
:10022000842F90E0821B930B541710F0CF96089503
:1002300001970895FC01918D828D981761F0A28D30
:10024000AE0FBF2FB11D5D968C91928D9F5F9F73F6
:10025000928F90E008958FEF9FEF0895FC01918DAC
:10026000828D981731F0828DE80FF11D858D90E019
:1002700008958FEF9FEF0895FC01918D228D892FB6
:1002800090E0805C9F4F821B91098F73992708959E
:100290008EE993E00E943C0121E0892B09F420E0E3
:1002A000822F0895FC01A48DA80FB92FB11DA35A68
:1002B000BF4F2C91848D90E001968F739927848F86
:1002C000A689B7892C93A089B1898C9183708064A9
:1002D0008C93938D848D981306C00288F389E02D4A
:1002E00080818F7D80830895EF92FF920F931F93FB
:1002F000CF93DF93EC0181E0888F9B8D8C8D9813D9
:100300001AC0E889F989808185FF15C09FB7F894E4
:10031000EE89FF896083E889F98980818370806430
:1003200080839FBF81E090E0DF91CF911F910F917B
:10033000FF90EF900895F62E0B8D10E00F5F1F4F8A
:100340000F731127E02E8C8D8E110CC00FB607FC99
:10035000FACFE889F989808185FFF5CFCE010E9427
:100360005201F1CFEB8DEC0FFD2FF11DE35AFF4F42
:10037000F0829FB7F8940B8FEA89FB8980818062B5
:10038000CFCFCF93DF93EC01888D8823B9F0AA8972
:10039000BB89E889F9898C9185FD03C0808186FD40
:1003A0000DC00FB607FCF7CF8C9185FFF2CF80818F
:1003B00085FFEDCFCE010E945201E9CFDF91CF91B1
:1003C0000895833081F028F4813099F08230A9F0CB
:1003D00008958730A9F08830C9F08430B1F4809155
:1003E00080008F7D03C0809180008F778093800094
:1003F000089584B58F7784BD089584B58F7DFBCF34
:100400008091B0008F778093B00008958091B00004
:100410008F7DF9CF1F93CF93DF93282F30E0F90121
:10042000E458FF4F8491F901E255FF4FD491F9014F
:10043000E656FF4FC491CC23A9F0162F81110E94DC
:10044000E101EC2FF0E0EE0FFF1FEE58FF4FA591FA
:10045000B4918FB7F894EC91111108C0D095DE23B8
:10046000DC938FBFDF91CF911F910895DE2BF8CFE2
:10047000CF93DF93EC0180914E0560E00E940A0269
:10048000CE01DF91CF910C94D3001F93CF93DF93D4
:10049000182FD92F80917B0460E0C1E0811102C048
:1004A00061E0C0E080916F040E940A0280917304B1
:1004B000909174049C01129FC001139F900D112410
:1004C0000E94D3006C2F80916F040E940A028091D9
:1004D0007304909174049C01D29FC001D39F900D2E
:1004E0001124DF91CF911F910C94D300CF93DF9310
:1004F00090E0FC01E255FF4F249186569F4FFC018E
:1005000084918823D1F090E0880F991FFC01E8596D
:10051000FF4FA591B491FC01EE58FF4FC591D491C6
:1005200061110EC09FB7F8948C91E22FE0958E2355
:100530008C932881E223E8839FBFDF91CF910895B8
:100540008FB7F894EC91E22BEC938FBFF6CF3FB7C7
:10055000F8948091820390918303A0918403B091D9
:10056000850326B5A89B05C02F3F19F00196A11D54
:10057000B11D3FBFBA2FA92F982F8827BC01CD01ED
:10058000620F711D811D911D42E0660F771F881F4C
:10059000991F4A95D1F708958F929F92AF92BF927B
:1005A000CF92DF92EF92FF926C010E94A7024B0163
:1005B0005C010D2C000CEE08FF080E94A7026819D0
:1005C00079098A099B096C157D058E059F05B8F48C
:1005D00080914E0561E00E940A0280914F05909142
:1005E00050050E94D30080914E0560E00E940A02EF
:1005F00080914F05909150050E94D300DECFFF906F
:10060000EF90DF90CF90BF90AF909F908F90089524
:100610008F929F92AF92BF92CF92DF92EF92FF9212
:100620006B017C010E94A7024B015C01C114D10443
:10063000E104F104B9F00E94A702681979098A0956
:100640009B09683E73408105910580F321E0C21A41
:10065000D108E108F10888EE880E83E0981EA11CFD
:10066000B11CE4CFFF90EF90DF90CF90BF90AF90A0
:100670009F908F90089508954F925F926F927F920E
:100680008F929F92AF92BF92DF92EF92FF920F9361
:100690001F93CF93DF938C01EB0188818B32D1F1D3
:1006A0008D32C9F52196EE24E394888190ED980F60
:1006B0009A3010F08E3289F560E070E0CB01FE01D7
:1006C0002191A0ED8A2E820E39E0381508F440C041
:1006D0006A3929E97207820729E1920708F04DC0BB
:1006E000AAE0B0E09B01AC010E945C19912CB12CF6
:1006F000A12C2401350140945094609470944616C6
:10070000570668067906C8F1680D791D8A1D9B1D7C
:10071000EF01D5CF2196E12CC8CFF80110821182CC
:100720001282138214821582168217821086C801E3
:10073000DF91CF911F910F91FF90EF90DF90BF90CD
:10074000AF909F908F907F906F905F904F900895A3
:10075000211113C0F80160837183828393830E9407
:100760001E18F80164837583868397838AE0E110FD
:1007700001C088E0F8018087DACFF12CEAE08E2E04
:10078000912CA12CB12C61157105F0E88F07910512
:1007900040F0A50194010E94A619CA01B901F39481
:1007A000F2CFFE01299130ED320F3A3010F4F3947C
:1007B000F8CF2E32F1F4EF012196FE01219620812F
:1007C00050EDD52ED20E29E02D1598F06C3C3CEC66
:1007D00073073CE08307910580F7AAE0B0E09B0136
:1007E000AC010E945C196D0D711D811D911DFA9463
:1007F000E4CF20812F7DD0E0C0E0253409F04FC048
:1008000021812D32A9F53296BB24B394DF01D0E0CB
:10081000C0E02F2D0F2C000C330B4AE0A42EFD015D
:10082000DD9040ED4D0D4A30A8F5AC9EA001AD9E87
:10083000500D1124CD2DDD0CDD0BE097C40FD51F1D
:10084000AE01420F531F473251054CF3BB20B9F0A4
:1008500080E090E0A0E0B0E8E11003C080E090E02C
:10086000DC01F80184839583A683B7838CE083CF72
:100870002B3219F03196B12CC9CF3296FCCF80E0E3
:1008800090E0A0E8BFEFE110ECCF80E090E0A0E8BE
:10089000BFE7E7CFBB2019F0D195C195D1092081E1
:1008A00021113BCFCF0DD11DF7FCDA950E941E1808
:1008B0001C161D06E4F4F12CC0FF0CC024E0F29ECF
:1008C000F0011124EF5CFE4F208131814281538180
:1008D0000E947F18D595C795F394209769F7E1108A
:1008E0009058F8016483758386839783BFCFD19531
:1008F000C195D109F12C209791F3C0FF0CC024E0E1
:10090000F29EF0011124E75EFE4F20813181428189
:1009100053810E947F18D595C795F394ECCF80330F
:100920009CF08A3324F08F3524F08B3724F481E057
:10093000089581344CF08B35D4F393ED980F81E01A
:100940009230B0F380E008958B32B9F7F0CFFC011C
:100950008185811114C0A481B581868197812FEF93
:100960003FEFA817B90730F4CD0101969583848332
:100970002C9130E037FD20E0208781E08187808561
:1009800008951F93CF93DF93EC01162F0E94A704C5
:10099000811306C0198681E0DF91CF911F910895E0
:1009A00080E0FACFCF93DF93EC01CE010E94A70441
:1009B0008B303CF489304CF4882349F090E080E09F
:1009C00008C08D3011F08032C9F71986EECF81E072
:1009D00090E0DF91CF910895CF92DF92EF92FF9256
:1009E000CF93DF93CDB7DEB729970FB6F894DEBF6C
:1009F0000FBECDBFFC01892B39F094819F779630D3
:100A000081F030F49430F0F460E070E0CB010DC080
:100A1000983039F09C30C1F7C080D180E280F380FB
:100A200020C0608171818281938129960FB6F894EC
:100A3000DEBF0FBECDBFDF91CF91FF90EF90DF9073
:100A4000CF90089560817181CE0101960E943C0390
:100A500089858830F9F08C30B9F6CD80DE80EF8062
:100A6000F88420E030E0A901C701B6010E94EC1A29
:100A700087FDCACF20E030E040E85FE4C701B6015F
:100A80000E94191818160CF4BFCFC701B6010E94B6
:100A9000BD1ACBCF69817A818B819C81C6CFCF92E1
:100AA000DF92EF92FF92CF93DF93CDB7DEB7299716
:100AB0000FB6F894DEBF0FBECDBFFC01892B39F015
:100AC00094819F77963069F028F4943080F570E037
:100AD00060E01FC09A3081F09C3009F459C0983012
:100AE000B1F780819181A281B381BC0181159048C9
:100AF000A105B10570F0EBCF80819181A281B38116
:100B000066277727681B790B81309048A105B105CE
:100B1000F0F6CB0129960FB6F894DEBF0FBECDBF1D
:100B2000DF91CF91FF90EF90DF90CF90089560819B
:100B30007181CE0101960E943C0389819A81AB812B
:100B4000BC8129852A30E1F22C3021F0283009F0CF
:100B5000BECFCBCFCD80DE80EF80F88420E030E0C8
:100B600040E057ECC701B6010E94EC1A87FDAFCFF9
:100B700020E03EEF4FEF56E4C701B6010E9419187E
:100B800018160CF4A4CFC701B6010E94B61AC1CF43
:100B9000C080D180E280F380E1CFCF93FC01892B2C
:100BA00091F094819F77983029F078F4992359F047
:100BB000963079F4C1E080819181A281B381892B43
:100BC0008A2B8B2B39F4C0E005C09A3099F39C3006
:100BD00021F0C1E08C2FCF910895C1E020E030E0FA
:100BE000A90160817181828193810E94191881110C
:100BF000F1CFE9CFFC0184819581009799F02281A2
:100C00003381468157812417350718F015821482E5
:100C10000895A9014F5F5F4F53834283820F931F53
:100C2000FC0160830895FF920F931F93CF93DF938E
:100C3000CDB7DEB728970FB6F894DEBF0FBECDBF95
:100C40008C01DC011296ED91FC912281338184812B
:100C5000958193838283FA83E9831C821B823E837E
:100C60002D83821B930B98878F83C8010E94A70452
:100C7000F82EF8011186C8010E94A704D801199620
:100C80001C92F816C9F1811110C061E070E080E09B
:100C900090E028960FB6F894DEBF0FBECDBFDF916F
:100CA000CF911F910F91FF9008958C35F9F4C801F1
:100CB0000E94A704882349F3853729F464E070E093
:100CC00080E090E0E6CFEBE5F1E09081992329F018
:100CD000891308C08181811107C062E070E080E063
:100CE00090E0D7CF3296F1CFF8011186682FCE0170
:100CF00001960E94FA05BFCF60E0CE0101960E94E6
:100D0000FA058D819E81892B79F0E981FA818B81A9
:100D10009C812F813885AC01421B530B82819381CA
:100D2000840F951F938382832D813E8163E070E061
:100D300080E090E02115310509F4ABCF60E070E070
:100D4000CB01C901A6CFFC0180819181892B21F4BF
:100D500060E070E0CB01089561EB76E090E080E028
:100D600008950895CF93DF93DC01EB01EC81FD81C1
:100D70008A819B810896E817F90730F4F0E0E0E0FB
:100D8000CF01DF91CF9108953897FD83EC833097A1
:100D9000A9F31296CD91DC911397209791F0CF0192
:100DA0008C1B9D0B23E0959587952A95E1F78D8304
:100DB0001396FC93EE931297158214821782168273
:100DC000DFCF1196FC93EE93F3CF2F923F924F9289
:100DD0005F926F927F928F929F92AF92BF92CF92CB
:100DE000DF92EF92FF920F931F93CF93DF93CDB7D4
:100DF000DEB761970FB6F894DEBF0FBECDBF0E947D
:100E0000A7026B017C0180917C0390917D033601E8
:100E1000681A790A2DEC621620E1720608F4D1C036
:100E20008091F6029091F702D301A81BB90BCD0176
:100E3000B7FF03C0919581959109883C91050CF00D
:100E4000BCC08091F4029091F50201969093F50256
:100E50008093F402029709F0B0C002EC10E04090D9
:100E6000F2025090F30249E050E0B801CE01019641
:100E70000E9410188B816C81681708F4682F70E04D
:100E80008091F6029091F7020E94021B9B01409113
:100E9000050150910601649FC001659F900D749FEC
:100EA000900D112464E670E00E94021B898541E0E8
:100EB00050E0882311F042E050E08D81829FF001E4
:100EC000839FF00D1124FB87EA878E81829FD001DA
:100ED000839FB00D1124BD87AC878F81829FF00165
:100EE000839FF00D1124FF87EE878885829F100174
:100EF000839F300C1124FA01EE0FFF1FEA50FD4FC3
:100F0000812C912C5401920121503109398B288B6D
:100F1000888999894817590708F03FC0880C991C9F
:100F2000AA1CBB1C808191819C01AA85BB852A1BC0
:100F30003B0B37FF03C03195219531092617370741
:100F400070F422813381AC85BD852A1B3B0B37FFB2
:100F500003C031952195310926173707D0F02E852A
:100F60003F85821B930B97FF03C091958195910953
:100F700086179707B8F4828193818219930997FFA6
:100F800003C09195819591098617970758F4689445
:100F900080F84E5F5F4F3496BBCF38E04316510464
:100FA00008F051C0075F1F4F80E0083F180709F0A5
:100FB00056CF1092F5021092F4021092F3021092A2
:100FC000F2028091F2029091F3028334910540F095
:100FD0001092F3021092F2021092F5021092F402B3
:100FE0008091F2029091F3029C012F5F3F4F30936A
:100FF000F3022093F202880F991FFC01EA50FD4F83
:1010000071826082C0927C03D0927D03E0927E0365
:10101000F0927F0361960FB6F894DEBF0FBECDBF8E
:10102000DF91CF911F910F91FF90EF90DF90CF90C4
:10103000BF90AF909F908F907F906F905F904F90F8
:101040003F902F9008958092600490926104A09246
:101050006204B0926304ADCFFC0101900020E9F777
:101060003197AF01481B590BBC018EE993E00C94FA
:10107000DE008F929F92AF92BF920F931F93CF93F8
:10108000DF93CDB7DEB7A1970FB6F894DEBF0FBEE2
:10109000CDBF19A2423008F44AE08E010F5D1F4F08
:1010A000842E912CB12CA12CA50194010E94A6198B
:1010B000E62FB901CA01EA30F4F4E05DD801EE93FD
:1010C0008D01232B242B252B79F790E080E01097BE
:1010D00019F0CD010E942C08A1960FB6F894DEBF3E
:1010E0000FBECDBFDF91CF911F910F91BF90AF90F9
:1010F0009F908F900895E95CE1CFCF93DF93D0E08C
:10110000C0E0009719F00E942C08EC018CE691E0F9
:101110000E942C088C0F9D1FDF91CF9108954F9254
:101120005F926F927F928F929F92AF92BF92CF9277
:10113000DF92EF92FF920F931F93CF936B017C018D
:10114000742EAC019B010E94F11A882399F08FE65E
:1011500091E0CF911F910F91FF90EF90DF90CF9092
:10116000BF90AF909F908F907F906F905F904F90C7
:101170000C942C0846015701E894B7F82FEF3FEF85
:101180004FE75FE7C501B4010E94F11A81110DC05C
:101190002FEF3FEF4FE75FE7C501B4010E94191839
:1011A00018161CF483E791E0D4CF2FEF3FEF4FE701
:1011B0005FE4C701B6010E94EC1A18161CF487E719
:1011C00091E0C7CF2FEF3FEF4FE75FECC701B601CC
:1011D0000E94191887FDF3CF20E030E0A901C70174
:1011E000B6010E94191810E000E087FF0AC06DE206
:1011F0008EE993E00E9474018C01F7FAF094F7F8FD
:10120000F094C0E060E070E080E09FE37C1641F085
:1012100020E030E040E251E40E94441ACF5FF6CF74
:10122000A70196010E94D8192B013C010E94BD1A0A
:101230004B015C014AE00E9439087C01E00EF11E7E
:10124000CC23C1F1C501B4010E941E189B01AC0161
:10125000C301B2010E94D7194B015C016EE28EE915
:1012600093E00E947401E80EF91EC15018F120E0CD
:1012700030E040E251E4C501B4010E947F182B0127
:101280003C010E94BD1A4B01B12CA12C4AE0C501C2
:10129000B4010E943908E80EF91EC501B4010E948C
:1012A0001E189B01AC01C301B2010E94D7194B016A
:1012B0005C01DBCFC701CF911F910F91FF90EF90A1
:1012C000DF90CF90BF90AF909F908F907F906F9066
:1012D0005F904F900895FC0180819181009711F0FB
:1012E0000C94B81B08950F931F93CF93DF93EC01D9
:1012F00088819981009759F02A813B812617370709
:1013000030F081E0DF91CF911F910F9108958B0113
:101310006F5F7F4F0E94411C009759F0998388832B
:101320001B830A832C813D81232B59F7FC011082FA
:10133000E8CF80E0E7CFEF92FF920F931F93CF9318
:10134000DF93EC017B018A01BA010E9473092881B5
:101350003981811114C02115310519F0C9010E948C
:10136000B81B198218821D821C821B821A82CE0130
:10137000DF91CF911F910F91FF90EF9008951D8302
:101380000C83B701C9010E94101DF1CFCF93DF93E9
:10139000EC01FB018617970749F0608171816115A7
:1013A000710541F0448155810E949B09CE01DF9176
:1013B000CF91089588819981009711F00E94B81B00
:1013C000198218821D821C821B821A82EFCFFC01B7
:1013D000118210821382128215821482FB01019005
:1013E0000020E9F73197AF01461B570B0C949B097E
:1013F0000F931F93CF93DF938B01EC012097E1F0C4
:101400006E817F8160177107B9F00115110541F0F8
:101410006115710529F0C8010E94071D892B61F033
:101420008D81882339F028E08202C0011124C80F81
:10143000D91FE4CFD0E0C0E0CE01DF91CF911F9162
:101440000F9108958F929F92AF92BF92CF92DF92A9
:10145000EF92FF920F931F93CF93DF93CDB7DEB739
:10146000CB54D1090FB6F894DEBF0FBECDBF8C01AF
:101470007B01D42E0E94D2042C969FAF8EAF2C9766
:10148000CE01865B9F4F0E94A306672B09F0B2C076
:1014900080FDB0C0C8010E94A704873209F4B9C119
:1014A00014F5823209F4B5C1C8010E94A704C82E00
:1014B000FE0131964F01D12C5F018C2D0E948F04CB
:1014C000882309F4C4C1FFE3DF1609F4C0C1D801C1
:1014D00019961C92D394F401C1924F01C8010E9445
:1014E000A704C82EEACF8B3509F49EC08B37E1F6EE
:1014F000F701848180788062848311821082138254
:101500001282DD2009F483C1D80119961C92C8010A
:101510000E94D20423969FAF8EAF2397CE018F5B9C
:101520009F4F0E94A306672B09F002C180FD00C1F6
:101530006DE7C8010E94C1048111CDC0DA94C801D1
:101540000E94A704873209F4D0C0823209F4CDC0CA
:10155000D8011296ED91FC9122813381848195818D
:1015600093838283FA83E9831C821B823E832D83CB
:10157000821B930B98878F83C8010E94A704A82E13
:101580000E948F0422E030E0882389F1F80111865F
:101590006A2DCE0101960E94FA05C8010E94A70497
:1015A000A82E0E948F048111F1CF60E0CE01019638
:1015B0000E94FA058D819E81892B79F0E981FA815B
:1015C0008B819C812F813885AC01421B530B82811A
:1015D0009381840F951F938382838D819E8123E065
:1015E00030E0009721F0B82EC92E30E020E09B2C8F
:1015F000AC2C83C02B968FAD2B972C969FAD2C9740
:10160000C55BDF4F0FB6F894DEBF0FBECDBFDF91D5
:10161000CF911F910F91FF90EF90DF90CF90BF90EF
:10162000AF909F908F900895D70114968C91149746
:101630008078806414968C93149711961C921E9255
:1016400013961C921E921297DD2009F4E0C0F80157
:101650001186C8010E94D2049A838983CE01019623
:101660000E94A306672B61F580FD2AC06DE5C801C5
:101670000E94C10481112FC0DA94D8016D917C9130
:10168000C7010E94B206009709F4BEC04D2DBC01EF
:10169000C8010E94220A9A838983CE0101960E9482
:1016A000A306672B69F480FD0BC0C8010E94D20419
:1016B0009A838983CE0101960E94A306672B19F0B5
:1016C00089819A819DCF80FDFBCF6DE5C8010E9485
:1016D000C104882311F080E098C06CE2C8010E9428
:1016E000C1048111CACF82E090C0C8010E941306D4
:1016F0009B019B2CAC2CB82EC92E23963FAF2EAF4E
:101700002397CE018F5B9F4F0E94A306672B81F426
:1017100080FD0EC0C8010E94D20423969FAF8EAFF9
:101720002397CE018F5B9F4F0E94A306672B39F052
:1017300022968FAD229723969FAD239761CF80FD90
:10174000F7CF6AE3C8010E94C104882361F26B2DC0
:101750007C2DD7018D919C910E94F809BC01892BA9
:1017600081F4F80160817181C7010E94B206FC0119
:10177000892B09F449C0848180688483B682C7823A
:10178000BF014D2DC8010E94220A23969FAF8EAF44
:101790002397CE018F5B9F4F0E94A306672B41F6D4
:1017A00080FDC6CFC8010E94D20423969FAF8EAFA2
:1017B0002397CE018F5B9F4F0E94A306672B09F0F2
:1017C000B7CF80FDB5CF6DE7C8010E94C10481117C
:1017D00082CF6CE2C8010E94C104882309F483CF40
:1017E000C8010E94D20423969FAF8EAF2397CE01EB
:1017F0008F5B9F4F0E94A306672B09F099CF80FD56
:1018000097CFB92CCA2C9BCE83E090E0F9CE85E02F
:10181000FCCFC8010E94130669837A838B839C8363
:10182000CE0101960E94A306672B09F049CF80FDE7
:1018300047CF2B813C81D70114968C9114978078E7
:10184000856014968C9314972D933C9344CFF501A7
:10185000ED0DF11D108289818437B9F4D7011496FA
:101860008C9114978078866014968C9381E090E038
:10187000A0E0B0E0F70180839183A283B38390E07E
:10188000F4E0DF12BDCE80E0BBCE863689F4D7010E
:1018900014968C9114978078866014968C93F70137
:1018A000108211821282138281E090E0F5E0E9CF8C
:1018B0008E3631F481E090E024E0D212A1CEE3CF65
:1018C000B501CE018F5B9F4F0E943C0325964CAD26
:1018D0005DAD6EAD7FAD25972A968FAD2A978A3084
:1018E00061F08C30C1F0883009F0FDCED70114963C
:1018F0008C9114978078886006C0D70114968C91DB
:10190000149780788A6014968C93F70140835183F2
:1019100062837383E0CE29964CAD5DAD6EAD7FAD35
:101920002997D70114968C91149780788C6014961F
:101930008C93F7014083518362837383CCCE0097ED
:1019400029F0FC01808191810C94F80990E080E0FD
:101950000895EF92FF920F931F93CF93DF93CDB72C
:10196000DEB72E970FB6F894DEBF0FBECDBFFC01D9
:1019700001811281E580F6801A8619861C861B86F5
:101980001E861D86CE0109960E94C6091A821982FA
:101990001C821B821E821D82BE01675F7F4FCE01AB
:1019A00001960E94C60981E090E098878F83CE015E
:1019B00009960E946B09B701C8010E949F0CFC01A7
:1019C000892B39F194819F77963029F0D8F49230A1
:1019D00000F1943060F50F811885CE0101960E94C8
:1019E0006B0981E0012B09F080E02E960FB6F89488
:1019F000DEBF0FBECDBFDF91CF911F910F91FF9042
:101A0000EF9008959C3039F368F4983021F39A30C0
:101A100011F381E090E029813A81232BC9F490E011
:101A200080E016C09032B9F2903499F7D4CF60813B
:101A3000718189819A816817790769F0009771F03F
:101A40006115710571F00E94071D919581959109AD
:101A500098878F83C0CF90E080E0F7CF8FEF9FEF24
:101A6000F4CF81E090E0F1CFFC01248125FF04C098
:101A7000808191810C94F80990E080E008952F9284
:101A80003F924F925F926F927F928F929F92AF920E
:101A9000BF92CF92DF92EF92FF920F931F93CF935B
:101AA000DF93CDB7DEB7C25BD1400FB6F894DEBF8F
:101AB0000FBECDBFFC01CE010E969A8389839C8315
:101AC0008B834EE951E04C0F5D1F5E834D83588739
:101AD0004F839D8590789D87208131818481958178
:101AE000820F931F4D5951407A01C256DE4F5983E0
:101AF0004883CE59D140C056DE4F59834883C05ADF
:101B0000D140CE55DE4F39832883C25AD140CC55BF
:101B1000DE4F99838883C45AD140C955DE4F18825D
:101B2000C75AD1405E0159E0A50EB11C4AE0B5018B
:101B3000CE0182569E4F0E94220AC855DE4F9983DD
:101B40008883C85AD140CE0188559E4F0E94A30673
:101B5000672BC9F480FD17C0CA55DE4F8881C65A6D
:101B6000D140882381F08D85982F9F779C3019F084
:101B70008D77883041F482E090E0C855DE4F99833C
:101B80008883C85AD140C855DE4F08811981C85A88
:101B9000D140C255DE4F19830883CE5AD140CE01C1
:101BA00082559E4F0E94A306672B09F00BC16C0162
:101BB00021E0C222DD2480FD05C18D85850185FDE2
:101BC00002C000E010E06FE771E0CE0188559E4F43
:101BD0000E94E709C156DE4F0883CF59D140C05655
:101BE000DE4F1883C05AD140CF55DE4FF982E882CC
:101BF000C15AD14038E8A32E31E0B32ECD55DE4F87
:101C0000B982A882C35AD140BE0168557E4FCE0129
:101C100082569E4F0E94A90C982ECE0188559E4F49
:101C20000E946B099110F6C06AEB71E0CE018855F5
:101C30009E4F0E94E709C156DE4F0883CF59D1401D
:101C4000C056DE4F1883C05AD140CF55DE4FF982BF
:101C5000E882C15AD140CD55DE4FB982A882C35A1D
:101C6000D140BE0168557E4FCE0182569E4F0E94E4
:101C7000A90CD82ECE0188559E4F0E946B09DD20FD
:101C800009F404C266E971E0C8010E949F0C009744
:101C900021F061EA71E00E94340D0E944F05382E58
:101CA00066E971E0C8010E949F0C009721F065EB86
:101CB00071E00E94340D0E94EC04C055DE4F688331
:101CC000C05BD140CF54DE4F7883C15BD140282E1A
:101CD000CE54DE4F9883C25BD140F5E0EF2EF12C5D
:101CE0000BE613E0A3E78A2EA5E09A2EBBEDAB2E00
:101CF000B5E1BB2E61E0832D0E940A02C801019765
:101D0000F1F760E0832D0E940A0287EC99E20197C7
:101D1000F1F7C055DE4F4880C05BD140CF54DE4F55
:101D20005880C15BD140622CCE54DE4F7880C25BBC
:101D3000D140E0E2CE2ED12C61E0832D77FE8DC123
:101D40000E940A02C8010197F1F760E0832D0E940A
:101D50000A02C5010197F1F761E0832D0E940A0292
:101D6000C8010197F1F760E0832D0E940A02C401C7
:101D70000197F1F7440C551C661C771C41E0C41A0E
:101D8000D108D1F661E0832D0E940A02C8010197B3
:101D9000F1F760E0832D0E940A028BE995EA019732
:101DA000F1F761E0832D0E940A02C8010197F1F763
:101DB00060E0832D0E940A0251E0E51AF10809F063
:101DC00099CF0EC08BE791E00630110538F4000F73
:101DD000111FF801E35FFE4F808191810E947D0811
:101DE000CE54DE4F0FB6F894DEBF0FBECDBFDF91ED
:101DF000CF911F910F91FF90EF90DF90CF90BF9008
:101E0000AF909F908F907F906F905F904F903F909A
:101E10002F90089566E971E0C8010E949F0C009719
:101E200021F061EA71E00E94340D0E944F05F82E06
:101E3000E92E66E971E0C8010E949F0C009721F02D
:101E40006AEA71E00E94340D0E944F051C0166E9A8
:101E500071E0C8010E949F0C009721F4412C512C85
:101E600032014DC065EB71E00E94340DFC01892BFD
:101E7000A9F394819F77963039F1F8F4943070F398
:101E800060817181CE0182569E4F0E943C03C256F2
:101E9000DE4F488059806A807B80CE59D140CA5538
:101EA000DE4F8881C65AD1408A3009F483C08C3015
:101EB00009F489C0883091F60BC09A3061F09C30EB
:101EC00009F4A5C0983051F640805180628073803B
:101ED00077FE15C0C3CF408051806280738041E09F
:101EE00044165104610440E8740608F0B7CF7094BA
:101EF000609450944094411C511C611C711CF092E0
:101F00006F04E092700461E08F2D0E947602809150
:101F10006F0490917004019609F498C000916D04CB
:101F200010916E040F3F1007B1F0023070F4F80109
:101F3000FF27013009F470C0E898EE0FFF1FEF5F34
:101F4000FE4F8BE393E0918380838FEF9FEF90931D
:101F50006E0480936D04812C912C540183948091A4
:101F6000710490917204C816D9060CF066C0710114
:101F700051E0E51AF108F7FC56C0D501C4010E2C5A
:101F800004C0880F991FAA1FBB1F0A94D2F784218F
:101F90009521A621B721892B8A2B8B2B09F43EC0D2
:101FA0008091790490917A040E94450281E0E81AB8
:101FB000F108E1CF51E045165104610450E875067F
:101FC00008F04CCF94CFCE55DE4F88809980AA8000
:101FD000BB80C25AD14020E030E040E05FECC50158
:101FE000B4010E94EC1A87FD39CF20E030E040E0D8
:101FF0005FE4C501B4010E94191818160CF42ECF25
:10200000C501B4010E94B61A2B013C0178CF808033
:102010009180A280B380DFCFE9988FCF8091770441
:1020200090917804C1CF80917504909176040E94BC
:1020300045029FEFC91AD90A92CF0F3F100731F01E
:1020400010936E0400936D040E94A8008FEF9FEF21
:102050009093700480936F04C3CE0E940A02C8015B
:102060000197F1F760E0832D0E940A02C4010197F5
:10207000F1F761E0832D0E940A02C8010197F1F790
:1020800060E0832D0E940A02C50172CE6AEC71E005
:10209000CE0188559E4F0E94E709C156DE4F088346
:1020A000CF59D140C056DE4F1883C05AD140CF55CA
:1020B000DE4FF982E882C15AD140CD55DE4FB98258
:1020C000A882C35AD140BE0168557E4FCE018256C8
:1020D0009E4F0E94A90CD82ECE0188559E4F0E947B
:1020E0006B09DD2009F47EC066E971E0C8010E9439
:1020F0009F0C009721F061EA71E00E94340D0E946C
:102100004F05D82E66E971E0C8010E949F0C009728
:1021100021F06AEA71E00E94340D0E944F057C01B3
:1021200066E971E0C8010E949F0C009721F065EB01
:1021300071E00E94340D0E94EC044B015C01D092CE
:102140004E058DE090E09093500580934F0580916F
:102150004E0561E00E94760280914E0560E00E948B
:102160000A0288E293E20E94CC0284E991E10E9493
:102170003802C7010197C12CD12C7601C39404C049
:10218000CC0CDD1CEE1CFF1C8A95D2F7C114D104C7
:10219000E104F104F1F0D501C4018C219D21AE21AF
:1021A000BF21892B8A2B8B2B69F080E392E00E9460
:1021B000CC028AE996E00E943802F694E794D7941C
:1021C000C794E4CF80E392E00E94CC0280E392E0E7
:1021D000F2CF80E392E00E94CC0290E080E00E9487
:1021E0003802FECD62ED71E0CE0188559E4F0E940F
:1021F000E709C156DE4F0883CF59D140C056DE4FA4
:102200001883C05AD140CF55DE4FF982E882C15AB7
:10221000D140CD55DE4FB982A882C35AD140BE010C
:1022200068557E4FCE0182569E4F0E94A90CD82E33
:10223000CE0188559E4F0E946B09DD2009F4EDC048
:1022400066E971E0C8010E949F0C009721F061EAE5
:1022500071E00E94340D0E944F05F82E66E971E08E
:10226000C8010E949F0C009721F06CED71E00E9464
:10227000340D0E944F058C0180916A048C3008F067
:1022800053C061E08F2D0E94760280916A04282F4E
:1022900030E0F901EE0FFF1FE20FF31FE55CFB4F8B
:1022A0002F2D2F739081907C922B908310926B0432
:1022B00010926C042CE0622F0E94F61A829FB001EB
:1022C000112430E020E0AB01420F531FFA01EE0F62
:1022D000FF1FE40FF51FE55CFB4F908196FD16C0D4
:1022E0002F5F3F4F2C30310571F781110FC01092D5
:1022F000800082E08093810010928500109284001B
:10230000B19A80916F00826080936F00E0916A04BF
:102310008E2F90E0FC01EE0FFF1FE80FF91FE55C28
:10232000FB4F808180648083F0906A04003282E0F9
:1023300018070CF03DC080916B04E8E88E2E912CBC
:10234000881A910887FD9394880C991C880C991C15
:10235000092C000CAA08BB0880916C0428E532E027
:10236000281B310987FD3395220F331F220F331F9E
:10237000032E000C440B550B281939094A095B0937
:10238000D801053B110514F0A4EBB0E0B7FF02C083
:10239000B0E0A0E00E94671924EB30E040E050E09C
:1023A0000E943D1989019A01080D191D2A1D3B1D26
:1023B0009BE09F1508F414CD20916B0488E890E011
:1023C000821B910927FD9395880F991F880F991FEC
:1023D0000817190784F020916C0488E592E0821BAD
:1023E000910927FD9395880F991F880F991F08174A
:1023F00019070CF4C8010297880F991F4FB7F8947A
:102400002F2D30E0F901EE0FFF1FE20FF31FE55C07
:10241000FB4F928381834FBFE3CC62EE71E0CE012C
:1024200088559E4F0E94E709C156DE4F0883CF5959
:10243000D140C056DE4F1883C05AD140CF55DE4F31
:10244000F982E882C15AD140CD55DE4FB982A882C7
:10245000C35AD140BE0168557E4FCE0182569E4F71
:102460000E94A90CD82ECE0188559E4F0E946B0960
:10247000DD2029F166E971E0C8010E949F0C0097F8
:1024800021F061EA71E00E94340D0E944F057C0149
:1024900066E971E0C8010E949F0C009721F06BEE85
:1024A00071E00E94340D0E94CD05182FF0926E0449
:1024B000E0926D040E94A8001093000191CC62EF9D
:1024C00071E0CE0188559E4F0E94E709C156DE4F4C
:1024D0000883CF59D140C056DE4F1883C05AD1402F
:1024E000CF55DE4FF982E882C15AD140CD55DE4F3B
:1024F000B982A882C35AD140BE0168557E4FCE0131
:1025000082569E4F0E94A90CF82ECE0188559E4FF0
:102510000E946B09FF2009F463CC66E971E0C801F1
:102520000E949F0C009721F061EA71E00E94340D37
:102530000E944F057C0166E971E0C8010E949F0C72
:10254000009721F06BEE71E00E94340D0E94CD05E2
:1025500080939D03F0929803E092970341CC0F93F0
:102560001F93CF93DF9300D000D000D0CDB7DEB75C
:102570008EE993E00E941A01853239F51A82198298
:102580001C821B821E821D8264E674E0CE010196CD
:102590000E94C609CE0101960E943F0DCE01019610
:1025A0000E946B0950E040E06BE671E084E694E045
:1025B0000E949B0926960FB6F894DEBF0FBECDBFD2
:1025C000DF91CF911F910F91089589831A82009115
:1025D0006804109169040F5F1F4FB80184E694E00E
:1025E0000E947309882331F32091640430916504BB
:1025F0008091680490916904BE016F5F7F4F820FE4
:10260000931F0E94101D1093690400936804D2CF99
:102610000E94480181110C94AF1208951F920F92ED
:102620000FB60F9211242F933F934F935F936F93A5
:102630007F938F939F93AF93BF93EF93FF938EE915
:1026400093E00E945201FF91EF91BF91AF919F9152
:102650008F917F916F915F914F913F912F910F904B
:102660000FBE0F901F9018951F920F920FB60F92EA
:1026700011242F938F939F93EF93FF93E091AE03D9
:10268000F091AF038081E091B403F091B50382FD36
:102690001BC090818091B7038F5F8F732091B80327
:1026A000821741F0E091B703F0E0E256FC4F958FBE
:1026B0008093B703FF91EF919F918F912F910F908E
:1026C0000FBE0F901F9018958081F4CF1F920F922C
:1026D0000FB60F9211242F933F938F939F93AF9335
:1026E000BF938091860390918703A0918803B09156
:1026F00089033091810323E0230F2D3758F501968C
:10270000A11DB11D209381038093860390938703BD
:10271000A0938803B09389038091820390918303EF
:10272000A0918403B09185030196A11DB11D8093F2
:10273000820390938303A0938403B0938503BF9196
:10274000AF919F918F913F912F910F900FBE0F905E
:102750001F90189526E8230F0296A11DB11DD2CF18
:102760001F920F920FB60F9211242F933F934F9306
:102770005F936F937F938F939F93AF93BF93EF93E9
:10278000FF93E0910301F09104010995FF91EF910E
:10279000BF91AF919F918F917F916F915F914F9179
:1027A0003F912F910F900FBE0F901F9018951F9281
:1027B0000F920FB60F9211242F933F934F935F9375
:1027C0006F937F938F939F93AF93BF93EF93FF93F9
:1027D000E0910101F09102010995FF91EF91BF9104
:1027E000AF919F918F917F916F915F914F913F91A9
:1027F0002F910F900FBE0F901F9018951F920F9260
:102800000FB60F9211242F933F934F935F936F93C3
:102810007F938F939F93AF93BF93CF93DF93EF9368
:10282000FF9380918003C0915F04D0E087FF24C0B4
:102830001092850010928400809180038F5F8093B6
:10284000800380918003082E000C990B8C179D0744
:1028500024F4809180038C30C4F1809184009091A5
:102860008500049680349C4908F47AC080918400E5
:1028700090918500049676C080918003082E000C0C
:10288000990B8C179D07C4F6E09180038E2FEE0FF5
:10289000990BFC01EE0FFF1FE80FF91FE55CFB4FE2
:1028A000808186FFC9CFE09180038E2FEE0F990BB8
:1028B000FC01EE0FFF1FE80FF91FE55CFB4F808165
:1028C00060E08F730E940A02B7CF2091840030919C
:1028D0008500E09180038E2FEE0F990BFC01EE0F27
:1028E000FF1FE80FF91FE55CFB4F81819281820F8A
:1028F000931F9093890080938800E09180038E2F2E
:10290000EE0F990BFC01EE0FFF1FE80FF91FE55CBE
:10291000FB4F808186FF11C0E09180038E2FEE0F68
:10292000990BFC01EE0FFF1FE80FF91FE55CFB4F51
:10293000808161E08F730E940A02FF91EF91DF9125
:10294000CF91BF91AF919F918F917F916F915F9147
:102950004F913F912F910F900FBE0F901F901895A0
:1029600080E49CE990938900809388008FEF8093A6
:102970008003E3CF1F920F920FB60F9211242F9373
:102980003F934F935F936F937F938F939F93AF93F7
:10299000BF93CF93DF93EF93FF9320917D0430E0BB
:1029A000F901E458FF4F8491F901E255FF4FD491AA
:1029B000F901E656FF4FC491CC2379F081110E94B2
:1029C000E101EC2FF0E0EE0FFF1FE057FF4FA59164
:1029D000B491EC91ED2381E009F480E02091810431
:1029E000309182042F5F3F4F309382042093810403
:1029F00090918004953618F096E090937C04909125
:102A00007C04943009F466C0B8F49230F1F093304D
:102A100009F444C090917F04992309F46BC081119B
:102A20007CC080917E04882309F463C080917E0479
:102A300061E00E940A025EC0953009F457C09630EA
:102A400049F791E090934D054FC08111E3CF20915C
:102A50008104309182042436310528F410928204D6
:102A600010928104D7CF10924D0510928004E0910E
:102A7000800491E09E0F90938004F0E02091810407
:102A800030918204EE0FFF1FE458FB4F30872783FD
:102A9000109282041092810493E019C0813009F0F1
:102AA000B9CFE091800491E09E0F90938004F0E014
:102AB0002091810430918204EE0FFF1FE458FB4FF8
:102AC00030872783109282041092810494E09093BF
:102AD0007C04A0CF882359F2209181043091820494
:102AE0002536310508F496CF95E0F1CF811192CFCC
:102AF000B5CF2D9AFF91EF91DF91CF91BF91AF911B
:102B00009F918F917F916F915F914F913F912F9105
:102B10000F900FBE0F901F90189580917E04882310
:102B200021F080917E0460E084CF2D98E3CFCF9395
:102B3000DF931092A1031092A00388EE93E0A0E02F
:102B4000B0E08093A2039093A303A093A403B09357
:102B5000A5038DE491E090939F0380939E0385EC01
:102B600090E09093AB038093AA0384EC90E0909361
:102B7000AD038093AC0380EC90E09093AF0380931F
:102B8000AE0381EC90E09093B1038093B00382ECAC
:102B900090E09093B3038093B20386EC90E090931F
:102BA000B5038093B4031092B7031092B803109248
:102BB000B9031092BA0383E080934E05CFEFDFEFA5
:102BC000D0937004C0936F048AE090E090937204F5
:102BD0008093710449E050E062EC70E083E794E098
:102BE0000E941018D0936E04C0936D048CE390E0A3
:102BF0009093060180930501109260041092610485
:102C0000109262041092630480915F048C30D0F4BF
:102C100091E0980F90935F0480936A0490E0FC0128
:102C2000EE0FFF1FE80FF91FE55CFB4F88EB9BE001
:102C3000928381836BE671E084E694E0DF91CF912B
:102C40000C94E7098FEF80936A04F4CF789484B5ED
:102C5000826084BD84B5816084BD85B5826085BD98
:102C600085B5816085BD80916E00816080936E0026
:102C70001092810080918100826080938100809118
:102C800081008160809381008091800081608093C9
:102C900080008091B10084608093B1008091B00089
:102CA00081608093B00080917A00846080937A0084
:102CB00080917A00826080937A0080917A008160AE
:102CC00080937A0080917A00806880937A001092D5
:102CD000C100E091AE03F091AF0382E08083E09108
:102CE000AA03F091AB031082E091AC03F091AD0325
:102CF0008FEC80831092B603E091B203F091B3039E
:102D000086E08083E091B003F091B103808180611F
:102D10008083E091B003F091B1038081886080836B
:102D2000E091B003F091B103808180688083E091ED
:102D3000B003F091B10380818F7D808310926E0487
:102D400010926D040E94A80081E08093000180939E
:102D50009D0388E090E090939803809397034BE95C
:102D6000E42EF12C412C50EC552E59E7652E54ECF5
:102D7000752E2FB7F8948091860390918703A091C8
:102D80008803B09189032FBF20919D03222309F46A
:102D900003C14091990350919A0360919B037091F4
:102DA0009C038C019D01041B150B260B370BB901ED
:102DB000A80140325E446105710508F4EDC08093BE
:102DC000990390939A03A0939B03B0939C03C091A3
:102DD0009703D0919803CE019927FC01E255FF4F4C
:102DE000D490FC01E656FF4FE491F0E0EE0FFF1F98
:102DF000E057FF4F059114911092920310929303A4
:102E000010929403109295031092960361E08C2F18
:102E10000E94760260E08C2F0E940A0262E170E05C
:102E200080E090E00E94080361E08C2F0E940A027B
:102E3000C7010197F1F760E08C2F0E94760280E9CC
:102E400091E0F80120812D2199F40197D1F740926A
:102E50008A0350928B0360928C0370928D03409290
:102E60008E0350928F03609290037092910364C01E
:102E700080E991E0F80120812D2119F00197D1F727
:102E8000E6CF98E2392E20E8C22E212C80E991E08D
:102E9000F80120812D2119F40197D1F7D8CF0E9494
:102EA000A7024B015C0180E991E0F80120812D210E
:102EB00019F00197D1F7CBCF0E94A70268197909C1
:102EC0008A099B09693271058105910538F0E22D67
:102ED000F0E0E657FC4F80858C298087C69419F472
:102EE000239480E8C82E3A943110D0CF61E08C2F23
:102EF0000E94760261E08C2F0E940A026091920388
:102F000070E090E080E00E941E1860938A03709346
:102F10008B0380938C0390938D036091940370E0F6
:102F200090E080E00E941E1860938E0370938F03E0
:102F30008093900390939103C3E0D0E08BEF91E0F6
:102F40000E942C0860918E0370918F0380919003F2
:102F50009091910342E00E948F0885E392E00E94E5
:102F60007D0888E392E00E942C0860918A037091AA
:102F70008B0380918C0390918D0342E00E948F0817
:102F800085E392E00E947D0864E670E080E090E0D6
:102F90000E940803219791F680910001882301F196
:102FA0008091600490916104A0916204B0916304E7
:102FB0000097A105B105A1F0892BD1F48FE692E02D
:102FC0000E942C0868EC70E080E090E00E9408030A
:102FD00010926004109261041092620410926304D3
:102FE0000E944801882309F4C4CE0E94AF12C1CECA
:102FF00080E892E00E942C08609160047091610466
:1030000080916204909163044AE00E94390885E34C
:1030100092E00E947D08D6CF84E694E00C946B0980
:10302000FB01DC0102C005900D9241505040D8F7E1
:1030300008950E945B1808F481E00895E89409C09F
:1030400097FB3EF490958095709561957F4F8F4FDB
:103050009F4F9923A9F0F92F96E9BB279395F695F1
:10306000879577956795B795F111F8CFFAF4BB0F6F
:1030700011F460FF1BC06F5F7F4F8F4F9F4F16C0D3
:10308000882311F096E911C0772321F09EE8872F5D
:10309000762F05C0662371F096E8862F70E060E019
:1030A0002AF09A95660F771F881FDAF7880F969592
:1030B000879597F90895990F0008550FAA0BE0E836
:1030C000FEEF16161706E807F907C0F012161306EA
:1030D000E407F50798F0621B730B840B950B39F42A
:1030E0000A2661F0232B242B252B21F408950A2690
:1030F00009F4A140A6958FEF811D811D08950E94BE
:1031000092180C9403190E94F51838F00E94FC18CC
:1031100020F0952311F00C94EC180C94F218112463
:103120000C9437190E94141970F3959FC1F3950FF1
:1031300050E0551F629FF001729FBB27F00DB11D3B
:10314000639FAA27F00DB11DAA1F649F6627B00DCB
:10315000A11D661F829F2227B00DA11D621F739FB4
:10316000B00DA11D621F839FA00D611D221F749FC2
:103170003327A00D611D231F849F600D211D822F09
:10318000762F6A2F11249F5750409AF0F1F0882330
:103190004AF0EE0FFF1FBB1F661F771F881F91505D
:1031A0005040A9F79E3F510580F00C94EC180C9408
:1031B00037195F3FE4F3983ED4F38695779567958A
:1031C000B795F795E7959F5FC1F7FE2B880F911D87
:1031D0009695879597F9089597F99F6780E870E02D
:1031E00060E008959FEF80EC089500240A9416167D
:1031F000170618060906089500240A9412161306E5
:10320000140605060895092E0394000C11F4882372
:1032100052F0BB0F40F4BF2B11F460FF04C06F5F8E
:103220007F4F8F4F9F4F089557FD9058440F551F64
:1032300059F05F3F71F04795880F97FB991F61F038
:103240009F3F79F087950895121613061406551FAF
:10325000F2CF4695F1DF08C0161617061806991F1B
:10326000F1CF86957105610508940895E894BB2710
:1032700066277727CB0197F90895052E97FB1EF453
:1032800000940E94541957FD07D00E94A61907FC0C
:1032900003D04EF40C9454195095409530952195D7
:1032A0003F4F4F4F5F4F0895909580957095619572
:1032B0007F4F8F4F9F4F08950E94C819A59F900D73
:1032C000B49F900DA49F800D911D11240895B7FF08
:1032D0000C945C190E945C19821B930B08952F9229
:1032E0003F924F925F926F927F928F929F92AF9296
:1032F000BF92CF92DF92EF92FF920F931F93CF93E3
:10330000DF93CDB7DEB7CA1BDB0B0FB6F894DEBF79
:103310000FBECDBF09942A88398848885F846E849F
:103320007D848C849B84AA84B984C884DF80EE80E9
:10333000FD800C811B81AA81B981CE0FD11D0FB6F2
:10334000F894DEBF0FBECDBFED010895A1E21A2EA5
:10335000AA1BBB1BFD010DC0AA1FBB1FEE1FFF1F39
:10336000A217B307E407F50720F0A21BB30BE40B89
:10337000F50B661F771F881F991F1A9469F76095D0
:103380007095809590959B01AC01BD01CF0108958A
:10339000A29FB001B39FC001A39F700D811D112496
:1033A000911DB29F700D811D1124911D08955058DB
:1033B000BB27AA270E94EF190C9403190E94F51845
:1033C00038F00E94FC1820F039F49F3F19F426F4DD
:1033D0000C94F2180EF4E095E7FB0C94EC18E92F2E
:1033E0000E94141958F3BA176207730784079507E8
:1033F00020F079F4A6F50C9436190EF4E0950B2E16
:10340000BA2FA02D0B01B90190010C01CA01A00136
:103410001124FF27591B99F0593F50F4503E68F191
:103420001A16F040A22F232F342F4427585FF3CFD2
:10343000469537952795A795F0405395C9F77EF4A3
:103440001F16BA0B620B730B840BBAF09150A1F0EC
:10345000FF0FBB1F661F771F881FC2F70EC0BA0F72
:10346000621F731F841F48F4879577956795B795FA
:10347000F7959E3F08F0B0CF9395880F08F09927F5
:10348000EE0F9795879508950E94581A0C9403198A
:103490000E94FC1858F00E94F51840F029F45F3F94
:1034A00029F00C94EC1851110C9437190C94F21863
:1034B0000E94141968F39923B1F3552391F3951BD6
:1034C000550BBB27AA2762177307840738F09F5F45
:1034D0005F4F220F331F441FAA1FA9F335D00E2EB2
:1034E0003AF0E0E832D091505040E695001CCAF71F
:1034F0002BD0FE2F29D0660F771F881FBB1F2617E2
:1035000037074807AB07B0E809F0BB0B802DBF01B8
:10351000FF2793585F4F3AF09E3F510578F00C9487
:10352000EC180C9437195F3FE4F3983ED4F386957A
:1035300077956795B795F7959F5FC9F7880F911DA8
:103540009695879597F90895E1E0660F771F881F94
:10355000BB1F621773078407BA0720F0621B730B47
:10356000840BBA0BEE1F88F7E09508950E94BD1AF0
:103570006894B1110C94371908950E941C1988F0B1
:103580009F5798F0B92F9927B751B0F0E1F0660F27
:10359000771F881F991F1AF0BA95C9F714C0B13068
:1035A00091F00E943619B1E008950C943619672FF6
:1035B000782F8827B85F39F0B93FCCF38695779597
:1035C0006795B395D9F73EF4909580957095619580
:1035D0007F4F8F4F9F4F08950E945B1808F48FEF25
:1035E00008950E945B18880B990B0895991B79E048
:1035F00004C0991F961708F0961B881F7A95C9F783
:1036000080950895AA1BBB1B51E107C0AA1FBB1FD1
:10361000A617B70710F0A61BB70B881F991F5A955E
:10362000A9F780959095BC01CD010895EE0FFF1F7D
:103630000590F491E02D09940F931F93CF93DF939E
:103640008230910510F482E090E0E0915305F09112
:10365000540530E020E0B0E0A0E0309799F4211567
:10366000310509F44AC0281B390B24303105D8F53F
:103670008A819B816115710589F1FB0193838283A6
:10368000FE0111C040815181028113814817590701
:10369000E0F04817590799F4109761F012960C93CF
:1036A000129713961C933296CF01DF91CF911F9101
:1036B0000F9108950093530510935405F4CF2115ED
:1036C000310551F04217530738F0A901DB019A0187
:1036D000BD01DF01F801C1CFEF01F9CF909354058F
:1036E00080935305CDCFFE01E20FF31F8193919399
:1036F0002250310939832883D7CF20915105309149
:103700005205232B41F42091090130910A01309395
:103710005205209351052091070130910801211590
:10372000310541F42DB73EB740910B0150910C018A
:10373000241B350BE0915105F0915205E217F30778
:10374000A0F42E1B3F0B2817390778F0AC014E5F11
:103750005F4F2417350748F04E0F5F1F50935205F7
:1037600040935105819391939FCFF0E0E0E09CCF8F
:10377000CF93DF930097E9F0FC0132971382128216
:10378000A0915305B0915405ED0130E020E0109771
:10379000A1F420813181820F931F20915105309136
:1037A00052052817390709F061C0F0935205E093DC
:1037B0005105DF91CF910895EA01CE17DF07E8F5B3
:1037C0004A815B819E0141155105B1F7E901FB83F7
:1037D000EA8349915991C40FD51FEC17FD0761F495
:1037E000808191810296840F951FE90199838883D6
:1037F000828193819B838A83F0E0E0E012968D9131
:103800009C9113970097B9F52D913C911197CD019B
:103810000296820F931F209151053091520528176F
:10382000390739F6309751F5109254051092530527
:10383000B0935205A0935105BCCFD383C28340817E
:103840005181840F951FC817D90761F44E5F5F4FF0
:1038500088819981480F591F518340838A819B81B8
:10386000938382832115310509F0B0CFF09354057D
:10387000E09353059ECFFD01DC01C0CF138212827D
:10388000D7CFB0E0A0E0E7E4FCE10C9471198C0123
:10389000009751F4CB010E941C1B8C01C801CDB7CD
:1038A000DEB7E0E10C948D19FC01E60FF71F9C01D7
:1038B00022503109E217F30708F49DC0D901CD91D8
:1038C000DC911197C617D70798F0C530D10530F3B2
:1038D000CE0104978617970708F3C61BD70B2297CC
:1038E000C193D1936D937C93CF010E94B81BD6CF27
:1038F0005B01AC1ABD0A4C018C0E9D1EA0915305B4
:10390000B0915405512C412CF12CE12C109731F53C
:1039100080915105909152058815990509F05CC078
:103920004616570608F058C080910701909108018B
:10393000009741F48DB79EB740910B0150910C0157
:10394000841B950BE817F90708F055C0F093520552
:10395000E0935105F90171836083A0CF8D919C9113
:10396000119712966C90129713967C901397A81546
:10397000B90559F56C0142E0C40ED11CCA14DB0430
:1039800020F1AC014A195B09DA011296159780F013
:103990006282738251834083D9016D937C93E114D9
:1039A000F10471F0D7011396FC93EE93129776CF42
:1039B00022968C0F9D1FF90191838083F301EFCF35
:1039C000F0935405E093530569CF4816590608F45F
:1039D0002C017D01D3019ACFCB010E941C1B7C01DD
:1039E000009749F0AE01B8010E94FE1CC8010E9478
:1039F000B81B870153CF10E000E050CFFB01DC0182
:103A000002C001900D9241505040D8F70895FB013B
:103A1000DC018D91019080190110D9F3990B089563
:103A2000FB01DC0101900D920020E1F7089510E008
:103A3000CDE7D0E004C0FE010E94161B2196CE37D0
:083A4000D107C9F7F894FFCF8C
:103A4800013B033B033C00000055058000B302B670
:103A580002C602D302DC02E902CDCCCC3D0AD72350
:103A68003C17B7D13877CC2B329595E6241FB14F48
:103A78000A000020410000C84200401C4620BCBE8D
:103A88004CCA1B0E5AAEC59D74000000007401DEBE
:103A9800000B01C1013C011A012E012F2F22225CCB
:103AA8005C6208660C6E0A720D7409000D0A006EDD
:103AB800616E00696E66006F7666003F3F3F006585
:103AC8006D69745F3433330066756E6374696F6E45
:103AD8005F6E616D6500706172616D6574657273AA
:103AE80000646174615F70696E006269745F6C651F
:103AF8006E67746800636F646500656D69745F3430
:103B080033335F636861636F6E00656D69745F6905
:103B180072007365745F736572766F00616E676CAF
:103B28006500726563765F34333300656E61626C7D
:103B38006500726563765F646874007B2266756EE3
:103B48006374696F6E5F6E616D65223A2264687492
:103B58005F74656D7065726174757265222C227070
:103B68006172616D6574657273223A7B2276616C4D
:103B78007565223A007D7D007B2266756E637469E7
:103B88006F6E5F6E616D65223A226468745F687556
:103B98006D6964697479222C22706172616D657433
:103BA800657273223A7B2276616C7565223A0055FC
:103BB8006E6B6E6F776E20656E636F64696E6700FB
:103BC8007B2266756E6374696F6E5F6E616D6522C8
:103BD8003A22726563765F343333222C2270617225
:103BE800616D6574657273223A7B2276616C7565C6
:103BF800223A004F6B00496E636F6D706C65746597
:103C0800496E70757400496E76616C6964496E70AE
:103C18007574004E6F4D656D6F7279004E6F7453F9
:103C28007570706F7274656400546F6F4465657069
:023C380000008A
:107E0000112484B714BE81FFF0D085E080938100F7
:107E100082E08093C00088E18093C10086E0809377
:107E2000C20080E18093C4008EE0C9D0259A86E02C
:107E300020E33CEF91E0309385002093840096BBD3
:107E4000B09BFECF1D9AA8958150A9F7CC24DD24C4
:107E500088248394B5E0AB2EA1E19A2EF3E0BF2EE7
:107E6000A2D0813461F49FD0082FAFD0023811F036
:107E7000013811F484E001C083E08DD089C08234E0
:107E800011F484E103C0853419F485E0A6D080C0E4
:107E9000853579F488D0E82EFF2485D0082F10E0AE
:107EA000102F00270E291F29000F111F8ED06801E7
:107EB0006FC0863521F484E090D080E0DECF843638
:107EC00009F040C070D06FD0082F6DD080E0C81688
:107ED00080E7D80618F4F601B7BEE895C0E0D1E017
:107EE00062D089930C17E1F7F0E0CF16F0E7DF06D8
:107EF00018F0F601B7BEE89568D007B600FCFDCFD4
:107F0000A601A0E0B1E02C9130E011968C91119780
:107F100090E0982F8827822B932B1296FA010C0160
:107F200087BEE89511244E5F5F4FF1E0A038BF0790
:107F300051F7F601A7BEE89507B600FCFDCF97BE46
:107F4000E89526C08437B1F42ED02DD0F82E2BD052
:107F50003CD0F601EF2C8F010F5F1F4F84911BD097
:107F6000EA94F801C1F70894C11CD11CFA94CF0C13
:107F7000D11C0EC0853739F428D08EE10CD085E9AC
:107F80000AD08FE07ACF813511F488E018D01DD067
:107F900080E101D065CF982F8091C00085FFFCCF94
:107FA0009093C60008958091C00087FFFCCF809118
:107FB000C00084FD01C0A8958091C6000895E0E648
:107FC000F0E098E1908380830895EDDF803219F02E
:107FD00088E0F5DFFFCF84E1DECF1F93182FE3DFCA
:107FE0001150E9F7F2DF1F91089580E0E8DFEE27F6
:047FF000FF270994CA
:027FFE00040479
:0400000300007E007B
:00000001FF
